{
    "data": "a9059cbb000000000000000000000000d8b4948f7c1920ceed8429162c29a91ff791723300000000000000000000000000000000000000000000000000000246139ca800",
    "gasprice": "22000000000",
    "hex": "f8ac820a5d85051f4d5c00830249f0949af2c6b1a28d3d6bc084bd267f70e90d49741d5b80b844a9059cbb000000000000000000000000d8b4948f7c1920ceed8429162c29a91ff791723300000000000000000000000000000000000000000000000000000246139ca80025a0cc8315f5a104335bfb1138849db9a66fe3a27767c1007001db67f0a15371677fa01a94b7b1fd43e803e0e025b9385d4c592895901b1d0b10af0e3b617dcec6119a",
    "nonce": 2653,
    "r": "92503429635289534623487521382321982862045984475985577605413294815728676988799",
    "s": "12022895246916094564772705209201173364557093860645065057602719400339966398874",
    "startgas": 150000,
    "to": "0x9af2c6b1a28d3d6bc084bd267f70e90d49741d5b",
    "txhash": "0026ada07bbd9863373cd3bd6e48cb1368f66846eca44efcb0f5a56f2e82a16f",
    "v": 37,
    "value": "0"
}