{
    "data": "",
    "gasprice": "1000000000",
    "hex": "f86e8349a36e843b9aca0082c350949ede0a942e8675f51c40ae3385cb17a55b81be038802f4e8b4dfcb5ce08025a0ed7da627193e427b599190023340081fd881afa6c8a592aaaf897d418a62a24ea02568a7014ada2a39b14de6bed5299eae2174e6b864af8496bef548f79dd396cf",
    "nonce": 4825966,
    "r": "107420147741321338782682462992219287000363525350267956639180635075341147349582",
    "s": "16920480118800526466780182444227233889093503615155985971614591334576406369999",
    "startgas": 50000,
    "to": "0x9ede0a942e8675f51c40ae3385cb17a55b81be03",
    "txhash": "00417e75d7a54af932ad16acd58dea555ab4ea4d9cf4d1b888e812fa514b908e",
    "v": 37,
    "value": "213050945939660000"
}