{
    "data": "",
    "gasprice": "20000000000",
    "hex": "f86d018504a817c8008301921694919c9b9621b3da0809431b213c431a796cb8fa1f88011173409d874c008025a0cf421e71925431c8ebf83b13fbb7c6227c2845cae80164ee44719cdcbb35fcfda03fd09cf160eee5b7c338145cae9d79e213955fc46bf4279e7f9f72836410181d",
    "nonce": 1,
    "r": "93745581677286123044450088005372764194498611455060909807960614156440840830205",
    "s": "28864296830205189182978390316083512123906753685434850716803321375126453229597",
    "startgas": 102934,
    "to": "0x919c9b9621b3da0809431b213c431a796cb8fa1f",
    "txhash": "0056c22860333f48450db1e2bc2f706dfbe379495deb902dbe698f866bc23f4c",
    "v": 37,
    "value": "76969390000000000"
}