{
    "data": "a9059cbb00000000000000000000000084af694c42093690f0081e45dccd99965a75f44200000000000000000000000000000000000000000000000000000447ef101e00",
    "gasprice": "5000000000",
    "hex": "f8a90185012a05f20082ea6094f3db7560e820834658b590c96234c333cd3d5e5e80b844a9059cbb00000000000000000000000084af694c42093690f0081e45dccd99965a75f44200000000000000000000000000000000000000000000000000000447ef101e0025a02e745d9ff61015621710f42b0b09601ddf084550b21a9e2d804fe060bb0e754fa0443b5ebe6f0eef4bd77eea51eb995f0553848e3af4a19873f1b063ce629a4055",
    "nonce": 1,
    "r": "21011991469299758176903367130457699123346138052445897124262332602345453417807",
    "s": "30862171578726312331868658029037558536094065835871751563664230561945669484629",
    "startgas": 60000,
    "to": "0xf3db7560e820834658b590c96234c333cd3d5e5e",
    "txhash": "00bdb07cdbeb1e4ecbf6e8614cdea6a3d6d38fcbc3d9b5e1ef3dc52ee8744957",
    "v": 37,
    "value": "0"
}