{
    "data": "",
    "gasprice": "90000000000",
    "hex": "f8708345b0c38514f46b0400830249f094285b8206c6985ddae32a2180296e88a98c77274288114ca29ed8c360008025a0295293f82a79a88891c114090bebdfbcd0adfdb0df17e18174e18161b1855f94a010b2d2f9a786346e05a923a58bfa891380ea205e25e064cd3f3e0beb4e20191e",
    "nonce": 4567235,
    "r": "18690729498478664690357065674813222145655762579432304360241448246729765117844",
    "s": "7552960452264722126261286594408027423322237597248005858741372226387994220830",
    "startgas": 150000,
    "to": "0x285b8206c6985ddae32a2180296e88a98c772742",
    "txhash": "00fbdb469c598c29de6cb1af571c76e174c7fce6f92fdd558d2d2fd12b60d0fe",
    "v": 37,
    "value": "1246550000000000000"
}