{
    "data": "",
    "gasprice": "1000000000",
    "hex": "f86c03843b9aca008252089411d124039e61454857446d3e7b31340d6ada18c3890421c3d62b4c4600008025a0f740c96ba12a527a140a599e22ad214167d6cf676794ed0478dbbb312aa2c06ea036706080a0c25e769f74b63a359925e562d09d999b94c981ccf10225d834350b",
    "nonce": 3,
    "r": "111835741964915302105451141611266435506253585104869146276994426792153693995118",
    "s": "24623446730203954741261562337711125943916604570084174238161651383444056585483",
    "startgas": 21000,
    "to": "0x11d124039e61454857446d3e7b31340d6ada18c3",
    "txhash": "0231bb96e21418fdf8f4373fb88be4f06254b900c77f7be7751f348107cec80c",
    "v": 37,
    "value": "76220000000000000000"
}