{
    "data": "",
    "gasprice": "4000000000",
    "hex": "f86d8204d284ee6b280082c35094711d282c81766966a663cfae94703cd55fa2a7cc8801bd7d2d0826c2008025a067898b1bbebb8697fd9e818ff473990431a85d8ee061fca44967272b628acef4a027525fbacdb675a76c5978110d68a81134d2e04f6bc22913d68dbb8d990769a9",
    "nonce": 1234,
    "r": "46831241542698319595878676565337752917935591248120381538865482926550386659060",
    "s": "17785743256176321167260508735093812918710424177453530616323197303090710014377",
    "startgas": 50000,
    "to": "0x711d282c81766966a663cfae94703cd55fa2a7cc",
    "txhash": "02b949cda62e0e7fcc349371736033b080bbef76d06294473c886336fb2ceef6",
    "v": 37,
    "value": "125393997000000000"
}