{
    "data": "",
    "gasprice": "90000000000",
    "hex": "f8708345b0c98514f46b0400830249f094c1567cb013dbf17f8fb13a94e1424d3e6ae5156a8805a94143a29490008025a0b8861ca1d9292c7beb36643103da71f980dc3ce70f7bf275221a094a98658ad2a040d70f1cdef65b8967385528dab4f72334b37c72f12382fb11d2f97e3090f9f8",
    "nonce": 4567241,
    "r": "83462519258320147704809168070345374703152698949089342670311390419985839262418",
    "s": "29327998732810784399978744169191037664859837160985385554914359792489848699384",
    "startgas": 150000,
    "to": "0xc1567cb013dbf17f8fb13a94e1424d3e6ae5156a",
    "txhash": "0369cc5de12aaa0694cbaf522ff170c169e4222c1dae9eb8583cf864493a1293",
    "v": 37,
    "value": "407929000000000000"
}