{
    "data": "",
    "gasprice": "100000000000",
    "hex": "f86f8303a94185174876e80082520894865b5260b978072873f3b8aebc4b4961e8f63483880209b0ee34c0b0008026a0f3e4666c7943223ff269c38021b9c880080abcb4a6a988ff083b852d9157b9f9a0715046ba91d85133fcc955dbe67807815d3889c96d4e2b4271283dbacce118cc",
    "nonce": 239937,
    "r": "110315570239075221222163595733851014732367558905770169854499842027995969075705",
    "s": "51253187807244998088384632942596889211220546120117353554911769803632815446220",
    "startgas": 21000,
    "to": "0x865b5260b978072873f3b8aebc4b4961e8f63483",
    "txhash": "04042d212439170140e00c775ba16dc9021259ace4715bbe615c3fab3d57966f",
    "v": 38,
    "value": "146843000000000000"
}