{
    "data": "d0e30db0",
    "gasprice": "4000000000",
    "hex": "f8700384ee6b28008303d090948d12a197cb00d4747a1fe03395095ce2a5cc68198806ccd46763f1000084d0e30db026a0316b832b7ea01820a282b0c50d8c1ebfed3c3ebcfa5523cc23a718ac249a5f16a0462d0e227c8dbff0f8d0decdf92bed85173ac2bea811e91f2e75762569d05719",
    "nonce": 3,
    "r": "22353287517895684108788079424967391947407243680348622910344492523026588000022",
    "s": "31741505072947752872297198438859436218387100302962941664774938621155453458201",
    "startgas": 250000,
    "to": "0x8d12a197cb00d4747a1fe03395095ce2a5cc6819",
    "txhash": "045500946a6c54b103d44829f3cb29e3623c1cc6bfad98b69a7349d664e731bf",
    "v": 38,
    "value": "490000000000000000"
}