{
    "data": "867904b4000000000000000000000000d50274f953c9bf697857aeef867043bdf105b43d0000000000000000000000000000000000000000000000062e115c008a880000",
    "gasprice": "22000000000",
    "hex": "f8ac82930e85051f4d5c00830493e0946ddca767d731f57d90a516dd751f2aa9282b37d280b844867904b4000000000000000000000000d50274f953c9bf697857aeef867043bdf105b43d0000000000000000000000000000000000000000000000062e115c008a88000026a0e16f93f17eedae64de81d5247d2d449de25c3906d4daf6a9b1ac061e6eeb9c56a05abe04f9ad9a57bc48d2f00316a01a951b80f231e8604786fa1bd21767bf657c",
    "nonce": 37646,
    "r": "101967532022852588176407846726692176393028197843875151018209544517600638901334",
    "s": "41043891653096494628592334735806583263906913711722876258322786367870815135100",
    "startgas": 300000,
    "to": "0x6ddca767d731f57d90a516dd751f2aa9282b37d2",
    "txhash": "05381ba4432b92391eeb1bef913b6f8b77a2a7e9a4dd942bbe94060059120968",
    "v": 38,
    "value": "0"
}