{
    "data": "",
    "gasprice": "1000000000",
    "hex": "f86a05843b9aca00825208948587f4f5e616659bf2110ebb35f6ca3669a0748387f966872f3b80008025a00203fc7d54f7b8a29ab62317c6bddbb673611a76664d764bf7f9023b47c6af91a07aaf80913a11c03879ac8023174e161191b8a0772fd79785f362c79acb68f16b",
    "nonce": 5,
    "r": "911668857381731649497333326592671787793841386769233743214862197888242855825",
    "s": "55492253102334787765980746979197758628823598226759531179594850225216633237867",
    "startgas": 21000,
    "to": "0x8587f4f5e616659bf2110ebb35f6ca3669a07483",
    "txhash": "0546f03ab3ece04dcaf3a1706cd8be3ae133e46b7c754ec0a65b7974e293acef",
    "v": 37,
    "value": "70200000000000000"
}