{
    "data": "bc61394a0000000000000000000000001f3cbf7bb7c73ae23eff1c6939631400451890500000000000000000000000000000000000000000000000000000000000000000000000000000000000000000e41d2489571d322189246dafa5ebde1f4699f4980000000000000000000000002956356cd2a2bf3202f771f50d3d14a367b48070000000000000000000000000a258b39954cef5cb142fd567a46cddb31a6701240000000000000000000000000000000000000000000000bdbc41e0348b3000000000000000000000000000000000000000000000000000004bce85556d55200000000000000000000000000000000000000000000000000000000000000000000000000000000000000000000000000000000000000000000000000000000000000000000000000000000000000000000000000000000000000000005a6b899a06ad96190483a0508069c0d88eb96ca74083f39a59a77133f20df43119e71afb0000000000000000000000000000000000000000000000000010a2585b4d88000000000000000000000000000000000000000000000000000000000000000001000000000000000000000000000000000000000000000000000000000000001bb4319cb60d6e5cfb312742a63ac18ef1b400a94a1bca9bfa5216681494f0e477200ac0c8b901e5bcee73ddfacbfb5b67a9646e05cd7873a928466b0dc2921a4a",
    "gasprice": "1000000000",
    "hex": "f9026a0e843b9aca008301a3a89412459c951127e0c374ff9105dda097662a02709380b90204bc61394a0000000000000000000000001f3cbf7bb7c73ae23eff1c6939631400451890500000000000000000000000000000000000000000000000000000000000000000000000000000000000000000e41d2489571d322189246dafa5ebde1f4699f4980000000000000000000000002956356cd2a2bf3202f771f50d3d14a367b48070000000000000000000000000a258b39954cef5cb142fd567a46cddb31a6701240000000000000000000000000000000000000000000000bdbc41e0348b3000000000000000000000000000000000000000000000000000004bce85556d55200000000000000000000000000000000000000000000000000000000000000000000000000000000000000000000000000000000000000000000000000000000000000000000000000000000000000000000000000000000000000000005a6b899a06ad96190483a0508069c0d88eb96ca74083f39a59a77133f20df43119e71afb0000000000000000000000000000000000000000000000000010a2585b4d88000000000000000000000000000000000000000000000000000000000000000001000000000000000000000000000000000000000000000000000000000000001bb4319cb60d6e5cfb312742a63ac18ef1b400a94a1bca9bfa5216681494f0e477200ac0c8b901e5bcee73ddfacbfb5b67a9646e05cd7873a928466b0dc2921a4a25a0412cfd788fe7ec9fd7c6e48b155edef9ac11a74bbc2da4a63f2fe4f608d2c1cba01abfdc2c64da5b1c0c762994bbecf278dfd9315e8148a048639558eff067887e",
    "nonce": 14,
    "r": "29479825820936968063000165051688988696497163181161568261522708404683240817099",
    "s": "12099121433592600355974382013012941860684389961886777176371520639880338573438",
    "startgas": 107432,
    "to": "0x12459c951127e0c374ff9105dda097662a027093",
    "txhash": "0560c1aa59e663ec72fb6e209f24c87b388bda50ac117caf619ccf6b9c216f91",
    "v": 37,
    "value": "0"
}