{
    "data": "",
    "gasprice": "90000000000",
    "hex": "f8708345b0e58514f46b0400830249f0941eaa4ec6a0db2ecc96a7ad686a635e804c3b7d4b8802dae18fa135a8008025a0ec20b41f0fdd93cbb86923071f765c2499a93a338cc1dcef26cf18479e0a5c73a007688f06c7c9a1d19aad1057f607894a57aa0ba1cf1cbd4f295d99fef2756837",
    "nonce": 4567269,
    "r": "106803614523495380938288988984766057566074020807551082407462552706275716258931",
    "s": "3350929167347180421195678384848677570779694641594091321125443325327154964535",
    "startgas": 150000,
    "to": "0x1eaa4ec6a0db2ecc96a7ad686a635e804c3b7d4b",
    "txhash": "058603f9f53c3945be7b05b47aec866e03da16792cc1f31424cfaf3980b2b5d3",
    "v": 37,
    "value": "205724740000000000"
}