{
    "data": "298c154e000000000000000000000000000000000000000000000000000000000000006000000000000000000000000000000000000000000000000000000000000000a00000000000000000000000000000000000000000000000004563918244f40000000000000000000000000000000000000000000000000000000000000000000e73756e636f6d6d756e6974696573000000000000000000000000000000000000000000000000000000000000000000000000000000000000000000000000001f657468657265756d646f6d61696e7365727669636540676d61696c2e636f6d00",
    "gasprice": "2000000000",
    "hex": "f9014b8201cd8477359400830927c094ddb8c99ddde24195c6155463a1bc7ca95e42c88380b8e4298c154e000000000000000000000000000000000000000000000000000000000000006000000000000000000000000000000000000000000000000000000000000000a00000000000000000000000000000000000000000000000004563918244f40000000000000000000000000000000000000000000000000000000000000000000e73756e636f6d6d756e6974696573000000000000000000000000000000000000000000000000000000000000000000000000000000000000000000000000001f657468657265756d646f6d61696e7365727669636540676d61696c2e636f6d0026a00ceaca879f984081908db1e670920ce9a974dca6aaf6e3d1bd3bf2ab3bcf67daa06a7b84694d96ccd826926d4647ffe29320d84ec632dcf8d8d78a708b0278ed89",
    "nonce": 461,
    "r": "5842594205319477558628011996476733670341061114585128592250528311651161040858",
    "s": "48163398008277236896887460875536084680736738364778036918061361585140941778313",
    "startgas": 600000,
    "to": "0xddb8c99ddde24195c6155463a1bc7ca95e42c883",
    "txhash": "062ba67042deb77bf77d69f5a47940b5a59533dcf4c0148d9c0358fa21c16c6a",
    "v": 38,
    "value": "0"
}