{
    "data": "0f2c9329000000000000000000000000fbb1b73c4f0bda4f67dca266ce6ef42f520fbb98000000000000000000000000e592b0d8baa2cb677034389b76a71b0d1823e0d1",
    "gasprice": "90000000000",
    "hex": "f8b25c8514f46b0400830249f094e94b04a0fed112f3664e45adb2b8915693dd5ff388017cc315e7c18c00b8440f2c9329000000000000000000000000fbb1b73c4f0bda4f67dca266ce6ef42f520fbb98000000000000000000000000e592b0d8baa2cb677034389b76a71b0d1823e0d126a03e9dd8b7209e5aee5f4d9b09677e207d8089886ac4b173e43424f4fc1f453214a00bc095261ef6ebc834ba160a9145bebb4877fa9bcee022daab197f3ec75ad92d",
    "nonce": 92,
    "r": "28322287315649006153354884277927463345014173623702867417030420040511578780180",
    "s": "5315705358797971376600776368070310379972864606230274015394881940906185513261",
    "startgas": 150000,
    "to": "0xe94b04a0fed112f3664e45adb2b8915693dd5ff3",
    "txhash": "0651cc640115adacb93e8fe4af548b5882b784715dba832a3c83493d9042cd5d",
    "v": 38,
    "value": "107174990000000000"
}