{
    "data": "",
    "gasprice": "22000000000",
    "hex": "f86c8085051f4d5c0082a410943f5ce5fbfe3e9af3971dd833d26ba9b5c936f0be880dbbc4fe630588008026a01b6e04a1056c9fdde79977e52a68709c27ea7dcc23864d704fc095fddaf3d966a03c24149e92c80fe9b94fbe049b368d9c5480f1f96dffd21174c77fa585bfab70",
    "nonce": 0,
    "r": "12406832036981862313299853792929402802124635796760848798783344886912602331494",
    "s": "27202519719384409741995886955765947180572219611868250816654114118327622151024",
    "startgas": 42000,
    "to": "0x3f5ce5fbfe3e9af3971dd833d26ba9b5c936f0be",
    "txhash": "07a2d5e7e13bc4c8ad1a928a85b93948706cefaeb1cccc38182e9f640209d8be",
    "v": 38,
    "value": "989601140000000000"
}