{
    "data": "",
    "gasprice": "4000000000",
    "hex": "f86d8204d484ee6b280082c350948f9dd6055e19d54bc2b864bcbdaad3a16ee42c7a8808f5989badc118008026a0f372f7a38c18bfe2cd18ec99ceda5cfa6e3dd37264ecc93de73ca29b588e150aa0154ec5400cfb3248bb1d6acaa51847eacd4e3c2f7b056dda6b448f9ee793c4b6",
    "nonce": 1236,
    "r": "110115151911691334412862401435440551730296450699408838403511832104778796504330",
    "s": "9637745262135296286690550153433589671214465507385518611942269531974836405430",
    "startgas": 50000,
    "to": "0x8f9dd6055e19d54bc2b864bcbdaad3a16ee42c7a",
    "txhash": "080e2d3da0ccfeec62506be36b9eafa364f25d52cd7778b26e8aed04e540d577",
    "v": 38,
    "value": "645589916000000000"
}