{
    "data": "a9059cbb000000000000000000000000478bd00fbab4a11343cde4653b2cf193afe25afd00000000000000000000000000000000000000000000000e1ff9c9006e690000",
    "gasprice": "90000000000",
    "hex": "f8ad8345af728514f46b0400830249f094b97048628db6b661d4c2aa833e95dbe1a905b28080b844a9059cbb000000000000000000000000478bd00fbab4a11343cde4653b2cf193afe25afd00000000000000000000000000000000000000000000000e1ff9c9006e69000025a059ebfdd5af176e4b14d8131a57fc4fc2a8d6b4443e76a015fa513d1a30d25fb1a0283cc17a945a6e453a150e36e4ce12e22ed76750858e144b2ef44cab883513a7",
    "nonce": 4566898,
    "r": "40672804486867296926083120086842113174749325535128270099058482037715727703985",
    "s": "18199860108999202783112245693331091463374656623837324766915424087167003333543",
    "startgas": 150000,
    "to": "0xb97048628db6b661d4c2aa833e95dbe1a905b280",
    "txhash": "08db97a6c241155fd8dae244289e7fdfe8bd7f81e9804e787891db11c9a65119",
    "v": 37,
    "value": "0"
}