{
    "data": "",
    "gasprice": "90000000000",
    "hex": "f8718345b0dc8514f46b0400830249f094284a0e3321e3c613e49e89e91c7d4cdd4ec9c2568901158e460913d000008025a0f10311f67e9e5e43a4c6981cce2e0ac15cc9a8f39225474d0f1d096446fce28ca04b3a55c4508ad134796a3be7545a31b413eb5bf4ab802fabceedaa0c60203c31",
    "nonce": 4567260,
    "r": "109012821024930807966636307999470148790893485111458931077865153617564394119820",
    "s": "34026532714573238798712258454336924456307986662919506060022564972441676823601",
    "startgas": 150000,
    "to": "0x284a0e3321e3c613e49e89e91c7d4cdd4ec9c256",
    "txhash": "0925a8988e4496ec905129e2d1ea4b70991f1dc2d59701fe375064be6e3ad2df",
    "v": 37,
    "value": "20000000000000000000"
}