{
    "data": "",
    "gasprice": "22000000000",
    "hex": "f86b2a85051f4d5c0082520894caa1eb06eb251b330dfc60407db4f9e5ef59c78687038d7ea4c680008026a069da01c667ee1b4914a84eeabeb907553f9adae92b6bffb5444f8cad8a3af0a4a01499dd38182a77eabbdea1d1bae3c4a640d328e1d58b9915be49932f1f631339",
    "nonce": 42,
    "r": "47878034012125562858522805421916456509275815504532377474133207416001565225124",
    "s": "9318111370821040141898447926007097289456954282167965789018408963266102629177",
    "startgas": 21000,
    "to": "0xcaa1eb06eb251b330dfc60407db4f9e5ef59c786",
    "txhash": "0959fceac8ee5cb93e2a55723226c6860014f864e54cc13079cca17157caa81c",
    "v": 38,
    "value": "1000000000000000"
}