{
    "data": "",
    "gasprice": "90000000000",
    "hex": "f8708345b0dd8514f46b0400830249f0944e1278e7e399bcb2e9e465a06189aeccc44e852888d84b41325c6498008025a061c89af19fa2e98adcaaa40283aa6de7838f913e8ec10be580d2607d427c54b0a05401c2c9b74096bd6eefbcf24708fe65103177b39b644af109444e8bf1f21548",
    "nonce": 4567261,
    "r": "44228785108628741666343740295851604579460177540285020462926134563619534034096",
    "s": "37997390505098432152404299620506636361971564165970054040674954511917721457992",
    "startgas": 150000,
    "to": "0x4e1278e7e399bcb2e9e465a06189aeccc44e8528",
    "txhash": "0aea9f460b8d0e0a3e1d6dc83ee60b336b7b936c06d257390d8ffd2a8bbce817",
    "v": 37,
    "value": "15585622620000000000"
}