{
    "data": "",
    "gasprice": "30000000000",
    "hex": "f86d808506fc23ac008252089457b174839cbd0a503b9dfcb655e4f4b1b47b329689056bc5213214daa0008025a038d32e260efcf6bba00253a4c2d2180c5d2c3cadc6af02f7bf35cc26ffe3090ca03f8d6eb74b43ac9995d7e5d6cc53d2a9a2552abb85758d3f7899b236a616b291",
    "nonce": 0,
    "r": "25702642757719517915078123204111747009430586516609388410407509056465011935500",
    "s": "28745599030574183142465612822089155751757775892004868219519059793376454292113",
    "startgas": 21000,
    "to": "0x57b174839cbd0a503b9dfcb655e4f4b1b47b3296",
    "txhash": "0b0a98fe22902d95a9c24fbc0cfc3e9d44934195940e6937147ded18c24fb364",
    "v": 37,
    "value": "99999370000000000000"
}