{
    "data": "",
    "gasprice": "22000000000",
    "hex": "f86c0785051f4d5c0082a410943f5ce5fbfe3e9af3971dd833d26ba9b5c936f0be88507a024d044060008026a05e53b582d3aa1b9ae3d0ec60996dfdba5ef6973e48aab14c5831b64d2a527a5aa07bc447196aa4712956d1e1f444608d2820db1a2594342f857aae65d61308caed",
    "nonce": 7,
    "r": "42665308816376354073415198326020025679349685209843832005989488165805358217818",
    "s": "55981273109658368354518321029068039381217764770713618011527839879250986978029",
    "startgas": 42000,
    "to": "0x3f5ce5fbfe3e9af3971dd833d26ba9b5c936f0be",
    "txhash": "0b18a945bee748c9dc2803aeacc797ed1ea6b709231f015c2a2441542d247550",
    "v": 38,
    "value": "5798950000000000000"
}