{
    "data": "",
    "gasprice": "90000000000",
    "hex": "f86f8345b0e18514f46b0400830249f0940dd00f3204d4146d48cf624f727de37b4e1fe082872c98963c552c008025a09bafdd006021115918e8389e0a19c9c820474fd169e56765dce80d3d311cd955a073fa1bf059228d74bccd7b9b2a37098d5fdb284008c143fe0c259ee014d63000",
    "nonce": 4567265,
    "r": "70419215062808731460138262354349215207228401145776627159546175989429229640021",
    "s": "52457882180195802264980203878085247757000560955903370404217187016817843253248",
    "startgas": 150000,
    "to": "0x0dd00f3204d4146d48cf624f727de37b4e1fe082",
    "txhash": "0b97141e50d1a8eb27f05bfa29493f9d3dc7d325c9bcbdf944535e8f03431c39",
    "v": 37,
    "value": "12552670000000000"
}