{
    "data": "a9059cbb000000000000000000000000e5d66c210033bcf7abddd79ace5e72131882d76d000000000000000000000000000000000000000000000000000000174876e800",
    "gasprice": "1000000000",
    "hex": "f8a880843b9aca00828dbb94afc39788c51f0c1ff7b55317f3e70299e521fff680b844a9059cbb000000000000000000000000e5d66c210033bcf7abddd79ace5e72131882d76d000000000000000000000000000000000000000000000000000000174876e80026a022f6c3cd3c6615b7e9ae860714fba977d05c9718958bab72bf77fad79e1e814ba05c876e50d55da07c3e4eedefdd99969f6ac2f883b5fe843405480728579c54c5",
    "nonce": 0,
    "r": "15814632603453963442053748697346177845085122442088654348940794577654776758603",
    "s": "41852067794769503945243260245224739192225526360800076692561336325978025907397",
    "startgas": 36283,
    "to": "0xafc39788c51f0c1ff7b55317f3e70299e521fff6",
    "txhash": "0c10efcb12e018fbd8baa2f8b6730a3a87c16e62a3529a3e1570a91ae9a4beeb",
    "v": 38,
    "value": "0"
}