{
    "data": "0a19b14a000000000000000000000000da6cb58a0d0c01610a29c5a65c303e13e885887c00000000000000000000000000000000000000000000021e19e0c9bab2400000000000000000000000000000000000000000000000000000000000000000000000000000000000000000000000000000000000000000000001ca4cd10806800000000000000000000000000000000000000000000000000000000000004bfae800000000000000000000000000000000000000000000000000000000da1d7f1400000000000000000000000062111b271e25615870264b4df1453391f28e4108000000000000000000000000000000000000000000000000000000000000001bc205c52356f72f42b97007e51590ded3b775715ad9e837a602f384deaae95ef3396241b1f83e7ad1773732d3b9068e6226bd0538e94f42f676b9ed9fd28c1ab60000000000000000000000000000000000000000000000360bd67ac4a83d979c",
    "gasprice": "6000000000",
    "hex": "f901cb53850165a0bc008303d090948d12a197cb00d4747a1fe03395095ce2a5cc681980b901640a19b14a000000000000000000000000da6cb58a0d0c01610a29c5a65c303e13e885887c00000000000000000000000000000000000000000000021e19e0c9bab2400000000000000000000000000000000000000000000000000000000000000000000000000000000000000000000000000000000000000000000001ca4cd10806800000000000000000000000000000000000000000000000000000000000004bfae800000000000000000000000000000000000000000000000000000000da1d7f1400000000000000000000000062111b271e25615870264b4df1453391f28e4108000000000000000000000000000000000000000000000000000000000000001bc205c52356f72f42b97007e51590ded3b775715ad9e837a602f384deaae95ef3396241b1f83e7ad1773732d3b9068e6226bd0538e94f42f676b9ed9fd28c1ab60000000000000000000000000000000000000000000000360bd67ac4a83d979c25a0411056a469415201f6a8e8453a9964397d49e8e4d44b31915c9bbea881d39a13a0556f4457bffe7b59ac63959c9b249c830412b4fb3eae9c39b37f7016001e725c",
    "nonce": 83,
    "r": "29429202693650508650229834615534997177604245876964035106225109285514010401299",
    "s": "38643183838254320937112290907395435370996478734939997312647710760016539447900",
    "startgas": 250000,
    "to": "0x8d12a197cb00d4747a1fe03395095ce2a5cc6819",
    "txhash": "0c27ea67e011497fab14b05425f7a889625e06737d5ad8a23d748d185ca662fd",
    "v": 37,
    "value": "0"
}