{
    "data": "",
    "gasprice": "20000000000",
    "hex": "f870832e77798504a817c80083015f90947a670846742d7d1c2ff5baf051a8cb8ef997f37188010a3f68110938008026a0704721a197bad1104a42a039de19333e10ce1e0a09579e1ac49de7b02aeccfb7a039af3c9c1b9101cd4367089321f5569ed36dfbc01e71f1a629153e88200c83d0",
    "nonce": 3045241,
    "r": "50784717297084966241244017731858800326184210944369378306732861911903633199031",
    "s": "26091448919017973214934149888051023309170520900858850641266959641991812252624",
    "startgas": 90000,
    "to": "0x7a670846742d7d1c2ff5baf051a8cb8ef997f371",
    "txhash": "0cd32a1c1dcaf2d95d0cf89204c2483d7acfec0475b2f14ccdefa32fc5ed45a9",
    "v": 38,
    "value": "74942060000000000"
}