{
    "data": "3d7d3f5a00000000000000000000000000000000000000000000000000000000000754c8000000000000000000000000000000000000000000000000002386f26fc10000000000000000000000000000000000000000000000000000000aa87bee538000000000000000000000000000000000000000000000000000000000000002a300",
    "gasprice": "2000000000",
    "hex": "f8eb82066c8477359400830397939406012c8cf97bead5deae237070f9587f8e7a266d80b8843d7d3f5a00000000000000000000000000000000000000000000000000000000000754c8000000000000000000000000000000000000000000000000002386f26fc10000000000000000000000000000000000000000000000000000000aa87bee538000000000000000000000000000000000000000000000000000000000000002a30025a0bbd54313498e34d8311b658933ea17b966f7f8ef820938435df3ca96397c88a3a02e7fcd77c07e8fc3c95f21a4c2628ba837b6ae1792a49e7ef5e6404c03172d39",
    "nonce": 1644,
    "r": "84959304046859129753074728884373692810012036602780313080836756241841852811427",
    "s": "21032198698563878546563932553270247858253162712439151093532262758885640056121",
    "startgas": 235411,
    "to": "0x06012c8cf97bead5deae237070f9587f8e7a266d",
    "txhash": "0cf4c8f04e968fd7dee77fea1d7228f98524825dddd32adf6727d021acba6d72",
    "v": 37,
    "value": "0"
}