{
    "data": "",
    "gasprice": "41000000000",
    "hex": "f86c0385098bca5a0083030d40942097175d0abb8258f2468e3487f8db776e29d0768711c37937e080008026a01277e898cd2d3133fb4ca4a340904346acaa3570e88ebfd1356e5f4de5e7cf15a0099d48c4d2e4c6a928adf4049e58bc04e8dfb9ba9004441a9cd03176b3e22384",
    "nonce": 3,
    "r": "8353491399879382328218468019264400701452707131230570718268310495721133952789",
    "s": "4348712858515813762947323270052650388472782815895256700063367468699919459204",
    "startgas": 200000,
    "to": "0x2097175d0abb8258f2468e3487f8db776e29d076",
    "txhash": "0d512207c2304eaf318f9801ce95f8e9764274bfc8e56fc6a7be1a78460d5ab5",
    "v": 38,
    "value": "5000000000000000"
}