{
    "data": "a9059cbb000000000000000000000000a82f663237a77c779eb1e5ca135ff0b2bab3865100000000000000000000000000000000000000000000006c6b935b8bbd400000",
    "gasprice": "1000000000",
    "hex": "f8ab820628843b9aca008301318994e3d631a5fc2aa15d8f051e5ecc8b7979312c4aef80b844a9059cbb000000000000000000000000a82f663237a77c779eb1e5ca135ff0b2bab3865100000000000000000000000000000000000000000000006c6b935b8bbd40000026a06fca8f3fc244f70e0c45588279818e29f3da18f76da9fe61991141b2fd8880ada0408b8691898ea56d7f5dfba01b39fbfa1b35f24ff0ad36bcb3b458ba779fa6de",
    "nonce": 1576,
    "r": "50564617968490988988178510244759430101626169005491465406482466771698906071213",
    "s": "29194542809022446152576773085048589546959348982997774933171691488169085085406",
    "startgas": 78217,
    "to": "0xe3d631a5fc2aa15d8f051e5ecc8b7979312c4aef",
    "txhash": "0d7b34f377bd0ecf5169d227092c414e4cd7be1649b192fc325dafc0d3eb2e89",
    "v": 38,
    "value": "0"
}