{
    "data": "",
    "gasprice": "20000000000",
    "hex": "f86c3a8504a817c800825208944dae4be7c3a05b15c4c92c35c210ad0fb59e3d76880162ea854d0fc0008026a06a7ef2ad820e948bb79125616d482a8eb29f3b431f5f174e7c35c31df9e24360a0696ed968d96c7a848972f332e0ee4c16701870ab3cbcd34ab5fb8493235e2ca8",
    "nonce": 58,
    "r": "48169459580371606213308899364979494717034733167006409484564847574012536177504",
    "s": "47688702784057692784975262524644689948915479182383924994327091318350002662568",
    "startgas": 21000,
    "to": "0x4dae4be7c3a05b15c4c92c35c210ad0fb59e3d76",
    "txhash": "0da4338f535cca49e038fec45ca4222c7a94558a997bda583f132051769a44d0",
    "v": 38,
    "value": "99900000000000000"
}