{
    "data": "",
    "gasprice": "21000000000",
    "hex": "f86d808504e3b2920083015f9094f8eaa5ea7df6e9744b91f51e1e1834d94621b9da8804283f52c84570008025a0d5fbfb35a0a167c6d9adb87181f32529966be6c8b255e8694f6cbea28982e98ea04195b530e2f012490e825ca1e35e3d9504a3301fd0ad23752c762f0f278ccae7",
    "nonce": 0,
    "r": "96787849145621697968961503366081029045079639325592368999843223724955447519630",
    "s": "29664845904629841198652402661421946222100724758681616583022134482429897657063",
    "startgas": 90000,
    "to": "0xf8eaa5ea7df6e9744b91f51e1e1834d94621b9da",
    "txhash": "0e23cd5d0f1498aa34995ff370d818ff708fc56316fe83171ca0f5b8bdcd71b7",
    "v": 37,
    "value": "299559000000000000"
}