{
    "data": "",
    "gasprice": "51900000000",
    "hex": "f86f83111dc3850c157b270083030d4094e5af1d9f3525ac3356f574e35bb36e3aebd0e9e68801c871f5d2f114008026a0d452a05672503645d1901fbc38c87e03ae6ba113046fdb5e03703eecd36705ae9ff1ef6ea1a1a3b3a3ef779cee9e9f7dc7f92a36bc4c46d78e8d0af9d7ddf971",
    "nonce": 1121731,
    "r": "96036311968973800269606386811330262955197127982885491729518104672715992925614",
    "s": "427462642604380530337144244156431821172827880974214904344089542773094349169",
    "startgas": 200000,
    "to": "0xe5af1d9f3525ac3356f574e35bb36e3aebd0e9e6",
    "txhash": "0e737bad5c570114df3fda9bf88998d448e18827f5210a7631778c17c5f0e26f",
    "v": 38,
    "value": "128477890000000000"
}