{
    "data": "",
    "gasprice": "21000000000",
    "hex": "f86d808504e3b2920083015f9094b22670ed255a63ec740e5b20b3461f9e6537840a884563918244f400008026a0a213e28d78a3419626c4b6b5a69862877de9b5d00e4d7517382eb2fbf4f29dbfa03037296a5867abf228520fb0c05eeaa4db74da43686da3859efe6a5f81471b2a",
    "nonce": 0,
    "r": "73309815173451433658823205317525678343907792606148879322819519204319871278527",
    "s": "21808479159224292626766642903569860248450027285234019200067251915149946592042",
    "startgas": 90000,
    "to": "0xb22670ed255a63ec740e5b20b3461f9e6537840a",
    "txhash": "0eab86da5e975fbbbacc9b8e520b4fc5ee3cc7482a8ba7a43195877b9be43560",
    "v": 38,
    "value": "5000000000000000000"
}