{
    "data": "",
    "gasprice": "22900000000",
    "hex": "f86e820aff850554f2450083015f909464be9811e26d12695c183092b08188d93190c3e487e53932cbf948008025a0354a05c52fa96086364537075a7ac7ce9fb7e111c5fc7990beb1678862cfc8bda06687dbf91cc789d6f0847b68c6dad340fcb67ac605b693cdc10ae9f863c11d24",
    "nonce": 2815,
    "r": "24103367482567301790153916986299271518061673366632812509928291711176699529405",
    "s": "46375953107745750270707204806208468317971898735223851661140887409250508283172",
    "startgas": 90000,
    "to": "0x64be9811e26d12695c183092b08188d93190c3e4",
    "txhash": "0eb7e4489b585224f32ca6955da78602f7f91d7569b612c90611e77c3e1da870",
    "v": 37,
    "value": "64520660000000000"
}