{
    "data": "",
    "gasprice": "21000000000",
    "hex": "f86d808504e3b2920083015f9094fda44bef079bc0ad99ace6868f255916f03574028806535cae128f54008026a0c1d94bef101a1bf83ce0e9f96dcd062f10632e8cd46071fcd56bd6b8f9112cf8a00fe0e2eef04d91d7257d3663090568347d8c18ab5cb7c13a8364d7c98d39d64c",
    "nonce": 0,
    "r": "87680309665726322488718773398542371872024561478935176223997821966381241937144",
    "s": "7182032707707895684389431444276232794008601334454612723674973117566133327436",
    "startgas": 90000,
    "to": "0xfda44bef079bc0ad99ace6868f255916f0357402",
    "txhash": "0f346238311813bf28147654a4ed7f899f80e4bc00833100a17b0db0b9694a56",
    "v": 38,
    "value": "455809890000000000"
}