{
    "data": "",
    "gasprice": "21000000000",
    "hex": "f86e82c6928504e3b2920082c35094500076420538b9808cf5679726294f14bc25576f88a8cacbf8131644008025a07a34e8fd6a3d31cf6ef91917d2cacbe653632cc6152197783be620f52c128569a03c4fa327b0306e694b23093c6a4aa1d1fc1e88071052090b8d046b7d52902d8e",
    "nonce": 50834,
    "r": "55275651611734214470005921027252038956703811119224883649984284319796836861289",
    "s": "27279477887760809357685654445691679621425966833931509841774134024187270933902",
    "startgas": 50000,
    "to": "0x500076420538b9808cf5679726294f14bc25576f",
    "txhash": "0f579b1ba29e32a13b266ee844d7dec4869fae3a9f47e00dfe801c170b2d38d6",
    "v": 37,
    "value": "12162758010000000000"
}