{
    "data": "0c37348d000000000000000000000000bc15e55568f3938f29b983c3a9d238547187989c0000000000000000000000000000000000000000000001e509fad7b23253000000000000000000000000000000000000000000000000000000000000000008fc00000000000000000000000000000000000000000000000000000000000000800000000000000000000000000000000000000000000000000000000000000042307833326139646438313162323832643533396463396232613534353335646162356161656262623566336435393963663661633461333361643965633864336363000000000000000000000000000000000000000000000000000000000000",
    "gasprice": "35000000000",
    "hex": "f9016d820788850826299e0083030d409450ca2de80e803bf4b00f188545bca959540c558280b901040c37348d000000000000000000000000bc15e55568f3938f29b983c3a9d238547187989c0000000000000000000000000000000000000000000001e509fad7b23253000000000000000000000000000000000000000000000000000000000000000008fc0000000000000000000000000000000000000000000000000000000000000080000000000000000000000000000000000000000000000000000000000000004230783332613964643831316232383264353339646339623261353435333564616235616165626262356633643539396366366163346133336164396563386433636300000000000000000000000000000000000000000000000000000000000026a0ea91d3ac241bdaa656627154aa1bc76c0d9d273c60c2b76d49a741a841a25c16a04d21b8e6dc2a0cf59c7ca677b9368ac7221540f2c1d0ed8b46886e54498e4fcb",
    "nonce": 1928,
    "r": "106098860302269901178457281235779636165530994232623827886891231481224388303894",
    "s": "34887671439350744285924207928658365699992494847160363140621070861838391857099",
    "startgas": 200000,
    "to": "0x50ca2de80e803bf4b00f188545bca959540c5582",
    "txhash": "0f7e950737839fc56f70546569c97d744e3378c0c40a47d3afdb23693eff3db6",
    "v": 38,
    "value": "0"
}