{
    "data": "",
    "gasprice": "1000000000",
    "hex": "f86a22843b9aca00825208940a7dc6fe298ee20cc0ecfa4b8739451abaa2fcc287110d9316ec00008025a0a3e4eedd7fe4d5debda4fb6ded078a7bf55f8620ea873f2c475277a4cb1a8945a05227509021d3ef3e2283bfb1c1523c0298f89b1f168130e5bd5998fab0a598aa",
    "nonce": 34,
    "r": "74131484037089441004113786576064097235774942008797171400575315622084745005381",
    "s": "37159116644856754588941717825893906274800854638484796821617080783569798142122",
    "startgas": 21000,
    "to": "0x0a7dc6fe298ee20cc0ecfa4b8739451abaa2fcc2",
    "txhash": "10669c34ab26600f1278f7c2784008fe958941e06d625def7d1b64aa4946a499",
    "v": 37,
    "value": "4800000000000000"
}