{
    "data": "",
    "gasprice": "22000000000",
    "hex": "f86c0185051f4d5c0082a410943f5ce5fbfe3e9af3971dd833d26ba9b5c936f0be886f61f7128d1e9c008025a06b3652b6ee92dd453c9a5f82873a7c2afd59ca126c71c102d654e55c2e7a2a53a02ae5d1bb25cf8b563402f391c820dbeaba2d06e189e57cf6761445dd8bcf6a62",
    "nonce": 1,
    "r": "48493455414943008458762812641241746819926661683156147157856924549157211482707",
    "s": "19403195128809877866227613867869509290920355899652098742018795418207619344994",
    "startgas": 42000,
    "to": "0x3f5ce5fbfe3e9af3971dd833d26ba9b5c936f0be",
    "txhash": "109c50ee93611999784ef10ac579a57900743f4680ebca07f131a2468ce13060",
    "v": 37,
    "value": "8025967670000000000"
}