{
    "data": "",
    "gasprice": "22900000000",
    "hex": "f86d82b0c1850554f2450082520894b99baad747c63d22a7dc979fb5791b2508d1e7698702b7c37140d0008026a0466adfa4a63080724c5d2beda40ebe7fec0f92b7ce04f9df7f79b9c8cd91308da0274884ad315223337691a7114959dd6af5a8b8d331085b7977685f8b6132650e",
    "nonce": 45249,
    "r": "31850728718063536510698094117083458796777474173258589394295656440034657120397",
    "s": "17768329783194074290825692303456925034508586143339385634158678353717308318990",
    "startgas": 21000,
    "to": "0xb99baad747c63d22a7dc979fb5791b2508d1e769",
    "txhash": "10ecdebe37e38e1481b610963dac7b1fad545e0a783d16987023abab8581c0ec",
    "v": 38,
    "value": "765000000000000"
}