{
    "data": "a9059cbb000000000000000000000000f4062f9e89473b258b034435018a2e83538f7deb000000000000000000000000000000000000000000000099a733a6b487300000",
    "gasprice": "100000000000",
    "hex": "f8ad8303a8a485174876e800830198a8948f8221afbb33998d8584a2b05749ba73c37a938a80b844a9059cbb000000000000000000000000f4062f9e89473b258b034435018a2e83538f7deb000000000000000000000000000000000000000000000099a733a6b48730000026a07c7478b13ae99004e32ba7392c86b9c723c94281a630ecbd1c5c9add0527dbcda05af633122bce7af7ad3e0a633048769a238a33f863dbf1473b013abd3cd3218f",
    "nonce": 239780,
    "r": "56292580471515694680838856468884479204010754140665971153858446843469527243725",
    "s": "41143153229385553453724760419106206028812208645466627315052843253758763934095",
    "startgas": 104616,
    "to": "0x8f8221afbb33998d8584a2b05749ba73c37a938a",
    "txhash": "114bf74945d6e88d9097153452251c2ac61372233d6059f4fef7f25eb2d518ce",
    "v": 38,
    "value": "0"
}