{
    "data": "",
    "gasprice": "4000000000",
    "hex": "f86d8204d584ee6b280082c35094604df22c51ea3aadf86857c20922c510a53f50f08801645a4570c204008025a0ad651d4fb2e97c4457ac6da103ebceeba7758e9cb914e8beec4f8ff4eac8fa15a0324a9bb7c90e151383cb5e3f08c457519435c09c370e0e818496842088e27ea8",
    "nonce": 1237,
    "r": "78428776657769183883900666889380465894672107229208854082039715261211570928149",
    "s": "22747463837484476244535577446888227060399696454984505133358959202587925184168",
    "startgas": 50000,
    "to": "0x604df22c51ea3aadf86857c20922c510a53f50f0",
    "txhash": "115e016772c91fe1046c029717fa1b27c046d220c4e33532814cf3e88793172e",
    "v": 37,
    "value": "100304346000000000"
}