{
    "data": "",
    "gasprice": "2000000000",
    "hex": "f86b03847735940082520894934cb541389efb3b59b1ed14c737ce14de62f5ec8802c68af0bb1400008025a0f03a7e922a4d4e56979e35997a5bce2e2a59f2b07ff1104f5cfc926def247604a0386a6c08645dc3c11db19b75aefeab2249d9a532c1eb5b3b61245e6f47fd070d",
    "nonce": 3,
    "r": "108658434350387906613267955677591478933113927951421614630215138782037231826436",
    "s": "25517550924384254918876935286965805600253030755630398645461960395055544731405",
    "startgas": 21000,
    "to": "0x934cb541389efb3b59b1ed14c737ce14de62f5ec",
    "txhash": "11686da803fa61f92d2ca9e7a4c5d2439f3b50743a90529d94a14b6a7b593dc6",
    "v": 37,
    "value": "200000000000000000"
}