{
    "data": "a9059cbb0000000000000000000000007764ab6ba9c0490d86968950f9b457f55bb1ceba0000000000000000000000000000000000000000000000001b0fcaab20030000",
    "gasprice": "40000000000",
    "hex": "f8ab8205e28509502f900082cb6f94983f6d60db79ea8ca4eb9968c6aff8cfa04b3c6380b844a9059cbb0000000000000000000000007764ab6ba9c0490d86968950f9b457f55bb1ceba0000000000000000000000000000000000000000000000001b0fcaab2003000026a09a2b90ac4b4405f5b9dda62a8d8f4373b06c8a9c8bce02e6e59f4e680808a9f0a05584f6363234c1c98083cddd3bf142db8b2902f2e0e8704de3091a5e6b8dd26d",
    "nonce": 1506,
    "r": "69733151602119663956513250284926231798847368557051667364564735582078316882416",
    "s": "38681515232854137794628007757389015691100433730891376252740940152410943115885",
    "startgas": 52079,
    "to": "0x983f6d60db79ea8ca4eb9968c6aff8cfa04b3c63",
    "txhash": "1181277e4812c11c9e57e101b25c1795893716e8e9fe15e5ee5ad8b6cc76959f",
    "v": 38,
    "value": "0"
}