{
    "data": "",
    "gasprice": "36000000000",
    "hex": "f86d01850861c4680082520894ba26092ff901913c260a7562c66cf6fb82d9e12d8903898330fb50dc19128026a0f5feeab87b53668ed7cd68fb9eb1af19acf20e4cebb1ca76aca46fc2d5c776c7a03895c4621621387175887c703331d6a4e584e049db75560c9c8c15d9848b8115",
    "nonce": 1,
    "r": "111267047039617031417939927632980994380576578178922475894069706841517483062983",
    "s": "25594135120004177875310138469616724070145372672763987230432992191277775421717",
    "startgas": 21000,
    "to": "0xba26092ff901913c260a7562c66cf6fb82d9e12d",
    "txhash": "11b20e96d7cef84990b3234bfc65c63817eaed05665f7b36e5bf3057a9018a37",
    "v": 38,
    "value": "65249049682225404178"
}