{
    "data": "a9059cbb0000000000000000000000005ea0d9e91df153bbec353a2a41083b787ffb12eb0000000000000000000000000000000000000000000000001808f409e18db800",
    "gasprice": "90000000000",
    "hex": "f8ad8345b0ee8514f46b0400830249f094d26114cd6ee289accf82350c8d8487fedb8a0c0780b844a9059cbb0000000000000000000000005ea0d9e91df153bbec353a2a41083b787ffb12eb0000000000000000000000000000000000000000000000001808f409e18db80026a0a1e1db3dcdb23cbe9dfee365a5109ac35269ca94a8421fc69cb91e32095c2f72a0292809b136dd8a2c07d480c020fb1e26bf02cd44bcd57939c49b4e288ae0a633",
    "nonce": 4567278,
    "r": "73221422360150061189580951864047541154020024587352799704238497852607078084466",
    "s": "18615567567910738407955615087656141144594012294152206036750285347465377916467",
    "startgas": 150000,
    "to": "0xd26114cd6ee289accf82350c8d8487fedb8a0c07",
    "txhash": "11b7905baee77d1ac3005609d4899a53230816913f6d6d44dd89305cac7cb4f7",
    "v": 38,
    "value": "0"
}