{
    "data": "a9059cbb000000000000000000000000ee10a98b789eeff26ea86cca77fdef9d25f7aaa2000000000000000000000000000000000000000000000000000000007ecf12e0",
    "gasprice": "90000000000",
    "hex": "f8ad8345b0ca8514f46b0400830249f0944156d3342d5c385a87d264f9065373359200058180b844a9059cbb000000000000000000000000ee10a98b789eeff26ea86cca77fdef9d25f7aaa2000000000000000000000000000000000000000000000000000000007ecf12e026a097263d8a224c1f1e845fc64cd83b9fbdd51ab51d2ddaa69b67034543451f5b48a0434ef8bdb369b418c5df73226155fa46fc60cf393327d520b4fafca4706c119c",
    "nonce": 4567242,
    "r": "68366805055146530050033713998217529646122052692842965743260477000666362895176",
    "s": "30444491673549870257662075472649061127264652844150059944693283195112550830492",
    "startgas": 150000,
    "to": "0x4156d3342d5c385a87d264f90653733592000581",
    "txhash": "134281b078b88ba6ad47280ffdf5c89b24684827286da3797b1e0e0470ddca4a",
    "v": 38,
    "value": "0"
}