{
    "data": "",
    "gasprice": "100000000000",
    "hex": "f86f831a3f6585174876e80082520894d5b1ad9d17e014a490cf3ca7626d1690f35ceb0a880b8984431c5b7c008025a081d95b7d94e2d89a9337f4aecb51856f5c9dc0ac392b56325c71bf0360ae0767a07379cddbc1d04e9a8b0b3011e1c183a1f007715f8d7631a834ad2b5047c3d12b",
    "nonce": 1720165,
    "r": "58732394724888703078149151094716285353485860221923998915220984937883819181927",
    "s": "52231186864554196178641097432806620648501416378820203581751358636768624890155",
    "startgas": 21000,
    "to": "0xd5b1ad9d17e014a490cf3ca7626d1690f35ceb0a",
    "txhash": "13494765b4bf26cc4a08ceb2a5b10824e4e1d248ad66e5786b152d969047ad0c",
    "v": 37,
    "value": "831341030000000000"
}