{
    "data": "a9059cbb0000000000000000000000007e6c2d7083ad14a19807b025e23b4888a14fb5d9000000000000000000000000000000000000000000000be7b01ece190ee80000",
    "gasprice": "43200000000",
    "hex": "f8ad8304d00e850a0eebb0008301a08c944092678e4e78230f46a1534c0fbc8fa39780892b80b844a9059cbb0000000000000000000000007e6c2d7083ad14a19807b025e23b4888a14fb5d9000000000000000000000000000000000000000000000be7b01ece190ee8000026a04d5c1ec57db0a08f041888efd6789d40e433904072bce802f0f2535e326817ada053627201ed22cb165e00cc460211c5f5547188c1cda41f843d68b7676158d49d",
    "nonce": 315406,
    "r": "34990851647607717075562126990715632956136986078968862022281619106777348446125",
    "s": "37715904295776198953716931781232188692568358147536822229193962057756067812509",
    "startgas": 106636,
    "to": "0x4092678e4e78230f46a1534c0fbc8fa39780892b",
    "txhash": "1370923b9c80fc637a38b86d519c9402d5392b0fd6c7b9ab2b48a98b52ccf540",
    "v": 38,
    "value": "0"
}