{
    "data": "",
    "gasprice": "70000000000",
    "hex": "f87083023f1685104c533c0083015f9094fbaed03fe3505fcd788f788f669a4f383b6636ba88136a3f1678c580008026a045313d3ab25af9fc5f7bf8a6a2aebd19781bd2b1d916cdf13532f97b2d5ac4d8a062db515f3887b6c239ad5a9fde737a5a12ef33f47587974df1fc8d221672b4c7",
    "nonce": 147222,
    "r": "31296584647406596030323921728594381340048636834267382628671466327176220689624",
    "s": "44714160276948913437886897468096431864304306230465410800277548996908220069063",
    "startgas": 90000,
    "to": "0xfbaed03fe3505fcd788f788f669a4f383b6636ba",
    "txhash": "14beed09d56785fe875cea6430b2443d71a58727be73dfc03d36e4a41b5cf857",
    "v": 38,
    "value": "1399000000000000000"
}