{
    "data": "",
    "gasprice": "22000000000",
    "hex": "f86c1d85051f4d5c0082a410943f5ce5fbfe3e9af3971dd833d26ba9b5c936f0be887f0a3b3386174e008025a06b551ed06d2df86f29725415c53a3ab5d3ca9f20779be56204947d09eb396877a055a60bedae1858a2e9ca5b2817e817c6af4fb7e88e67183d8548ef7f0b1aebe8",
    "nonce": 29,
    "r": "48547869470472927644759099102370791919777118587010471433553951759146797328503",
    "s": "38739971069382383832190453003453647011635582810466583666488902149429391977448",
    "startgas": 42000,
    "to": "0x3f5ce5fbfe3e9af3971dd833d26ba9b5c936f0be",
    "txhash": "14e346f6ac4844963fabdc040eeda22d7f0f7ae867ab045892ac62a52bc873f0",
    "v": 37,
    "value": "9154194285062999552"
}