{
    "data": "338b5dea0000000000000000000000007641b2ca9ddd58addf6e3381c1f994aac5f1a32f0000000000000000000000000000000000000000000000222778350cd2b24000",
    "gasprice": "4000000000",
    "hex": "f8a93284ee6b28008303d090948d12a197cb00d4747a1fe03395095ce2a5cc681980b844338b5dea0000000000000000000000007641b2ca9ddd58addf6e3381c1f994aac5f1a32f0000000000000000000000000000000000000000000000222778350cd2b2400025a0fe42ba6814617e572c6d271263441779f3245a51aaedbdc19a74dad91c3eacf9a01006ebbe44a6a443369953d678d633bdd68034b72d1059796630855af3f51fad",
    "nonce": 50,
    "r": "115005361977226344781384778030360901859162236614078306636898692236905285594361",
    "s": "7249233699732083293396849997284264739946758346644753215618097367759862439853",
    "startgas": 250000,
    "to": "0x8d12a197cb00d4747a1fe03395095ce2a5cc6819",
    "txhash": "15401aee8a768a136b10ce8784fd8d7fef14631edaffb032eafcdb269b0f589b",
    "v": 37,
    "value": "0"
}