{
    "data": "",
    "gasprice": "22900000000",
    "hex": "f86d82b016850554f2450082520894135f3e11d45885c0b5d64fe8b0af3bbe0a26db068702b7c37140d0008025a02cfe1738272508f7535a7bef8d99be38bd51e73ed42f156ecb0e6b0692adbdc8a02080280ae7ebe62ababf8758c2eedba3ce870a4f0a1ec27b437cad8e258deabc",
    "nonce": 45078,
    "r": "20350704746162834951764614999393817167352574137734537145007882590807269424584",
    "s": "14700443942833678548337765513642932521760224850306312376545977920509958810300",
    "startgas": 21000,
    "to": "0x135f3e11d45885c0b5d64fe8b0af3bbe0a26db06",
    "txhash": "15bd13f46cd7ede5227f8f7cfb45c6bf3d38e14e0d6d63d9d777f588e9d7278a",
    "v": 37,
    "value": "765000000000000"
}