{
    "data": "a9059cbb0000000000000000000000000a73573cf2903d2d8305b1ecb9e9730186a312ae00000000000000000000000000000000000000000000000000000000a2986fba",
    "gasprice": "10000000000",
    "hex": "f8aa158502540be400830249f0945136c98a80811c3f46bdda8b5c4555cfd9f812f080b844a9059cbb0000000000000000000000000a73573cf2903d2d8305b1ecb9e9730186a312ae00000000000000000000000000000000000000000000000000000000a2986fba25a0dd9936cdda557e23afa113ebf61c56bfe570062cfc20fcb37382fb5d411252baa016c51b14f752f0a122f66fcb075a2f32652a693fbc9eb1504fd178080b4fd8bc",
    "nonce": 21,
    "r": "100231845381898007343043658707456492702180120114664078748000479164510806102714",
    "s": "10299138452989754507536090676679907470555995220995663038903738855264799938748",
    "startgas": 150000,
    "to": "0x5136c98a80811c3f46bdda8b5c4555cfd9f812f0",
    "txhash": "15d7b74d1cdfa694e251b08ab62cc2ffb035ecacd3c9b2b25788543f6669752d",
    "v": 37,
    "value": "0"
}