{
    "data": "6ea056a9000000000000000000000000000000000000000000000000000000000000000000000000000000000000000000000000000000000000000002e0b98fc542e400",
    "gasprice": "90000000000",
    "hex": "f8ad8345b0eb8514f46b0400830249f094b7b03ce91e5826bd8d223b15dedbdb8ef4ddd4a880b8446ea056a9000000000000000000000000000000000000000000000000000000000000000000000000000000000000000000000000000000000000000002e0b98fc542e40025a0a26608f6dfaafd1c1fd1e99a0f1a378cb51453692e512bc7a9a00355d39e79a5a03fb36904934c307fde00d7701fd28aab6bc733d77a857303f40c65510bce1fe0",
    "nonce": 4567275,
    "r": "73454961740769186279302372679891960597181074079871485170650832991520435370405",
    "s": "28812699892059562337843631123760562427704471207660135140327352182347729346528",
    "startgas": 150000,
    "to": "0xb7b03ce91e5826bd8d223b15dedbdb8ef4ddd4a8",
    "txhash": "1609573d950a8fe7c9590b87b688242c63f7cb01895d81a7272e11f65c08a6fd",
    "v": 37,
    "value": "0"
}