{
    "data": "",
    "gasprice": "90000000000",
    "hex": "f8708345b0e38514f46b0400830249f09446bba5af038165aaaacd22be9a30b0bac58f27c38805e16f62c7da7c008025a03b2cc5fee95861b45acab7bd9b859706875e9203621d339babe0f1fe5449776da076d7a0df10ba39a1dca0f3504b47f3e8b3b08c2d2cd43fb5412e26a19be135b4",
    "nonce": 4567267,
    "r": "26765565853693859085986129639372704849150839564068701535655067278250229725037",
    "s": "53753898544997984963815377158312694761275236048981097512341006909689072530868",
    "startgas": 150000,
    "to": "0x46bba5af038165aaaacd22be9a30b0bac58f27c3",
    "txhash": "165fd9f1f257578785cd4e53e66774966486c50afc382d7e9a914090a71930d6",
    "v": 37,
    "value": "423742310000000000"
}