{
    "data": "",
    "gasprice": "22000000000",
    "hex": "f86e82022585051f4d5c0082520894b6aac3b56ff818496b747ea57fcbe42a9aae6218882dbc77c6e85d35f08025a0d948b89b73c6fc7bd35916295949c3d0cc7a51ea676f81d95ff77895e3d61b17a00a424eaf5b1674ecab5d6ee1441a2fb89d9a351bb74adf9614e2d47c89ea80ee",
    "nonce": 549,
    "r": "98280375243545164563951776981266352731275781229060925517570756052053373885207",
    "s": "4640283455906410372138094346759943723577767253087883064435226188658867077358",
    "startgas": 21000,
    "to": "0xb6aac3b56ff818496b747ea57fcbe42a9aae6218",
    "txhash": "167d86277c89168fa323c0553c88386d6102941cdb2a4d16eeabb9674f6879e6",
    "v": 37,
    "value": "3295640723514013168"
}