{
    "data": "47872b422ba4dc6cd535629e6b2a6c378fca2bfa44601142419d50f68e3791d9c8c5728300000000000000000000000000000000000000000000000000276f642501c000fab049995e077f8df87215f780c211a577929a78c045cb58b6e8a100653f7538",
    "gasprice": "1000000000",
    "hex": "f8cb8206e3843b9aca008302332e946090a6e47849629b7245dfa1ca21d94cd15878ef80b86447872b422ba4dc6cd535629e6b2a6c378fca2bfa44601142419d50f68e3791d9c8c5728300000000000000000000000000000000000000000000000000276f642501c000fab049995e077f8df87215f780c211a577929a78c045cb58b6e8a100653f753826a0fee4c37d28168e38cb112aad806c12341499c0b2f0ae8d7db0914ae2cf1e48fea0256e25a2644df0a61e12f78ffe034518f9a0980d20264687092241161beec50a",
    "nonce": 1763,
    "r": "115291653885671862311244578449551897807328648045939115885058334033284878452990",
    "s": "16930188317395961812782015133315939558776608303681341297529885048842090366218",
    "startgas": 144174,
    "to": "0x6090a6e47849629b7245dfa1ca21d94cd15878ef",
    "txhash": "16f8818688b56f04661356db705644b3b350b41a4ee07997b847afc8c3afffe2",
    "v": 38,
    "value": "0"
}