{
    "data": "",
    "gasprice": "16000000000",
    "hex": "f86c018503b9aca000827b0c94c8de4c12747a247205c0527400f6ad7f364d55ff88053eecff4d1900008025a03bdd1c23a70726f7d5399498e1677ac18cf9240f470961e897128de047c1923aa020556be35d67b24a7e6b70407562bc7fb10539f33cad72baf5c1856547c423ef",
    "nonce": 1,
    "r": "27077125477814678297864907872105997758339602303397416865138263464854532756026",
    "s": "14624937771774388499585489832010491699610433465164356499434885252690779317231",
    "startgas": 31500,
    "to": "0xc8de4c12747a247205c0527400f6ad7f364d55ff",
    "txhash": "170c447d48f3b43760a25fd07e5669a36b2053760bf04e17e4059611a497a9e7",
    "v": 37,
    "value": "378000000000000000"
}