{
    "data": "",
    "gasprice": "1000000000",
    "hex": "f86962843b9aca0082520a9468e4cef1ae586f2ce4148c1cfb7919f28f6341c4861b48eb57e0008025a042fd55df269d9f0c5ba4af78f63c125467eda099da2fe02decaba8f2e1506853a065d644bd3b3a22414d54b10fb0c9fad85d8465020774022eeccbd2d5e57e109e",
    "nonce": 98,
    "r": "30300252978458805558539950679856325324668225978421446965104667256756775184467",
    "s": "46062177399191321392372328062854723719571676901284093827293387728554968354974",
    "startgas": 21002,
    "to": "0x68e4cef1ae586f2ce4148c1cfb7919f28f6341c4",
    "txhash": "17e4544f60b72d00911a12235b80b35ca57859a15556fbc388a4917845c8a1e8",
    "v": 37,
    "value": "30000000000000"
}