{
    "data": "",
    "gasprice": "22000000000",
    "hex": "f86c0e85051f4d5c0082a410943f5ce5fbfe3e9af3971dd833d26ba9b5c936f0be882053362d30c010008025a068c509ed5f0b8064937ace11e6e10417e015ebe1722a5e4eabd1273ea5951ff3a03fce5ceb39f430dc7e851291bb6c378123580385578a03ead25b92a7202e72de",
    "nonce": 14,
    "r": "47388673639654926498970937149182271195876083227294799576528690373111078789107",
    "s": "28860321258444756071877493375534837192752006722638659833873108794217816027870",
    "startgas": 42000,
    "to": "0x3f5ce5fbfe3e9af3971dd833d26ba9b5c936f0be",
    "txhash": "18ad1bc4f0cb2510b3be8f4c0a1a6f3600cdf0d5811eb6f0a986de3c69178e75",
    "v": 37,
    "value": "2329265000000000000"
}