{
    "data": "",
    "gasprice": "22000000000",
    "hex": "f86d0185051f4d5c00825208943fbe46602d3e05e7e53f0da1b69fb4818eb0a0fa8901158e460913d000008026a07bf119fffb18e2a844dc9336718c85722f897e1fd5cbc420637315957200322ea05716df279244e87b372afd394a2239d89630e4cd91e4ffe24bf7ada5385f8d11",
    "nonce": 1,
    "r": "56060469963242048741247637125200408464198463222256107257679625438069040099886",
    "s": "39391628618446496302475889342075451478095149347742536771350826190356999015697",
    "startgas": 21000,
    "to": "0x3fbe46602d3e05e7e53f0da1b69fb4818eb0a0fa",
    "txhash": "190bee1475d1f7ec2c8e6c247d7c6b36b10febe665db52b24b95500bbaac88a7",
    "v": 38,
    "value": "20000000000000000000"
}