{
    "data": "",
    "gasprice": "100000000000",
    "hex": "f86e8302ec8f85174876e80082520894c1b8c13db693610694378d37fc25f6e37eb4923988027f7d0bdb9200008026a06146bfbd455257c9f31e88e56d4027c04b539c69897e9bdbe2b44fb8345ae2559ffe2efa27990e4d50b9a84b10c7c9823aa86e909e8776419541cab3a1d8839d",
    "nonce": 191631,
    "r": "43999348943393905704261692855807320088744452819078001906819622812463425839701",
    "s": "449103378942471680148424631652084815245422284307154829099449070578793218973",
    "startgas": 21000,
    "to": "0xc1b8c13db693610694378d37fc25f6e37eb49239",
    "txhash": "1a0993b053359acbedaefb44101a0b4bb284b97c6f4c85bfdfa348c4c801415c",
    "v": 38,
    "value": "180000000000000000"
}