{
    "data": "",
    "gasprice": "21000000000",
    "hex": "f86d808504e3b2920083015f9094dd9e36f8b7cd8356c2a6588ae50d9a0eca88a1cc880ddf259d570b70008025a086a7486d82979b0ed7ae7c402c9ba255f6f22a5f039115e668328706f281f9daa02c1c46e7d928232192b9025b7980f8e19ec3d3c1d5348517bb692a8084fecc91",
    "nonce": 0,
    "r": "60905485048099806747594372344247126759717552125033623013963836871036144581082",
    "s": "19951726428338750092141166230802880831337547247982073866833661530220991007889",
    "startgas": 90000,
    "to": "0xdd9e36f8b7cd8356c2a6588ae50d9a0eca88a1cc",
    "txhash": "1a4c351e6a711e3179009a49ed4196006ea06b6b2e4151bce26c02f78f186cac",
    "v": 37,
    "value": "999559000000000000"
}