{
    "data": "",
    "gasprice": "21000000000",
    "hex": "f86c028504e3b29200825208942390e4158d07bc5e32df5b825dca0ea801f700568810a741a4627800008025a033d916cebfdc0866967421111c6f2b78d366c158891288cf51331fb7e55c600aa027485e0e057fbb8ed761dd7844aabcd75f42562c1a0796a5582f6eef671f039e",
    "nonce": 2,
    "r": "23451518503177301990799161328902446192370650824304929637235279612711228170250",
    "s": "17768063225586392093476231017762265261711670015015653498539251650963777192862",
    "startgas": 21000,
    "to": "0x2390e4158d07bc5e32df5b825dca0ea801f70056",
    "txhash": "1a6304a50d78741e19816e53e6982b8084b433c826fa5e607cb3cd5da6d88777",
    "v": 37,
    "value": "1200000000000000000"
}