{
    "data": "",
    "gasprice": "36000000000",
    "hex": "f86d02850861c468008252089434c7087fadc5984f6ccb739918d0afa39851ebb78901f70828ab75efa6ee8026a04bf90ca1d405f34fc867dffa2e9f0f7ec329e81e8c9a1bd6535e32542c3cb38aa048c0415976a3ed0280fbda445e7168a993670861a8077e48ec090648dd033613",
    "nonce": 2,
    "r": "34363495746711025425264511338767061698374497410550907938026211570617732084618",
    "s": "32906210759874710104846411221267648172683498229896720522823986774378639734291",
    "startgas": 21000,
    "to": "0x34c7087fadc5984f6ccb739918d0afa39851ebb7",
    "txhash": "1a81d775ca6f4842c1123e1772b114b3da55629322d4468811de91ce32e791a5",
    "v": 38,
    "value": "36247266317774595822"
}