{
    "data": "a9059cbb0000000000000000000000009c01d775d148c450b1c8ba6c2afe1cbad7f220fb0000000000000000000000000000000000000000000000000000000003ef1480",
    "gasprice": "100000000000",
    "hex": "f8ad83034e0985174876e800830196f694f230b790e05390fc8295f4d3f60332c93bed42e280b844a9059cbb0000000000000000000000009c01d775d148c450b1c8ba6c2afe1cbad7f220fb0000000000000000000000000000000000000000000000000000000003ef148025a093b2b8d9208338f77c72921aa77a7987ef1ad8aa2656cb2b1edcac59b9bb8236a03920d0a64d005039ac0773010ad2d1f0c703cca57eef3fe2b961c3c3738a0074",
    "nonce": 216585,
    "r": "66805763294330922886642353404937178223317693502554101516751755935353254150710",
    "s": "25839811522019546995635519230204384445554445220762634683704955521998265122932",
    "startgas": 104182,
    "to": "0xf230b790e05390fc8295f4d3f60332c93bed42e2",
    "txhash": "1af1d5aa56542527a9cc221e60b430cbd2d687118bf17ef00425309df2ed2ec7",
    "v": 37,
    "value": "0"
}