{
    "data": "",
    "gasprice": "90000000000",
    "hex": "f86f8345b0de8514f46b0400830249f094cee1df340297ae969cc12b84da04b59493a8bff3875a5ad0a0b6f0008026a0ad7f0e6a9c61aa83df7112776afdda96c706471931c419d55768836f8368fc34a05ef2f54db4cfad7505193ff1643afed753f2b92a9d9c16aae964d0babaf33d87",
    "nonce": 4567262,
    "r": "78474611880804036777359586800877800102179223363791084684480372448218357234740",
    "s": "42946677779315912669588058712914270033594135485979243419743912404745800859015",
    "startgas": 150000,
    "to": "0xcee1df340297ae969cc12b84da04b59493a8bff3",
    "txhash": "1b7c55e4e8d2f8a9ed4a8dcac74de0de7d2e4a2b5ecbfe21975aa5143d1be997",
    "v": 38,
    "value": "25432600000000000"
}