{
    "data": "b1411f970000000000000000000000000000000000000000000000000000000000000003",
    "gasprice": "1000000000",
    "hex": "f88f02843b9aca008302ab7f94a8ff919febc2d314bbfdeb686925ec75e3581a3c8758d15e17628000a4b1411f97000000000000000000000000000000000000000000000000000000000000000325a0a92b8aa220dbed4ca40e09a3b4143a1ad3f57656aeccf2117ae9c8e5662fcaf4a0438f32a884a581744bfc57444cf5b4b6bd6ab82a869ab49c958f60af777dd970",
    "nonce": 2,
    "r": "76517802646325173370776177711646372164506596588198043352450544316592434432756",
    "s": "30557969615899844177893710729358654928364624180989126374339707950931430463856",
    "startgas": 174975,
    "to": "0xa8ff919febc2d314bbfdeb686925ec75e3581a3c",
    "txhash": "1bbbad78301c2e91c7075ceb835f536078e5cb37c7f9f82c51d6050a7e71240a",
    "v": 37,
    "value": "25000000000000000"
}