{
    "data": "",
    "gasprice": "1000000000",
    "hex": "f86d8349a361843b9aca0082c350942d993a2832bff7b583f5f335e34bfc242c008f9a87b1bed8a41819e08025a084da3463233ac3792f5b2367035c01347753cf81a446dba62789acfdef747b19a020319f11e846be389a778cc99b2301e03599c2b589e151935519bf9230006135",
    "nonce": 4825953,
    "r": "60090830236667708344447999747264812912550621320350439409529000689849412647705",
    "s": "14561684521288451971691047771749845643640511959055455066854355527993833578805",
    "startgas": 50000,
    "to": "0x2d993a2832bff7b583f5f335e34bfc242c008f9a",
    "txhash": "1ccc51297ccdf898d5cf307134caf889a7dd869db6175c86d384c0c194713f61",
    "v": 37,
    "value": "50030908553042400"
}