{
    "data": "",
    "gasprice": "1000000000",
    "hex": "f865821487843b9aca0082b8ba94347ed75c305f4ab85757bfcc5600d9bfcb413898808025a084e1081819b005d8b04c07585bdc15ef66b9a3730df9f5f4b21b6cac2d3e337ea03744be45a4b571a46c64cef84575d6a0be6f21ed373a39da21e8344a22991e6c",
    "nonce": 5255,
    "r": "60102892466281012962663734049649271906266011985306516224427397885482965545854",
    "s": "24998665481872649266421908365677503547807048235003874605615430559118738923116",
    "startgas": 47290,
    "to": "0x347ed75c305f4ab85757bfcc5600d9bfcb413898",
    "txhash": "1d159cdfef7bdf24e8252585b16f49a192b7d504544a85a1ae26c3cf38652c0d",
    "v": 37,
    "value": "0"
}