{
    "data": "338b5dea00000000000000000000000005f4a42e251f2d52b8ed15e9fedaacfcef1fad2700000000000000000000000000000000000000000000000043614755d96e92c0",
    "gasprice": "1000000000",
    "hex": "f8a90d843b9aca008303d090942a0c0dbecc7e4d658f48e01e3fa353f44050c20880b844338b5dea00000000000000000000000005f4a42e251f2d52b8ed15e9fedaacfcef1fad2700000000000000000000000000000000000000000000000043614755d96e92c025a0c050413884f959cec05f66ece980b1a3a31be8ba751b6b04ab36a1d4221d05d9a043f48df289d603dbc2bfcbe619cf3f18d24c070e287397159f1a97b3be166362",
    "nonce": 13,
    "r": "86985864830442771535355568579891451323778190853796308546202069286493620078041",
    "s": "30737051223942589370063570472418634653636657988995165425254106328381825377122",
    "startgas": 250000,
    "to": "0x2a0c0dbecc7e4d658f48e01e3fa353f44050c208",
    "txhash": "1d2db676fd5ac7e3288fd2cc5f0851050179fc74780aa3458e9e432a1050830b",
    "v": 37,
    "value": "0"
}