{
    "data": "a9059cbb0000000000000000000000003a1ad4c03cffd1619c4d6806e2929e09ac6708fb0000000000000000000000000000000000000000000000052663ccab1e1c0000",
    "gasprice": "90000000000",
    "hex": "f8ad8345b0cc8514f46b0400830249f09424692791bc444c5cd0b81e3cbcaba4b04acd1f3b80b844a9059cbb0000000000000000000000003a1ad4c03cffd1619c4d6806e2929e09ac6708fb0000000000000000000000000000000000000000000000052663ccab1e1c000026a0c3a64d26ce2fe59275e1d940363b0786236bb2055fa7fa70113b618d1b96233fa00ea3300deda12c75c2378a2ebe122a8d00670db50cc1b4d0b8b4024ec6480cff",
    "nonce": 4567244,
    "r": "88494834567150869427075740255981744842953032836338554511693407416130370675519",
    "s": "6620707611053874831305997973166862212250955458484848529386408552385617595647",
    "startgas": 150000,
    "to": "0x24692791bc444c5cd0b81e3cbcaba4b04acd1f3b",
    "txhash": "1d5eee20e5d4afea7f15c4f0d1e14e4067a948c18f09a9cf31871a760098e36f",
    "v": 38,
    "value": "0"
}