{
    "data": "",
    "gasprice": "4000000000",
    "hex": "f86d8204d184ee6b280082c35094f1a15cda13475c5c36e230a4001b46b86b3daa8a880170a1fd221328008026a0b457434d362107c3b0b33ea6c463ab2ab3659efe230f33bba42a7e70f2398a30a049c6f5b824a3d64e1801558887444d51d5182edff2db33b90cdde08b2a22441d",
    "nonce": 1233,
    "r": "81570492938245249321878929957297507659160542226562463000100419942315275684400",
    "s": "33370369557748358078078711054846615899986846619117678519945088324270456718365",
    "startgas": 50000,
    "to": "0xf1a15cda13475c5c36e230a4001b46b86b3daa8a",
    "txhash": "1d6205d10e4863784d4825731be5937446a4e086902739091b0e50915cf7964b",
    "v": 38,
    "value": "103760900000000000"
}