{
    "data": "96b5a7550000000000000000000000000000000000000000000000000000000000039400",
    "gasprice": "1000000000",
    "hex": "f8880b843b9aca008301aa0d94b1690c08e213a35ed9bab7b318de14420fb57d8c80a496b5a755000000000000000000000000000000000000000000000000000000000003940025a018e3e3ef15e4ca423a82307bfce2c27b269d1a4855489248736cc76a706b13a7a02fe8f4d412309ea2a1cf17ff2cc1660a9dab3bb9cd817b4f08a5d83020991837",
    "nonce": 11,
    "r": "11258155791856738372773137037179801966792769409984923875894688959545687610279",
    "s": "21670302145975037973300233137713499007163467373489497681199980754759054858295",
    "startgas": 109069,
    "to": "0xb1690c08e213a35ed9bab7b318de14420fb57d8c",
    "txhash": "1e373803294a5ae2d5130a032bc498b753aed74a7a1b5fa457b9094d7d74c59b",
    "v": 37,
    "value": "0"
}