{
    "data": "efef39a10000000000000000000000000000000000000000000000000000000000000028",
    "gasprice": "2000000000",
    "hex": "f892820123847735940083015f9094bb5ed1edeb5149af3ab43ea9c7a6963b3c1374f78810a110561cc2aba8a4efef39a1000000000000000000000000000000000000000000000000000000000000002826a01231c40ea67d830c6bcdf7453dc35459a36e2128ea55440a7388ceff36eea21fa0105976d0b3fb64db067d174ff543ccfc5dcd39326f1e09e01b84babcd5b3b16a",
    "nonce": 291,
    "r": "8229559917929633134729870211432484629241065333102445883581096414666604585503",
    "s": "7395074998789684161458543594839818311822539768873299070391840301010331611498",
    "startgas": 90000,
    "to": "0xbb5ed1edeb5149af3ab43ea9c7a6963b3c1374f7",
    "txhash": "1fd35dd0581bacd9003e11e11ad43399ad742deddc97b620871e5d4caf4698c8",
    "v": 38,
    "value": "1198256937893014440"
}