{
    "data": "e16e0f840000000000000000000000000000000000000000000000000000000000000a76",
    "gasprice": "2000000000",
    "hex": "f8883784773594008303d090944ba72f0f8dad13709ee28a992869e79d0fe4703080a4e16e0f840000000000000000000000000000000000000000000000000000000000000a7626a0991a3766be73b08527445eb0fcb947fe44ac8ecfe765fe340b543633ad50057ba03660a7fe62c2ddbac99df60bab6935b94d263928f49c1f5fc2bd125a833b6b0e",
    "nonce": 55,
    "r": "69250186222944556274023326498550811181083779005729603696904181908680557462907",
    "s": "24595670591582245208555532796707917016536158038900666264126769679144266197774",
    "startgas": 250000,
    "to": "0x4ba72f0f8dad13709ee28a992869e79d0fe47030",
    "txhash": "20058b43f00a81294bd6bc71a250c70253e0a25d84369dad1b1cd9861c0a6ef2",
    "v": 38,
    "value": "0"
}