{
    "data": "b60d4288",
    "gasprice": "20000000000",
    "hex": "f87281d38504a817c800830193ed94a7ca36f7273d4d38fc2aec5a454c497f86728a7a880de0b6b3a764000084b60d428826a043ce1a957461769b9044febd82b62d478fe303d4989a6daba6815a2f93d6aaffa0417a8148ec1d9df7a142e13dff11bc5892514c4f7d9f22a71d6cd5e0aa385ee3",
    "nonce": 211,
    "r": "30669114825116585067255823318058223024092306702801297153210570062956221344511",
    "s": "29616782791076058735541143443960506773747851324133816137339013325089414864611",
    "startgas": 103405,
    "to": "0xa7ca36f7273d4d38fc2aec5a454c497f86728a7a",
    "txhash": "204b783f4b9fe6e08610cb6ed469b156233423536d7ea86f90b9ceed5958b994",
    "v": 38,
    "value": "1000000000000000000"
}