{
    "data": "",
    "gasprice": "10000000000",
    "hex": "f86f8301c5478502540be40082c35094d61cb58063eed6970e123ac94c1181054f0594d3881adadb24909468008025a0698626a0529a556301dfdf1a72801762c67b2639c40ee8d6293236531482c0f5a038557c77d02ccb7b71aad3b9dcca211c5fd3ba17d7f9a7b87a51bb0967ed0766",
    "nonce": 116039,
    "r": "47729873196575016118380840469934311052121964139883889170814443444025694535925",
    "s": "25480560567873120038240550779651626714331808797519447774323822653699670214502",
    "startgas": 50000,
    "to": "0xd61cb58063eed6970e123ac94c1181054f0594d3",
    "txhash": "212330ec07f04caef5dc3b7bde162b61b999a7a03a2ef4e8be0cb90a4d52456d",
    "v": 37,
    "value": "1935099940000000000"
}