{
    "data": "",
    "gasprice": "100000000000",
    "hex": "f86f8303282b85174876e800825208943d25ffa15d5f9bb86184737ab5efd0e495e56bdf880258975349a4a4008025a0eb2c99bcd6624604f434fdcb1a591caebed2c6e1edc8d0f344dd6f5e7b8f45dba0482c43773f0991c7fa259133d07a4f79a7e5eb712989f2d0b79e036b5d2bce44",
    "nonce": 206891,
    "r": "106372321746156140354297652379447241026315406124200751197357300452402131846619",
    "s": "32644732000722928253747217074916207149951656412860661729662142567790647430724",
    "startgas": 21000,
    "to": "0x3d25ffa15d5f9bb86184737ab5efd0e495e56bdf",
    "txhash": "2179926cdeb7d17e17f04be9aa2e10ca45abb94233390cfedb5b75e97ff2b49f",
    "v": 37,
    "value": "169051370000000000"
}