{
    "data": "",
    "gasprice": "100000000000",
    "hex": "f8708302809d85174876e8008303d090948096e7913dbc11d64d34e63fa919c837d516a04a88040f5dbb56dd90008025a08cdf96aad820dab796f651aec1cb0688db6eaefbfb60dc24571604ff92bbdbaca0681f3e35e662130a8db9610204a5d1da32ddf4506331fe85a29a79af42a08b39",
    "nonce": 163997,
    "r": "63718845565006796579711108064918504175985908922128872996506102207292326534060",
    "s": "47095737873080681222472971432596642321636816618933569871835266844569848810297",
    "startgas": 250000,
    "to": "0x8096e7913dbc11d64d34e63fa919c837d516a04a",
    "txhash": "2187cea89f5671d41edd824d12491d13e2b04273b45cfd0c48f177c49955ab70",
    "v": 37,
    "value": "292555560000000000"
}