{
    "data": "47cf8971000000000000000000000000000000000000000000000000000000000000008500000000000000000000000000000000000000000000000000000000000017090000000000000000000000000000000000000000000000000000000000001748000000000000000000000000000000000000000000000000000000000000587a0000000000000000000000000000000000000000000000000000000000001727000000000000000000000000000000000000000000000000000000000000173a0000000000000000000000000000000000000000000000000000000000001772",
    "gasprice": "2000000000",
    "hex": "f9014b820dd68477359400830dbba0940fa8051dbdbbcc32d602803d5f1de1e6f92a0bbd80b8e447cf8971000000000000000000000000000000000000000000000000000000000000008500000000000000000000000000000000000000000000000000000000000017090000000000000000000000000000000000000000000000000000000000001748000000000000000000000000000000000000000000000000000000000000587a0000000000000000000000000000000000000000000000000000000000001727000000000000000000000000000000000000000000000000000000000000173a000000000000000000000000000000000000000000000000000000000000177226a0bbda11912b9600a32019e9a72f7a3e825ceaa6b3960ddb4b8c05895ae453fa36a0309f397a60ead5b42221a3fb5c6bcffc37de045a6d1e6732acb913a31c80bf1f",
    "nonce": 3542,
    "r": "84967796588662800572690140212111472490643840128730002637582099074693106760246",
    "s": "21992342114158395630140662432393465853941704128840283042749290966036707852063",
    "startgas": 900000,
    "to": "0x0fa8051dbdbbcc32d602803d5f1de1e6f92a0bbd",
    "txhash": "21c5ac6c3fb88e639ed8acd873f6513cb3c27db12ec7481127e1e86f19a246bb",
    "v": 38,
    "value": "0"
}