{
    "data": "",
    "gasprice": "1000000000",
    "hex": "f86b01843b9aca00825208941fe9a379f2f75e0005eed38d2753cca4a56f9af8880905438e600100008025a05fc4bac06dbd70fa577c2fba16ef2525e943d10277eee5b63d92e999fb158d88a06d5cbee9811b7396cd9ff22657b258fe36b8f3c90c8db6aef05a0a10397dc8e4",
    "nonce": 1,
    "r": "43317311552794104792539104648101573288202063856320638305520626715281973415304",
    "s": "49465968052605689869720732055991496044410780535338831678919820522281896888548",
    "startgas": 21000,
    "to": "0x1fe9a379f2f75e0005eed38d2753cca4a56f9af8",
    "txhash": "23233b5ad2ecf1c866b0692a90c2ca6eab260d9db29d2ff1409908db38202e9e",
    "v": 37,
    "value": "650000000000000000"
}