{
    "data": "",
    "gasprice": "36000000000",
    "hex": "f86b1c850861c4680082520894a2654cf6a1d988e968dcd8b8f2e603042aab8a5e87a6e88b0a0274008026a0acf6942f7372a6eb8289dbd03b0a13880060de39b70ffb693aea1165eff5652ca03fdeb501cdd359f1fae33a21d0a3186483f502258cff37e40ec58d9a854114e4",
    "nonce": 28,
    "r": "78233477071992198356612638041856885453588761435055919810521372866985852233004",
    "s": "28889198773851264241755199986492825160464586396061362043397378203393732973796",
    "startgas": 21000,
    "to": "0xa2654cf6a1d988e968dcd8b8f2e603042aab8a5e",
    "txhash": "2366281335e85bb75b6ca4612fb36d94d9bcb496bd2592f649022b77b9de1fa5",
    "v": 38,
    "value": "46980530000000000"
}