{
    "data": "00",
    "gasprice": "45000000000",
    "hex": "f8708303637b850a7a35820083015f90946c66855b6cf32cefd13a4fd694e4fcf1ee6cdd028830927f74c9de00000025a0c54eaa5da8a23aa5fb7b46c3c440703febcd487cf1f211faa9be048807adaa3ca07965e59a0c142aa4d7c24ec3f78534998fde90f9efdd538f85b8a5e985edabae",
    "nonce": 222075,
    "r": "89244621063869389107289500773059992433229138073142519072843400829982686947900",
    "s": "54909890885135095139708218758675734145570675014083963498369570547685347142574",
    "startgas": 90000,
    "to": "0x6c66855b6cf32cefd13a4fd694e4fcf1ee6cdd02",
    "txhash": "2371529f758b0ea33a3d796f5d83d3b0d966fa0dc71a5e4e5b848edfb907cde3",
    "v": 37,
    "value": "3500000000000000000"
}