{
    "data": "",
    "gasprice": "100000000000",
    "hex": "f86f8302ccf885174876e800825208943669dd219cfb03ad3d9913079f9c4fc5f7d1a1f988064b4896ccda00008025a04be6960a263e33d41ad5b2533f43e9ceab8cd78f1abac29b1f611cfcb3fd70fba0175721b06049cbc4a707ed5fa61b54a75bf3756037e6750c335209df05094de7",
    "nonce": 183544,
    "r": "34330874004222948469165446709399474473637478182306909457801669355792687263995",
    "s": "10557143724771241777560905783372953670042831689215494865493328281258257108455",
    "startgas": 21000,
    "to": "0x3669dd219cfb03ad3d9913079f9c4fc5f7d1a1f9",
    "txhash": "23f4a9a7a8852081826c69259d2dda00c8d4f95703b301a4909be58027604623",
    "v": 37,
    "value": "453536000000000000"
}