{
    "data": "a9059cbb0000000000000000000000006edba119b8cc9b0818d5911edec646b3aab1b1f2000000000000000000000000000000000000000000000000000000000570ef61",
    "gasprice": "3000000000",
    "hex": "f8ac8301f5a584b2d05e008303d09094b64ef51c888972c908cfacf59b47c1afbc0ab8ac80b844a9059cbb0000000000000000000000006edba119b8cc9b0818d5911edec646b3aab1b1f2000000000000000000000000000000000000000000000000000000000570ef6125a0a74cdb1fd092a06576f7685bbce91bef3dc4c54bcae85bbf5a112a8d6e5230b5a0632a035ee115953919bcc8b3be4b24e83b9899e1b4ad4c905995e5dc913db2d6",
    "nonce": 128421,
    "r": "75672038430502213212926271300395115947648793454635389861693206268565777428661",
    "s": "44853202849642235991198870332702001741047698752153677771435859397015290884822",
    "startgas": 250000,
    "to": "0xb64ef51c888972c908cfacf59b47c1afbc0ab8ac",
    "txhash": "23feed0e48fc902e890485c846d53a20baf9ec60b6c3c41a0b6f9c460b32d882",
    "v": 37,
    "value": "0"
}