{
    "data": "",
    "gasprice": "100000000000",
    "hex": "f86f83034ead85174876e80082520894f534071fef57d7d41a67b2e51dbc032476293f78885c8bb4e54200a4008026a0b9fbead8cac1b8e07f54073703bf9580ff8731f0b0e3f9933f2e1e9f7aa9043fa05c3765260070f377a1c44e5b9b73cf0db01b2d71fc4e52cba89a17cfc383c753",
    "nonce": 216749,
    "r": "84122976454510061009987144214202690417800101122912235056600733772367692104767",
    "s": "41710656759128783431631113323354003670119159566133789083053390096699754792787",
    "startgas": 21000,
    "to": "0xf534071fef57d7d41a67b2e51dbc032476293f78",
    "txhash": "240dede388c54762c28d16b56dc64bfa6cf62d1d24f9825954aa9417e192de48",
    "v": 38,
    "value": "6668622570000000000"
}