{
    "data": "",
    "gasprice": "100000000000",
    "hex": "f86f8319a10d85174876e8008252089490e8da6d6641dd81b6d1a08f989c9503c0f1bc1d886b1ab3817225d0008026a0ec657b95bd3f9f6795f3c01b748a597a4429936f9ffe92229eb859998c85cd2ba073a9fb76a52b09ba344b334bf9260f05824f98e691c81fee921c8829cd53cbca",
    "nonce": 1679629,
    "r": "106925136770956389093686047959473415954974141386809240550696847880933832248619",
    "s": "52316310278024165700486696532119644189550244416944793227046599266470710201290",
    "startgas": 21000,
    "to": "0x90e8da6d6641dd81b6d1a08f989c9503c0f1bc1d",
    "txhash": "24419d8fa62ed39b447afa85663f9f6a993ea6b3b0e04a0a1b48e03bbd674742",
    "v": 38,
    "value": "7717678280000000000"
}