{
    "data": "",
    "gasprice": "100000000000",
    "hex": "f8708302ccf785174876e800825208949a42aecf4fcd7b39ba8c92ad6df8616ae4920c4d8901158e460913d000008026a0d0ca9bb3b0005cfc4b8cd6570cfd0cedef5ebefa6b0364236009621d16284ef9a0232847668c080c6e2a5475a9e89749ebe312b72e6fd7d67e83a07af492d561be",
    "nonce": 183543,
    "r": "94439050227453961129227085229797959651507781541542932597193977587260728037113",
    "s": "15902116371657672963132141608869152511088887491766235459513969505219355435454",
    "startgas": 21000,
    "to": "0x9a42aecf4fcd7b39ba8c92ad6df8616ae4920c4d",
    "txhash": "247ba4a64928fb4954f8b3537ddb10ebfa5cab2e7db946bc09048a50ccaa0098",
    "v": 38,
    "value": "20000000000000000000"
}