{
    "data": "a9059cbb0000000000000000000000006edceab17f2fcf9a25d7e9d7ba0a0c1fdb5df225000000000000000000000000000000000000000000000000000000000566e365",
    "gasprice": "3000000000",
    "hex": "f8ac8301f5a884b2d05e008303d09094b64ef51c888972c908cfacf59b47c1afbc0ab8ac80b844a9059cbb0000000000000000000000006edceab17f2fcf9a25d7e9d7ba0a0c1fdb5df225000000000000000000000000000000000000000000000000000000000566e36526a02258f93f081daf1258cc96ffde41ce9de6fb084baa79e6cc463c3630cb3f136ca07858e051cf0e0c62324f7c300dd9709b8f37a1fa6bb163adde65919766e99f32",
    "nonce": 128424,
    "r": "15535839627703255477281692277710704513170885747649621282980558306072900604780",
    "s": "54434572568435249092280510793188657608245107538721409265102916191390356053810",
    "startgas": 250000,
    "to": "0xb64ef51c888972c908cfacf59b47c1afbc0ab8ac",
    "txhash": "2557976b5476d01a754dba43f754cdec743cbf09eb1469d9c8201acaeee02413",
    "v": 38,
    "value": "0"
}