{
    "data": "095ea7b30000000000000000000000008da0d80f5007ef1e431dd2127178d224e32c2ef4ffffffffffffffffffffffffffffffffffffffffffffffffffffffffffffffff",
    "gasprice": "1000000000",
    "hex": "f8a953843b9aca0083028d0894c02aaa39b223fe8d0a0e5c4f27ead9083c756cc280b844095ea7b30000000000000000000000008da0d80f5007ef1e431dd2127178d224e32c2ef4ffffffffffffffffffffffffffffffffffffffffffffffffffffffffffffffff26a04f2b0b558412f35a7a7f47225121f758ae294747c60145f2f443d115820a25b4a07a6debc277dd727b015a662048ab553a0ffcfa0b8bd6ad76a0504aa86ded88f7",
    "nonce": 83,
    "r": "35808767686577814936315762060854439025809801706554715424820837133017900787124",
    "s": "55376381010463753281588333558131723677430641901819810943584372588604598094071",
    "startgas": 167176,
    "to": "0xc02aaa39b223fe8d0a0e5c4f27ead9083c756cc2",
    "txhash": "25e797be4010310793b051b80adadfc483325c47fd8a7290ea52ff4b079db5d0",
    "v": 38,
    "value": "0"
}