{
    "data": "a9059cbb0000000000000000000000006ee826763aeaa9d4dc68f2f3afac2917ca69a76300000000000000000000000000000000000000000000000000000000056d2362",
    "gasprice": "3000000000",
    "hex": "f8ac8301f5b584b2d05e008303d09094b64ef51c888972c908cfacf59b47c1afbc0ab8ac80b844a9059cbb0000000000000000000000006ee826763aeaa9d4dc68f2f3afac2917ca69a76300000000000000000000000000000000000000000000000000000000056d236225a03089d257c70c75f30764aeb08e59593eb892874249dba7a6058f219d56bed705a0287b69ec09dc0e543aff32fa9f2dbf3d02469049513a34c129d642fadfc51cc9",
    "nonce": 128437,
    "r": "21954526513081883448556521610203251769064417084807858803299817740932149597957",
    "s": "18310567179250559665745829685036003365516355771548722862341488474240565189833",
    "startgas": 250000,
    "to": "0xb64ef51c888972c908cfacf59b47c1afbc0ab8ac",
    "txhash": "26139abb210a12ec180635182167e2f2ede1a81451ad68ce2b4a28cac7b45eff",
    "v": 37,
    "value": "0"
}