{
    "data": "867904b400000000000000000000000088c48dab4fe799c78ee5f1a6f6e2213cc69449bb0000000000000000000000000000000000000000000000062e115c008a880000",
    "gasprice": "22000000000",
    "hex": "f8ac82930d85051f4d5c00830493e0946ddca767d731f57d90a516dd751f2aa9282b37d280b844867904b400000000000000000000000088c48dab4fe799c78ee5f1a6f6e2213cc69449bb0000000000000000000000000000000000000000000000062e115c008a88000026a0ee46f9593107195517d35b09edbea6dd40c56a7a5d53d5251acc3edf5cc20956a06c5fa6a1af9e7fdefb698dea9fcc951d6ba3045c14212823a56986e2525de3c8",
    "nonce": 37645,
    "r": "107775858196790714195035564376923857876282304395682095955452128119650793949526",
    "s": "49018788167086551053295657323753373065898325057286836968672481623003560272840",
    "startgas": 300000,
    "to": "0x6ddca767d731f57d90a516dd751f2aa9282b37d2",
    "txhash": "265781d00dbe44f16b584642769381c3ac0ba7390b783276659aa79446a78787",
    "v": 38,
    "value": "0"
}