{
    "data": "47cf8971000000000000000000000000000000000000000000000000000000000000007300000000000000000000000000000000000000000000000000000000000058720000000000000000000000000000000000000000000000000000000000000ac90000000000000000000000000000000000000000000000000000000000000615000000000000000000000000000000000000000000000000000000000000015f000000000000000000000000000000000000000000000000000000000000013700000000000000000000000000000000000000000000000000000000000055c8",
    "gasprice": "1000000000",
    "hex": "f9014b82012a843b9aca00830dbba0940fa8051dbdbbcc32d602803d5f1de1e6f92a0bbd80b8e447cf8971000000000000000000000000000000000000000000000000000000000000007300000000000000000000000000000000000000000000000000000000000058720000000000000000000000000000000000000000000000000000000000000ac90000000000000000000000000000000000000000000000000000000000000615000000000000000000000000000000000000000000000000000000000000015f000000000000000000000000000000000000000000000000000000000000013700000000000000000000000000000000000000000000000000000000000055c825a0e5693bfc4243c40be04d96623449938fc15505c807812af8936c9c1e25564d96a00137606257fc7f303ad56826b7b61fac6fb4fe7edb83843a31bee2cf43fd3b69",
    "nonce": 298,
    "r": "103765575271289242543186759620873023029668228419470879476562103552564444679574",
    "s": "550154656136183347537510726778390069435506116710401046530299999080819800937",
    "startgas": 900000,
    "to": "0x0fa8051dbdbbcc32d602803d5f1de1e6f92a0bbd",
    "txhash": "26940271638dd44892d92c0072594c7865d341d8b0d36592cfc5fef889774722",
    "v": 37,
    "value": "0"
}