{
    "data": "0a19b14a00000000000000000000000000000000000000000000000000000000000000000000000000000000000000000000000000000000000000001b0ffca52b3dfc00000000000000000000000000539efe69bcdd21a83efd9122571a64cc25e0282b000000000000000000000000000000000000000000000000000000410c32576000000000000000000000000000000000000000000000000000000000004bebbc00000000000000000000000000000000000000000000000000000000d3ae20f80000000000000000000000001e703c1d735fae8f28878b760bcbb89795afb070000000000000000000000000000000000000000000000000000000000000001b1fa58819176599781d5a348ac398f80c432e62d77bd2a5a1ea9de013dda8cdcc60e113bed4c6c00b8cc36045e2c0afcc25402e3249cc86ed5ebeb7ff922c15a500000000000000000000000000000000000000000000000000000001665f04ea",
    "gasprice": "12000000000",
    "hex": "f901cb168502cb4178008303d090948d12a197cb00d4747a1fe03395095ce2a5cc681980b901640a19b14a00000000000000000000000000000000000000000000000000000000000000000000000000000000000000000000000000000000000000001b0ffca52b3dfc00000000000000000000000000539efe69bcdd21a83efd9122571a64cc25e0282b000000000000000000000000000000000000000000000000000000410c32576000000000000000000000000000000000000000000000000000000000004bebbc00000000000000000000000000000000000000000000000000000000d3ae20f80000000000000000000000001e703c1d735fae8f28878b760bcbb89795afb070000000000000000000000000000000000000000000000000000000000000001b1fa58819176599781d5a348ac398f80c432e62d77bd2a5a1ea9de013dda8cdcc60e113bed4c6c00b8cc36045e2c0afcc25402e3249cc86ed5ebeb7ff922c15a500000000000000000000000000000000000000000000000000000001665f04ea26a04851498abd31675468a166d24309fcbf33862a0ada86b16741e019a94a26d587a02a3bb914efd8638a766c00db95b187f7edee340a6206eea733d6d2a0e61d9015",
    "nonce": 22,
    "r": "32710147278122531472165490327291774300765724651917949883691996182153389331847",
    "s": "19102661004850857495329130721163616271673376166238857183815704106320028078101",
    "startgas": 250000,
    "to": "0x8d12a197cb00d4747a1fe03395095ce2a5cc6819",
    "txhash": "27399eaad3a5d327c163e7220892c9f74e0f73220a10e960d3a34d1bb452293f",
    "v": 38,
    "value": "0"
}