{
    "data": "",
    "gasprice": "22900000000",
    "hex": "f86c80850554f2450082520894eb574cd5a407fefa5610fcde6aec13d983ba527c8838945f1cce2e38008025a0abdc0691966578fd33a32ca6adde6dc036b51082e34b6f05d207686b73f291dda049b1853073155308d75b44f3c3043d44eaed941ab58e1bf18b616189c660ed4b",
    "nonce": 0,
    "r": "77734248797498731606866385632478686685479076271837037941384417998863758168541",
    "s": "33332489115505469417968373026375848371777832187969957223630582789013554392395",
    "startgas": 21000,
    "to": "0xeb574cd5a407fefa5610fcde6aec13d983ba527c",
    "txhash": "27d42680d512945453a0d3aa6eacd7e770d5b0dae0eb49ad9f0fc48c93513a3d",
    "v": 37,
    "value": "4076988140000000000"
}