{
    "data": "",
    "gasprice": "22000000000",
    "hex": "f86c0385051f4d5c0082a410943f5ce5fbfe3e9af3971dd833d26ba9b5c936f0be880b152c1a351d10008026a0cf0463448e54356d04ab196334210c66a7b15f2d05bc0b230a6b87636ac94363a07e1c59f327f8c2f6d3c6a7193243ca8858d19f15c2b203bf5938a327bf801620",
    "nonce": 3,
    "r": "93636512166148948427328664908486688886255092291532171701997974269326929773411",
    "s": "57041511450206778127017718613634081975263637087859558086758212424530560816672",
    "startgas": 42000,
    "to": "0x3f5ce5fbfe3e9af3971dd833d26ba9b5c936f0be",
    "txhash": "2833a366769e0aba18020357f80f72c7d420c0401ee7495d60627f8e50ea61db",
    "v": 38,
    "value": "798593000000000000"
}