{
    "data": "a9059cbb000000000000000000000000bb8c06fbf3b4342f97d0f50549fdeb91560cc44100000000000000000000000000000000000000000000000000000000000007d0",
    "gasprice": "2000000000",
    "hex": "f8aa820194847735940082c8199440caa728bb4bafa56f38a58623a12fbe6c90209d80b844a9059cbb000000000000000000000000bb8c06fbf3b4342f97d0f50549fdeb91560cc44100000000000000000000000000000000000000000000000000000000000007d025a034eec8b22f4a88c41e402d993c194ff175c83c2b9678d330d90c28545f2c5e48a04e008df957042b60ad911562c7686acb793cfae10d130dceaf68d25791224415",
    "nonce": 404,
    "r": "23942162880867311848785385884247411133706059764086070740479754027214488493640",
    "s": "35281382057920280468037931749316417633900397108459555515722168104494271972373",
    "startgas": 51225,
    "to": "0x40caa728bb4bafa56f38a58623a12fbe6c90209d",
    "txhash": "284b6bece52445375eab5456c8615cf181b5f4b8f779c9fcbb125c8ae3fd4c2f",
    "v": 37,
    "value": "0"
}