{
    "data": "a9059cbb0000000000000000000000006f0116741de308d116e43c050cf3262440cf7b0e00000000000000000000000000000000000000000000000000000000056d0e27",
    "gasprice": "3000000000",
    "hex": "f8ac8301f5c784b2d05e008303d09094b64ef51c888972c908cfacf59b47c1afbc0ab8ac80b844a9059cbb0000000000000000000000006f0116741de308d116e43c050cf3262440cf7b0e00000000000000000000000000000000000000000000000000000000056d0e2726a07e1a2e2da048cb765cc07b5b7638d4707793c5de1ef2a7318af62c6443aaae29a007c4fb8859dfbf3e8343769742521db5423869eb635f8a0cb1f39ce24bb2fbe6",
    "nonce": 128455,
    "r": "57037675655585268015717213144928290809748786660145560327078497179054627270185",
    "s": "3514227979130057366346833892833196571387437008792585229651434910178627222502",
    "startgas": 250000,
    "to": "0xb64ef51c888972c908cfacf59b47c1afbc0ab8ac",
    "txhash": "287de8b53695ca5c5a1f03e36e469075884d79e45eae3ee4fe2822a021ab70d8",
    "v": 38,
    "value": "0"
}