{
    "data": "",
    "gasprice": "1000000000",
    "hex": "f86c01843b9aca00830127219423b8cc7cb0b1fff0130197dc5aac7e1b305a58138806ccd46763f100008026a0eadb6cb6fd66347cedf52f9afc1fb31097bf8d4f6fc0a166a764de0ff9fb730aa047da5d30915405cc60d0b48955712d6d403ba05f9bf7439d98fc8f042e61a32b",
    "nonce": 1,
    "r": "106228896397672602353172364104518601883723578719676358729722763692848197628682",
    "s": "32500028081326140109255531656405003540611245772200181275301810509906148696875",
    "startgas": 75553,
    "to": "0x23b8cc7cb0b1fff0130197dc5aac7e1b305a5813",
    "txhash": "28b52675dd71747af25058aef94dfce338616de056546063015d4db8b7b7540c",
    "v": 38,
    "value": "490000000000000000"
}