{
    "data": "",
    "gasprice": "20000000000",
    "hex": "f86c028504a817c800829c40948bacabee029b44386d9d5faf99934b09598dcd478803782dace9d900008026a0e02593b571b21e22bb8754244a8cb7c65715c168e517121940f14dfaa36ae27ca0408fc72eac117786d5310c8fd284488bce78ba5e5c60aabbb846ccb269be0efa",
    "nonce": 2,
    "r": "101384470872485358520470480743134605255657866638241173844383149742203110875772",
    "s": "29202056145393815459493081236051025782815176913327019299571203354896711421690",
    "startgas": 40000,
    "to": "0x8bacabee029b44386d9d5faf99934b09598dcd47",
    "txhash": "28e21213cc031f6f94a6f45e1ef94c984fbc175fa7190a8dbf832975670e1206",
    "v": 38,
    "value": "250000000000000000"
}