{
    "data": "",
    "gasprice": "100000000000",
    "hex": "f86f8302ec9085174876e8008252089475e3e88fc428cf8163fba65b8e4a9c2a310c438588135d879d7b1f84008025a029361c9bbd3d22ac91e2d197ba552f85223cf690a4908d7b8d25a150e1b34452a026d85cd573d6ff5a5221f5ed8ca757f9703e213521a623afede74c788bc6c941",
    "nonce": 191632,
    "r": "18640433981030571010227579521874818712857375963314120919375001310994573247570",
    "s": "17570167927488156980186120764069174838958382356236781420625705251585468582209",
    "startgas": 21000,
    "to": "0x75e3e88fc428cf8163fba65b8e4a9c2a310c4385",
    "txhash": "28f126c16305b9509d02c8b927e6fbeea7bded351721813f2c1c10e13a5dbbd0",
    "v": 37,
    "value": "1395420570000000000"
}