{
    "data": "0f2c9329000000000000000000000000fbb1b73c4f0bda4f67dca266ce6ef42f520fbb98000000000000000000000000e592b0d8baa2cb677034389b76a71b0d1823e0d1",
    "gasprice": "90000000000",
    "hex": "f8b25a8514f46b0400830249f094e94b04a0fed112f3664e45adb2b8915693dd5ff388015a575d426e8000b8440f2c9329000000000000000000000000fbb1b73c4f0bda4f67dca266ce6ef42f520fbb98000000000000000000000000e592b0d8baa2cb677034389b76a71b0d1823e0d126a0a861da79b5d6b2cbe5d464b1a6851ce8908005586c20d04a82259c701a54b4d2a05bd5b7ece611b599ee81c35ecb8c7e296fed0ff7fc1de21a89af069ba4c1051f",
    "nonce": 90,
    "r": "76161450589279250195505587302081456204029000211136157368500005735204719473874",
    "s": "41538077052233025625065349365926447259544584190520806595212664706339839214879",
    "startgas": 150000,
    "to": "0xe94b04a0fed112f3664e45adb2b8915693dd5ff3",
    "txhash": "2902d97a5999d9f7920d18853d1da7a4441f96a3deb4c1df596ddc9738ca8b74",
    "v": 38,
    "value": "97486400000000000"
}