{
    "data": "47cf897100000000000000000000000000000000000000000000000000000000000000cd0000000000000000000000000000000000000000000000000000000000004b440000000000000000000000000000000000000000000000000000000000001e230000000000000000000000000000000000000000000000000000000000001e37000000000000000000000000000000000000000000000000000000000000000000000000000000000000000000000000000000000000000000000000000000000000000000000000000000000000000000000000000000000000000000000000",
    "gasprice": "1000000000",
    "hex": "f9014b8201fa843b9aca00830dbba0940fa8051dbdbbcc32d602803d5f1de1e6f92a0bbd80b8e447cf897100000000000000000000000000000000000000000000000000000000000000cd0000000000000000000000000000000000000000000000000000000000004b440000000000000000000000000000000000000000000000000000000000001e230000000000000000000000000000000000000000000000000000000000001e3700000000000000000000000000000000000000000000000000000000000000000000000000000000000000000000000000000000000000000000000000000000000000000000000000000000000000000000000000000000000000000000000025a06a8fcee4f5deed5fa5717d3763071ac3d24cee9195377e6f67834d3c20d7e814a030262f2eb936fe46a68942cf6385b1c533b41989a5120429bfeb1f6e7768f403",
    "nonce": 506,
    "r": "48199249012598043499614507511956281773827218603715846276647133443316549937172",
    "s": "21778482562199607967821899209886142804493110931073245123848240432913614173187",
    "startgas": 900000,
    "to": "0x0fa8051dbdbbcc32d602803d5f1de1e6f92a0bbd",
    "txhash": "29a8dac847cb7752a856eb6ea8fb870ec382dcffa0fa469b83f8301a6e0fcf28",
    "v": 37,
    "value": "0"
}