{
    "data": "",
    "gasprice": "22000000000",
    "hex": "f86f8201ce85051f4d5c0082a410943f5ce5fbfe3e9af3971dd833d26ba9b5c936f0be89034170519af737b2008025a096af232a7c4a0a84a35b0480e6049ec79b230c144964a26bd5f7b423820293f3a05a9d6fbd1d8e005136f8c59f87bf509bb1e705ab433bafee39ebcbec752699e8",
    "nonce": 462,
    "r": "68156368230355256106910003930824183709972588949828925503253367865367496659955",
    "s": "40986322554051067517361284137553174764684688148499657643627923240448621451752",
    "startgas": 42000,
    "to": "0x3f5ce5fbfe3e9af3971dd833d26ba9b5c936f0be",
    "txhash": "29dde4e10c37e1084fed12760a9a7ec9c451b4d3ad94e28b2e026d501e0b8d55",
    "v": 37,
    "value": "60055590757000000000"
}