{
    "data": "",
    "gasprice": "22900000000",
    "hex": "f86d82b0c5850554f24500825208942ca02107d3bdbf23c0672744faaf4e8d03bab84e8702b7c37140d0008025a0cb68ba6fc324258bafcc9a2bb5b03389468cebd966d375ecc38a4b81419d3947a062148b19253a1ba51c3207bf812a70b2d25d8e8b0ad0c653acaddf30d7908d9d",
    "nonce": 45253,
    "r": "92004547095065378658566853107869448664018813205512711359154488854629163284807",
    "s": "44362956123117003345867986623135688717317677854849177113154274860631105506717",
    "startgas": 21000,
    "to": "0x2ca02107d3bdbf23c0672744faaf4e8d03bab84e",
    "txhash": "29f05e554128683990b7e37810708dfaedaf86f5c4d66cb54085c55a117bc0ed",
    "v": 37,
    "value": "765000000000000"
}