{
    "data": "",
    "gasprice": "36000000000",
    "hex": "f86d02850861c46800825208944cb8c11ccea7850dd41744c70c62faf71019edad8901fa39578ed16cfaee8025a044120b551246b922d0d95e37d8bd3d7ba56e88223b4e9f35f6f62da6baad2f5ea013ac3197029db237bdedf2ee19d878e21b239a168cdc604a6a85cc4e8c13ccab",
    "nonce": 2,
    "r": "30789155163558121813192348841575247918733152797353729433972833288135723790174",
    "s": "8898184075022379983235182265296676191812419465759296143308253462923188620459",
    "startgas": 21000,
    "to": "0x4cb8c11ccea7850dd41744c70c62faf71019edad",
    "txhash": "2a1b1524dd8bbbfd526abb69a8abc8d10929e063b8e8f64f35153a20464b86d3",
    "v": 37,
    "value": "36477282927774595822"
}