{
    "data": "",
    "gasprice": "4000000000",
    "hex": "f86d8204d084ee6b280082c350948f129d4576ca37a3eec1e8a7f0787b6e26c9e91c8801f92b99d86e9e008025a0e8f0ffce9c0ecacaf42a59285b7d8425d61af4e101d3ba5b9805a374f909d49da01afacce84153ddbd8b6946fe8b9fd1497464b2d59f76b8724474736ce36d9432",
    "nonce": 1232,
    "r": "105362389682366862010200745088790524752126421698255990496838880575066347263133",
    "s": "12203260047201693735182316625747486356160213373736379233452997776669189968946",
    "startgas": 50000,
    "to": "0x8f129d4576ca37a3eec1e8a7f0787b6e26c9e91c",
    "txhash": "2a38ba0db053e7c50c3e030a1a7dd098b52357d540dfd21319202d0c892ed957",
    "v": 37,
    "value": "142192803000000000"
}