{
    "data": "a9059cbb0000000000000000000000006ef3f0d26bb1f6c6e0e24fffa5c203a0f7540b62000000000000000000000000000000000000000000000000000000000566e365",
    "gasprice": "3000000000",
    "hex": "f8ac8301f5bf84b2d05e008303d09094b64ef51c888972c908cfacf59b47c1afbc0ab8ac80b844a9059cbb0000000000000000000000006ef3f0d26bb1f6c6e0e24fffa5c203a0f7540b62000000000000000000000000000000000000000000000000000000000566e36526a006291749fb337ba747295290bb5c80e1b56648ff484f0ab606cbfe1ee3de82ffa014cc20e432ed2608b72184450c2c0f192903de98f66f11257906d43684eb7e1f",
    "nonce": 128447,
    "r": "2786478555852159068030681917958365630209744659193838544675849746604078564095",
    "s": "9406920780994227425890540711524621469083470766806589611989679019284809612831",
    "startgas": 250000,
    "to": "0xb64ef51c888972c908cfacf59b47c1afbc0ab8ac",
    "txhash": "2a7b24608d83b803f946d18a7ab539bc7ed0a238d2d9b4150e2bb00ffcea315a",
    "v": 38,
    "value": "0"
}