{
    "data": "3c1b87f90000000000000000000000000000000000000000000000000000000003c86b6a0000000000000000000000000000000000000000000000000000000059f633400000000000000000000000000000000000000000000000000000000000000384000000000000000000000000000000000000000000000000016345785d8a0000",
    "gasprice": "1000000000",
    "hex": "f8eb820115843b9aca00830186a094486210cb9b9b2598bec313cc9a482ff1b0eebbbc80b8843c1b87f90000000000000000000000000000000000000000000000000000000003c86b6a0000000000000000000000000000000000000000000000000000000059f633400000000000000000000000000000000000000000000000000000000000000384000000000000000000000000000000000000000000000000016345785d8a000025a0794f03de5170e5036bebcd7578623ed712ecb171082fe2a8c51a7306336bd3b6a008bed2ee1bdd706c512e35bbdf8727831dd8aacdc7bde456c0ff8a28953173de",
    "nonce": 277,
    "r": "54869462295616663597390484778068869440065630123765535277419861608148729844662",
    "s": "3955659517108683588676577589361874375215188976589900025909772958893440332766",
    "startgas": 100000,
    "to": "0x486210cb9b9b2598bec313cc9a482ff1b0eebbbc",
    "txhash": "2abcde4e593f38731f47dca311e4115262faab0c1a30e54c4d12a1bf75671b09",
    "v": 37,
    "value": "0"
}