{
    "data": "",
    "gasprice": "22000000000",
    "hex": "f86d0285051f4d5c0082a410943f5ce5fbfe3e9af3971dd833d26ba9b5c936f0be8901157af1798b96f0008025a05c75a124a99d5231ec4ee417fc4e323b447dd78f3d1f898af3f8b82c8c5c66aea05a07006414305de3699898d8c86c3b9d10cdc65665df38642c42c633b86014d9",
    "nonce": 2,
    "r": "41820615345821987423252773727097021606979200261938434437703763645144822998702",
    "s": "40720527000068233119758653594733127250785530043996035212174281431731539023065",
    "startgas": 42000,
    "to": "0x3f5ce5fbfe3e9af3971dd833d26ba9b5c936f0be",
    "txhash": "2ae4197bd997688b230ac9845fb029a101bcf242d4d006d1d38f63810e772bf2",
    "v": 37,
    "value": "19994559000000000000"
}