{
    "data": "a9059cbb00000000000000000000000033e00868a487b2977dfc6f4104766f840ca6732200000000000000000000000000000000000000000000001a63b504d2b4280000",
    "gasprice": "100000000000",
    "hex": "f8ad83034e0785174876e80083019e6e9499ea4db9ee77acd40b119bd1dc4e33e1c070b80d80b844a9059cbb00000000000000000000000033e00868a487b2977dfc6f4104766f840ca6732200000000000000000000000000000000000000000000001a63b504d2b428000025a08174e6f93a8c26cc07ece04fcff5889b5e6679198e61ceb76c42362f6f860299a0020220edc8dd4d7f637ac3a14c79018a9e87a58450981e6a3f796a9b3a107eb3",
    "nonce": 216583,
    "r": "58554905847607906553222220675823924479877361848173806120851434879431540605593",
    "s": "908386657840043952512637882555121274066281468968131175214382252830126800563",
    "startgas": 106094,
    "to": "0x99ea4db9ee77acd40b119bd1dc4e33e1c070b80d",
    "txhash": "2ae4b5a107c826bc0ffccdccd2162d9886f5d4baa30346c70af3fa3705cf50bb",
    "v": 37,
    "value": "0"
}