{
    "data": "",
    "gasprice": "100000000000",
    "hex": "f87083034ebb85174876e800825208949e8aabaf61bfeddd7f5c26f6d3e503a002fe4a9e89010a2d0c6147fe00008026a004269e6f923b1da456b5a3c5af57df39885d0f6d6763d3ca6a8227ce3aeca9ada00a253aefaf059f3f1f3aa4b94557d309edef9014d2b207cafe0b8bc58fbeb07f",
    "nonce": 216763,
    "r": "1877485066671430529420810500900034246497697267213772870221990363533048326573",
    "s": "4588908590376795227696746154252568340312594870637081985653226888241377882239",
    "startgas": 21000,
    "to": "0x9e8aabaf61bfeddd7f5c26f6d3e503a002fe4a9e",
    "txhash": "2c62d24f0ef6d311477326a26b593f780128af64708cb04d628ec254b03da3ec",
    "v": 38,
    "value": "19180000000000000000"
}