{
    "data": "",
    "gasprice": "50000000000",
    "hex": "f86d01850ba43b740083030d409489a487df5d0ea33832d23f1de10286affc350ae58806f05b59d3b200008026a09bcd259bde8cf7437e491438d95cb15a261385997548e0b0060bb3cea96487d6a01c7b346778f368ed619efc9771fa743092ef88fd24ea747c9559a3f66d173736",
    "nonce": 1,
    "r": "70470954745529742391924320563668669347060598349272643116106777567181435865046",
    "s": "12882443629721347986532168406988072514044781948103038967335525438964075280182",
    "startgas": 200000,
    "to": "0x89a487df5d0ea33832d23f1de10286affc350ae5",
    "txhash": "2ca1c68ab740364f928a61f768a44b5669f2726b3d6913be949aef5b545a5aa4",
    "v": 38,
    "value": "500000000000000000"
}