{
    "data": "",
    "gasprice": "100000000000",
    "hex": "f86f8302ec8d85174876e80082520894a7caed0fd8c6546056855d917fe843d8a847f4f68808b43b27beab44008025a009a5c5473a74e3cf19f1680be9ba81f62b91fee718e91285087ee7f2f84cbce1a0328442333c271a6f7f4159e611b0c09822d983c5fecfc40a35264ad331395169",
    "nonce": 191629,
    "r": "4363706967280560642373569775995523831669120114808925726328118230982098468065",
    "s": "22849323138265058001878850161240853374357324803980256837006385797896294977897",
    "startgas": 21000,
    "to": "0xa7caed0fd8c6546056855d917fe843d8a847f4f6",
    "txhash": "2ca5ee1e88fd868933fbeecf201fb34a173e1f1f056ffafd15ce5e17decf3d81",
    "v": 37,
    "value": "627191290000000000"
}