{
    "data": "a9059cbb0000000000000000000000006ee76a613e79b4cd9226f79de75ed42abcc0e10a0000000000000000000000000000000000000000000000000000000005a8eab8",
    "gasprice": "3000000000",
    "hex": "f8ac8301f5b384b2d05e008303d09094b64ef51c888972c908cfacf59b47c1afbc0ab8ac80b844a9059cbb0000000000000000000000006ee76a613e79b4cd9226f79de75ed42abcc0e10a0000000000000000000000000000000000000000000000000000000005a8eab825a0c00f2b7b41df621d04dc9885938f00c379a802712f90449bebb0d7a57c14fd6fa0281df01f51def20db7bf83ffa0bf0264a09ec3755f23a4fb381f1274c52f2e1e",
    "nonce": 128435,
    "r": "86870869732062367886003913330523728038321089636960739108742903889360648994159",
    "s": "18145409771712815190668682800451870887641863258783864762695235757408661745182",
    "startgas": 250000,
    "to": "0xb64ef51c888972c908cfacf59b47c1afbc0ab8ac",
    "txhash": "2cff90aa242b396004f3099169debd2d6e32e529be61263d9b7c1616e6bfba5b",
    "v": 37,
    "value": "0"
}