{
    "data": "",
    "gasprice": "90000000000",
    "hex": "f8708345b0c58514f46b0400830249f0946193991780b65298e6a557861c581c718c8426cf88010a741a462780008026a0734870ca595dc0ce8a5c2f3397dabb0b0f3739109823f0ae86ec2ecd7ba5f76da07cd9d425abfbd79ddb72a4fa2ce4cb4c3843b3fc6a6e309e6c3c1751aa1dc4ea",
    "nonce": 4567237,
    "r": "52143969026651107410275049593485663540251484182577213735611023749225365501805",
    "s": "56471663223237491610768897866513301052375482728795505853393686757049349555434",
    "startgas": 150000,
    "to": "0x6193991780b65298e6a557861c581c718c8426cf",
    "txhash": "2d91644250e32087fbf39ba9deca12d0d7e1603521547cdc0e21380b44c4efed",
    "v": 38,
    "value": "75000000000000000"
}