{
    "data": "",
    "gasprice": "21000000000",
    "hex": "f86d808504e3b2920083015f9094d1f277bdda46dcf7d15eb868716eaedf02b52ca4880fd3a8233fa580008025a0b454d6da97f6b76150d180daba1d587454dbf0e651df6099565c47ce4f4f9f0fa008d5e33766f93bd9fc7c49d12e55e6a33682756bf7e12dc0b809933c16eaf650",
    "nonce": 0,
    "r": "81566210765419570063123349915632951794007618043228651003084117263009518165775",
    "s": "3996409403526097707005464503568018206411261896709282333851828596842536040016",
    "startgas": 90000,
    "to": "0xd1f277bdda46dcf7d15eb868716eaedf02b52ca4",
    "txhash": "2e73c03a2d41528e8e8dac767ae4a8ca4e6ad20d942f4f711f97fe6f6026d4f2",
    "v": 37,
    "value": "1140440000000000000"
}