{
    "data": "",
    "gasprice": "1000000000",
    "hex": "f86a80843b9aca0082520894902bde17d5c5351a6fd04d69b4b1575ddf9ff6e687096c63686e0a008026a011c5e7f10ab6316bc13d7252012a62a9ae973b8af3060f45f70dc42cbe22870ca030d5a1167b6fc4a14df92fc36d34a5b96a47fd7de3f80ed3b11fc39238787f5c",
    "nonce": 0,
    "r": "8038988099558198509209481034786921293225634901488571651213552586634282829580",
    "s": "22088466944074633061284807964624184067125198172372166593285723155607921917788",
    "startgas": 21000,
    "to": "0x902bde17d5c5351a6fd04d69b4b1575ddf9ff6e6",
    "txhash": "2e76406c8587ec24331300184490aef969c61fd618736e36ea65e38facaaf3aa",
    "v": 38,
    "value": "2652449000000000"
}