{
    "data": "",
    "gasprice": "100000000000",
    "hex": "f86f8302ec9285174876e8008252089496055c3ae7f70a37c0e897462a3e8298354f863d880165ee30c9f7b8008026a0d2a038d87e62b2eff29a1f44889daad4be1b4e74a7f1d048bf58e07be1cc9469a04f1e096e699f8b93593e8255d80a5eb64ee7000bed8a6da4e66d15ae1966f0e1",
    "nonce": 191634,
    "r": "95268786067304334580282045866570529821886285774037632007581371279398792893545",
    "s": "35785785542456074433686962385818301097087608557638205851622516448277974937825",
    "startgas": 21000,
    "to": "0x96055c3ae7f70a37c0e897462a3e8298354f863d",
    "txhash": "2fcb1947af166d5a33f11b384c184e42f8222cfbe4daacecc900f2b87837b4b4",
    "v": 38,
    "value": "100748460000000000"
}