{
    "data": "",
    "gasprice": "20000000000",
    "hex": "f870832e777f8504a817c80083015f909403f6c1b7fa3f9805a613acb187e44dc80493fb3b8801716f5a4add78008026a04ecd72cb6a4c5a5580c67d721d9e075cff47fb01b97c175a069c295eab26e946a07f0775edf83d99ff6272dc7c7287d46684bd81a0331d539f4a73112f70acc323",
    "nonce": 3045247,
    "r": "35643398120921567301126864318676398409925465785048708962047224898984585128262",
    "s": "57456913619501004367281012003978370840406640017965880073475178570640436020003",
    "startgas": 90000,
    "to": "0x03f6c1b7fa3f9805a613acb187e44dc80493fb3b",
    "txhash": "2fd3a598e748cd31f80ca434472971e2d397e0b76cae4fceabd4cf9be65e5900",
    "v": 38,
    "value": "103986700000000000"
}