{
    "data": "867904b4000000000000000000000000d01480853bf73fd75e591ae34dd4cac361785c3e0000000000000000000000000000000000000000000000062e115c008a880000",
    "gasprice": "22000000000",
    "hex": "f8ac82930f85051f4d5c00830493e0946ddca767d731f57d90a516dd751f2aa9282b37d280b844867904b4000000000000000000000000d01480853bf73fd75e591ae34dd4cac361785c3e0000000000000000000000000000000000000000000000062e115c008a88000025a0a4ea4951e2ede0bb7baa7ea91898237ae708f6f1a0b9b46ed4f5667f9807aa86a02ceb441d63be36a01c6c47da2bdd9b2ce319a07cafb6ed1a039aae326722558d",
    "nonce": 37647,
    "r": "74593255415951260569793385553305650969448086469961542288113086761187930516102",
    "s": "20317444508980842632931953217545248239814082126944587727924714298278049633677",
    "startgas": 300000,
    "to": "0x6ddca767d731f57d90a516dd751f2aa9282b37d2",
    "txhash": "2ffccfdfa36c232f90b930fcca4abbf626fc0de63a10c08596036a070dc29142",
    "v": 37,
    "value": "0"
}