{
    "data": "",
    "gasprice": "22000000000",
    "hex": "f86d8085051f4d5c0082a410943f5ce5fbfe3e9af3971dd833d26ba9b5c936f0be89021a2578cfb2fcd0008025a0cd21ba657e6e47e7ff3244ece027c6d36c2d368e7a59ccaec3c124b6c395f848a056dbb9e3e39fd3eeac9158458715bbe2160fc3e0085e23dd48c6050f3573087a",
    "nonce": 0,
    "r": "92783726373797128400920362378514162896543012945900996132487537805394976307272",
    "s": "39287127452301064842805428733472673117743463048169757346313142228582535465082",
    "startgas": 42000,
    "to": "0x3f5ce5fbfe3e9af3971dd833d26ba9b5c936f0be",
    "txhash": "3067461423ada27f665ef549be597c99f04ef7b6baf4a1e3c13962724c54efad",
    "v": 37,
    "value": "38777533000000000000"
}