{
    "data": "a9059cbb000000000000000000000000f98878bb495c62757eacd4ede482256fdb5e176b0000000000000000000000000000000000000000000000000000002e509d9440",
    "gasprice": "100000000000",
    "hex": "f8ad831a3f6485174876e8008301976e940e0989b1f9b8a38983c2ba8053269ca62ec9b19580b844a9059cbb000000000000000000000000f98878bb495c62757eacd4ede482256fdb5e176b0000000000000000000000000000000000000000000000000000002e509d944026a055345b0b50c5586d2bd32a534c646fe04eb0b44627fb4487f804e96c1bf758bea053d5ce9cd42d491c1ccc483dcb348ae9f5830adecff973c27d29b0798e26bf99",
    "nonce": 1720164,
    "r": "38539096540929256805591790224894461274558259428571710829762878339791260702910",
    "s": "37919730845052860271773358185419632451567397621313304447664641056689212538777",
    "startgas": 104302,
    "to": "0x0e0989b1f9b8a38983c2ba8053269ca62ec9b195",
    "txhash": "30742cb809b9d665ee1f69c6a62c85526bbf015ef61c93b4c5fc75d1f01b6c42",
    "v": 38,
    "value": "0"
}