{
    "data": "a9059cbb000000000000000000000000236f9f97e0e62388479bf9e5ba4889e46b0273c300000000000000000000000000000000000000000000003642ae2659d2f67fff",
    "gasprice": "50000000000",
    "hex": "f8ab8193850ba43b74008302904094744d70fdbe2ba4cf95131626614a1763df805b9e80b844a9059cbb000000000000000000000000236f9f97e0e62388479bf9e5ba4889e46b0273c300000000000000000000000000000000000000000000003642ae2659d2f67fff26a07547cdf05d9ac8e0c7f7362202f1fcd0a23bec97ed621ed776a1d086de04d276a016c0c67c1f5323e68fb9ba6cfb5a640a2e22d66fc367c31f25b6f926cfde7d97",
    "nonce": 147,
    "r": "53047470764087442758024784985576584555704221562510481531040895186992902754934",
    "s": "10291487197378244545181146308635281190386631204669855242430593661611859148183",
    "startgas": 168000,
    "to": "0x744d70fdbe2ba4cf95131626614a1763df805b9e",
    "txhash": "3199a31bf3b0bc5c3134deaa4b123924cebc6d37c9f61ec9b4e7420f9bc68adc",
    "v": 38,
    "value": "0"
}