{
    "data": "a9059cbb000000000000000000000000208e44e019ff555fe08628a444c4f84392e36227000000000000000000000000000000000000000000000002940710042d940000",
    "gasprice": "100000000000",
    "hex": "f8ac8303a8a385174876e80083013f169486fa049857e0209aa7d9e616f7eb3b3b78ecfdb080b844a9059cbb000000000000000000000000208e44e019ff555fe08628a444c4f84392e36227000000000000000000000000000000000000000000000002940710042d94000025a0b13698adcf7c0b84d520c60a51dcb92788a3ed52acfbd2068d19b3b5947601869fe514a818c90851ba22afb6bbf7979b21ae403c2fb205decb687934ff2fd709",
    "nonce": 239779,
    "r": "80155837692102342605422343822728686069104844587723895441905174028348871278982",
    "s": "404750544642420876622196074438553012084101041485262950989057018004199429897",
    "startgas": 81686,
    "to": "0x86fa049857e0209aa7d9e616f7eb3b3b78ecfdb0",
    "txhash": "3205a70b8cda235485c5e06d3285fb5c6aa4d52a478706031a00528502b99bcc",
    "v": 37,
    "value": "0"
}