{
    "data": "a9059cbb0000000000000000000000006ee81585660f2e741ceeddbc44246b3b35a38af5000000000000000000000000000000000000000000000000000000000566e365",
    "gasprice": "3000000000",
    "hex": "f8ac8301f5b484b2d05e008303d09094b64ef51c888972c908cfacf59b47c1afbc0ab8ac80b844a9059cbb0000000000000000000000006ee81585660f2e741ceeddbc44246b3b35a38af5000000000000000000000000000000000000000000000000000000000566e36526a01d3e5399b142c920cd2ed8833f11586b767f5657d462c1b9b5b83a636fbfd1c7a025346b90e7cec4698b3fad5f0d768da97632c69bb62adf6bcd5a19e17d03bc63",
    "nonce": 128436,
    "r": "13227194115417358433078456599728992044766643895550718769185776076976587526599",
    "s": "16828193838452957497474189714070450476733001503322783638384640145275742305379",
    "startgas": 250000,
    "to": "0xb64ef51c888972c908cfacf59b47c1afbc0ab8ac",
    "txhash": "3294d6d92f83341c82f5c21469d7db6d7c8e225da85d6742cdfc1ba50f39af56",
    "v": 38,
    "value": "0"
}