{
    "data": "",
    "gasprice": "21000000000",
    "hex": "f86d808504e3b2920083015f9094310ba3606f9bfd1616cb10eed88c64d52b67b42488016345785d8a00008025a0d1becd68a32d264988c8ac9f4796e0629fcb1d4c59067c85a6d5a241bca64e2da074798bead98c3b89c8e6d48a37880a05f5976518007f1bf2669770126c175cd1",
    "nonce": 0,
    "r": "94870503975230590635361263376617206959082945975966050866900478871800434282029",
    "s": "52683044604777265182618142590915052745978566502190932717875031419012632763601",
    "startgas": 90000,
    "to": "0x310ba3606f9bfd1616cb10eed88c64d52b67b424",
    "txhash": "331c2f82fe2ea450d30732b035a679c15ce2cbb2e83b02fc17cff454a58087f5",
    "v": 37,
    "value": "100000000000000000"
}