{
    "data": "",
    "gasprice": "12000000000",
    "hex": "f86d829d178502cb4178008252089403d8e248cd129f4e08165b4528b020ae6d1c3e368703e871b540c0008026a0091b26beeaad9d3e058e6935764d195d8f1ab4deb759afa9ef93e2b99e0c6146a0080e0fb000b9a846be5bf2118e52dd62b55c4d06c62594de5433e10b34ffcc81",
    "nonce": 40215,
    "r": "4118787921463955673440169990264298845558835153152445546390797924156425658694",
    "s": "3643346918795218760002430677376564560284530869873585084115700056934469061761",
    "startgas": 21000,
    "to": "0x03d8e248cd129f4e08165b4528b020ae6d1c3e36",
    "txhash": "332bc77ad51b0334d9f5710ab1749c3269533aa45c185f3814d67ad9d1d94679",
    "v": 38,
    "value": "1100000000000000"
}