{
    "data": "",
    "gasprice": "40000000000",
    "hex": "f86d808509502f900083015f90946102ee155aafeac64cd84c58b37cc0a8d533e5eb880695d2f8624708008025a04d18cd74f4a00977a1e070fb6dc02ad16eef9c9f8be0098cc8874a00e693f8bfa00812831f022b0a10ee9301de8cef378de5c836a6511b0e0cc5caa8f48ffa9181",
    "nonce": 0,
    "r": "34871911681583133146514112141374519141035406175039501471166822785942524524735",
    "s": "3651211000590248203437291440470331452880897082371476903457270896697278108033",
    "startgas": 90000,
    "to": "0x6102ee155aafeac64cd84c58b37cc0a8d533e5eb",
    "txhash": "333095548e9c38c31568b2c26dd44b816dd01cf73a5d20feaa53da7335030c70",
    "v": 37,
    "value": "474517300000000000"
}