{
    "data": "",
    "gasprice": "40000000000",
    "hex": "f86d0d8509502f900083030d40941784eabc41c9435e923322ca6947311901ca276188030d98d59a9600008026a07d67eb62d4d82e8fabdee7443e68c4b13b4414e84ab5eaf51fc907ee82d66542a0541d8e8064a10830bb9210527e1e0228d34968a8931f4e77d3c310e953ff421e",
    "nonce": 13,
    "r": "56722715895461879196684657193965857608848264979052806352557000809577381782850",
    "s": "38046501355324841310949205906634043671369353650900219401220956044098864628254",
    "startgas": 200000,
    "to": "0x1784eabc41c9435e923322ca6947311901ca2761",
    "txhash": "333cec9ca8f18aa20541fb6b499230a7299b6472a1758e4049893182a397750f",
    "v": 38,
    "value": "220000000000000000"
}