{
    "data": "",
    "gasprice": "100000000000",
    "hex": "f86f83034eac85174876e800825208948a2295654a11a55e91f27579248dffb684414398880186cc6acd4b00008026a0b6dc1599f776178b110470617ac85644352fdc6c980c07a33670f9a9ffe74459a0624919902e67f21e61f8ad6b71b9ab90a992d67b3841489e6a7873b8ee0b4dd7",
    "nonce": 216748,
    "r": "82709793884011566171424771144500512913889880016585720224919542252756537918553",
    "s": "44455815427667044179258830742397852664301713304123061287883341601225248034263",
    "startgas": 21000,
    "to": "0x8a2295654a11a55e91f27579248dffb684414398",
    "txhash": "3399b38502eddbc516352b0ebce50cde73c3ace55b6c00cf38425bf870579125",
    "v": 38,
    "value": "110000000000000000"
}