{
    "data": "6ea056a9000000000000000000000000697beac28b09e122c4332d163985e8a73121b97f0000000000000000000000000000000000000000000000000000002e90edd000",
    "gasprice": "90000000000",
    "hex": "f8ad8345b0cd8514f46b0400830249f0948a3d86dd0db27746b927c6d1c04749978d04bafe80b8446ea056a9000000000000000000000000697beac28b09e122c4332d163985e8a73121b97f0000000000000000000000000000000000000000000000000000002e90edd00026a017b0ac3e6e6d327170a9b09d1c2cad70f663738c5672e4e4bcba8c47b32bd338a05b2fa5d0f03d194d6bc20bc94d6bdc7477e1d337c88066789a298da04aa22d26",
    "nonce": 4567245,
    "r": "10715349384333737056609709613913159801144652211877982249198758432836879635256",
    "s": "41244655454238037220203949168660696141442666563192698462633985033130939133222",
    "startgas": 150000,
    "to": "0x8a3d86dd0db27746b927c6d1c04749978d04bafe",
    "txhash": "33e9de4ab2b1ce24cb5efb13e7a5eaede9aad7bcb2572aa0b450d96e007e0559",
    "v": 38,
    "value": "0"
}