{
    "data": "",
    "gasprice": "90000000000",
    "hex": "f8708345b0c18514f46b0400830249f0941e859b09f722250eb4769b5ff16b70ceb6432103880dcb65bbcabd00008026a0045c353bdb25dfa0c5848ab368df83fabced7f05bce64b8c2a5c416ec2336a38a048268eb8d835fa033accd7c5bd534498278eee0b40e4e30e77578791cd170b12",
    "nonce": 4567233,
    "r": "1972168730564882322515955324836819055479052939756856807534689654162626669112",
    "s": "32634650317837849273756046963439081823465308069652886812129493496170324364050",
    "startgas": 150000,
    "to": "0x1e859b09f722250eb4769b5ff16b70ceb6432103",
    "txhash": "34e737206b00afac7f382f0663fbe86753367867667b0f1f2c939c556228c562",
    "v": 38,
    "value": "994000000000000000"
}