{
    "data": "",
    "gasprice": "22000000000",
    "hex": "f86c0285051f4d5c0082a410943f5ce5fbfe3e9af3971dd833d26ba9b5c936f0be880b5f3920be599c008025a00bd3a2a8d371aea5f8c6f7f4c3c4c4ad6c25eabb4e7d536f70c147375c4500b2a06c4b3968834642b4d841f6f2c08f4f945ea3828e2d55550f6d930fcffbe903c4",
    "nonce": 2,
    "r": "5349368699531049213141069046188524760174020325582774191589167447128347574450",
    "s": "48982697394052182946266147812352456221887440322548197813464490664530956321732",
    "startgas": 42000,
    "to": "0x3f5ce5fbfe3e9af3971dd833d26ba9b5c936f0be",
    "txhash": "3537c2f6abb99724fe64e8de2f108ae1f81b7e51853af6d9dfa31d0c8e77e2d1",
    "v": 37,
    "value": "819436470000000000"
}