{
    "data": "",
    "gasprice": "1000000000",
    "hex": "f86e8349a384843b9aca0082c35094e7ad9510001838459cb4d5c7b228781f4b731e50880125a0089a0cbcf08025a0be1589b0e9e1bfcfa5f3295a603f7b687f01cc3050f8109dce186f46c539ea51a0430f7c25ee1c775e3426305f38009bfa3effe30c7e9a2e9fc9748bd3ee4dd951",
    "nonce": 4825988,
    "r": "85977495328011715406323055615189268131561886460615615312655314570483039070801",
    "s": "30332320400191588266411165395254987554625882505025114078950497230469775350097",
    "startgas": 50000,
    "to": "0xe7ad9510001838459cb4d5c7b228781f4b731e50",
    "txhash": "354931e388343cc7980824fb74f8e742e97b06503a395ca9d89e9d7a379af3c7",
    "v": 37,
    "value": "82648126980930800"
}