{
    "data": "",
    "gasprice": "20000000000",
    "hex": "f870832e77808504a817c80083015f9094c80cfadac04d34e5f5f368273cd1be9de4e85cee8801716f0d755514008025a014a293838afcbb12afdb90d9dcdc8d2dd6677e437dfbd1275d5329fd9553ed95a01ba55d5b5a111fc4700976446116aab3ebceac2ff3ef08fac8f7dbb3d8f74dd2",
    "nonce": 3045248,
    "r": "9333504299262481290555796564868258654035206602204943554503456081651506081173",
    "s": "12504621002687174826278661539682210960414979813197088377645994420379950992850",
    "startgas": 90000,
    "to": "0xc80cfadac04d34e5f5f368273cd1be9de4e85cee",
    "txhash": "3574abf8a70d1f0ab8dfa5772a6cec0383424f0dd649dd70b38fa8b2e27ae267",
    "v": 37,
    "value": "103986370000000000"
}