{
    "data": "47cf8971000000000000000000000000000000000000000000000000000000000000008500000000000000000000000000000000000000000000000000000000000017090000000000000000000000000000000000000000000000000000000000001748000000000000000000000000000000000000000000000000000000000000587a0000000000000000000000000000000000000000000000000000000000001727000000000000000000000000000000000000000000000000000000000000173a0000000000000000000000000000000000000000000000000000000000001772",
    "gasprice": "2000000000",
    "hex": "f9014b820dd58477359400830dbba0940fa8051dbdbbcc32d602803d5f1de1e6f92a0bbd80b8e447cf8971000000000000000000000000000000000000000000000000000000000000008500000000000000000000000000000000000000000000000000000000000017090000000000000000000000000000000000000000000000000000000000001748000000000000000000000000000000000000000000000000000000000000587a0000000000000000000000000000000000000000000000000000000000001727000000000000000000000000000000000000000000000000000000000000173a000000000000000000000000000000000000000000000000000000000000177225a0dd0f1bcf63ae9aa776f73f35c48f6f73d3b95164a52b60c9215a627b59005512a03058da0c96fd380c2b2ad59e6e429d9299a6f7927bd4d48355831123717c2e7e",
    "nonce": 3541,
    "r": "99987834181231615883935559869775723026501666595526229395725152518649497539858",
    "s": "21868004193821256790084531454144640587967903937944074293839063100971271597694",
    "startgas": 900000,
    "to": "0x0fa8051dbdbbcc32d602803d5f1de1e6f92a0bbd",
    "txhash": "35ce1e8f19bff680b53dde092692b29edc7361d5d9faa992684339748da5a13d",
    "v": 37,
    "value": "0"
}