{
    "data": "",
    "gasprice": "22000000000",
    "hex": "f86c8085051f4d5c0082a410943f5ce5fbfe3e9af3971dd833d26ba9b5c936f0be880da7dec95afc00008026a07e7cbf06e8449f5f9fe96d20314c064183da00dd278847dc3d4d352233f97ba6a02373ec6e213cd4ef71b626450cd8cbbc78b086582d642d18181ad9fcf95e7291",
    "nonce": 0,
    "r": "57211826377296682940468868189317444799201011404565625773925607481033566550950",
    "s": "16035768894096144117895738143083639455989230933099922963126454435651824546449",
    "startgas": 42000,
    "to": "0x3f5ce5fbfe3e9af3971dd833d26ba9b5c936f0be",
    "txhash": "369b2ef4f738cfb2f6be22f818e45d595662af0e0377f944d30c6a23e462cd34",
    "v": 38,
    "value": "984000000000000000"
}