{
    "data": "a9059cbb0000000000000000000000003734c4ebf119f57d497369e7e6e6e6ed7043a9750000000000000000000000000000000000000000000005cd3555421b21010000",
    "gasprice": "100000000000",
    "hex": "f8ad831a3eb885174876e8008301373694d850942ef8811f2a866692a623011bde52a462c180b844a9059cbb0000000000000000000000003734c4ebf119f57d497369e7e6e6e6ed7043a9750000000000000000000000000000000000000000000005cd3555421b2101000026a0c6ca833c950adeacb0b9d5494dc065689df0758f91677255e5e684c9d599a0b2a009f296cc88c0267783e23bd8007a201fc66db0db89ad858e1aa2e18a7e71178c",
    "nonce": 1719992,
    "r": "89915752888636211169637505983955809661200181924023195106555810298650189996210",
    "s": "4499433403108422885947471939305102749875675553906813769627600543759899629452",
    "startgas": 79670,
    "to": "0xd850942ef8811f2a866692a623011bde52a462c1",
    "txhash": "36b6b8b44e37cf2f8b388235a3fd9cecdf18e35a3ea61196f329c7ceebea276b",
    "v": 38,
    "value": "0"
}