{
    "data": "",
    "gasprice": "21000000000",
    "hex": "f86e808504e3b2920083015f909416dc3ae64acc9bde82b00150b6303f96e3b8f5b78901bb908b8e97fd80008025a0a853651646b93f2323d8b5922396ce7f02ca9c6687eca991a06760ce2da73170a07d6ea2307fe19ba1863d4b18adbde5d205afe018dc73b5e5d352a7a1975cdcc4",
    "nonce": 0,
    "r": "76135904545313278130579891027163510252346378965255766993084106110829047787888",
    "s": "56734578640487011680041818590342028339563351290961951579303054981428804377796",
    "startgas": 90000,
    "to": "0x16dc3ae64acc9bde82b00150b6303f96e3b8f5b7",
    "txhash": "3723ebff105cefdae1ef0ca2fd0a34ac87a2903d8d8a23d6ca89edc76ea57b75",
    "v": 37,
    "value": "31962200000000000000"
}