{
    "data": "",
    "gasprice": "1000000000",
    "hex": "f86c820178843b9aca0082520894730952cc677b1f432893d53cbf528baccbbf244187d529ae9e8600008025a0360f35d768bbb5e86481bb36f1cc80f2ab3e26ff0a14839296b6786b82156162a02a3c24f58272278214d9f03ea5b42d77d4b5b2eabf094a3a1df907c9bf6fb971",
    "nonce": 376,
    "r": "24451768129442672060494289950245775209418991000914207028683965839086043095394",
    "s": "19103405546176867567572023196551957691265135076669424123200862379676149987697",
    "startgas": 21000,
    "to": "0x730952cc677b1f432893d53cbf528baccbbf2441",
    "txhash": "3909d8ee5ffeb0df97bcb00c567cbb39fbfbdeb12a527794afb9a6db75a18721",
    "v": 37,
    "value": "60000000000000000"
}