{
    "data": "",
    "gasprice": "40000000000",
    "hex": "f86f8232f18509502f900083029ec594c50f681a70a4a0392c5d03dede7932de644bc97f884784d8f99069d0008025a07cd4e8fbb30c7800cb3bcb84b7b56a1a1bf8d0164a44d69dfa4ed0d8575e0808a078c178c59addf7f9d7355a50661b6b6ae567e0785f538aeff7420ac418679c79",
    "nonce": 13041,
    "r": "56462972793013148061665412113731842007874777533966290972296691547323494172680",
    "s": "54619376850474708602460969670319852392271806169880131442981549015473781709945",
    "startgas": 171717,
    "to": "0xc50f681a70a4a0392c5d03dede7932de644bc97f",
    "txhash": "3a26bdfebf874ed17660ef5212eba8f75300f845651f895136e23c8e3aedad0e",
    "v": 37,
    "value": "5153482440000000000"
}