{
    "data": "a9059cbb0000000000000000000000002c3fc7f02a0c051963c1f7efdbd3a0c102cd16c1000000000000000000000000000000000000000000000000000000e8d4a51000",
    "gasprice": "29000000000",
    "hex": "f8ac8208928506c088e200830249f0949af2c6b1a28d3d6bc084bd267f70e90d49741d5b80b844a9059cbb0000000000000000000000002c3fc7f02a0c051963c1f7efdbd3a0c102cd16c1000000000000000000000000000000000000000000000000000000e8d4a5100025a036a51b0088e2ac003149dfb26029df66d121c20ea0db647e41bd0ba1d6100031a0066fbdd5b2557e3f1d7935ac9830004917cff5ede3ee284f3cb5ebf4b6630c00",
    "nonce": 2194,
    "r": "24716609950751900800727599764772787118805934563224749120044370859220051951665",
    "s": "2911307306998940269685720749807483819443484060860405568419478483656453065728",
    "startgas": 150000,
    "to": "0x9af2c6b1a28d3d6bc084bd267f70e90d49741d5b",
    "txhash": "3b5c697412dae2d751c0baccb06066121939738df30adc7035f1a6d3cfe54a3b",
    "v": 37,
    "value": "0"
}