{
    "data": "",
    "gasprice": "1000000000",
    "hex": "f86e8349a36d843b9aca0082c35094ce2d2ce11286d25c071908e09f73981d9749347b8802c69b422c3def408025a07e98ec047cddbd753fbc9ee28f48e3046fc74bc42a3f0dfe45dfab26a5e1c12ca049e1ea1f90c15d8245b0e5f5b0c242f96bcbc2ebf7202b134a2c23895f3ede1b",
    "nonce": 4825965,
    "r": "57261608608465451335759076732636283337093579247217379756672153729154739716396",
    "s": "33417994395801594357138142327712825026555200154697816525696247994441254493723",
    "startgas": 50000,
    "to": "0xce2d2ce11286d25c071908e09f73981d9749347b",
    "txhash": "3c41f4ac33f7fe5741c675a7b97766d7eb34c32533adffec4d21174d555bfca5",
    "v": 37,
    "value": "200017941976969024"
}