{
    "data": "",
    "gasprice": "1000000000",
    "hex": "f86b0a843b9aca0082520894841006ad0373d7e8311d25852a28e11bdcc0311a8806f05b59d3b200008026a0bde861502d59e653d963225296f31569b91e47d74c8b196c646a783101e17279a015559f6bc8285ce561731a556216b33bfcdbe6f3a1a9a10e0a64e8270c1b56a5",
    "nonce": 10,
    "r": "85897708532233340347325569557160340713121978732796163983472960993403349332601",
    "s": "9649852104217252566045524181436552037954474085827034632704889755462446831269",
    "startgas": 21000,
    "to": "0x841006ad0373d7e8311d25852a28e11bdcc0311a",
    "txhash": "3c6c1339f1b7b0284bcd3da5472f1129d80069b97bbdbb8a2fadacb1ae7f77d2",
    "v": 38,
    "value": "500000000000000000"
}