{
    "data": "a9059cbb00000000000000000000000045eda6b6f896cdc4be8babc24cdf8f5fe2ae067e00000000000000000000000000000000000000000000000340aad21b3b700000",
    "gasprice": "1000000000",
    "hex": "f8a805843b9aca0082ea609480bc5512561c7f85a3a9508c7df7901b370fa1df80b844a9059cbb00000000000000000000000045eda6b6f896cdc4be8babc24cdf8f5fe2ae067e00000000000000000000000000000000000000000000000340aad21b3b70000025a0b166d5fadc7d5b28cc1a1b554551b1b248bb7bcb7413aadc971b8003555eb412a0701ffa5038f079a5110777790fe4f2f7e925b38efe22dd204aa0b97d3967c796",
    "nonce": 5,
    "r": "80241069435024351793392076691595818898956457184670094386116825418366273369106",
    "s": "50715538899712810507548600874422109647802474308515588596661879660593587668886",
    "startgas": 60000,
    "to": "0x80bc5512561c7f85a3a9508c7df7901b370fa1df",
    "txhash": "3d0cff28d38f0a432558bb79a08d161920f73ee428c7cf32be1e98d2954b3a65",
    "v": 37,
    "value": "0"
}