{
    "data": "",
    "gasprice": "40000000000",
    "hex": "f86e8232f28509502f900083029ec5942268a0aa264d1c6fb054992b9c289c903ee13c07877c7f5e4695d8008026a06e66d6bfea056bb533f1978fce609e8c09dba8bd44d821d670ca8ccefa0a763ea06b0d49486e3953c24a2d4abd3203c0e84e18d310a6272ce195ac1d0a42da9b2e",
    "nonce": 13042,
    "r": "49936113892480030740044705078376076774965816268549368367639426359917550401086",
    "s": "48420949590459033417150156672433601955836589838934682226639351162126976326446",
    "startgas": 171717,
    "to": "0x2268a0aa264d1c6fb054992b9c289c903ee13c07",
    "txhash": "3d587eeaccfe7883a98ea6187133f2049c3c2ae63f37d7950c1036c94a5ef7b6",
    "v": 38,
    "value": "35042940000000000"
}