{
    "data": "867904b4000000000000000000000000d51aad2b1990d331909a7359453403079d25575e0000000000000000000000000000000000000000000000062e115c008a880000",
    "gasprice": "22000000000",
    "hex": "f8ac82930385051f4d5c00830493e0946ddca767d731f57d90a516dd751f2aa9282b37d280b844867904b4000000000000000000000000d51aad2b1990d331909a7359453403079d25575e0000000000000000000000000000000000000000000000062e115c008a88000025a069115519bd97b749cd28ca35282468fb12a1bf0036ec0c2e25556e06be973a66a0217374c5477123d0cb0e27b236326b73c6d749b2ca0b33e95d708504e1efadc0",
    "nonce": 37635,
    "r": "47523472843748782644807081858605635515321150127870415928973867947977803774566",
    "s": "15130317336906741913956654133695621340945964683566418726123292093181844237760",
    "startgas": 300000,
    "to": "0x6ddca767d731f57d90a516dd751f2aa9282b37d2",
    "txhash": "3d7df71764b242685f78452a40b1044f0a46afb5097164b750337247ac15ea15",
    "v": 37,
    "value": "0"
}