{
    "data": "",
    "gasprice": "1000000000",
    "hex": "f8690f843b9aca008252089497e9e092c68c9fbd34f4a2c5d8f07430889ee539865f5dec3cba008026a0e78b962a4b70db0ef68458de23fd97073b5ccab151602289c0ec3102c260f5b7a075fd6394be4017575c720a6bc32fef85d2dfa63b041b7e9738e3c0236b709482",
    "nonce": 15,
    "r": "104730896166953357757047424518166537160654047369054073193419470509418917983671",
    "s": "53368302874627238677065776732007367580500931044018360063316155771502935970946",
    "startgas": 21000,
    "to": "0x97e9e092c68c9fbd34f4a2c5d8f07430889ee539",
    "txhash": "3d813f1175758a1b61752c577522efee166fc9e6f249d430c17167719ffed195",
    "v": 38,
    "value": "104857000000000"
}