{
    "data": "",
    "gasprice": "100000000000",
    "hex": "f870830261a785174876e8008303d09094589c18a3db265f37b7029426c2faf63c2c71c90f88020350b008e9e4008025a04ead788b87791d009580163e4042e069300b1799e3d7c9c9e91246bd4538d8dca009d63c51fe7a9fb5daee90b1d933767d9ad5b765c4165e434d01f8d67e8d5dbe",
    "nonce": 156071,
    "r": "35586898702962622876713826445502200356848625915301606087549331815480889497820",
    "s": "4449337224448225832404280504683309976903425795432270657382780792946591358398",
    "startgas": 250000,
    "to": "0x589c18a3db265f37b7029426c2faf63c2c71c90f",
    "txhash": "3e6ab29ac02734156cb43fe8b88a8d669970516998ff04cadb04cb40af9809e3",
    "v": 37,
    "value": "145048330000000000"
}