{
    "data": "",
    "gasprice": "90000000000",
    "hex": "f8708345b0e98514f46b0400830249f0944b99e78f6b2e29ec413b7ba0ac95c6aabdb6005f8802e6c297cfb67c008026a00f7e9fe5286e7254d9a16fff8cb38778c7ffde3c54259200fce60cc2668aad0ba029ed3a02fbdefe029fce739ee907e1c2f25f2cdb07cc6c365a05bded8ebfba7b",
    "nonce": 4567273,
    "r": "7008419014665925493884572082106585893805331808354936965602360841321365286155",
    "s": "18963969927999525086893551726375463512367330196441687597222007581023217367675",
    "startgas": 150000,
    "to": "0x4b99e78f6b2e29ec413b7ba0ac95c6aabdb6005f",
    "txhash": "3edae4714f0cff7b8b78cec9c7decfaa7d73dc97607c38668c2cf841054e86ca",
    "v": 38,
    "value": "209068390000000000"
}