{
    "data": "2e1a7d4d0000000000000000000000000000000000000000000000001434b3f472f73281",
    "gasprice": "10000000000",
    "hex": "f88a81808502540be4008303d090948d12a197cb00d4747a1fe03395095ce2a5cc681980a42e1a7d4d0000000000000000000000000000000000000000000000001434b3f472f7328125a045e660afd0e7692946602ecd4ff634728150a5cc0a86a8bb5158606a8a1972eda002378e3de518b58044cf5a7d4f40b0f54d3f6495592d9f403ba2040b00219e0f",
    "nonce": 128,
    "r": "31616628684784521381875703598241053735955230176349048528474558030587956392685",
    "s": "1002784002394014351506344555412688684248501290679900472792372860914908634639",
    "startgas": 250000,
    "to": "0x8d12a197cb00d4747a1fe03395095ce2a5cc6819",
    "txhash": "3f4b76e2ff3b39909b136f0db325f8af31646f34b4364f6a8319c10a07f72715",
    "v": 37,
    "value": "0"
}