{
    "data": "",
    "gasprice": "20000000000",
    "hex": "f870832e77778504a817c80083015f9094115fb8c4f2f33402be3787307a2b9b1e2ed0326e8801770dbc9cab98008026a0451142c276915fe24ecae9fdbf6b6d3b422eb4cc0e0461c0af042c45c02ef9a3a00edf805a43dfd55c20efe6a1428b777866032365460c85bb49ae192aa659684b",
    "nonce": 3045239,
    "r": "31240083710321808972560202258478305289513040700682455726627719299249363417507",
    "s": "6727272632686901655414377978187080744260564199397272265427358400522768443467",
    "startgas": 90000,
    "to": "0x115fb8c4f2f33402be3787307a2b9b1e2ed0326e",
    "txhash": "3fa9107ea5a7f6313460aa5aa7a27403620be909c3ba8afa9828bc7a39d08f6d",
    "v": 38,
    "value": "105568220000000000"
}