{
    "data": "a9059cbb00000000000000000000000054313a8fad2f025fa1a04ee5bdbb58ec707446c900000000000000000000000000000000000000000000010f0cf064dd59200000",
    "gasprice": "2000000000",
    "hex": "f8a976847735940083012e6594db8646f5b487b5dd979fac618350e85018f557d480b844a9059cbb00000000000000000000000054313a8fad2f025fa1a04ee5bdbb58ec707446c900000000000000000000000000000000000000000000010f0cf064dd5920000025a0c154ee15f56c7243e860e97bdad0ff8d24b7ace82626c8b39dabcb25752a7d4ea078018e56cd07c3362c1d2f9b4acdae0e9aa4074590a442ed4bbc4aba8595b6a6",
    "nonce": 118,
    "r": "87446438137647337103126355944201146341385564988840743107668312157373078338894",
    "s": "54280291065185615742134652515335310810869004075508009190581513626774947608230",
    "startgas": 77413,
    "to": "0xdb8646f5b487b5dd979fac618350e85018f557d4",
    "txhash": "3ff1cb545c0ecc683ff19913dc9e0515b444693bba5dfbe717c30d066a164b2d",
    "v": 37,
    "value": "0"
}