{
    "data": "6ea056a9000000000000000000000000000000000000000000000000000000000000000000000000000000000000000000000000000000000000000000b1ceae8f348000",
    "gasprice": "90000000000",
    "hex": "f8ad8345b0ec8514f46b0400830249f094a31f619a750f957949814a7018aad2152d24b27880b8446ea056a9000000000000000000000000000000000000000000000000000000000000000000000000000000000000000000000000000000000000000000b1ceae8f34800025a088d3daefc888461f8e19de4f34dd55b3a614a7ece339adc2652538707486932aa057c0982a7676df80e1122f797f2a2501695d7b8231705e18febb817c6c81156d",
    "nonce": 4567276,
    "r": "61888863183241839876620651100991443175321265332098354989745138890939382010666",
    "s": "39691502673419849723284097775475157968674799667650665810587056077163911517549",
    "startgas": 150000,
    "to": "0xa31f619a750f957949814a7018aad2152d24b278",
    "txhash": "40403f3d26cafa2d73df0a2cb2c2b7e26cc09430a8651bfcfab32c750798df2c",
    "v": 37,
    "value": "0"
}