{
    "data": "",
    "gasprice": "21000000000",
    "hex": "f86b108504e3b2920082520894591a4535cc6b5fd6e338b019e5ef6ac75bbeec82879cb4e6dc65d0008026a0fa9e1ea1ae9dc1ff3e1623799c59083999264790149b45f125b5ec364a5441ffa04ba44c9c36c0e24a788a2d04331eaa5d463de59651d26cfb97a000cf1b003031",
    "nonce": 16,
    "r": "113357585393382635491001479398745166183238244225415788252921571064486707872255",
    "s": "34213755306608881920711288791152607685715216158566673386415154409539127750705",
    "startgas": 21000,
    "to": "0x591a4535cc6b5fd6e338b019e5ef6ac75bbeec82",
    "txhash": "406e8dbab00a182cd2e3c9fd8e830ecf6f4e7b9913eb6c8c82a37d7b542280f4",
    "v": 38,
    "value": "44109000000000000"
}