{
    "data": "ac307773",
    "gasprice": "1000000000",
    "hex": "f86868843b9aca008301b1b094412740ed95f1a972a19809a796ccc13f46cdcac38084ac30777325a0ed06867f8d1a1eac83f1b3624a3c7081dddb1d9f347ed735390b56e63ec8b05ba04810847874e07b03f279024be6d8eba1eda96b2636f9d74491c0a7902fa68874",
    "nonce": 104,
    "r": "107209674469406279210061334333214275888278647130614422124733776675505212797019",
    "s": "32595708929051582291568172389783981650110330445895746491078294765828980508788",
    "startgas": 111024,
    "to": "0x412740ed95f1a972a19809a796ccc13f46cdcac3",
    "txhash": "40a1625db057e3dcc734d8d0b3fbf179e7a3a73de0a48724143619343ef0e155",
    "v": 37,
    "value": "0"
}