{
    "data": "",
    "gasprice": "22000000000",
    "hex": "f86e819d85051f4d5c0082a410943f5ce5fbfe3e9af3971dd833d26ba9b5c936f0be89064b60fd84dfe588008025a0053019c497e0d32dc0d94ddff48049505b744e6761883b1ea2d522e70bd684ada01dbac4b8386d6b59446e633435a88e72c4d4a68f07e1e82566e006f75c6acd7b",
    "nonce": 157,
    "r": "2346550745828554563594384082457182963647733183279100562903060948778749428909",
    "s": "13447063871820163289685877064547052810338295515681528769805087342602173992315",
    "startgas": 42000,
    "to": "0x3f5ce5fbfe3e9af3971dd833d26ba9b5c936f0be",
    "txhash": "412e3729bcfcef561d2f09bba565a1adb6754b0d74363bdb19a85e77987d5a8d",
    "v": 37,
    "value": "116112084340000000000"
}