{
    "data": "3d7d3f5a00000000000000000000000000000000000000000000000000000000000741fc000000000000000000000000000000000000000000000000002386f26fc100000000000000000000000000000000000000000000000000000011c37937e08000000000000000000000000000000000000000000000000000000000000003f480",
    "gasprice": "1000000000",
    "hex": "f8ea81f6843b9aca00830397f39406012c8cf97bead5deae237070f9587f8e7a266d80b8843d7d3f5a00000000000000000000000000000000000000000000000000000000000741fc000000000000000000000000000000000000000000000000002386f26fc100000000000000000000000000000000000000000000000000000011c37937e08000000000000000000000000000000000000000000000000000000000000003f48026a0be07d28d37feb8fcd6d3a6af368a553e50393139735cf373ce7cd3732efb063ca039fe7aa1ba59fbc64f67fd1ff46822cc6c2195b6aab22bdb5be33637095f7ff4",
    "nonce": 246,
    "r": "85953262334256331412732105570055256095418074103699670056875326687035558397500",
    "s": "26231457896930718930043029359945369717316197059082505338560744789133223755764",
    "startgas": 235507,
    "to": "0x06012c8cf97bead5deae237070f9587f8e7a266d",
    "txhash": "41b01074dac3bbc3d13cc91769e1b514aabd75b9492e99ff73db6cff03b186c7",
    "v": 38,
    "value": "0"
}