{
    "data": "",
    "gasprice": "70000000000",
    "hex": "f86d1885104c533c008303d0909456eb83949fdf543e8cee4569739d21f07e4eafa9880b1a2bc2ec5000008026a08a7597080567c0366f07de95d7323f38891b339288ffee568a844a86e29bb379a029d86b7902e1491124981d72630a352964754a9c0d486d1595630630b56ecc1a",
    "nonce": 24,
    "r": "62626936591017013348901265171823114970527356536834109316342759093340645077881",
    "s": "18927207507222007882820633279216710784684902473557285879965376303138952104986",
    "startgas": 250000,
    "to": "0x56eb83949fdf543e8cee4569739d21f07e4eafa9",
    "txhash": "421070b69c32afff7a749f313018bc89d1e677481309640bd0bd6896d18a8c7f",
    "v": 38,
    "value": "800000000000000000"
}