{
    "data": "",
    "gasprice": "100000000000",
    "hex": "f86f8302ec9385174876e8008252089479d6373686b10591354abb371dcf55d7f9b59e548804064976a8dd00008025a0ae94ead1b9af14af523a11d00cd2dfa2129ded16281da64f04cd9e6736f6c8b7a06a554d73f8c26011feb16244d12a5e1e71370975b182eda682400db2a1b823af",
    "nonce": 191635,
    "r": "78965549681904352906482476007886561639268341765502540813537346137149375170743",
    "s": "48095878511392379115162441166128440955402968756999109296125670491126698091439",
    "startgas": 21000,
    "to": "0x79d6373686b10591354abb371dcf55d7f9b59e54",
    "txhash": "42a943206ec7a3d0d706881ab5c57aba33588821238700d9441e9124c7c3edbb",
    "v": 37,
    "value": "290000000000000000"
}