{
    "data": "a9059cbb0000000000000000000000006f0078fe3c0d14c4c948ba7d2e28dcc046b8f42a00000000000000000000000000000000000000000000000000000000056dbfad",
    "gasprice": "3000000000",
    "hex": "f8ac8301f5c584b2d05e008303d09094b64ef51c888972c908cfacf59b47c1afbc0ab8ac80b844a9059cbb0000000000000000000000006f0078fe3c0d14c4c948ba7d2e28dcc046b8f42a00000000000000000000000000000000000000000000000000000000056dbfad25a084cdd6fbbe269ff4f5ead4c86f1f6d759f5c5a331b2e17a02f19de591186efdfa0478388032a885488e27916ee071d87ad302e02c80114bc0753285d0397f7ea17",
    "nonce": 128453,
    "r": "60068983421960783439416617054772165395186674603287666455865294761389728395231",
    "s": "32346607937760084686871416423770564731991663441056509295457157493633767172631",
    "startgas": 250000,
    "to": "0xb64ef51c888972c908cfacf59b47c1afbc0ab8ac",
    "txhash": "42b437d5f5d1a8659042a91bb4e0a641c9141b19160e1bdbb65d255bc3ecc4f0",
    "v": 37,
    "value": "0"
}