{
    "data": "",
    "gasprice": "100000000000",
    "hex": "f86f83034eaa85174876e80082520894164444fb07eb613de9d8c843340b2d1371ec552b8804c43cb9bb8a00008026a0ac3a159962ed55c8c9f0805e5b14ce9a2c936d50b23959b114b20006c8227399a05407e37f6716c4f8571e1f099627c9eb68499d6efccd8354b5164addddaee05f",
    "nonce": 216746,
    "r": "77900436158042326345860547488509391007503813806489795608637306775344408327065",
    "s": "38008217341638306335417994986393003328832499005617117286948193845069476716639",
    "startgas": 21000,
    "to": "0x164444fb07eb613de9d8c843340b2d1371ec552b",
    "txhash": "43c8be92e593dc55b6840c9dfb2b3745e22d9eeb3cd42c7b49578d1d259923f8",
    "v": 38,
    "value": "343466240000000000"
}