{
    "data": "",
    "gasprice": "22000000000",
    "hex": "f86c8085051f4d5c0082a410943f5ce5fbfe3e9af3971dd833d26ba9b5c936f0be880d9b149b09cb00008025a0066ba368573171447c0716d92bd6f6ad5e2f01bddba9aeb7123584c667c513f6a0130eea707409e3859f2cbe6de0b1de28fcdf08b3fe4bf8867ea8155ebe784eec",
    "nonce": 0,
    "r": "2904057525102374518943977761676839811254617816678607999209971186585473192950",
    "s": "8620298022368428305005380178702149809532509191797981737191657831274038972140",
    "startgas": 42000,
    "to": "0x3f5ce5fbfe3e9af3971dd833d26ba9b5c936f0be",
    "txhash": "43d43bddde3a26ad457f7486cf21c838e809dff806003671312977bafd99a029",
    "v": 37,
    "value": "980400000000000000"
}