{
    "data": "",
    "gasprice": "90000000000",
    "hex": "f8708345b0df8514f46b0400830249f094a1ae5f8cf0e6420373b8101cd914300d2c9b182a8801071d2d7810c0008026a0fdc6c163512f1646171636793aed00909a9946546d5fbc8c65d820a1af15ac00a05d2fbaf3676b7b24fa4187935992c7538bbf56332a0c8019613d9c106a7639bf",
    "nonce": 4567263,
    "r": "114786321125021833078734657402944830969071024644380105555368889338189149744128",
    "s": "42149427017267282518940592321581995705790730033899265094875901628014300379583",
    "startgas": 150000,
    "to": "0xa1ae5f8cf0e6420373b8101cd914300d2c9b182a",
    "txhash": "440798d6c1e6576262ae634c9d81a8edf3c9bb38842d34a8d42cc44674366b21",
    "v": 38,
    "value": "74060000000000000"
}