{
    "data": "",
    "gasprice": "1000000000",
    "hex": "f86b03843b9aca008252089492a3b9ed67b521616ef376f941180dbdb4e014a688016345785d8a00008026a09ebfa40d711036332175d19a803c1231eaf4d72fa0792b0ef97ccd49a8513e0ca01393fdda6d6ddd22b5380a86cc823a316d737c83e5ab79612fc43b2df9562a7a",
    "nonce": 3,
    "r": "71804030114315899167738351615759747834169148384240710423407037897802100325900",
    "s": "8855422672222830469252051220778632410032758102996889194300372664721106938490",
    "startgas": 21000,
    "to": "0x92a3b9ed67b521616ef376f941180dbdb4e014a6",
    "txhash": "44a0349f4bf28d70baca6a34af64a058248b6e4822914f00fc49b9dbd8cc2f64",
    "v": 38,
    "value": "100000000000000000"
}