{
    "data": "f7d8c883000000000000000000000000000000000000000000000000000000000006ee3f0000000000000000000000000000000000000000000000000000000000063cf4",
    "gasprice": "1000000000",
    "hex": "f8b2820548843b9aca008301d4a99406012c8cf97bead5deae237070f9587f8e7a266d871c6bf526340000b844f7d8c883000000000000000000000000000000000000000000000000000000000006ee3f0000000000000000000000000000000000000000000000000000000000063cf425a052f6b276e6ab5a1e189ac3bc71b368b3ccd391cd5595a59e10e2aa3180361648a01032f8f995a47476a221d9b82b29a8662d957c05d3344db37ba7d8cc231d24cb",
    "nonce": 1352,
    "r": "37525529678179079052753703138424357799560480528213468232912939197747455989320",
    "s": "7327066292451089905732743886318268093570845976672029115417407228609344382155",
    "startgas": 119977,
    "to": "0x06012c8cf97bead5deae237070f9587f8e7a266d",
    "txhash": "483163edae9b8311dd6af5cda1fa72a2e2baea04a624f6f896e71a316b6e2e20",
    "v": 37,
    "value": "8000000000000000"
}