{
    "data": "96b5a7550000000000000000000000000000000000000000000000000000000000075780",
    "gasprice": "1000000000",
    "hex": "f88a8201f5843b9aca008301aa6d94b1690c08e213a35ed9bab7b318de14420fb57d8c80a496b5a755000000000000000000000000000000000000000000000000000000000007578026a0e41c2f95f9fc11284f974bb89676a542fd558395aa40c294d80582e764cdb478a02c54f4e60c3b8f64740addc5b5d84eea508273e463b952c91a23336921083e81",
    "nonce": 501,
    "r": "103177129620235338855853942599961649220072612872316277793390182988044521288824",
    "s": "20051870719289704829261576004479524192114984404862941042008673498745373474433",
    "startgas": 109165,
    "to": "0xb1690c08e213a35ed9bab7b318de14420fb57d8c",
    "txhash": "49740ff071608f6ccc1d58ed5c6bdb85310c7964e873e59a3f9847d0f1a7dcad",
    "v": 38,
    "value": "0"
}