{
    "data": "867904b4000000000000000000000000540ae23a9774ebad964166134f98ec3a45f8def90000000000000000000000000000000000000000000000062e115c008a880000",
    "gasprice": "22000000000",
    "hex": "f8ac8292fe85051f4d5c00830493e0946ddca767d731f57d90a516dd751f2aa9282b37d280b844867904b4000000000000000000000000540ae23a9774ebad964166134f98ec3a45f8def90000000000000000000000000000000000000000000000062e115c008a88000026a0b524ff614e1893434e8a6ad5eff65e2251793fd5b38497ec92ea5573cbe7204ba044b954f32995a3a3b698c77ebab1d7949e436ce155eac48f78e36a0ae4a1bd14",
    "nonce": 37630,
    "r": "81933994656560964858690049972083433245470716027457350867385402200232733122635",
    "s": "31084726712985647997039684579870203530889611730587739731057756098960732306708",
    "startgas": 300000,
    "to": "0x6ddca767d731f57d90a516dd751f2aa9282b37d2",
    "txhash": "4a59ef50d209363c118db4ee18f6aed2f614eb2bbc19e2a8ec232302934b0e6f",
    "v": 38,
    "value": "0"
}