{
    "data": "a9059cbb0000000000000000000000003fc9e4b26145a50a0fcf03778efe99ecb4bca4060000000000000000000000000000000000000000000000007ce66c50e2840000",
    "gasprice": "43200000000",
    "hex": "f8ad8304d000850a0eebb0008301202694419c4db4b9e25d6db2ad9691ccb832c8d9fda05e80b844a9059cbb0000000000000000000000003fc9e4b26145a50a0fcf03778efe99ecb4bca4060000000000000000000000000000000000000000000000007ce66c50e284000026a008584941ea44c245ca90a9404ce24f8b474efdfff8ef0880c430dbf6c46ee4b7a01f60655fab0e27b13f19b36d1e832e8a1dabfe87dc5d99bcf4a85fafc1c79225",
    "nonce": 315392,
    "r": "3774490934917840015922322400272899887902414147753477521151529378370808636599",
    "s": "14192015279890167085918210501034732842904309504645693238432521010280462258725",
    "startgas": 73766,
    "to": "0x419c4db4b9e25d6db2ad9691ccb832c8d9fda05e",
    "txhash": "4a8cd60dc34c9cef6eaec3a772a70e51f594eade052870afc598cc648cbdf870",
    "v": 38,
    "value": "0"
}