{
    "data": "a9059cbb0000000000000000000000006ef154f6ca91dbcf409f5d0777359e7e67c889a50000000000000000000000000000000000000000000000000000000005e57c7a",
    "gasprice": "3000000000",
    "hex": "f8ac8301f5bd84b2d05e008303d09094b64ef51c888972c908cfacf59b47c1afbc0ab8ac80b844a9059cbb0000000000000000000000006ef154f6ca91dbcf409f5d0777359e7e67c889a50000000000000000000000000000000000000000000000000000000005e57c7a26a0a8a58bdc71242449c6c450e6e0746025ea7c6577949b45b772b39bf3d9bedff6a074ef1ba53ba65d8852aa4c128aa22f79c142a39043aaea13c9952a67bb01473e",
    "nonce": 128445,
    "r": "76281053613522814135041533428323005215805049382723672865968616685278530035702",
    "s": "52890757685965362279678439084627929963870624473222067243440234650878752147262",
    "startgas": 250000,
    "to": "0xb64ef51c888972c908cfacf59b47c1afbc0ab8ac",
    "txhash": "4b19a2dd79d69833ed7933505257bff30f392ed656deae5a8ded4c3cdb1017c1",
    "v": 38,
    "value": "0"
}