{
    "data": "",
    "gasprice": "1000000000",
    "hex": "f86e820118843b9aca0083039fc494705cc76c0102dd386a796258232eec734df54b6d88030d98d59a9600008025a0694ca10355d364e6d5f0758eb134305d1e4e27e4261b459c9bd9072b745294bca0478aa09d46bcd2c33700abe0e611bda09a62c0e98448326e45b0101eabb96f56",
    "nonce": 280,
    "r": "47628240749246308570478719555557686847350533993979496436404769309047622112444",
    "s": "32359145663927981658210840676808789198388441067941102955854504268266617794390",
    "startgas": 237508,
    "to": "0x705cc76c0102dd386a796258232eec734df54b6d",
    "txhash": "4b5eea78e28707e9df0c8136130a1d6048517511709a49b95d32ccdd4fae66e6",
    "v": 37,
    "value": "220000000000000000"
}