{
    "data": "00",
    "gasprice": "45000000000",
    "hex": "f8708303637a850a7a35820083015f90940fb27657d73c55440928aaf5a8f216c09371cb5c883e699e85b45d40000025a0cff34e6b4ff2d2aa4f05e3f307407a71b674f2ba85a79a35320a379d4c59b2c2a07694413fb3326c93a9564d037a317a00f3ab32a70e932e90ee1ed9b1733f3180",
    "nonce": 222074,
    "r": "94058644722826195428028899065237083997394926063990433350514927933905926992578",
    "s": "53634859829273459617800189743187025684219925530929074322440225128883205124480",
    "startgas": 90000,
    "to": "0x0fb27657d73c55440928aaf5a8f216c09371cb5c",
    "txhash": "4beb1534964a4a988af4968509d257673019b2b77f0aea9a27a3e66c54fcbefa",
    "v": 37,
    "value": "4497300000000000000"
}