{
    "data": "",
    "gasprice": "90000000000",
    "hex": "f8708345b0e88514f46b0400830249f094bdc7fafde122ce435da05ccbf5543ed7d5ddb4af880167b1c1341940008026a025249b3242f540b4977e147c34d2a790b81f8b13e85b337f1c7af75df5aea0a9a0149879ac92cc67cb76ed5284fed21e234c653566388fdb52ec5ba93c5b78e549",
    "nonce": 4567272,
    "r": "16800253017645466482485463188230288197364198479017690795756336745812094525609",
    "s": "9315657489390112701510492983212338812734980234341775078827615968175802869065",
    "startgas": 150000,
    "to": "0xbdc7fafde122ce435da05ccbf5543ed7d5ddb4af",
    "txhash": "4bfe937d0c831de697d12e012860bb7ab15fee399a58bb23fb42bd8563ea7a24",
    "v": 38,
    "value": "101244960000000000"
}