{
    "data": "b4f9b6c80000000000000000000000000000000000000000000000000000000000003d64",
    "gasprice": "22000000000",
    "hex": "f88b822c1c85051f4d5c0083036dde9414fbca95be7e99c15cc2996c6c9d841e54b7942580a4b4f9b6c80000000000000000000000000000000000000000000000000000000000003d6426a03e0e5828adfa3ca38679cb9a395022a8c48524181ef8cffcc3c4d5877edf2dd4a00352bf08755ce3ac9ae5e2ce11a183ff5e56f7250212bb4d5fe9c34340e43f60",
    "nonce": 11292,
    "r": "28068740921467765651639693339678293298537241737273893784715979836997999996372",
    "s": "1503138466653187603469532844195823931664112710373290441339775409152927743840",
    "startgas": 224734,
    "to": "0x14fbca95be7e99c15cc2996c6c9d841e54b79425",
    "txhash": "4c83156e2cb2328bb5fde05a9c74ca3196f8db582f5042fe780b4717c08ddc6d",
    "v": 38,
    "value": "0"
}