{
    "data": "",
    "gasprice": "40000000000",
    "hex": "f87083044be88509502f900083015f90945000c0f190c95de00c238dd92c6f1e72697179bc8801925b00e2bf50008026a0ad3841a99b4263e2945ecfb65ed3276376bd48fdfd41e5542b7f43df9bcb7d6ca0794964b6d7aa0a60948be6a65263ff37cee8df42f60fa0531314c78546b0032d",
    "nonce": 281576,
    "r": "78349519426626919389097621172602988310429065683066781065786298809943189060972",
    "s": "54859529618361120855077495081495663744299058026877806455684840324048836625197",
    "startgas": 90000,
    "to": "0x5000c0f190c95de00c238dd92c6f1e72697179bc",
    "txhash": "4d1ab091ea3fc068b2da4e55cabbd0b5b4998462f8c4ace78af497d766a466a9",
    "v": 38,
    "value": "113253000000000000"
}