{
    "data": "",
    "gasprice": "22000000000",
    "hex": "f86b8085051f4d5c0082a410943f5ce5fbfe3e9af3971dd833d26ba9b5c936f0be880b82f9dae92fc0008026a046de8976567c6892dfde61250fc1f4798af297c0bb4f01d8d5bab8154d70131c9ff219d74525bb9054be1e6ae5493866a47c403847d155ec73696a94617d7581",
    "nonce": 0,
    "r": "32055088178840701306590133147123926883382690355086488736321508260609138889500",
    "s": "427755337005642654921876854426697698434366313267935650061669875384709903745",
    "startgas": 42000,
    "to": "0x3f5ce5fbfe3e9af3971dd833d26ba9b5c936f0be",
    "txhash": "4dc7965eef097df3f52751792b2a00288e74ebe60a0080df44a5e6c7878921e5",
    "v": 38,
    "value": "829500000000000000"
}