{
    "data": "a9059cbb000000000000000000000000115b48d744296284e3e7f6925843b9893b52df650000000000000000000000000000000000000000000000000de0b6b3a7640000",
    "gasprice": "1000000000",
    "hex": "f8a880843b9aca0082912894de2b8c72012a6c52c66ea4e7534db01dfbc7d5d080b844a9059cbb000000000000000000000000115b48d744296284e3e7f6925843b9893b52df650000000000000000000000000000000000000000000000000de0b6b3a764000026a0a36af573b17cd8660f0cade35eca5b008ace9c166cd073d0ab75c11de0e28a96a03731c2b2657427cf27b7ea246a3c13a9b5762dd5b718a48a9d5758de97cc6896",
    "nonce": 0,
    "r": "73915974154879394460101695292901502327534996593822936345102853975375396113046",
    "s": "24965125926599901376475325077002144740489038835570541822915517592358227830934",
    "startgas": 37160,
    "to": "0xde2b8c72012a6c52c66ea4e7534db01dfbc7d5d0",
    "txhash": "4e04d419fe3378ffba2d76d3a0c76ed3f3ed76688f797008a4cc4cc2f7fc77b9",
    "v": 38,
    "value": "0"
}