{
    "data": "",
    "gasprice": "22000000000",
    "hex": "f86c8085051f4d5c0082a410943f5ce5fbfe3e9af3971dd833d26ba9b5c936f0be880c5a1c4e898f70008025a019d86ed77396a307abbe8569ccdf1e1c23e356a0e403a7b96ccc2449f13f5ec5a0315870a412a4dffc3edc9142aa1d702998668cf3d8c09194ed0d511ffaadbffc",
    "nonce": 0,
    "r": "11690225181233353065762974101623190212734907302719955391414631100284783255237",
    "s": "22319589541266091674584400666594410998590137947439290854426521716823373496316",
    "startgas": 42000,
    "to": "0x3f5ce5fbfe3e9af3971dd833d26ba9b5c936f0be",
    "txhash": "4e27cce7dddbfc84956538e68246c5e941f7177e0ca759362a1038531bd89bf5",
    "v": 37,
    "value": "890055000000000000"
}