{
    "data": "867904b40000000000000000000000008bc235cb6b285406b402ffe408f2a16dcd6609d50000000000000000000000000000000000000000000000062e115c008a880000",
    "gasprice": "22000000000",
    "hex": "f8ac82930085051f4d5c00830493e0946ddca767d731f57d90a516dd751f2aa9282b37d280b844867904b40000000000000000000000008bc235cb6b285406b402ffe408f2a16dcd6609d50000000000000000000000000000000000000000000000062e115c008a88000025a0654debad347d6e6b01d69306836106603022b8a81f1b90aac3f8db91928ae544a017ee95427c6c3f5e6a323238214b2a3fed94785defae5758c888cf53bb46534e",
    "nonce": 37632,
    "r": "45821271510887948637695473369463185463502276226957020175673455899641507407172",
    "s": "10824735271497788848670870147741840257270126879821961949880352261839769719630",
    "startgas": 300000,
    "to": "0x6ddca767d731f57d90a516dd751f2aa9282b37d2",
    "txhash": "4e5ea9d24087bf58be529e2d75d7eb6a9b0a7d5c54027fd02e6905f543945a0e",
    "v": 37,
    "value": "0"
}