{
    "data": "a9059cbb000000000000000000000000194a0d4139bd1ea6f471dd6b7c3a241479292ac600000000000000000000000000000000000000000000032d26d12e980b600000",
    "gasprice": "30000000000",
    "hex": "f8aa0c8506fc23ac008302bf2094e477292f1b3268687a29376116b0ed27a9c7617080b844a9059cbb000000000000000000000000194a0d4139bd1ea6f471dd6b7c3a241479292ac600000000000000000000000000000000000000000000032d26d12e980b60000026a0946c8b25a3e0882f5ece12342c2921c8d3963df0167bb81d8fff5bc4e8b99530a002e9cab822aca070fa361ca9618ef758dc416ffa48723a3ae9a83966fe7a8bc4",
    "nonce": 12,
    "r": "67134081430837992197894318412345821038975918670299631149875152349236909675824",
    "s": "1317700180303767207095737746271090407408270868210141430464022762942998678468",
    "startgas": 180000,
    "to": "0xe477292f1b3268687a29376116b0ed27a9c76170",
    "txhash": "4efc0bfc59cd276140feaf17859f073b03f357770951b2c0edc76ccec81f0545",
    "v": 38,
    "value": "0"
}