{
    "data": "d0e30db0",
    "gasprice": "20000000000",
    "hex": "f8713b8504a817c8008303d090948d12a197cb00d4747a1fe03395095ce2a5cc68198802c68af0bb14000084d0e30db025a0c636d41a4e461a2338a0e073f40b8a74a884d72396439999e5e24407fded6908a061f79afb0bdb849c425a5eef7e95cf64726edf5d5a72e83b556ab369a89d397e",
    "nonce": 59,
    "r": "89654817640412107678532070690579001086806436430787591312828017431777010084104",
    "s": "44311827174709859482797520524647599553699392303728533001562509910099221100926",
    "startgas": 250000,
    "to": "0x8d12a197cb00d4747a1fe03395095ce2a5cc6819",
    "txhash": "510876bb5c34a3babbee35a9ae602242decf64a568bf08828bf7eefac7cd4e0a",
    "v": 37,
    "value": "200000000000000000"
}