{
    "data": "a9059cbb0000000000000000000000006eee6d956c011020778028df1c59cabc8c985d170000000000000000000000000000000000000000000000000000000005889227",
    "gasprice": "3000000000",
    "hex": "f8ac8301f5b884b2d05e008303d09094b64ef51c888972c908cfacf59b47c1afbc0ab8ac80b844a9059cbb0000000000000000000000006eee6d956c011020778028df1c59cabc8c985d17000000000000000000000000000000000000000000000000000000000588922725a028d02c17f81999948fb45540406f26473dd038605d46f2a71519ea35c546c680a055b824e63b1b7c9495aa2702fbffca1f193f969feff4cc9d0adc39a185dd9e64",
    "nonce": 128440,
    "r": "18460322455850571136098545264464832428539735000688442464582660123443469928064",
    "s": "38771946659377816190524484619451736299674131792244350347806587503596407725668",
    "startgas": 250000,
    "to": "0xb64ef51c888972c908cfacf59b47c1afbc0ab8ac",
    "txhash": "51284fe526a2cdfbe697396690d0ffc40715a08532d19d6f507fc104b1f2b6a7",
    "v": 37,
    "value": "0"
}