{
    "data": "338b5dea000000000000000000000000e469c4473af82217b30cf17b10bcdb6c8c796e750000000000000000000000000000000000000000000000000000000001fda4c0",
    "gasprice": "5000000000",
    "hex": "f8aa6d85012a05f2008303d090942a0c0dbecc7e4d658f48e01e3fa353f44050c20880b844338b5dea000000000000000000000000e469c4473af82217b30cf17b10bcdb6c8c796e750000000000000000000000000000000000000000000000000000000001fda4c025a09ce95bda421db4071ec143d3bb9a8b9ce42f637d87c6e9744c68c33a43c075caa0597905db603eb6621e3cfe92d55462bec2ce9ad372db31b56b79cdeab9915a36",
    "nonce": 109,
    "r": "70973113688231681966882749903560904459325855658199391618596626987389162649034",
    "s": "40469672441844725527355915246324035709297866552993108655986959514340846295606",
    "startgas": 250000,
    "to": "0x2a0c0dbecc7e4d658f48e01e3fa353f44050c208",
    "txhash": "51a6fe456abfa59c6f04a6c97e1ceedd2c6b09846b29738af66f836b21692060",
    "v": 37,
    "value": "0"
}