{
    "data": "",
    "gasprice": "100000000000",
    "hex": "f86f8302ec8e85174876e80082520894eb8aac8f2dbbde7abd5d3f6bb34f7d9397206a0f881684b795da4228008026a0c8f67d669666cdea5be11aef4fe68c267e7c354aa21872a00ca3dcc18068354ea0577f3e539c88ee6b7138c98f1a20ef70db6a0222ab9f7d480169c671fd40dbe8",
    "nonce": 191630,
    "r": "90898079578635804099470033859545051963479725862246481370039530190963523204430",
    "s": "39576037566405152767718657172185957768797401508479713883603568570293163187176",
    "startgas": 21000,
    "to": "0xeb8aac8f2dbbde7abd5d3f6bb34f7d9397206a0f",
    "txhash": "51d838a30ff6092dab39bc6406a2ae3ddef4621a4669f33710231935627c93dc",
    "v": 38,
    "value": "1622623620000000000"
}