{
    "data": "",
    "gasprice": "22000000000",
    "hex": "f86c0285051f4d5c0082a410943f5ce5fbfe3e9af3971dd833d26ba9b5c936f0be880a1b36e9354d38008025a05fbbeda3d4b36af7ba4a56f499c5c5dd4efe18504cf3e77dbcbdd1509f0dc2a5a00dc7d7e5c75e94f5c1ed979eeda8cf26679c1ef9d5efed7d61bfaf7de1c01c17",
    "nonce": 2,
    "r": "43301761147279374927388675117791658797406723426944949279108226253613863649957",
    "s": "6233159667761763047766608780025302246470943734328816000434344579901106953239",
    "startgas": 42000,
    "to": "0x3f5ce5fbfe3e9af3971dd833d26ba9b5c936f0be",
    "txhash": "524c84be84aa09937b8ef056d4998dabda2c77bc754fcad348a9e333744e6732",
    "v": 37,
    "value": "728236140000000000"
}