{
    "data": "e9a9c50c",
    "gasprice": "1000000000",
    "hex": "f8680b843b9aca00830186a09491a57b2f6fa86b373bce5716eb26c81cbb0042238084e9a9c50c26a079c00a2d0e1646c92e66de98c1779563e405965b0d46151c8b55644a30523b6ca072a3de1878cc0ab503e0bc0a401c11fb667638be0a84b60ed31844cb4194a0dd",
    "nonce": 11,
    "r": "55069159547157286818792265460238530100429458465881855871502462180082654002028",
    "s": "51853193657500365375338383026569762037237544627540595539524317622948653736157",
    "startgas": 100000,
    "to": "0x91a57b2f6fa86b373bce5716eb26c81cbb004223",
    "txhash": "52858141af0da926e973593a9f5e95db6fa5d81f60067c38abc4e01f7f6fa683",
    "v": 38,
    "value": "0"
}