{
    "data": "6ea056a9000000000000000000000000000000000000000000000000000000000000000000000000000000000000000000000000000000000000000000b2103aa9f43c00",
    "gasprice": "90000000000",
    "hex": "f8ad8345b0e28514f46b0400830249f0947c4c93d480e7ede7a950d79580dcfdc01699be1a80b8446ea056a9000000000000000000000000000000000000000000000000000000000000000000000000000000000000000000000000000000000000000000b2103aa9f43c0025a0ce4b3d95bc615068ab42d0419796d1a09f74096c47797f3389cc29c83c6c7a71a0304ca4f01ac5eee288084334042e9b7b026bb0e9c1649e6a87141d58be35150b",
    "nonce": 4567266,
    "r": "93309385381409205990725106044212162316674877696361458381812818394197514812017",
    "s": "21846435468527562175628164096420562495154785171691084551316171174247222547723",
    "startgas": 150000,
    "to": "0x7c4c93d480e7ede7a950d79580dcfdc01699be1a",
    "txhash": "53763bf2b5a710b5041dff58dbffccc40a9036932b2e574b6d3151da4af44e1f",
    "v": 37,
    "value": "0"
}