{
    "data": "",
    "gasprice": "22000000000",
    "hex": "f86c0285051f4d5c0082a410943f5ce5fbfe3e9af3971dd833d26ba9b5c936f0be880da29bea748958008026a0c5c253809ab45895c21ece5fac94eaaa790627db7706234d3bf111ecbcfc1acea04423ee003c664047a7f19c83e0794a0826eafd448b9a6b159a40af6df5bac80a",
    "nonce": 2,
    "r": "89448975813582725054193401263426636046645221441256717560623485738893449108174",
    "s": "30820755972920695175255015379681521086393342704619894038124433161198373619722",
    "startgas": 42000,
    "to": "0x3f5ce5fbfe3e9af3971dd833d26ba9b5c936f0be",
    "txhash": "544a2f7d050b5d4ec77ceb5da5b884d019fa7ec0a89a70efc3217b1907693b8e",
    "v": 38,
    "value": "982519100000000000"
}