{
    "data": "",
    "gasprice": "24200000000",
    "hex": "f86f8302383d8505a26eb20082520894ee9124dfb6dc3efd585943dec6eb23d0eff7d17e8810a741a4627800008025a0969dde47e069a397906949c76e1b31deddf8b9b5256025de776fe9fc86af3ebda04f012080bd844349137fc1cb38201840c37d0accacc533b88cbd640ce95b1d9b",
    "nonce": 145469,
    "r": "68125856402138776179270459743200080757318834336705792088011953273226079977149",
    "s": "35734706211857526658449699037621831321573087934939597944584888577637159214491",
    "startgas": 21000,
    "to": "0xee9124dfb6dc3efd585943dec6eb23d0eff7d17e",
    "txhash": "547fc6e2f0d189b2ba00ddee6a55de6c4ca2480bde36d843983300fcaea8af02",
    "v": 37,
    "value": "1200000000000000000"
}