{
    "data": "",
    "gasprice": "22000000000",
    "hex": "f86c8085051f4d5c0082a410943f5ce5fbfe3e9af3971dd833d26ba9b5c936f0be882eabaf6accd348008025a023d7605c28491032a5ebef97674700117e00bc72453110ce2994c80f78e6e7baa0269734aeddfcf6626732439a7cf04c9b5a88c13af10efa805f29bca968d89086",
    "nonce": 0,
    "r": "16211486871548609649754790204543889568937959922526766071467728306157560195002",
    "s": "17455045758164491155789265902975701017463806008829828475742267536193567101062",
    "startgas": 42000,
    "to": "0x3f5ce5fbfe3e9af3971dd833d26ba9b5c936f0be",
    "txhash": "548ac01f4fd98b73ee823f13fe8fd8dd6d69da48e1edc229c3393ff36e6328a9",
    "v": 37,
    "value": "3362974420000000000"
}