{
    "data": "",
    "gasprice": "100000000000",
    "hex": "f86f8319a10c85174876e80082520894709f5fa55bb11d675de77c67642f380d409ee7df8807abce0bf30264008026a0d98264df03708a5e6b30019dfed8d3db663da1343675b7e5da3ea4fc60555e11a040ad81ad39355eb610a2d5918001dd573ec50b873d90f539f4606cf95319b32c",
    "nonce": 1679628,
    "r": "98382274448055015423565155776617985399574089086683700702831392275412697832977",
    "s": "29254581846909974500208777369224771405223282377864516534591910732661356344108",
    "startgas": 21000,
    "to": "0x709f5fa55bb11d675de77c67642f380d409ee7df",
    "txhash": "54bb14823b50408c5a551c2a838d2aa16875fa472a5a6bc6f4bc9a246e81cd94",
    "v": 38,
    "value": "552761930000000000"
}