{
    "data": "a9059cbb000000000000000000000000ab047aefa832ee280cb05f73466dd1b2527ff8e0000000000000000000000000000000000000000000000a09e268a83f57f80000",
    "gasprice": "99999997952",
    "hex": "f8aa818c85174876e00082ea60944270bb238f6dd8b1c3ca01f96ca65b2647c06d3c80b844a9059cbb000000000000000000000000ab047aefa832ee280cb05f73466dd1b2527ff8e0000000000000000000000000000000000000000000000a09e268a83f57f8000025a035911f611e2c106fe57ceb44c6b53f3522c908efc07ca95ead35cd4223d84159a046a86f29b0d22d608c523a683659ec30b7b45695a4972b94ca59d22b3fc884d7",
    "nonce": 140,
    "r": "24228990371735057246246507353616417279877324534351727013878154953202733695321",
    "s": "31959496925535148100439174364286003840664397399819482095122804272692898333911",
    "startgas": 60000,
    "to": "0x4270bb238f6dd8b1c3ca01f96ca65b2647c06d3c",
    "txhash": "5550c7dc2078e894138bf850711d76b98ab77c82eeb1f545f249aeae0c8a0257",
    "v": 37,
    "value": "0"
}