{
    "data": "",
    "gasprice": "90000000000",
    "hex": "f86f8345b0e08514f46b0400830249f094d73df43a6d12978654ad432eb5b5fc15c1bc72a18731bced02db00008025a0c04feb70b4a46b89fc4878e9fe1e0c2b0834bf0250f3ed1604a9db2548c4fc90a016b1df9a6f32313f878f7dec337ac9b18ae4b4b98516b6bfe9b4ec6ec9db99e2",
    "nonce": 4567264,
    "r": "86985272795034012428787123432712387073212568604854706358592728461474225519760",
    "s": "10265157852275067928394376490400939306529904814524778071502137311642645141986",
    "startgas": 150000,
    "to": "0xd73df43a6d12978654ad432eb5b5fc15c1bc72a1",
    "txhash": "562f11385bf2d95dc0f678f8b81dfac2b7f8f2d3db02a2efcbf42a3f9feac4a9",
    "v": 37,
    "value": "14000000000000000"
}