{
    "data": "",
    "gasprice": "22000000000",
    "hex": "f86e82657d85051f4d5c0082c350940ffa5ab59f697e2529f7540a2408008be7b0783488e1f2f1e79eb278008026a0099989e78ef172d5d25fc79994adaa3010e5f4eb8441407258cb39a7de97c748a064e429891a9ae2c58a55984e60a10b22848f2cc22fe7c0a2aaa04a1828654d52",
    "nonce": 25981,
    "r": "4342095020211352316454630315138823117214613000411156057959377352599652517704",
    "s": "45634412657010858194048690754599964368589520548885220792960973243602088316242",
    "startgas": 50000,
    "to": "0x0ffa5ab59f697e2529f7540a2408008be7b07834",
    "txhash": "56932647e08741e19399aa3f38e6f448083c06ccfd84cbfa3d9181388923d868",
    "v": 38,
    "value": "16281341580000000000"
}