{
    "data": "2f54bf6e0000000000000000000000006bd1946ef27782f36424c9b08ec1522661c444de",
    "gasprice": "21000000000",
    "hex": "f888048504e3b2920082589894fab2c362749c5b534a7196226dfebfd3d367bdc080a42f54bf6e0000000000000000000000006bd1946ef27782f36424c9b08ec1522661c444de25a0110622989ae9ff3c45113f319c5408daf6e8d50ded0f4dfa4b2b9c10723ffaa9a036b8376828b98eae1b6bb948330b9c9aba7933ed7971f377e83fcdcaa8b01db5",
    "nonce": 4,
    "r": "7700158281906236899332716245711836789284911830845163194067319758254187215529",
    "s": "24750376087587960084086414888437449131852884973543790534543608015499268464053",
    "startgas": 22680,
    "to": "0xfab2c362749c5b534a7196226dfebfd3d367bdc0",
    "txhash": "5700d387e09c381b98027c72cd7da771176410308d47c6b8295df17a11c69ba8",
    "v": 37,
    "value": "0"
}