{
    "data": "a9059cbb000000000000000000000000b688d2639ab464055a1b03643ed3c26f232138dd0000000000000000000000000000000000000000000000bc1a01d5ef09fcc000",
    "gasprice": "43200000000",
    "hex": "f8ad8304cf1e850a0eebb000830197f69470a72833d6bf7f508c8224ce59ea1ef3d0ea3a3880b844a9059cbb000000000000000000000000b688d2639ab464055a1b03643ed3c26f232138dd0000000000000000000000000000000000000000000000bc1a01d5ef09fcc00025a04567a049f3af26f0154e03a409533f1d9258a3166cf4d7de10dedf21dbedf9f0a068c712cad3dcdc6030ba2c4a989376944b886df94b146585c894d21942176e48",
    "nonce": 315166,
    "r": "31392678073072087846423829513367136725150151185912930523970562943219586169328",
    "s": "47392268518205822289874725918755259416051607179633104539955573654215674261064",
    "startgas": 104438,
    "to": "0x70a72833d6bf7f508c8224ce59ea1ef3d0ea3a38",
    "txhash": "577978b24e2385134dd0007372160cb2c61227dead61f3fb506c035f36eaa144",
    "v": 37,
    "value": "0"
}