{
    "data": "",
    "gasprice": "1000000000",
    "hex": "f86a01843b9aca00825208941ad5a3b7f5cf27a400ad055e8d36cf6c7ba6e938876a94d74f4300008025a0314718dc207116fccdea6cd5f7debe0f235b2c088441355fc3f31c9aee8e7556a020e4ae977fbeec513513a76172a077010a331c21f235b75d74bff24d4736f8cd",
    "nonce": 1,
    "r": "22288947298696423841018755134647284843731175743992172311573859444855487231318",
    "s": "14878057273703486608441631965805921991998596906903915872048798740515271407821",
    "startgas": 21000,
    "to": "0x1ad5a3b7f5cf27a400ad055e8d36cf6c7ba6e938",
    "txhash": "57cfb4e6cdcea59c2b2d915587494d171ec4e6705f145ede07d5a48e80241b6a",
    "v": 37,
    "value": "30000000000000000"
}