{
    "data": "",
    "gasprice": "21000000000",
    "hex": "f86b068504e3b29200825208944924f904c380a266ad712796fb61e53b3fa5ef778715abeaed2140008026a08b3f9eb380146eb69d6d806da94ef20808dcc8bc152f9878c2759a5b5f644b8da002aca3b473ac5326d0c0917b7c2734423ef08f51c15c8202e22eda9f4c8f43a0",
    "nonce": 6,
    "r": "62983892633396691291538171177938419894045055613293144272244246030715917192077",
    "s": "1209653241935145687802507704642735989354324345670971509017194067738368099232",
    "startgas": 21000,
    "to": "0x4924f904c380a266ad712796fb61e53b3fa5ef77",
    "txhash": "583245fdbcc5fc6f483630e1ce84a1213e2d5f8decb729ad4027c7eeea491d6e",
    "v": 38,
    "value": "6100000000000000"
}