{
    "data": "",
    "gasprice": "20000000000",
    "hex": "f86b718504a817c80082c3509488b15dac91b022177319e762cdb68486ad7020828758d15e176280008025a0fb99ef459e9913fb3454fbbbcae72d8adb7270718cd57472e08dad4b4f57c4ffa01aafe83b6e14119bbdc55853aa06c8ba4654fd8d08ff1d00e2cf85f221cc6d82",
    "nonce": 113,
    "r": "113802503989626474003878075672579698401873797984513469876807565293991862191359",
    "s": "12070935106883060029948524344950335859344685424845417980807920569736114236802",
    "startgas": 50000,
    "to": "0x88b15dac91b022177319e762cdb68486ad702082",
    "txhash": "5881bc8de4f5f87bedec04631b3017147eb45858950a867f296d6793a19d9816",
    "v": 37,
    "value": "25000000000000000"
}