{
    "data": "a9059cbb0000000000000000000000004c97728d91974930a95eed7e10d95ffcc36694d000000000000000000000000000000000000000000000001d39dafc5892154000",
    "gasprice": "40000000000",
    "hex": "f8ad830444d38509502f90008301974294b97048628db6b661d4c2aa833e95dbe1a905b28080b844a9059cbb0000000000000000000000004c97728d91974930a95eed7e10d95ffcc36694d000000000000000000000000000000000000000000000001d39dafc589215400025a0aeadade471d341eefa67586d631ac0805832bc7cb4ca8dcd136c681031f97acea07689f9008927964b27fd8359e673ab66fd2633e86759ecab76e6108847129f7b",
    "nonce": 279763,
    "r": "79009300356668042218866039997637275338752637656670487686098646732142825536206",
    "s": "53616692729984492472084278200870197827346027905316221015039832759065027714939",
    "startgas": 104258,
    "to": "0xb97048628db6b661d4c2aa833e95dbe1a905b280",
    "txhash": "59fd6059dbc85b39a5060c3aa09dd1945c3f4aeece6e1b501b1d4954fe01e30f",
    "v": 37,
    "value": "0"
}