{
    "data": "",
    "gasprice": "1000000000",
    "hex": "f86b0c843b9aca0082520894ab6288e2832227e04118beb00034111fb706a266880853a0d2313c00008026a0428fbc6a95c11ba1a3c2bb8e9c3cbcb6bbca434ffdd625a62db1f761c1b5a03ca07b1f84763130a38fdd60874a074f769a81d6616ddfec5d5e2ce0ca7201585f78",
    "nonce": 12,
    "r": "30106607538597405391191405535923910789744358492471120136673867667880610734140",
    "s": "55690166851721689942733459904248175771961279524177378620163537524752574340984",
    "startgas": 21000,
    "to": "0xab6288e2832227e04118beb00034111fb706a266",
    "txhash": "5af5c471838ae95a9907c6c60089eb61ce038525108ca016ff946ab0935f20b9",
    "v": 38,
    "value": "600000000000000000"
}