{
    "data": "a9059cbb0000000000000000000000006ef9965a7baacfaaf4dddf8207d6e592e32da536000000000000000000000000000000000000000000000000000000000989a460",
    "gasprice": "3000000000",
    "hex": "f8ac8301f5c184b2d05e008303d09094b64ef51c888972c908cfacf59b47c1afbc0ab8ac80b844a9059cbb0000000000000000000000006ef9965a7baacfaaf4dddf8207d6e592e32da536000000000000000000000000000000000000000000000000000000000989a46025a0302aebb14d3f0b375fe44768a664daec2cf1d280af641092b8e1438976b2cc3ea05ba805d4730af96a6a3b463eeb22ab1c28c9a1e20f47fda167c16a28662c360c",
    "nonce": 128449,
    "r": "21786850999154515831082401674686954675591129756113236973386541452740560866366",
    "s": "41457339764315865396925039922231400325898809215763522588149005618595140220428",
    "startgas": 250000,
    "to": "0xb64ef51c888972c908cfacf59b47c1afbc0ab8ac",
    "txhash": "5b59dfbc4c4996c4ca8b5206e5542984e3785ef2f1c13e5d46de95bcb3fc5eef",
    "v": 37,
    "value": "0"
}