{
    "data": "a9059cbb000000000000000000000000d7a93b627693fc5a3498e10edb57955c47115ea70000000000000000000000000000000000000000000000000de0b6b3a7640000",
    "gasprice": "14250000000",
    "hex": "f8a92f8503515dbe8082ea60941e797ce986c3cff4472f7d38d5c4aba55dfefe4080b844a9059cbb000000000000000000000000d7a93b627693fc5a3498e10edb57955c47115ea70000000000000000000000000000000000000000000000000de0b6b3a764000025a05d959d86397adc69e38252d0e1f7fc24dabd691710dc70ff6b5c02e5d73d017da03cf60be8c3561166d5194bc26ea49ecf03d48d274d40bf673c4efdbb01d61bce",
    "nonce": 47,
    "r": "42329442323758395605677399902696859877770915172687887460448954988969471050109",
    "s": "27573497487420210509414389362480407671530342328135835856437021123943593286606",
    "startgas": 60000,
    "to": "0x1e797ce986c3cff4472f7d38d5c4aba55dfefe40",
    "txhash": "5c052765c77ccab6f641d63c82711ed268b6a68b9a3ca8790a81caa285360e38",
    "v": 37,
    "value": "0"
}