{
    "data": "8bde7fc3",
    "gasprice": "1000000000",
    "hex": "f870818c843b9aca008301181e94b44808b969eb2500223b64053acd1d0cf1cba67587038d7ea4c68000848bde7fc325a03329e9b12eee5e3db038a3ea70cd995357348c022ab2b2087a0e58b7885903bca0640f1d82efcc1d03663706cdb869b99637b4eb7c63cfd142cbf88031748f8aeb",
    "nonce": 140,
    "r": "23142008891154286228892704378340533520555125665278945875567695745782501671868",
    "s": "45257991244989043321958615463634189932186954326696199512954089189591565175531",
    "startgas": 71710,
    "to": "0xb44808b969eb2500223b64053acd1d0cf1cba675",
    "txhash": "5ce0ab6022b20a368cf02221ce7e589dc9df4a608a0f6ab37cb3b01b0794ce42",
    "v": 37,
    "value": "1000000000000000"
}