{
    "data": "a9059cbb0000000000000000000000006ee20295e40d4a1eed7b931a7b651020aee2404f000000000000000000000000000000000000000000000000000000000566e365",
    "gasprice": "3000000000",
    "hex": "f8ac8301f5ab84b2d05e008303d09094b64ef51c888972c908cfacf59b47c1afbc0ab8ac80b844a9059cbb0000000000000000000000006ee20295e40d4a1eed7b931a7b651020aee2404f000000000000000000000000000000000000000000000000000000000566e36525a0d15e08ce54feca2ac70f626b9665e77f6950fb53688afc4b9191e5edeca533a8a058b16eee1c4176965652fbe93e00a30c6950f28452a7e98defcf85218be12b6e",
    "nonce": 128427,
    "r": "94699529754662677964100529432928084784634776848855770510040009226677054157736",
    "s": "40117028217334344125204874557855219850005057263071320861746770542141059967854",
    "startgas": 250000,
    "to": "0xb64ef51c888972c908cfacf59b47c1afbc0ab8ac",
    "txhash": "5d3c4743c9a9a2413980156768a8eab30896b5e46ed8947dee118b95facc5247",
    "v": 37,
    "value": "0"
}