{
    "data": "",
    "gasprice": "90000000000",
    "hex": "f8708345b0da8514f46b0400830249f09492320ac2690e8aa3063915e7d5cac24eadcc695788033a7a7b200890008025a0c107a670370930f88c3b17b5a146800cb44c5f0cb818d8ad781e2f79ce340735a00b488e4ce59d214aa382910ad2b5641e806ec49a68d5609acf0a1bd16c7c71f1",
    "nonce": 4567258,
    "r": "87309896421227412721029439920421232530857581123705894252073798257631003150133",
    "s": "5103636444198319250787699532048919717749126701607169031092544270714076426737",
    "startgas": 150000,
    "to": "0x92320ac2690e8aa3063915e7d5cac24eadcc6957",
    "txhash": "5db1ad22c1bd28c19246ad511624bfa02f5f9fc754f6556b770f1629563757d4",
    "v": 37,
    "value": "232633000000000000"
}