{
    "data": "",
    "gasprice": "20000000000",
    "hex": "f86b048504a817c800825208941d9f4e085c5fc9f69e8fe0bd9eaddbad3cd8a48087055b7b4c22b0008025a0aba608ada98c597e40f8dcaa552fd71d1ff1e4defb36de98407f49218d83a77aa0598e7e2f3245e1131170ee0b3513037a10f6f24d5b2bbce3505639fe1aad3914",
    "nonce": 4,
    "r": "77638853616388825713606518880809619151522353944166158982391029243552320431994",
    "s": "40507606699560789324938162333555372773185161273749560204278987577004886145300",
    "startgas": 21000,
    "to": "0x1d9f4e085c5fc9f69e8fe0bd9eaddbad3cd8a480",
    "txhash": "5e07bb915a83846401a8a94a6384d97d5a0c313246017e25e68333061ab644d1",
    "v": 37,
    "value": "1507960000000000"
}