{
    "data": "",
    "gasprice": "1000000000",
    "hex": "f86a01843b9aca00825208948b1f324c4a32cb82f04baf47465b5d2740a3b29a874103c0c763c0008026a0d3d7e2f434215a7edad73de1023227510e5abe62d258e86054e08ff645f01fc4a038952402e9ccf3f095b388f9b1043185eebb0434cf79bfd9a3d0611175adcfe0",
    "nonce": 1,
    "r": "95819449548387882029871513049382439949671065793647253799154383442521292283844",
    "s": "25593028274725351495928734386864604806233706526992700852312778599753663238112",
    "startgas": 21000,
    "to": "0x8b1f324c4a32cb82f04baf47465b5d2740a3b29a",
    "txhash": "5e18c09229e076841db8376a8523eb3655fa21890abfb21c298545c9a305d7f3",
    "v": 38,
    "value": "18300000000000000"
}