{
    "data": "",
    "gasprice": "21000000000",
    "hex": "f86c808504e3b2920083015f9094c3e3ef56a79a6a941332c5869c43d763989d6f09876253e7288500008026a05f7438a561dfbea215859bf01cd998cf4aa084d9eccfee6551f8cbd7555bedcda046b8bcbd99d3f71e00b874c56e9c7902f1cc85538802d8ee2389d093a4ac91a9",
    "nonce": 0,
    "r": "43175065831418555335692430596107011577948090140111471025397554527622187969997",
    "s": "31988301900690964712954571483341251874910210277257067409740795778420318179753",
    "startgas": 90000,
    "to": "0xc3e3ef56a79a6a941332c5869c43d763989d6f09",
    "txhash": "5ecdc8f3098e4d6f365e2b4c233638cb736850c49ae61b2a5790ea354699d2bb",
    "v": 38,
    "value": "27676800000000000"
}