{
    "data": "a9059cbb000000000000000000000000e5d66c210033bcf7abddd79ace5e72131882d76d000000000000000000000000000000000000000000000000000000174876e800",
    "gasprice": "1000000000",
    "hex": "f8a880843b9aca00828dbb94afc39788c51f0c1ff7b55317f3e70299e521fff680b844a9059cbb000000000000000000000000e5d66c210033bcf7abddd79ace5e72131882d76d000000000000000000000000000000000000000000000000000000174876e80025a08aee7ec451418b0a71af8e503bafd03f75c6a7a561b3d34e8d248c56711be3aba01289e57235c48caad0e01d9934d05834831c7440fa16f69167bb7701f5bcf731",
    "nonce": 0,
    "r": "62840557618654517942678513373259880539250970072127055168690387162338581799851",
    "s": "8385272901383175963450378229260104780344154688364898193111687212045623424817",
    "startgas": 36283,
    "to": "0xafc39788c51f0c1ff7b55317f3e70299e521fff6",
    "txhash": "5ef4ef0679d9b617789008306c92f604afc3b658d68bb8df8df26542bdb16f81",
    "v": 37,
    "value": "0"
}