{
    "data": "",
    "gasprice": "1000000000",
    "hex": "f86582024a843b9aca0082b8ba94912d92502de8ec2b4057f7f3b39bb67b0418192b808025a04f6d2a9d02e64560a8aa93aab457c82877f93d86b34d55cbf5148eca564044c3a0268aec043aee5bd5676d36db437ce36c1df9eb00bea32e4a1e1bfeb23bb7f663",
    "nonce": 586,
    "r": "35925595474502433100592298321027138629443718220225241151709613916431761556675",
    "s": "17433342067287337046182846018318649320448719818276615782862716709199127508579",
    "startgas": 47290,
    "to": "0x912d92502de8ec2b4057f7f3b39bb67b0418192b",
    "txhash": "5efcf5c777866e813f446faf608ced6e6f8e1d5d8d11dfe27982dbf15df935d4",
    "v": 37,
    "value": "0"
}