{
    "data": "a9059cbb0000000000000000000000006ee3d4d8fc04b54dc28d971c3dc22bc30214ee20000000000000000000000000000000000000000000000000000000000566e365",
    "gasprice": "3000000000",
    "hex": "f8ac8301f5af84b2d05e008303d09094b64ef51c888972c908cfacf59b47c1afbc0ab8ac80b844a9059cbb0000000000000000000000006ee3d4d8fc04b54dc28d971c3dc22bc30214ee20000000000000000000000000000000000000000000000000000000000566e36525a0301c4e28f04851628f6e72d776c174b9a15c2cc77b842f6d9bf3c21a1c00a8e0a023c475d625b4b7b00829d2a14705b11fbcfe176a81ef3415703a62529b0e9dd5",
    "nonce": 128431,
    "r": "21761027889728197616288893950863013081918012629665381451332212802501101005024",
    "s": "16178065002832945859312958100065010628582794065335347717920278209244414516693",
    "startgas": 250000,
    "to": "0xb64ef51c888972c908cfacf59b47c1afbc0ab8ac",
    "txhash": "607d364d3306824f59dd4b8ad87950da7b56573002e5eadd5e65ed2132b17cc9",
    "v": 37,
    "value": "0"
}