{
    "data": "96b5a75500000000000000000000000000000000000000000000000000000000000568da",
    "gasprice": "1000000000",
    "hex": "f88a8204e7843b9aca008301aa6d94b1690c08e213a35ed9bab7b318de14420fb57d8c80a496b5a75500000000000000000000000000000000000000000000000000000000000568da25a05ac84051e4246b6513ed0b8378697f5f85e8134cbd5481b71a5726e7e6c86f86a0336e8f0ed1be717ca7d760324bf667d28322ee0cd0f3d7471824dff1899bf3b7",
    "nonce": 1255,
    "r": "41061969704997711073093576559542842230264361605585174161704745644280351584134",
    "s": "23263295804127665265700537936321592448924742443276256828402988484544570323895",
    "startgas": 109165,
    "to": "0xb1690c08e213a35ed9bab7b318de14420fb57d8c",
    "txhash": "60983c5404a7ba338d723a2e20bfbfe6642a4ffedbf14b322d2ff544cb267292",
    "v": 37,
    "value": "0"
}