{
    "data": "",
    "gasprice": "36000000000",
    "hex": "f86d01850861c468008252089425be305addd6a579e8690ec7f9c14dd468b5562689038806650053ad85128025a05410f43cdfb3e61b2ce3a34ea0c4dda3e30accdd4f7b724673b408fe0b074d00a07a10f2c84bdee50633c4e8fbd952f922232a414959ae6aee8305a3cf56ad580a",
    "nonce": 1,
    "r": "38024234501294894836596067245375717182384560350905846499991287393761200917760",
    "s": "55212112702790325683200636707618071919832586647364948860964177617957199632394",
    "startgas": 21000,
    "to": "0x25be305addd6a579e8690ec7f9c14dd468b55626",
    "txhash": "60a408a568fcdd807bc1f651b705d989f654dee35d5ad547015f7f555823b4c8",
    "v": 37,
    "value": "65141864912225404178"
}