{
    "data": "a9059cbb0000000000000000000000006edcbbcb547445969e8b0a0851b8c8034cdbe3bf00000000000000000000000000000000000000000000000000000000056a000f",
    "gasprice": "3000000000",
    "hex": "f8ac8301f5a784b2d05e008303d09094b64ef51c888972c908cfacf59b47c1afbc0ab8ac80b844a9059cbb0000000000000000000000006edcbbcb547445969e8b0a0851b8c8034cdbe3bf00000000000000000000000000000000000000000000000000000000056a000f26a0ef0ba4e61fae824d792305b184fba1a5e66bae8c54088f38117b98ec3c4bbf28a0252313ea3fd4a242bbcad32a7c812a88fe480362d0ef161b356f21544a80417e",
    "nonce": 128423,
    "r": "108123344219638306024179781006596310213924407740166457100606879638306907995944",
    "s": "16797552493378355814823747147194934779856977725454620259206462511201535410558",
    "startgas": 250000,
    "to": "0xb64ef51c888972c908cfacf59b47c1afbc0ab8ac",
    "txhash": "61201bd2cd62365de80a091e27fdfcabb309d5b96412288c4af5df8447810015",
    "v": 38,
    "value": "0"
}