{
    "data": "a9059cbb000000000000000000000000f1c8f31decc78ce8a4e9b9f923d3f82a13e0e38900000000000000000000000000000000000000000000152d02c7e14af6800000",
    "gasprice": "2000000000",
    "hex": "f8a94c84773594008301363e94200f96afa416d6ad606e5f3953f287a7282b855180b844a9059cbb000000000000000000000000f1c8f31decc78ce8a4e9b9f923d3f82a13e0e38900000000000000000000000000000000000000000000152d02c7e14af680000026a0c20bcedafd98f2be44871fe36834bf532ddc72eee72547341554c58226d2661ea0613f116de88c4da7ce4a44fcad678599465ca287887045b83ac4e3ea65d75141",
    "nonce": 76,
    "r": "87769555606588982905689502120233491320748903660389103346586442498157317350942",
    "s": "43985777970470129158155441473447923976819923754837295238846092629579832709441",
    "startgas": 79422,
    "to": "0x200f96afa416d6ad606e5f3953f287a7282b8551",
    "txhash": "6143b40b730a5b74a37b9b86f560923914effa9b0beda1995bda197615c86e7a",
    "v": 38,
    "value": "0"
}