{
    "data": "a9059cbb0000000000000000000000006ef09714f7eb2251ba6a242bde4227f8fa0596cf00000000000000000000000000000000000000000000000000000000056a36de",
    "gasprice": "3000000000",
    "hex": "f8ac8301f5bb84b2d05e008303d09094b64ef51c888972c908cfacf59b47c1afbc0ab8ac80b844a9059cbb0000000000000000000000006ef09714f7eb2251ba6a242bde4227f8fa0596cf00000000000000000000000000000000000000000000000000000000056a36de26a051b3bebe2d3b59720b4ac04b9df5ee55597d583f0edb4274238f3555376b494aa04b5cf27ae3823960096aee3e83a104b508dcd777e87aa071f2772b150e4f9a6b",
    "nonce": 128443,
    "r": "36954922818799133269633817846440865338970641106705321160064989679650096236874",
    "s": "34087687109393468500312220759570637608665731103559733147693742286208741907051",
    "startgas": 250000,
    "to": "0xb64ef51c888972c908cfacf59b47c1afbc0ab8ac",
    "txhash": "61d49102cc37aa312d7da2c44d81c9c5f75837526eb29838f8198f3137e63e8a",
    "v": 38,
    "value": "0"
}