{
    "data": "96b5a75500000000000000000000000000000000000000000000000000000000000739f2",
    "gasprice": "3000000000",
    "hex": "f88a82017c84b2d05e008301aa6d94b1690c08e213a35ed9bab7b318de14420fb57d8c80a496b5a75500000000000000000000000000000000000000000000000000000000000739f226a0a465d3028d4a0e1436ca1a7ffda6adb03004f6d59e2234e92f1ebdbcee917e33a042696efa224733689e2d9d5156d334b37fbce679492bbe250922c6450d048749",
    "nonce": 380,
    "r": "74359215058476868237368597429695735617542570626346584415468250376036273978931",
    "s": "30038932883992033970082958474294071466758692870685740490010215743047967475529",
    "startgas": 109165,
    "to": "0xb1690c08e213a35ed9bab7b318de14420fb57d8c",
    "txhash": "624a58467463c27254ab6bab51b8e9b6e9695ecd16c5146ee9978d1bbd63619e",
    "v": 38,
    "value": "0"
}