{
    "data": "",
    "gasprice": "1000000000",
    "hex": "f86963843b9aca0082520894ac2ea50482800cf86f047949b84594187cb786fc861b48eb57e0008025a08d1a5b611e54caa66986eb4c905f87dd8a0e46de3e4924c2dbfbe138637cddaca033dd638a4d5303a430d05c38691b3f3e282a3badff730c0cae624d6d1c39d28e",
    "nonce": 99,
    "r": "63822680351151433399956393480013391178204196064074551174883134547272750914988",
    "s": "23459115480566777605979737924890017172622494376016280879279647750104179921550",
    "startgas": 21000,
    "to": "0xac2ea50482800cf86f047949b84594187cb786fc",
    "txhash": "630e98aade8b6545c2bd0b782dac2dcb5e162e0afc3838aee9c68751628a161a",
    "v": 37,
    "value": "30000000000000"
}