{
    "data": "3d7d3f5a00000000000000000000000000000000000000000000000000000000000759e20000000000000000000000000000000000000000000000000058d15e176280000000000000000000000000000000000000000000000000000031bced02db0000000000000000000000000000000000000000000000000000000000000003f480",
    "gasprice": "1070000000",
    "hex": "f8eb82129d843fc6e780830397f39406012c8cf97bead5deae237070f9587f8e7a266d80b8843d7d3f5a00000000000000000000000000000000000000000000000000000000000759e20000000000000000000000000000000000000000000000000058d15e176280000000000000000000000000000000000000000000000000000031bced02db0000000000000000000000000000000000000000000000000000000000000003f48025a0fef0fc5a685453e9d3c52f13c37f34c2c792b4a2e869ef7f47f705a391fffb0ba053f6598d0be3d18f2712b88651319e30d2ca3cde3d38cbd759a66c646f7a74c9",
    "nonce": 4765,
    "r": "115313248513158234924405005162735176355840888422986032915456411226452004961035",
    "s": "37977228868376091549097665321983158587534512810291014692450831047659152372937",
    "startgas": 235507,
    "to": "0x06012c8cf97bead5deae237070f9587f8e7a266d",
    "txhash": "640b5813bdb1ff4afe228c23735429a0b6fcee4888877d8030d5bacfb7d3e754",
    "v": 37,
    "value": "0"
}