{
    "data": "",
    "gasprice": "22000000000",
    "hex": "f86c0185051f4d5c0082a410943f5ce5fbfe3e9af3971dd833d26ba9b5c936f0be8806e1ca6c301dc0008026a06ebce62710c4af96d702bca9357dc11991f8ad658c88540ca2e5788f8a55ff72a046452663f22c2d902328a182493c3a107c1be05d422cf3037c1e79976739fc1c",
    "nonce": 1,
    "r": "50088169047201229374574086060426007552769785953476221328146073359893507997554",
    "s": "31784076809198002145109304100627777059678194726015186003553563955126668491804",
    "startgas": 42000,
    "to": "0x3f5ce5fbfe3e9af3971dd833d26ba9b5c936f0be",
    "txhash": "642398bd6c5c838946993fd04d595685c4ec893eac31040a174bf4f0aeb8a629",
    "v": 38,
    "value": "495900000000000000"
}