{
    "data": "a9059cbb0000000000000000000000007aff62f70ab908374af75381e2c464e94cc00579000000000000000000000000000000000000000000000051ef8dfc015a9c0000",
    "gasprice": "100000000000",
    "hex": "f8ad83034ea985174876e80083019a8694f85feea2fdd81d51177f6b8f35f0e6734ce45f5f80b844a9059cbb0000000000000000000000007aff62f70ab908374af75381e2c464e94cc00579000000000000000000000000000000000000000000000051ef8dfc015a9c000025a0c88659e29c26fbfa171db7070aef4023d565f9856588e0ae9f6f0d70ccd40f76a07e5ddca13e21cae50290070753ed3948cad5ba769b3d462cc5ffd9ce7e6f8023",
    "nonce": 216745,
    "r": "90699947588151147015931489112587276966587677836847304426654339454874521177974",
    "s": "57157258429806925548028851630812135133393164894106723948548640740016701538339",
    "startgas": 105094,
    "to": "0xf85feea2fdd81d51177f6b8f35f0e6734ce45f5f",
    "txhash": "657dfe6ca2207f73f6db9b3cf5919b7834f688c956d92b99d104ffa32f741e19",
    "v": 37,
    "value": "0"
}