{
    "data": "",
    "gasprice": "43200000000",
    "hex": "f8708304d001850a0eebb00083015f909441310081639cf5377af1e7dd11d4ce0be3bacd0a88262668ef678c80008025a05d54939a7590295412dff7167fd3463c1ec807a726c805f1ce50ac59c1ac424fa01729b208f6ee52ad523ef37a5179ed7c4a2c5df53dd41c7052557660657e177d",
    "nonce": 315393,
    "r": "42214528792610766057963350146762872265681633789282103827633321983691268571727",
    "s": "10476864999605206876159225437777895615239271907532968343759586378949213427581",
    "startgas": 90000,
    "to": "0x41310081639cf5377af1e7dd11d4ce0be3bacd0a",
    "txhash": "6615372e767ddca685c772ccf3b7e6c601b5e4d5e61c235f3ec38f256df2b8f1",
    "v": 37,
    "value": "2749000000000000000"
}