{
    "data": "a9059cbb0000000000000000000000006ef0d1c13005bb9b3f4da70fdf655849c476c4ba000000000000000000000000000000000000000000000000000000000566e365",
    "gasprice": "3000000000",
    "hex": "f8ac8301f5bc84b2d05e008303d09094b64ef51c888972c908cfacf59b47c1afbc0ab8ac80b844a9059cbb0000000000000000000000006ef0d1c13005bb9b3f4da70fdf655849c476c4ba000000000000000000000000000000000000000000000000000000000566e36526a0f170aa0005f5d663560eaa643bea05b78d7e74180afc71d6319cb005c04806e7a061b7f1fadbed6946c0d268e2f71aeac5bc9c899307d9472e78d9d0a2602ab77f",
    "nonce": 128444,
    "r": "109206456677329026159491687414060028744786629515286178946164666600399024162535",
    "s": "44199349409448584511113960988132561242997563215701469293241035165547262293887",
    "startgas": 250000,
    "to": "0xb64ef51c888972c908cfacf59b47c1afbc0ab8ac",
    "txhash": "6641d5ea9927ca84a38ff99dfdba42ffc8c4947b997163c93303f624216d1ab5",
    "v": 38,
    "value": "0"
}