{
    "data": "d0e30db0",
    "gasprice": "1000000000",
    "hex": "f87064843b9aca008303d090942a0c0dbecc7e4d658f48e01e3fa353f44050c2088802c68af0bb14000084d0e30db025a09805052d27886a176f465f0f1b5bfa5ab6b8f80ab73cf31a5a328cf7e126cf6aa03038f9ab0ac2ec25b04c24d54b57402822820c8ba3929330900eccb6ceccc055",
    "nonce": 100,
    "r": "68760422946073013941548051738089732480831217459224171257952706152326119214954",
    "s": "21811683313748916459188360760302299918023150299160068766667379284769562738773",
    "startgas": 250000,
    "to": "0x2a0c0dbecc7e4d658f48e01e3fa353f44050c208",
    "txhash": "669ee0a4cd90c5e2f7d685b38fd5b424c01dcec05a181b63f3c4ecaa5d430e07",
    "v": 37,
    "value": "200000000000000000"
}