{
    "data": "6ea056a900000000000000000000000000000000000000000000000000000000000000000000000000000000000000000000000000000000000000000713e24c43730000",
    "gasprice": "90000000000",
    "hex": "f8ad8344b75e8514f46b0400830249f094076b508a10b552743af514a53da21ea5f643bcfa80b8446ea056a900000000000000000000000000000000000000000000000000000000000000000000000000000000000000000000000000000000000000000713e24c4373000025a0907ee271394cee437699ca06d7e48187ed6a8de48a7fd95a27e38720ea7edd88a07a3a8b955f126c0b4c999048749779b91c96e3838887e7938df938110454bd7f",
    "nonce": 4503390,
    "r": "65357235773335232493149725728792134073639532316897579561405794588539939118472",
    "s": "55285608026702149065729161907383730071794057282705267211169823955780417928575",
    "startgas": 150000,
    "to": "0x076b508a10b552743af514a53da21ea5f643bcfa",
    "txhash": "677bdea0a2ed214e5181f28c734df20dce714181581134962aa680898742d02f",
    "v": 37,
    "value": "0"
}