{
    "data": "",
    "gasprice": "21000000000",
    "hex": "f86d81b98504e3b29200825208941475bfb0039b0bcf3be492c2bb339c0181c8885c8801af275e154bf0008025a02c50f136ef0ace53974f4edbfb9850d80012309a2b0e7de49bfe7bf99c160a74a03fddffe4f39a9f587bb5d362d620217308e2573d643ada2b30e4d9afb85817ff",
    "nonce": 185,
    "r": "20044777904726771410925384989843271233856286678019399159588574590462456105588",
    "s": "28887948779902571967952619249321218455504520446127965097291825040662977845247",
    "startgas": 21000,
    "to": "0x1475bfb0039b0bcf3be492c2bb339c0181c8885c",
    "txhash": "67a32282d663ceca2aba4a8759661aee7be7acbcf879ef95c141943540026241",
    "v": 37,
    "value": "121359000000000000"
}