{
    "data": "96b5a7550000000000000000000000000000000000000000000000000000000000074d6e",
    "gasprice": "1000000000",
    "hex": "f88a8201b0843b9aca008301aa6d94b1690c08e213a35ed9bab7b318de14420fb57d8c80a496b5a7550000000000000000000000000000000000000000000000000000000000074d6e26a0ad8f66754c4cfcd27284cf5f9c74baa454d274a4ca7679cf3bb71a6190a77327a03e3d8ae4c07977096abf47b5c81055dfed1c1fbd5ad01d760b5518c1cffd9f30",
    "nonce": 432,
    "r": "78503489075644931864632624919624593064880555132977425356330274924333430698791",
    "s": "28152132891247622529359780459579073265953377308051739414815275122105478127408",
    "startgas": 109165,
    "to": "0xb1690c08e213a35ed9bab7b318de14420fb57d8c",
    "txhash": "67c50593864715db484100787d8049d9ffdfb0c494a8909bb49add5f87959f8d",
    "v": 38,
    "value": "0"
}