{
    "data": "867904b4000000000000000000000000db8376a79cb7c09b18dcb34354a07baec89d71ed0000000000000000000000000000000000000000000000062e115c008a880000",
    "gasprice": "22000000000",
    "hex": "f8ac82930c85051f4d5c00830493e0946ddca767d731f57d90a516dd751f2aa9282b37d280b844867904b4000000000000000000000000db8376a79cb7c09b18dcb34354a07baec89d71ed0000000000000000000000000000000000000000000000062e115c008a88000025a02821448ff6f8b83c194d743616a88917277f8c43b362ce8c7d5a8dd0727d67fea04a35368c868dd09a4600c3e05e92922a3323e9d629d88a673101964f02b9d9b6",
    "nonce": 37644,
    "r": "18151293096501438465553898736566622137557185104807100277723183436810153715710",
    "s": "33565170172460413531363572293692838535588488940722284772140194365636255275446",
    "startgas": 300000,
    "to": "0x6ddca767d731f57d90a516dd751f2aa9282b37d2",
    "txhash": "67e953f7a1d8822b08e9a106852aecaf7d6c167e1be34b253966035e5329b0a0",
    "v": 37,
    "value": "0"
}