{
    "data": "a9059cbb0000000000000000000000004cace8c00c89c887f49273ea5c8850f93ebdd36f00000000000000000000000000000000000000000000001043561a8829300000",
    "gasprice": "30000000000",
    "hex": "f8a94d8506fc23ac0082d633949c5bce67611a40124887715851c9a81abac1225680b844a9059cbb0000000000000000000000004cace8c00c89c887f49273ea5c8850f93ebdd36f00000000000000000000000000000000000000000000001043561a882930000025a0b1d66cf09edec334d04bd380dffddd34618ca61e0b589ff80f983684661b1c8ca022ab03617a0e93d9fc3571ad7649f21ee347e4db949c7ce81c70a6510fd944de",
    "nonce": 77,
    "r": "80438231346824359756650486735033539639859396819992566406080915142328196996236",
    "s": "15680791033116124448077512298920064347680544963832834462197102139623247267038",
    "startgas": 54835,
    "to": "0x9c5bce67611a40124887715851c9a81abac12256",
    "txhash": "680baabc92d0ccc92103c5857761070d9f8517a23efd43b3f1ec93c1dcbcb9ca",
    "v": 37,
    "value": "0"
}