{
    "data": "ac307773",
    "gasprice": "1000000000",
    "hex": "f8686a843b9aca008301b1b0940955d3a64076b625fcaf54613a90c509bbdf069a8084ac30777325a00a7afc62a3176a2da9cded82041b59dbd9e1da1b9dfcf1fda40aaa77bc00310da00a36fa9eb4358ea8c0ad6943da309c17e33064da9c75eee224cf8b9f7bfeb5af",
    "nonce": 106,
    "r": "4740425727065327190024817148574857782183909384332031027184879275478341398797",
    "s": "4620267942567212368483297614467123787050091214073571745644464130752126039471",
    "startgas": 111024,
    "to": "0x0955d3a64076b625fcaf54613a90c509bbdf069a",
    "txhash": "694c8387311d2305007d8400553fdc50afd5c8964d4f45d9a8a894ca3f94c481",
    "v": 37,
    "value": "0"
}