{
    "data": "278b8c0e000000000000000000000000e25bcec5d3801ce3a794079bf94adf1b8ccd802d000000000000000000000000000000000000000000000056bc75e2d63100000000000000000000000000000000000000000000000000000000000000000000000000000000000000000000000000000000000000000000000ea7aa67b2d00000000000000000000000000000000000000000000000000000000009184ebdf3f800000000000000000000000000000000000000000000000000000000567a7660000000000000000000000000000000000000000000000000000000000000001cc31fdac7b93588a023e2b21ad5b071234c5e100765d60bdf05c0f78c58b6ea9e2eb15c511331f4de47dfd8e62b11d8723c1138e78b707ac98fdf000bff938cb0",
    "gasprice": "4000000000",
    "hex": "f9018b81a284ee6b28008303d090948d12a197cb00d4747a1fe03395095ce2a5cc681980b90124278b8c0e000000000000000000000000e25bcec5d3801ce3a794079bf94adf1b8ccd802d000000000000000000000000000000000000000000000056bc75e2d63100000000000000000000000000000000000000000000000000000000000000000000000000000000000000000000000000000000000000000000000ea7aa67b2d00000000000000000000000000000000000000000000000000000000009184ebdf3f800000000000000000000000000000000000000000000000000000000567a7660000000000000000000000000000000000000000000000000000000000000001cc31fdac7b93588a023e2b21ad5b071234c5e100765d60bdf05c0f78c58b6ea9e2eb15c511331f4de47dfd8e62b11d8723c1138e78b707ac98fdf000bff938cb025a0c1497c749ae0d424e87f9319049eab1fdac6b9a31362bb67ce25609720158d6da048bbd24475e4a62f09fd8c61d168a66392a16cbcf023066526490d299ff98199",
    "nonce": 162,
    "r": "87426218572510632506204684061903334251369155333659738717652992185762370129261",
    "s": "32898376711533536149122876112843965754216183215476070679701355272872752939417",
    "startgas": 250000,
    "to": "0x8d12a197cb00d4747a1fe03395095ce2a5cc6819",
    "txhash": "6954515bba043a464b32098a64181db9f7ae4322c3d723014c9d7529f92da92a",
    "v": 37,
    "value": "0"
}