{
    "data": "",
    "gasprice": "90000000000",
    "hex": "f8718345b0e48514f46b0400830249f0943cc54360f2d6d69b241fbd4ac4c2cb3effda7087891864ebd6d4612100008025a0316c0264acfa504d2425ccf6cd8dd724aa3d7f6bafeae1543ebef7d02487bc8fa04a4f660a4dd5226dd9700c18ae3ef7a7931d121ae8cac405918ed5d1d701bf70",
    "nonce": 4567268,
    "r": "22354165581280166075170558162927108183672908418821894617883246782771114785935",
    "s": "33611435969202769312261192721178919107591780773558669174505474112663660380016",
    "startgas": 150000,
    "to": "0x3cc54360f2d6d69b241fbd4ac4c2cb3effda7087",
    "txhash": "6a046b85872c0255c633c4f675f7408626b611c9fa212dbec27cf445ac5f4d6d",
    "v": 37,
    "value": "449994000000000000000"
}