{
    "data": "47cf897100000000000000000000000000000000000000000000000000000000000000cd0000000000000000000000000000000000000000000000000000000000001e720000000000000000000000000000000000000000000000000000000000004caa0000000000000000000000000000000000000000000000000000000000001e6d000000000000000000000000000000000000000000000000000000000000071600000000000000000000000000000000000000000000000000000000000000000000000000000000000000000000000000000000000000000000000000000000",
    "gasprice": "1000000000",
    "hex": "f9014b82013b843b9aca00830dbba0940fa8051dbdbbcc32d602803d5f1de1e6f92a0bbd80b8e447cf897100000000000000000000000000000000000000000000000000000000000000cd0000000000000000000000000000000000000000000000000000000000001e720000000000000000000000000000000000000000000000000000000000004caa0000000000000000000000000000000000000000000000000000000000001e6d00000000000000000000000000000000000000000000000000000000000007160000000000000000000000000000000000000000000000000000000000000000000000000000000000000000000000000000000000000000000000000000000025a090e0643279679e8e21053f6eb2bcd0a5a1f6f11a7326943e08d966c734944e10a04a1009d10d3357c572066f9ebd6ae03d7f208e490e463ead4851206fc7b23d43",
    "nonce": 315,
    "r": "65529515473918144252111611191213827829108513093617609477120474184620998675984",
    "s": "33499488099934322456248994134131515331681347544254250986107731163524166204739",
    "startgas": 900000,
    "to": "0x0fa8051dbdbbcc32d602803d5f1de1e6f92a0bbd",
    "txhash": "6a30743fda9687474d4092f3499b48ed699f7d61cbb8328f9088037fa93e9e1a",
    "v": 37,
    "value": "0"
}