{
    "data": "",
    "gasprice": "22000000000",
    "hex": "f86d0885051f4d5c0082a410943f5ce5fbfe3e9af3971dd833d26ba9b5c936f0be89010b3e297bb812fbab8026a0def4431090eb0ebf25f842d3617be50393be04f9ea6dc83cb57ef266bbb3fb91a01c93456f0f0ca1bb5ba666d8f26f74e9859dffd55bae1ea8f03188c9f9916f04",
    "nonce": 8,
    "r": "100845025932917112727485205863455587415986692962097698851763544160151796972433",
    "s": "12924965493490770755314894686002907889637711141515083483207134942535621897988",
    "startgas": 42000,
    "to": "0x3f5ce5fbfe3e9af3971dd833d26ba9b5c936f0be",
    "txhash": "6a3606cabc041e730829bb02882cc74f499a7327d309a550b3ec2f8ce0f11758",
    "v": 38,
    "value": "19256874668028787627"
}