{
    "data": "",
    "gasprice": "21000000000",
    "hex": "f86d808504e3b2920083015f909435218e756c802c61f6c368c1992c5e864d772bac8804bf7d6c1d0120008025a01098259cada3ebb172037bed2356834a6a86929f67ca19c33b0776ceb5e42660a019a480a5a0f2b8354554ac6cfef3485247bf63b5535d0fcda05e848468414674",
    "nonce": 0,
    "r": "7505825919831547472084036884086538956529406595934183585888318149208804959840",
    "s": "11598472022078719715078726221449686263786812515742363252793591949749821458036",
    "startgas": 90000,
    "to": "0x35218e756c802c61f6c368c1992c5e864d772bac",
    "txhash": "6ae18ee63bdadd85cd21dcab91c615567ad5080e356cd69577fee4ede49e21b9",
    "v": 37,
    "value": "342130000000000000"
}