{
    "data": "",
    "gasprice": "1000000000",
    "hex": "f86b80843b9aca00825208947878f7be372a43fcd62c2aeaa204919254ce45638808828626b04500008025a039c360d69cf7e3bdaa5a71f187eed9b5e8e8a58cb2dc99993d691aeebaf4a7ffa004c6897535136464ece55c2213f26c8cff18c4f31f4533bec0d11eca62ae8857",
    "nonce": 0,
    "r": "26127035900486541118103561105532925287575473907040210356541632897375603566591",
    "s": "2160035812311984947018601620717000221976608782203079736388036729394166663255",
    "startgas": 21000,
    "to": "0x7878f7be372a43fcd62c2aeaa204919254ce4563",
    "txhash": "6b32f75e90faa3a94d94193d98702bbc9ec3291306967c94988f4fcafb1429b5",
    "v": 37,
    "value": "613200000000000000"
}