{
    "data": "3d7d3f5a000000000000000000000000000000000000000000000000000000000007424b000000000000000000000000000000000000000000000000002386f26fc100000000000000000000000000000000000000000000000000000011c37937e08000000000000000000000000000000000000000000000000000000000000003f480",
    "gasprice": "1000000000",
    "hex": "f8ea81f4843b9aca00830397f39406012c8cf97bead5deae237070f9587f8e7a266d80b8843d7d3f5a000000000000000000000000000000000000000000000000000000000007424b000000000000000000000000000000000000000000000000002386f26fc100000000000000000000000000000000000000000000000000000011c37937e08000000000000000000000000000000000000000000000000000000000000003f48026a038d659d560cc9b8c7067a494dfca18d0dfe1342478b16f7456bf8566efda1a5ba053d4ffdc9e566605bb0437f43ddcd2719fed424940477b3442c1059d02b158ed",
    "nonce": 244,
    "r": "25708244800613147148252470148474063496314701578893058807306317805820759906907",
    "s": "37918303903325710455030210294608702443708832408263918306737325908012500605165",
    "startgas": 235507,
    "to": "0x06012c8cf97bead5deae237070f9587f8e7a266d",
    "txhash": "6b59fa91d38e48423914e028d36ec77f88455e39b02e0146f4224f9d0dd84c44",
    "v": 38,
    "value": "0"
}