{
    "data": "",
    "gasprice": "36000000000",
    "hex": "f86d02850861c468008252089425be305addd6a579e8690ec7f9c14dd468b556268901f1a1afe0b6c67aee8025a01624a83fc7e3b79cf0a8d7860876f1b63e967362fae3f2bb162448c590581771a010b65c8f32f4e66e044e9138b0202904702d5744680dfda61e7e7448d042a2b6",
    "nonce": 2,
    "r": "10015650376077606705746509765582048132351452260999138751510218161931217803121",
    "s": "7559210564424566944128709671033812599788011616579223542511734674051911819958",
    "startgas": 21000,
    "to": "0x25be305addd6a579e8690ec7f9c14dd468b55626",
    "txhash": "6bc7d7abbd5e547c9de02d1d35f206b1973a58261169dd8b45a7e7a5ca852e4b",
    "v": 37,
    "value": "35858135087774595822"
}