{
    "data": "a9059cbb0000000000000000000000003703e889668db8709d4b377783bc5ff6d66827cb000000000000000000000000000000000000000000000004bc734bb175d4b822",
    "gasprice": "1000000000",
    "hex": "f8a880843b9aca00825dc09480fb784b7ed66730e8b1dbd9820afd29931aab0380b844a9059cbb0000000000000000000000003703e889668db8709d4b377783bc5ff6d66827cb000000000000000000000000000000000000000000000004bc734bb175d4b82226a050dfa1e0249ad689f565db92eb2513c774a42f93726821691234b85ee817eed7a0174f1c23aa1661925125072aed4620fb285f2d5c0f103141deca4fb113096757",
    "nonce": 0,
    "r": "36580152006151716674122572035273568362159774418726166742119568082336241675991",
    "s": "10542970645940759430838772832481744644618748166716127576802745206858494601047",
    "startgas": 24000,
    "to": "0x80fb784b7ed66730e8b1dbd9820afd29931aab03",
    "txhash": "6c0a0555ce51f1fa32f1975afa976b80d3fdd0c71119e6b072ee9513f55403f8",
    "v": 38,
    "value": "0"
}