{
    "data": "a9059cbb000000000000000000000000e5d66c210033bcf7abddd79ace5e72131882d76d0000000000000000000000000000000000000000000000000000000cec0ecb00",
    "gasprice": "1000000000",
    "hex": "f8a880843b9aca008292fb942eb86e8fc520e0f6bb5d9af08f924fe70558ab8980b844a9059cbb000000000000000000000000e5d66c210033bcf7abddd79ace5e72131882d76d0000000000000000000000000000000000000000000000000000000cec0ecb0025a0d7a0392e68cf294783cf0fe159dfd7ccab5cd8e1bacff008b865663da2a0e343a02a890afa93470177cc04bb621f2c21c6aab3764480c3f96d4daf4bf8675d6e7d",
    "nonce": 0,
    "r": "97530352626503828271800637293328675132030735979229459465969231773596731368259",
    "s": "19239273461332078598216376799432504813220385163083415800834104030229992140413",
    "startgas": 37627,
    "to": "0x2eb86e8fc520e0f6bb5d9af08f924fe70558ab89",
    "txhash": "6c357cea422cef4dd8ae671918b5bfdc69fcecce415884bde603fc9709eb0daa",
    "v": 37,
    "value": "0"
}