{
    "data": "338b5dea000000000000000000000000e3818504c1b32bf1557b16c238b2e01fd3149c170000000000000000000000000000000000000000000000e9a543f4a42d980000",
    "gasprice": "21000000000",
    "hex": "f8aa018504e3b292008303d090948d12a197cb00d4747a1fe03395095ce2a5cc681980b844338b5dea000000000000000000000000e3818504c1b32bf1557b16c238b2e01fd3149c170000000000000000000000000000000000000000000000e9a543f4a42d98000025a0d1baae50d53067b7e8e268a0a06ab15951ffd42874d48383817f51caf08a5b8ea009a8c45670cee987ada8c540819b32d8ce35553f34f0366fef96e89e36c8f3c7",
    "nonce": 1,
    "r": "94863221991062960434606460619676480654480108621846270399334391089297328069518",
    "s": "4369001016851645807998877279645174468828196242105981356005135529671903474631",
    "startgas": 250000,
    "to": "0x8d12a197cb00d4747a1fe03395095ce2a5cc6819",
    "txhash": "6d9ded2fa4a24eb104f4ccefefaffc5c7d9862206ad69047de4c3dbfe433bf59",
    "v": 37,
    "value": "0"
}