{
    "data": "",
    "gasprice": "90000000000",
    "hex": "f8708345b0c78514f46b0400830249f0944154950b2e4fbfcc9543dbc240e8740c9828c95e880d72945db35a80008025a0c127864ac98f664fcb8433bc8b74c7236fe86112133551ef3d0ce24716a11c3ca01a7ae94e954220ff96c347f2f414919c59cd7a13912bad47f489a8d922c43c83",
    "nonce": 4567239,
    "r": "87366213662370055071466159698592592105338553549865801553407357450492093471804",
    "s": "11977299630561266535213839777969389360593735723900886427260655751437251525763",
    "startgas": 150000,
    "to": "0x4154950b2e4fbfcc9543dbc240e8740c9828c95e",
    "txhash": "6dae158b289230fb36a5eb534552efc97ca833ec4b56ebee18959eb92a9083bc",
    "v": 37,
    "value": "969000000000000000"
}