{
    "data": "a9059cbb0000000000000000000000006f07519dc0543a94dc5f6f96ae66367528d7004e000000000000000000000000000000000000000000000000000000000566e365",
    "gasprice": "3000000000",
    "hex": "f8ac8301f5ca84b2d05e008303d09094b64ef51c888972c908cfacf59b47c1afbc0ab8ac80b844a9059cbb0000000000000000000000006f07519dc0543a94dc5f6f96ae66367528d7004e000000000000000000000000000000000000000000000000000000000566e36525a0ef26b4154414f62538d14fe09ac2b3091ef240df01bc652156beb9e9d38106a5a05c338f57fd915578de071f03971b4c7b0fef2c8fbd067ca66ef9f2bb6469924d",
    "nonce": 128458,
    "r": "108171153887533406634047124294417060133067705495174015769003806719305935029925",
    "s": "41703880591910953104659774662009146488559625008251566651426342451504812233293",
    "startgas": 250000,
    "to": "0xb64ef51c888972c908cfacf59b47c1afbc0ab8ac",
    "txhash": "6e774f4d722b39531d8feca0e7786832999b7f3f78055ce25dc612aa3a242c10",
    "v": 37,
    "value": "0"
}