{
    "data": "",
    "gasprice": "1000000000",
    "hex": "f86a80843b9aca00827b0c9423e218ab581d3baffabaadee94e7f2b32ba16583872386f26fc100008025a089c3e01eb6f5c13bf4920e5676bf0c4b22b65be3b70889e0731d19bb1cdf1be8a01f741761e687e3ecfba7d23fd1288e6629b03553dd963922d5ff40846af1cb1f",
    "nonce": 0,
    "r": "62312942252787296005423460383804289295315296307579689801339442758751491136488",
    "s": "14226813945154082643464258722482267506662201469888856647549950403490610268959",
    "startgas": 31500,
    "to": "0x23e218ab581d3baffabaadee94e7f2b32ba16583",
    "txhash": "6e94620601d5275d422c5bcd8a18ab26a0e5eb7a192ed25ec16c911168e7f6f0",
    "v": 37,
    "value": "10000000000000000"
}