{
    "data": "",
    "gasprice": "4000000000",
    "hex": "f86d8204d684ee6b280082c35094ca7c709884149be65bc9a95faae59f89bde2425588017d512fd4aa40008025a09dcca3d4a54c511af0e90cceeca127954316c6159e7c4e7c4ba1ef132153faa5a0223a4086e6dcc949b0ea6401646215b44a08707e2b9e2581deab1224f7b62f04",
    "nonce": 1238,
    "r": "71374684746358756718674247628239279292969159446118702364780416719050012621477",
    "s": "15481559330299904781611080631217419191573205465915531964195168521922660413188",
    "startgas": 50000,
    "to": "0xca7c709884149be65bc9a95faae59f89bde24255",
    "txhash": "6ebd1c24fdf2bc1138b2a19b84d2fb89401b1872b37305b2ca7016cfbaba9a17",
    "v": 37,
    "value": "107331232000000000"
}