{
    "data": "379607f50000000000000000000000000000000000000000000000000000000000000000",
    "gasprice": "21000000000",
    "hex": "f8891c8504e3b292008301028394d0a6e6c54dbc68db5db3a091b171a77407ff7ccf80a4379607f5000000000000000000000000000000000000000000000000000000000000000026a04d8099f0914445b02cee3c365a31224277dae0a50045750000a02c04da11e30ca06e52fe247a087f09b591afc1bffc2e50e05746bd305e55b354003e5860c0a736",
    "nonce": 28,
    "r": "35055308218079772025357557784810736506256348849825022575507235196118095749900",
    "s": "49901048830452889791472745837084416981255136394011468040662139062433647470390",
    "startgas": 66179,
    "to": "0xd0a6e6c54dbc68db5db3a091b171a77407ff7ccf",
    "txhash": "6ecf6718bc12a16a2b496fa496716cf1ad86c1cc9ee3c2a2723ee1a4314e61dc",
    "v": 38,
    "value": "0"
}