{
    "data": "",
    "gasprice": "20000000000",
    "hex": "f870832e777b8504a817c80083015f90949ba53656bbcb1c41243a7389a42cb8dc33ae967f88017686606d636c008025a00adcd39c8c0d6a139efaafebe8939e32a39643b9253907c640ff4f3baa7e55efa023545c108339b03d70aad9976a9934b99c293c5edade632a5833e73945cdf990",
    "nonce": 3045243,
    "r": "4913295329064000502705608026457288581754943099373245035618091829313954272751",
    "s": "15980000259698401138314433578322164627828006574782084416850237481801512515984",
    "startgas": 90000,
    "to": "0x9ba53656bbcb1c41243a7389a42cb8dc33ae967f",
    "txhash": "6f38fd9e3ba83f4eb73f6910c04110520c3c192add086a76f944eb2cfc92f386",
    "v": 37,
    "value": "105419390000000000"
}