{
    "data": "",
    "gasprice": "21000000000",
    "hex": "f86d808504e3b2920083015f9094050b2ee971cd497dc070ec226abbb0d10ecbed6288014050f1558c2c008025a01ed97246c42275b6ce4c7a6e2b53a5f069f9dbea7d0b7cdcf0a0bccb159f1184a019afc5e652dda5ce60be083bc76ab14f57c61506461175df6e4b9bf8387e5f50",
    "nonce": 0,
    "r": "13953579977490086990552417001759323178213280582651369383874215192245372391812",
    "s": "11618385304462716636569519269653275982512472581472675392439382425506232033104",
    "startgas": 90000,
    "to": "0x050b2ee971cd497dc070ec226abbb0d10ecbed62",
    "txhash": "6f46c2e2083cd9ebdcbfeada9702a3e66487bcb56fd9605c7951ad01aca14173",
    "v": 37,
    "value": "90160990000000000"
}