{
    "data": "a9059cbb0000000000000000000000006f02d7383359766570b806b70b6e42c331219c08000000000000000000000000000000000000000000000000000000000566e365",
    "gasprice": "3000000000",
    "hex": "f8ab8301f5c884b2d05e008303d09094b64ef51c888972c908cfacf59b47c1afbc0ab8ac80b844a9059cbb0000000000000000000000006f02d7383359766570b806b70b6e42c331219c08000000000000000000000000000000000000000000000000000000000566e365259f9ca8c3dbd037b853e25ccc45f5999d1df4be113df2e5533b52a81a5696efc3a0176facc8a8d3b75982856e992c051a9955856e17acb7a0e271645fabc7b24258",
    "nonce": 128456,
    "r": "276792915830336515536758863436146555848524005346925359806318913908437872579",
    "s": "10600508051746068997510425220908676355551066004460846894957816228141908247128",
    "startgas": 250000,
    "to": "0xb64ef51c888972c908cfacf59b47c1afbc0ab8ac",
    "txhash": "6f98b6304e1002be4cfae0c02a22d4005ea1e795e7a07400919e7e5d3eaafef1",
    "v": 37,
    "value": "0"
}