{
    "data": "a9059cbb0000000000000000000000006eefc4b381f4a51d219c8b93d96f4d787644e34b000000000000000000000000000000000000000000000000000000000566e365",
    "gasprice": "3000000000",
    "hex": "f8ac8301f5ba84b2d05e008303d09094b64ef51c888972c908cfacf59b47c1afbc0ab8ac80b844a9059cbb0000000000000000000000006eefc4b381f4a51d219c8b93d96f4d787644e34b000000000000000000000000000000000000000000000000000000000566e36525a02d58187f5fcb8877f4d27d7949e7d27b35e975566a3c6fb775f317bc044db036a013748689f637789e4a30885b4e580e1f2821d0aa854c3c68c4a2062976c64476",
    "nonce": 128442,
    "r": "20509729803861431360814202962939784485243378469975683887180484729891227283510",
    "s": "8799826936049160560804732685155166970445155221598967181687057912568127833206",
    "startgas": 250000,
    "to": "0xb64ef51c888972c908cfacf59b47c1afbc0ab8ac",
    "txhash": "6fb4e64473c6256183d88aabfc630a6382101338cb5f23038ef3af4e6f0d01ea",
    "v": 37,
    "value": "0"
}