{
    "data": "47cf897100000000000000000000000000000000000000000000000000000000000000cd0000000000000000000000000000000000000000000000000000000000001e720000000000000000000000000000000000000000000000000000000000004caa0000000000000000000000000000000000000000000000000000000000001e6d000000000000000000000000000000000000000000000000000000000000071600000000000000000000000000000000000000000000000000000000000000000000000000000000000000000000000000000000000000000000000000000000",
    "gasprice": "1000000000",
    "hex": "f9014b820130843b9aca00830dbba0940fa8051dbdbbcc32d602803d5f1de1e6f92a0bbd80b8e447cf897100000000000000000000000000000000000000000000000000000000000000cd0000000000000000000000000000000000000000000000000000000000001e720000000000000000000000000000000000000000000000000000000000004caa0000000000000000000000000000000000000000000000000000000000001e6d00000000000000000000000000000000000000000000000000000000000007160000000000000000000000000000000000000000000000000000000000000000000000000000000000000000000000000000000000000000000000000000000025a089e9aa7cf24dbae7d19ca05b3772df36cee9c70a10e9f2c1b87955ddc94928eaa01d3169de3f4123c8f59de13020cf42f9033ef4e1be1221bb35f08d8f2e1c756f",
    "nonce": 304,
    "r": "62379712287430750770607189071256594244932435626538259771725334307263323121898",
    "s": "13204378790224910540065670176167098708074959208358135383999078531031266784623",
    "startgas": 900000,
    "to": "0x0fa8051dbdbbcc32d602803d5f1de1e6f92a0bbd",
    "txhash": "70762ba76fb9246de11511652f89d6b8617913874fdc5781c26c2ddd038e1630",
    "v": 37,
    "value": "0"
}