{
    "data": "47cf8971000000000000000000000000000000000000000000000000000000000000008500000000000000000000000000000000000000000000000000000000000017090000000000000000000000000000000000000000000000000000000000001767000000000000000000000000000000000000000000000000000000000000587a000000000000000000000000000000000000000000000000000000000000170a0000000000000000000000000000000000000000000000000000000000001772000000000000000000000000000000000000000000000000000000000000173a",
    "gasprice": "2000000000",
    "hex": "f9014b820dfb8477359400830dbba0940fa8051dbdbbcc32d602803d5f1de1e6f92a0bbd80b8e447cf8971000000000000000000000000000000000000000000000000000000000000008500000000000000000000000000000000000000000000000000000000000017090000000000000000000000000000000000000000000000000000000000001767000000000000000000000000000000000000000000000000000000000000587a000000000000000000000000000000000000000000000000000000000000170a0000000000000000000000000000000000000000000000000000000000001772000000000000000000000000000000000000000000000000000000000000173a26a073bd19b93a28910bed6d831bbc9d329cfbdee6d40275edbdc6d0ec8df5e703f4a07ce63866faecbde5bc9bf99fcc6d31abe7131c33abf7e24c30759c90c39232dd",
    "nonce": 3579,
    "r": "52350089219692353531422347333842367060677290385545384324564722298092394054644",
    "s": "56493557323359503714426305907779457032833943953429474380983657660817387696861",
    "startgas": 900000,
    "to": "0x0fa8051dbdbbcc32d602803d5f1de1e6f92a0bbd",
    "txhash": "708268f1447ea4e24870d04af06d242476793ad2aff6e94c1fd0083ca1633028",
    "v": 38,
    "value": "0"
}