{
    "data": "",
    "gasprice": "100000000000",
    "hex": "f86f8302ec9185174876e8008252089417955f502cad1b8514b120caeb4ceb3b3b1300fb880c1d03512f448c008025a09a7a3441e29abed8cd788dbc909bd6936dc261bd90aef52e3f3c415bf4559b5ea07aa33ff5308d9f158bd35741350fc328457c1d3fdee292a0d57a4b1becc82b06",
    "nonce": 191633,
    "r": "69872094690796789693480923023615701734914782928134821819723348420014384716638",
    "s": "55470605019037406958825986729617988595160566291695994075771440380979211414278",
    "startgas": 21000,
    "to": "0x17955f502cad1b8514b120caeb4ceb3b3b1300fb",
    "txhash": "716211fcd31e841b3eb09b702924b307429f7aa549816c9466320a713f3bc7df",
    "v": 37,
    "value": "872857550000000000"
}