{
    "data": "",
    "gasprice": "20000000000",
    "hex": "f86c028504a817c80082520894c83bbd6ffaed1e09a2a0ec2d1063f2a1575f760f88d02ab486cedc00008025a023d2be3f8bcaa5433c059531193f2cde4c417e03146ef1a0ce2be1e0861736f3a01130687ea4e93fc1f4a8046fa1028e1fa8feccd3fe7e54dc7c3c2144f6359cc6",
    "nonce": 2,
    "r": "16203300629022086628777777053254795397973325760676459953010447095435128944371",
    "s": "7774848280965406258464733916796334106616127488619146514642441599773060734150",
    "startgas": 21000,
    "to": "0xc83bbd6ffaed1e09a2a0ec2d1063f2a1575f760f",
    "txhash": "71690f5ae84980af13507c520d564d7b06de1a374bdc8341aea542cf03ef477e",
    "v": 37,
    "value": "15000000000000000000"
}