{
    "data": "a9059cbb000000000000000000000000984b67c3f184da47cd3b15cdfe137f72c9d9907e00000000000000000000000000000000000000000000000e21f074c090560000",
    "gasprice": "100000000000",
    "hex": "f8ad83034e0885174876e8008301971494e41d2489571d322189246dafa5ebde1f4699f49880b844a9059cbb000000000000000000000000984b67c3f184da47cd3b15cdfe137f72c9d9907e00000000000000000000000000000000000000000000000e21f074c09056000026a055f6fe5d4a9394cee3110054326d24f805d075bbe9b347fc4ec3e3515fca2361a037ff3a9b3643b7cd12ab0d576254e9bdec0516b34f6d029402856e9819902aa3",
    "nonce": 216584,
    "r": "38882992066214071406457500295273332459676316315065956469727303231491166315361",
    "s": "25328157159392707933988324748212583857373248362374645332484789338172776524451",
    "startgas": 104212,
    "to": "0xe41d2489571d322189246dafa5ebde1f4699f498",
    "txhash": "71973b182ec8923170a6d0ad463aa822eb5110678ec9996c6e8248bf1d83a9d0",
    "v": 38,
    "value": "0"
}