{
    "data": "",
    "gasprice": "100000000000",
    "hex": "f86f83036da585174876e80082520894ef88a123df7c4dcfcfb6a8f4477aac1bbeb939a488c5ec938522d780008025a00beb69656087f9c08fcd3fe873c936369913bc91f07eacf7d7ed1e102f93ac0ba05b7eb8fee3dc49e672429fbed8076396e2e78f4efcaaefb77a7691ed21857890",
    "nonce": 224677,
    "r": "5391377811125794096264583702691190494586257883340567464678969666755829672971",
    "s": "41384368744390092399926820839400451254383819966065331707990362852187634497680",
    "startgas": 21000,
    "to": "0xef88a123df7c4dcfcfb6a8f4477aac1bbeb939a4",
    "txhash": "720c56c098439a89aa294d582d3ac3abd87bc3455b5b9ccddc82ae13b21355b1",
    "v": 37,
    "value": "14261936320000000000"
}