{
    "data": "0a3b0a4f0000000000000000000000003eedc0996c199cafb0934b99efd8d9784cdc0f29",
    "gasprice": "1000000000",
    "hex": "f88a820421843b9aca00830289fc94531ac3341edfc39a04ed4c8b44ec396a46bc869080a40a3b0a4f0000000000000000000000003eedc0996c199cafb0934b99efd8d9784cdc0f2925a02dcd0c0a0171ea329fdc8c069922556124f72c73348432dcebde50f6b29486d4a047ef450d30007d42deb7851a01cdf952f4a4a2c8c4e6971d53ebedc072256003",
    "nonce": 1057,
    "r": "20716364925234358559326127849910188952474674341115236309803527479927499949780",
    "s": "32536965273926373938232067553933359806830776462422525824090484271142924541955",
    "startgas": 166396,
    "to": "0x531ac3341edfc39a04ed4c8b44ec396a46bc8690",
    "txhash": "7228ffe1456a0094f67233ec9981dd9a231e3b7272bcfe3eb94d23261317a524",
    "v": 37,
    "value": "0"
}