{
    "data": "",
    "gasprice": "90000000000",
    "hex": "f8708345b0e68514f46b0400830249f0945698c1a204b96f3f2669907fd1daf05fe58b62eb8802934595f41850008026a06784ae98dbf3176526866bee520eb71c65eac82e8e5369212f21e376fca58a19a022de0b2d8c8e3727a2e8296edf88015f1f06e0c438abb51b9eed96d389d33335",
    "nonce": 4567270,
    "r": "46822652241566813570731858912089644254718244722244755345867498334329149688345",
    "s": "15770954047421498119617742039941627318233442218902047845231951703245262631733",
    "startgas": 150000,
    "to": "0x5698c1a204b96f3f2669907fd1daf05fe58b62eb",
    "txhash": "73058044d84044e05b86f569ed285dc77e3a94af9cd566ca923c5f8f642d4a18",
    "v": 38,
    "value": "185568520000000000"
}