{
    "data": "",
    "gasprice": "100000000000",
    "hex": "f86f83034eab85174876e80082520894d50f18548e6d6ff2a55546a8d7ddb7ce12df3a3e88f9ccd8a1c50800008025a0fc0bef2483fa10d54f2edc24a04d710987665e788f3972542c7070ada0e83986a06fa23edca87f7867100b93b635c236728e84548b5ef6c9e7275a807cca006587",
    "nonce": 216747,
    "r": "114003923662529436353257841425004229202854388446006116704427407056948473379206",
    "s": "50493389274443338408439824953263572773714908221584331039056208467445810226567",
    "startgas": 21000,
    "to": "0xd50f18548e6d6ff2a55546a8d7ddb7ce12df3a3e",
    "txhash": "731981703e109f1b8e5da4bf40bf696994d5f2a0b45593c33bb28542b3d9094c",
    "v": 37,
    "value": "18000000000000000000"
}