{
    "data": "a9059cbb0000000000000000000000004701c8d60b799227b5a887af38e8cc6d313ff9fa0000000000000000000000000000000000000000000000000000000000002710",
    "gasprice": "2000000000",
    "hex": "f8a91b84773594008303d090948effd494eb698cc399af6231fccd39e08fd20b1580b844a9059cbb0000000000000000000000004701c8d60b799227b5a887af38e8cc6d313ff9fa000000000000000000000000000000000000000000000000000000000000271026a04661ed786d975fb6f5fcdfc85f522fa86cb398be7f01e9c69c157a7ead94531da05a20985914ee9810b71774d7765c3c672c2396b968ac0a5cf5ca1c88ecea275b",
    "nonce": 27,
    "r": "31834922526731251284286600842695732028699905866710853933099799745953816400669",
    "s": "40765746945651246508285975993217890007938553629126812920274379219540055304027",
    "startgas": 250000,
    "to": "0x8effd494eb698cc399af6231fccd39e08fd20b15",
    "txhash": "759308b7087eaef227b7be3c6deb3d71cbfd20a74882ba5b5ad08bdc78e2a2a5",
    "v": 38,
    "value": "0"
}