{
    "data": "",
    "gasprice": "21000000000",
    "hex": "f86c0b8504e3b29200825208947a82bbb85ee6232a607ef12ec9d8e094049a5a128822b1c8c1227a00008025a0b3042318f94e85305900eef97f5292ecab6196353fc9c671beb92ee92440f2eda06fc58ba98c096b0f24999dbd243d4d00108a15e229fe5aad5726251464a57ce5",
    "nonce": 11,
    "r": "80971309519079716728072908963586522079953093214124050735060138588245539746541",
    "s": "50555758978224696715468141649863390534770577235175765702724062403843527638245",
    "startgas": 21000,
    "to": "0x7a82bbb85ee6232a607ef12ec9d8e094049a5a12",
    "txhash": "75af05cf41bff721fd3c07b07e630ca9e6b4a8159ff2c595a47e6e2f645f1597",
    "v": 37,
    "value": "2500000000000000000"
}