{
    "data": "a9059cbb000000000000000000000000e3143af0f9b723fbc78bdc7a01d758a945c6ca64000000000000000000000000000000000000000000000220c1e3c21dbc640000",
    "gasprice": "40000000000",
    "hex": "f8ad83044a938509502f9000830125b4944cc19356f2d37338b9802aa8e8fc58b0373296e780b844a9059cbb000000000000000000000000e3143af0f9b723fbc78bdc7a01d758a945c6ca64000000000000000000000000000000000000000000000220c1e3c21dbc64000025a0d9561999a39513a4de3e10a645725ba05ca6812bce779b12a6f623c2264d10bda05b65a9b86d4a3e035d85e39054ea95ea028ee8a253a314b05f7154031141bd47",
    "nonce": 281235,
    "r": "98304013675897487320950011491039098782536169112818297233112319312668763427005",
    "s": "41340092141892233797724612618479684514222094318734701474521779060246537420103",
    "startgas": 75188,
    "to": "0x4cc19356f2d37338b9802aa8e8fc58b0373296e7",
    "txhash": "760d66809d51265ed03d9e9be86f5e1e9bfa79e883b487199e2ed1be053a523b",
    "v": 37,
    "value": "0"
}