{
    "data": "a9059cbb0000000000000000000000004b01721f0244e7c5b5f63c20942850e447f5a5ee0000000000000000000000000000000000000000000000268140ffb8e8350000",
    "gasprice": "40000000000",
    "hex": "f8aa048509502f90008301388094419c4db4b9e25d6db2ad9691ccb832c8d9fda05e80b844a9059cbb0000000000000000000000004b01721f0244e7c5b5f63c20942850e447f5a5ee0000000000000000000000000000000000000000000000268140ffb8e835000025a0c2fb113853f24f11ed33ff897c42cec7e0f1dc67ca021d4bcde5a384fdf68bb1a06d026622db0ba7685828b72d9effd256b8725fb4dd228d97ece6169e45f9be86",
    "nonce": 4,
    "r": "88192290086698562906011118593330168598782373094990202206763728407041091734449",
    "s": "49306339107539338448559853850054479640163021722463271997664710506237325328006",
    "startgas": 80000,
    "to": "0x419c4db4b9e25d6db2ad9691ccb832c8d9fda05e",
    "txhash": "765cac67fb489ced0b6b5babbd33a83a98cf108a47f09ac6404e223d351cbe23",
    "v": 37,
    "value": "0"
}