{
    "data": "",
    "gasprice": "40000000000",
    "hex": "f87083044b528509502f900083015f9094c783428e64f91a789cfb66d80c04a25f47be1cb18803031ebc0924b0008025a07f73d89ac858156c38b6c5117042a1b9080ac499ce312ebcfea0395d590861b9a0256d92aeda7595714515b73339f99f1d2c3aec64d10664f6d046dcba4f166b22",
    "nonce": 281426,
    "r": "57648414132665732883279904449124281901774276596294600839761258635832500707769",
    "s": "16929174096645502505084020786969161017742846725582841943487697213135990975266",
    "startgas": 90000,
    "to": "0xc783428e64f91a789cfb66d80c04a25f47be1cb1",
    "txhash": "775de26c720d09da88aa5816d32c267bc45f93fba0e55a76d046c22cea6b84c4",
    "v": 37,
    "value": "217051000000000000"
}