{
    "data": "47cf897100000000000000000000000000000000000000000000000000000000000000850000000000000000000000000000000000000000000000000000000000004d1b0000000000000000000000000000000000000000000000000000000000001f150000000000000000000000000000000000000000000000000000000000001e3a000000000000000000000000000000000000000000000000000000000000000000000000000000000000000000000000000000000000000000000000000000000000000000000000000000000000000000000000000000000000000000000000",
    "gasprice": "1000000000",
    "hex": "f9014b82045a843b9aca00830dbba0940fa8051dbdbbcc32d602803d5f1de1e6f92a0bbd80b8e447cf897100000000000000000000000000000000000000000000000000000000000000850000000000000000000000000000000000000000000000000000000000004d1b0000000000000000000000000000000000000000000000000000000000001f150000000000000000000000000000000000000000000000000000000000001e3a00000000000000000000000000000000000000000000000000000000000000000000000000000000000000000000000000000000000000000000000000000000000000000000000000000000000000000000000000000000000000000000000025a038514b85fd3d1a00fc4641de28756491f1fee67df482a34f98fce349681863b0a03294af0e523d2fbfae20099cceba7b6e27caed7702736988a55878dc5a155d78",
    "nonce": 1114,
    "r": "25473155376228028426140569058910760361475233851282770723138817825316600832944",
    "s": "22878343986461240578821179753331141538711659540969047886339848894090495483256",
    "startgas": 900000,
    "to": "0x0fa8051dbdbbcc32d602803d5f1de1e6f92a0bbd",
    "txhash": "779300a6daa315c596855c246106f895e13e64a411d88639b1cebc36d8303ffd",
    "v": 37,
    "value": "0"
}