{
    "data": "",
    "gasprice": "1000000000",
    "hex": "f86b11843b9aca0082c35094be0483d303e0ff49b8e2fc9e5a907851a40c0444881f2ef2984a4d80008026a055082df9b77cffbde6aaa15cec453ce3baab97579df35763ee617bc204d82d1ca073bd2c7e0dc50655530809df9b94abe0a91b4fb6172226d0e6bb669eb3bee30f",
    "nonce": 17,
    "r": "38461044217031766760101326744467811873013807417303730460218627618956025277724",
    "s": "52350218757561399215367932813415538564925955105840093262095868769297628062479",
    "startgas": 50000,
    "to": "0xbe0483d303e0ff49b8e2fc9e5a907851a40c0444",
    "txhash": "78181957a80799ae651118fdc061196ee894d8bc6a3c06507b6aaa7c98c803f9",
    "v": 38,
    "value": "2247000000000000000"
}