{
    "data": "",
    "gasprice": "90000000000",
    "hex": "f8708345b0c28514f46b0400830249f09450fc87a1eda227e80cf8c0fe1de6ce4dd5bcf8528801b1cb57217ac0008025a07662b8d3ba265e805aafb0006c2a345269788f2c25bce920f2a748a959dec3d0a04503fe00ba90199211f2007dc1b6d36adf607780303bc122d52f26688b1805c1",
    "nonce": 4567234,
    "r": "53547342774654142126388290483988379335323498739009983141916053653859610837968",
    "s": "31216640156659166258713303324121507268674729924231460639424722087669950580161",
    "startgas": 150000,
    "to": "0x50fc87a1eda227e80cf8c0fe1de6ce4dd5bcf852",
    "txhash": "783f71b52437bbe7a38198ed8aac843d8a679cd8e15cbaba297789a05f19f876",
    "v": 37,
    "value": "122102240000000000"
}