{
    "data": "a9059cbb000000000000000000000000b8577dadcf48e02e17c649edf5185844dd2df05c000000000000000000000000000000000000000000005acf37612b68d3990000",
    "gasprice": "100000000000",
    "hex": "f8ad8319a10f85174876e8008301979a94fa1a856cfa3409cfa145fa4e20eb270df3eb21ab80b844a9059cbb000000000000000000000000b8577dadcf48e02e17c649edf5185844dd2df05c000000000000000000000000000000000000000000005acf37612b68d399000025a0fbbb2fbc7e62a48033277ca5d93e34cadb5cae38ed53f63ff3a28af21e5c135ea00584611e995adb91a843848e14cc82e2df1b5540020de4010d613dd336cb34c6",
    "nonce": 1679631,
    "r": "113861254859371621886609885802694465927869143700467130279548179750386539434846",
    "s": "2495458349811274684144427066687280831458782405665951544756109900124883989702",
    "startgas": 104346,
    "to": "0xfa1a856cfa3409cfa145fa4e20eb270df3eb21ab",
    "txhash": "785d29da64a47b58076b86ac90b334cd1733ca4c13a856a072bb38ffac1f58fe",
    "v": 37,
    "value": "0"
}