{
    "data": "",
    "gasprice": "1000000000",
    "hex": "f86b0b843b9aca0082ea6094c16cf13922c18de7842374f9baace4489f1d24af8809fdf42f6e4800008025a085e74d0a862cf5af0a31b44cf9d9d6e93057635e86caf8399041e612e000742ba0089276f895b55c4123205b1e404cbff02ed86961834f6a1615c7d6b0c035a2d0",
    "nonce": 11,
    "r": "60566282251736748410984688892737825159945812741718766727692419959950128739371",
    "s": "3877283568025608745998127699199260388997042677798456694713471894279362552528",
    "startgas": 60000,
    "to": "0xc16cf13922c18de7842374f9baace4489f1d24af",
    "txhash": "78e7f1609cc6f67aa5773c90305eb522e9d6071dcb366911ef8dd708fcf512e4",
    "v": 37,
    "value": "720000000000000000"
}