{
    "data": "a9059cbb0000000000000000000000008ecb60ba4f81c5b2946f1253df0180de538d7d300000000000000000000000000000000000000000000000056bc75e2d63100000",
    "gasprice": "3000000000",
    "hex": "f8ab82047084b2d05e0083015f90940e935e976a47342a4aee5e32ecf2e7b59195e82f80b844a9059cbb0000000000000000000000008ecb60ba4f81c5b2946f1253df0180de538d7d300000000000000000000000000000000000000000000000056bc75e2d6310000025a0337c75be65623b2f73d26bb46c5b103b22576743f8255bb475feb1b0fc02c965a0294caa02fa1ad1fc923e43b16a300b422afc07120a3c1052af5533a4d3c7866f",
    "nonce": 1136,
    "r": "23287856951168498145879536257392035964664417937227346635680159343774454172005",
    "s": "18680280545975032994728409966501076232890483508360040432771270296858782041711",
    "startgas": 90000,
    "to": "0x0e935e976a47342a4aee5e32ecf2e7b59195e82f",
    "txhash": "7951be1fe2c7ddf9a3339cd052315ee9121542c3d447875f66bc6de3d3214900",
    "v": 37,
    "value": "0"
}