{
    "data": "",
    "gasprice": "22900000000",
    "hex": "f86d82b0c4850554f2450082520894a6e47d746e9c4fde15cf060c6d658e052440fcfc8702b7c37140d0008025a056469cf3a66ab782c1bb472d2ba6aedfc2e77a49d3eaf8c02e41e781aee8e7c2a054e10b3fd64e6c47ade339330be75bd197e048aa9269297dfc22892a0d2cba51",
    "nonce": 45252,
    "r": "39023667513918276926918132376965974896402115071049030595957467379223669303234",
    "s": "38391897510825059579393156232999133511228599878180243011277395344064122763857",
    "startgas": 21000,
    "to": "0xa6e47d746e9c4fde15cf060c6d658e052440fcfc",
    "txhash": "797c94824776e51dae30c584622d6bffb28861b74761a61c5d5d15d032e16728",
    "v": 37,
    "value": "765000000000000"
}