{
    "data": "a9059cbb0000000000000000000000006f07639827f6871d41f0e9aff4cc58cf2ba4b3440000000000000000000000000000000000000000000000000000000011dfe5a6",
    "gasprice": "3000000000",
    "hex": "f8ac8301f5cb84b2d05e008303d09094b64ef51c888972c908cfacf59b47c1afbc0ab8ac80b844a9059cbb0000000000000000000000006f07639827f6871d41f0e9aff4cc58cf2ba4b3440000000000000000000000000000000000000000000000000000000011dfe5a626a06d94b21c8b2e5bd57d0af8f00484acb718600ec14c4e6996cef46d0825c08cd7a03bc014bb043e9bb4d5fe3a4fc337ab0aab96ef120dc2d090e708713ca95d782c",
    "nonce": 128459,
    "r": "49564823141548952029832121184080680390377017593486475820137558318484258065623",
    "s": "27025835779734133971586483809684699353335821425052910031747896600697857996844",
    "startgas": 250000,
    "to": "0xb64ef51c888972c908cfacf59b47c1afbc0ab8ac",
    "txhash": "79e08815abb3462a67671d3533a0324415a71f2ceabc5da8fdc30b369e74aab0",
    "v": 38,
    "value": "0"
}