{
    "data": "a9059cbb0000000000000000000000006ed8d50c8449a60e15f624a2514f0d1fe633fb580000000000000000000000000000000000000000000000000000000005699dd3",
    "gasprice": "3000000000",
    "hex": "f8ac8301f5a184b2d05e008303d09094b64ef51c888972c908cfacf59b47c1afbc0ab8ac80b844a9059cbb0000000000000000000000006ed8d50c8449a60e15f624a2514f0d1fe633fb580000000000000000000000000000000000000000000000000000000005699dd325a0873e8498c91af0d9b48e837a144fb910b1da46c345f7eab590d4528a6a165ce7a00e57ea8111758c742fc8d1e3f7a1e36b9f51312f65bbb86f483257a991121fa5",
    "nonce": 128417,
    "r": "61172694226365745456841634596969836991656953141311824941024178866095264259303",
    "s": "6487714063118383595567864754585335130388619243009692895787714029811261382565",
    "startgas": 250000,
    "to": "0xb64ef51c888972c908cfacf59b47c1afbc0ab8ac",
    "txhash": "7adc3312817e5d59ba69f3c7f761d26944870f27caf96319af6dab901dcd28a8",
    "v": 37,
    "value": "0"
}