{
    "data": "",
    "gasprice": "25652000000",
    "hex": "f86d821b618505f8fa75008252089438f310c819833839809261b78db82dd0fbbc99bb870805124e9ac0008026a0d9658a0e368732b94546f95ca6c4f06aa66c368e313bdaea03648c0f682bdb56a01f449762f39a3be4dd0eccc2b77ed2c1024db66ed1b7ea2c5c6b711f8d7f2dfb",
    "nonce": 7009,
    "r": "98331292520289014570987264754630706297846460210845511897219295475262278064982",
    "s": "14142888737913661976739707246395960161822843894637697119125723887713229155835",
    "startgas": 21000,
    "to": "0x38f310c819833839809261b78db82dd0fbbc99bb",
    "txhash": "7b9e2de346c9a5a26118eb1f8db2051281a1318e3e878378d502f715c13ba1d6",
    "v": 38,
    "value": "2257376000000000"
}