{
    "data": "",
    "gasprice": "21000000000",
    "hex": "f86c378504e3b2920082520894777f415324d56e1d54fa832902d8797db7a4c57c881bbfdc50fe6f70008026a0f4f8dfd3b34339b75ffe083d78e74880a582653f8b034331288d8f4bf336bfaea00c797377f73cad3b52229e8969588f37635eb6fd15f995fb516d203881f9b718",
    "nonce": 55,
    "r": "110804057923244674297876079122053672327070541547735298495541076944946770395054",
    "s": "5642339612938012453259211898606763478762321863588361599422020651310890202904",
    "startgas": 21000,
    "to": "0x777f415324d56e1d54fa832902d8797db7a4c57c",
    "txhash": "7be812cab7173897f0770d14f7cd76ca4d74b127f8b5018fc0b5300e42c27d67",
    "v": 38,
    "value": "1999559000000000000"
}