{
    "data": "",
    "gasprice": "22000000000",
    "hex": "f86c2085051f4d5c00825208949fcafcca8aec0367abb35fbd161c241f7b79891b880ecaf383fac4a4008025a042de02e980ea16d8f9d2dfcf66a677b33a2f6b8f47c0d079dce872f58b8e20c6a07c76e14442156b931dfd953ad03b7971194d26abcf9d149c7faa0d2583aec37a",
    "nonce": 32,
    "r": "30244908153612922045828752612858105422670893523711522953551437698713212821702",
    "s": "56296835911132705767169471643858426704867133592310035418297668316491416519546",
    "startgas": 21000,
    "to": "0x9fcafcca8aec0367abb35fbd161c241f7b79891b",
    "txhash": "7bf7888d8f18025e30374c593f2f1717b5eae93c68c14466259d364cb0a0309f",
    "v": 37,
    "value": "1065932010000000000"
}