{
    "data": "a9059cbb0000000000000000000000006c2a8603666e3f33cb4aac35f3607591fdbb8053000000000000000000000000000000000000000000000000000000000566e365",
    "gasprice": "3000000000",
    "hex": "f8ac8301f2b984b2d05e008303d09094b64ef51c888972c908cfacf59b47c1afbc0ab8ac80b844a9059cbb0000000000000000000000006c2a8603666e3f33cb4aac35f3607591fdbb8053000000000000000000000000000000000000000000000000000000000566e36525a0a63edea1dfb10e39fc766ecba82a8b11aa6cdba55847173b091b64f9eee96271a05ff4d60cfc7aee5b792acb80e83d732575db93fdcaac242fb6740f6695ab4949",
    "nonce": 127673,
    "r": "75195013934636358694687292666629868011339540445850547860039666530481305379441",
    "s": "43402308623043074273258818081668645196558077808130702367301057945050100222281",
    "startgas": 250000,
    "to": "0xb64ef51c888972c908cfacf59b47c1afbc0ab8ac",
    "txhash": "7c9bf94b5a45b3162a5e791e1840efb059465ae2ea3c70e9a5c3677f1b492704",
    "v": 37,
    "value": "0"
}