{
    "data": "",
    "gasprice": "100000000000",
    "hex": "f86f8302ec9485174876e800825208948d1427f8ddcd6a6758177576b1d109ec3a7224fc880f942817d84734008026a0c0b16be449412828441acc82bc5a1b5a824b34280c5c162ffd02e4ddafc1dd94a0324946fc4c675e80ce98105c06ae4ef68cc1b8fc6f1bb5e157e14c3f6080474e",
    "nonce": 191636,
    "r": "87157543499894468565822517089563432135686094488501185428842201806183287872916",
    "s": "22745112189089234706024357266409244566872620035639949056926137260229225629518",
    "startgas": 21000,
    "to": "0x8d1427f8ddcd6a6758177576b1d109ec3a7224fc",
    "txhash": "7d7e6fc2996afeb3756f36efddfd6bd2f0032b163aa20bf487a9fa54bc4b8dbd",
    "v": 38,
    "value": "1122566290000000000"
}