{
    "data": "",
    "gasprice": "100000000000",
    "hex": "f86f8303a94285174876e8008252089451d129beb1a93e47e9e52549a1a86a865955d5578804b7ec32d7a200008026a04393856b06e008335c1845f9073f9329860844fb08aee901c753250fce48b810a01fa818e57614d3552f1822a41d53f749bb5eca1509693b3cf09fda2a430a71d7",
    "nonce": 239938,
    "r": "30565608191303722230679681911829251735666576478260823429968362298260016642064",
    "s": "14318700441139553896282542925095267962251453556914451536177903766042795733463",
    "startgas": 21000,
    "to": "0x51d129beb1a93e47e9e52549a1a86a865955d557",
    "txhash": "7ec9046fd90cbb5f260df6a8ef099a285707a4f22331010608e880ffaa04df97",
    "v": 38,
    "value": "340000000000000000"
}