{
    "data": "",
    "gasprice": "1000000000",
    "hex": "f86936843b9aca00825208945fc45126b6ac4bb637607340440341747165929286246139ca80008025a070bd08179fc9df507d84aae4c2564543b5d028e2d9a24a91e910ebca16478584a013ba7129ba60b0d1bf22d9d4677f74179d88082f4da434f4254e7fe51fb76272",
    "nonce": 54,
    "r": "50993028987446197636814253907509796430043222850489632297069609176366733297028",
    "s": "8923358699453704048703906462119710655695673802021307837023568329600105144946",
    "startgas": 21000,
    "to": "0x5fc45126b6ac4bb6376073404403417471659292",
    "txhash": "7ef1cc939ee87d1ed530b2709f8eb452f573aabfa4c052ca11f99b4870ded123",
    "v": 37,
    "value": "40000000000000"
}