{
    "data": "",
    "gasprice": "90000000000",
    "hex": "f8708345b0c68514f46b0400830249f0945248a0a7fb5e08e50d8dcf8d6e0d447d93453ecb8803d6b713260530008026a030320eaa442882527de46daa494ccc452f3b1dfca5b7e0856ab7481acb56c140a06f86ed3d5cedfc26a6d08fad5069feea5b626c278ce372b2e90ceafe75c30d7c",
    "nonce": 4567238,
    "r": "21799460300053394640690580644268936021965593938864774213905672161220198056256",
    "s": "50445121067650440838945639357008912738354424961625941656285049655857116286332",
    "startgas": 150000,
    "to": "0x5248a0a7fb5e08e50d8dcf8d6e0d447d93453ecb",
    "txhash": "8029a40e1d4f5f64f72c7a3432e11bd49174452c0e6730ad7d632663ad411d31",
    "v": 38,
    "value": "276609720000000000"
}