{
    "data": "",
    "gasprice": "22000000000",
    "hex": "f86c0285051f4d5c0082a410943f5ce5fbfe3e9af3971dd833d26ba9b5c936f0be88de09da2425e770008025a0da795159bb55ce7b946885637ce207fab4521e62091ece979022049c13acfa3ca0577a5c0aef950fee3fcae7cbc1dd8db271f65d48bc5da5ec41436c9dd23e9cda",
    "nonce": 2,
    "r": "98818550946608297900160830773500255275100108853201233429868116059265574959676",
    "s": "39567408424141468433193655615151915162297556266050059418291765956054253214938",
    "startgas": 42000,
    "to": "0x3f5ce5fbfe3e9af3971dd833d26ba9b5c936f0be",
    "txhash": "80676bb9e3cf6bd3d7275696ec078cbb873d0a69006023ef39de0fcb6759bc67",
    "v": 37,
    "value": "15999559000000000000"
}