{
    "data": "",
    "gasprice": "20000000000",
    "hex": "f86b0c8504a817c80082520894cd85810a12db2f8806756b59785bfa520a4cee0e871550f7dca700008025a06d0f57dfb22b2e0e8213bb2519545dae4a288b0b8afbdf1fa52931bfde1563dda05b5ba4463b3b724157a95e7375e9f71c4074161425570a20a93b4b04060c88a9",
    "nonce": 12,
    "r": "49329209684311340752491586946577081167592794489544994343361144025282191385565",
    "s": "41322386083807094670733979821208687500958570833732442131992600103331199486121",
    "startgas": 21000,
    "to": "0xcd85810a12db2f8806756b59785bfa520a4cee0e",
    "txhash": "80947c6ddf87f7fed23cf788fd86d4a478906f73319d0440215f465f9dda54a8",
    "v": 37,
    "value": "6000000000000000"
}