{
    "data": "a9059cbb0000000000000000000000007d701f1d0b2ef3c3e61999669bb1c1eaaaea75ce00000000000000000000000000000000000000000000014464aea768c1800000",
    "gasprice": "20000000000",
    "hex": "f8a90c8504a817c80082ca3c945fc6de61258e63706543bb57619b99cc0e5a5a1f80b844a9059cbb0000000000000000000000007d701f1d0b2ef3c3e61999669bb1c1eaaaea75ce00000000000000000000000000000000000000000000014464aea768c180000026a09ad3afc84513cd113cd8dbe6f8e9b1925a2407ddc9f499b89f446ef44c3f635fa02330c60452efb529945b4dfd5f2e683409a44d5d1b3572eda905ea0e30aaf036",
    "nonce": 12,
    "r": "70030196617365978484104247347288286322362346422174058991460316429160248468319",
    "s": "15917125021874355172025323233945501186660814301714827503168465258759752183862",
    "startgas": 51772,
    "to": "0x5fc6de61258e63706543bb57619b99cc0e5a5a1f",
    "txhash": "80d31b2e3f532736917f9619d24f32288e231b361a26662d54c547c315b4f6a1",
    "v": 38,
    "value": "0"
}