{
    "data": "0a19b14a000000000000000000000000dd6c68bb32462e01705011a4e2ad1a60740f217f00000000000000000000000000000000000000000000000006f05b59d3b20000000000000000000000000000000000000000000000000000000000000000000000000000000000000000000000000000000000000000000005c5edcbc290000000000000000000000000000000000000000000000000000000000000004bf0d800000000000000000000000000000000000000000000000000000000d422ba75000000000000000000000000e3e92de31c9d4c39217d6050cec4ce012bf9c936000000000000000000000000000000000000000000000000000000000000001b29e86da779ff06e1f9ddf08b42f3d1d1cd4b48c2834bbe88b8f7d4fc6dbdb504122dd68a7fff9e72d798e4d53fc283f205880d5da42a287b6a26cce3000b71de00000000000000000000000000000000000000000000000006f05b59d3b20000",
    "gasprice": "50000000000",
    "hex": "f901cc81ab850ba43b74008303d090948d12a197cb00d4747a1fe03395095ce2a5cc681980b901640a19b14a000000000000000000000000dd6c68bb32462e01705011a4e2ad1a60740f217f00000000000000000000000000000000000000000000000006f05b59d3b20000000000000000000000000000000000000000000000000000000000000000000000000000000000000000000000000000000000000000000005c5edcbc290000000000000000000000000000000000000000000000000000000000000004bf0d800000000000000000000000000000000000000000000000000000000d422ba75000000000000000000000000e3e92de31c9d4c39217d6050cec4ce012bf9c936000000000000000000000000000000000000000000000000000000000000001b29e86da779ff06e1f9ddf08b42f3d1d1cd4b48c2834bbe88b8f7d4fc6dbdb504122dd68a7fff9e72d798e4d53fc283f205880d5da42a287b6a26cce3000b71de00000000000000000000000000000000000000000000000006f05b59d3b2000026a04cc63f2d1ea5a682efb1cc729efca16b18318aed03dc079f46374dad2566977ca067e34975f771a9e5ee53c29cc45490f66759a7c1550ea8e1c98c274c7ddbea73",
    "nonce": 171,
    "r": "34726048237599326827589608845239332357966255108879941458145126490741030688636",
    "s": "46989804695637101574756627756827688038208843357232307368108865545785183038067",
    "startgas": 250000,
    "to": "0x8d12a197cb00d4747a1fe03395095ce2a5cc6819",
    "txhash": "80f5e70e58b04ee2ed0a0de4c81c27e967158b349d4c43b1b9f9faf4f62b295a",
    "v": 38,
    "value": "0"
}