{
    "data": "867904b40000000000000000000000002cbbd879a7a2fd3b689fa288fa99ab1ca9bb197f0000000000000000000000000000000000000000000000062e115c008a880000",
    "gasprice": "22000000000",
    "hex": "f8ac8292ff85051f4d5c00830493e0946ddca767d731f57d90a516dd751f2aa9282b37d280b844867904b40000000000000000000000002cbbd879a7a2fd3b689fa288fa99ab1ca9bb197f0000000000000000000000000000000000000000000000062e115c008a88000026a0c8e9505b7da1285c952b88812bd1832f52a97dcad50227282d902af75476fdaca0169311a77842085994c6bd5cda9e0cb50abfcb36f606751a989106dd55db7dc7",
    "nonce": 37631,
    "r": "90874799689039864054943552370115257556550761685976454312588397104723012287916",
    "s": "10210731032017911137640164103907113032111094888154923599954903415732964130247",
    "startgas": 300000,
    "to": "0x6ddca767d731f57d90a516dd751f2aa9282b37d2",
    "txhash": "813e7807d8b2c792a2e8085bbea94d2d9d7ce08644d85d3f04fef9bf21c11660",
    "v": 38,
    "value": "0"
}