{
    "data": "",
    "gasprice": "1000000000",
    "hex": "f86a01843b9aca00825208948b1f324c4a32cb82f04baf47465b5d2740a3b29a87b1a2bc2ec500008026a0b33bd534f1acd365da7723d4a2e5f890cb28fb36983bfefc1ec33c40e0371144a01d3af6817e97eaec9f26fadb2f320999a9b36e2062cf66cc32e7aa95940b8351",
    "nonce": 1,
    "r": "81069715372567059967548895715232997655206430645460430244660005156196619587908",
    "s": "13221251059438146151144323758871205303119554284518556577505310412385391706961",
    "startgas": 21000,
    "to": "0x8b1f324c4a32cb82f04baf47465b5d2740a3b29a",
    "txhash": "81ce0dbb628c83bb158995640ba6083d6e848b6224d4c6859ad495845e7961f2",
    "v": 38,
    "value": "50000000000000000"
}