{
    "data": "6ea056a900000000000000000000000000000000000000000000000000000000000000000000000000000000000000000000000000000000000000000debf48660639000",
    "gasprice": "90000000000",
    "hex": "f8ad8345b0d78514f46b0400830249f0940e3d1da195cd4f1d898979d5a0aa6ce48c1d25e780b8446ea056a900000000000000000000000000000000000000000000000000000000000000000000000000000000000000000000000000000000000000000debf4866063900026a0c3bfdfa5df19f6bc4547ac68b84a58553162357ac58689747b319ba824e4bfbba03b6e2cf717af05643a8ee9821f839e8b8a27cb76267e7b76ee4da7f015362d32",
    "nonce": 4567255,
    "r": "88540016824431473449453049298013033706213481784648837707297983764030705418171",
    "s": "26881121581978606957890821606002797528248465896373699365418333417399427411250",
    "startgas": 150000,
    "to": "0x0e3d1da195cd4f1d898979d5a0aa6ce48c1d25e7",
    "txhash": "83e9f977f9bde857622903402f2027ba8935b3fd13cd519facf0bdfd46815bcd",
    "v": 38,
    "value": "0"
}