{
    "data": "6ea056a9000000000000000000000000000000000000000000000000000000000000000000000000000000000000000000000000000000000000000029c5ab0d65ed0000",
    "gasprice": "90000000000",
    "hex": "f8ad8345b0d88514f46b0400830249f094076b508a10b552743af514a53da21ea5f643bcfa80b8446ea056a9000000000000000000000000000000000000000000000000000000000000000000000000000000000000000000000000000000000000000029c5ab0d65ed000025a0395d9056d6a66158d4dec5deafa25d3ff143eb6ad11becae781ac0136c2c8d37a0407c2e4c697030e739277a9e9d2336d9ead78c5854c3b4f9c76e458926e19edd",
    "nonce": 4567256,
    "r": "25947145338905200382866012866958988517369085939014011268777730692555240934711",
    "s": "29167430885753410919385462482629168635363465690149872615317904216506092330717",
    "startgas": 150000,
    "to": "0x076b508a10b552743af514a53da21ea5f643bcfa",
    "txhash": "83efd5a2db7b4247195f127cb01dd67ae55cd25fdb7bf456e5a8c963cf240377",
    "v": 37,
    "value": "0"
}