{
    "data": "278b8c0e000000000000000000000000000000000000000000000000000000000000000000000000000000000000000000000000000000000000000003227fc169a850000000000000000000000000003833dda0aeb6947b98ce454d89366cba8cc5552800000000000000000000000000000000000000000000000a4cc799563c38000000000000000000000000000000000000000000000000000000000000004c018e000000000000000000000000000000000000000000000000000000007d1e6afd000000000000000000000000000000000000000000000000000000000000001b37ba251abfba658336c3cd321b86b59f265d02aaed71ad05ab6e6e95f203e96f6237c9f24aa4d21901558768e72938d3a0c6a1099b07a69329ab057e8db38334",
    "gasprice": "1000000000",
    "hex": "f9018b818a843b9aca008303d090948d12a197cb00d4747a1fe03395095ce2a5cc681980b90124278b8c0e000000000000000000000000000000000000000000000000000000000000000000000000000000000000000000000000000000000000000003227fc169a850000000000000000000000000003833dda0aeb6947b98ce454d89366cba8cc5552800000000000000000000000000000000000000000000000a4cc799563c38000000000000000000000000000000000000000000000000000000000000004c018e000000000000000000000000000000000000000000000000000000007d1e6afd000000000000000000000000000000000000000000000000000000000000001b37ba251abfba658336c3cd321b86b59f265d02aaed71ad05ab6e6e95f203e96f6237c9f24aa4d21901558768e72938d3a0c6a1099b07a69329ab057e8db3833426a0d86e27a1c85ff881b97a0fbabaec9aaf7ee71c9edc6dd8245c3e7f24dd9238b6a04b30c411ff1e3c2066d2ee18c74311f62062db0e3d7a2069e8f64a0cf4676d48",
    "nonce": 138,
    "r": "97894202000872038810009692265120014150077372673337476612449842464316428794038",
    "s": "34009625530324478147215662550115913536930817606278697850026958096994809638216",
    "startgas": 250000,
    "to": "0x8d12a197cb00d4747a1fe03395095ce2a5cc6819",
    "txhash": "84108a78ea187238420e9cd0620c47bbe16984c38223c17b9ecab46d25e7ee57",
    "v": 38,
    "value": "0"
}