{
    "data": "2e1a7d4d0000000000000000000000000000000000000000000000000074ac1a01eef200",
    "gasprice": "1000000000",
    "hex": "f8883a843b9aca00830266fb94c02aaa39b223fe8d0a0e5c4f27ead9083c756cc280a42e1a7d4d0000000000000000000000000000000000000000000000000074ac1a01eef20026a0a485e0761c3b5f3c48fd24c8645792d6ca67ecdce05d5e1cbc127c08433f8355a02a711ee071119f4bec4eeb757603c364dafa204ebe359d7e4310344af0364c77",
    "nonce": 58,
    "r": "74415847002699769015593700949640657313836895934215140995017885390068250542933",
    "s": "19197006462143141232220971123337077451152661898083201611900113154688618482807",
    "startgas": 157435,
    "to": "0xc02aaa39b223fe8d0a0e5c4f27ead9083c756cc2",
    "txhash": "843ca78b46fa5d0ff67afce38e34d410809724562d42e8cb09142b9d05e97357",
    "v": 38,
    "value": "0"
}