{
    "data": "a9059cbb0000000000000000000000007acf804176f4e254538ddde7172daefba5cf643100000000000000000000000000000000000000000000000000000011b1f3f800",
    "gasprice": "12000000000",
    "hex": "f8aa108502cb41780083015f9094b3203db25a01fa7950a860b42b899ad7da52ddd680b844a9059cbb0000000000000000000000007acf804176f4e254538ddde7172daefba5cf643100000000000000000000000000000000000000000000000000000011b1f3f80025a0e2f61f2eec166a7143b74e18be336800378728e12bf161dd45886865a72846eea0112a934aedd76dd4226d6a7aff6d67e40053f7d63bdb4a749e8eef65bc0d41a0",
    "nonce": 16,
    "r": "102657563376910905669105935022867591446178749927418711991073303618202028754670",
    "s": "7764542579432887809453724675997068532871154312191416017680393798355585417632",
    "startgas": 90000,
    "to": "0xb3203db25a01fa7950a860b42b899ad7da52ddd6",
    "txhash": "845a1718689998674ca53e86405f00030b24d2971474f33d27070fbdb4f5c3ba",
    "v": 37,
    "value": "0"
}