{
    "data": "",
    "gasprice": "22000000000",
    "hex": "f86c0185051f4d5c0082a410943f5ce5fbfe3e9af3971dd833d26ba9b5c936f0be88116908362e73f0008025a03603ef9da2439390a8dfcd9ba07e94fc3ab7b1bc1d7d47803d72a11d793cdde4a037e38f3c8ebcb7b078e7151835e60577404e47a72a21626f03cd1f90fe2a8436",
    "nonce": 1,
    "r": "24431848131867620392121233723169407953835526655180606825627459972460585999844",
    "s": "25279269538140714991533974946850333762290753951645426257960523357195065787446",
    "startgas": 42000,
    "to": "0x3f5ce5fbfe3e9af3971dd833d26ba9b5c936f0be",
    "txhash": "8542aa2e157d54a7ea1fc22402e1388fdf1656ebe23fe33b61066e6c6178f012",
    "v": 37,
    "value": "1254543000000000000"
}