{
    "data": "867904b4000000000000000000000000f5c30639b352e21a33c3f435c18286098a4af6200000000000000000000000000000000000000000000000062e115c008a880000",
    "gasprice": "22000000000",
    "hex": "f8ac82930785051f4d5c00830493e0946ddca767d731f57d90a516dd751f2aa9282b37d280b844867904b4000000000000000000000000f5c30639b352e21a33c3f435c18286098a4af6200000000000000000000000000000000000000000000000062e115c008a88000025a00bab59908af99e799125909bf6cbc9c325107f0446a3d720d0830c403e94f12ca009ad76fc2ddfee31afb7cef48fc0623c1af8fde79a2455c6d65968909967e69d",
    "nonce": 37639,
    "r": "5278190334786001990587949158214938727913819317524386158966680032137683726636",
    "s": "4377301384262712160162815641859711153499592006903832861965388702021136672413",
    "startgas": 300000,
    "to": "0x6ddca767d731f57d90a516dd751f2aa9282b37d2",
    "txhash": "85e0180304d666a6239e1bd9b112113bf991abeb07e5957340feccd365253038",
    "v": 37,
    "value": "0"
}