{
    "data": "6ea056a9000000000000000000000000f7b098298f7c69fc14610bf71d5e02c60792894c00000000000000000000000000000000000000000000000000000000002c79e8",
    "gasprice": "90000000000",
    "hex": "f8ad8344c50d8514f46b0400830249f09406db375fee846a7f9c0d92f1acd25b70658bd50180b8446ea056a9000000000000000000000000f7b098298f7c69fc14610bf71d5e02c60792894c00000000000000000000000000000000000000000000000000000000002c79e825a0b91e45f585c229ca15d4d4f21e9df3b126cd8094b8498ec6bd3cb27a12cdc0a3a056844a14ae39849788d8dfcb07af35e598ffe42e14150d19f1dd03b7ad995cb8",
    "nonce": 4506893,
    "r": "83731365239618904295678404482480988411498902717915608239802516135960881512611",
    "s": "39132640077488252233634403731031919775853082695072018211522677505319191010488",
    "startgas": 150000,
    "to": "0x06db375fee846a7f9c0d92f1acd25b70658bd501",
    "txhash": "86179460db73fd7466ffe7d38b282a333d40b7029772b0a0477cefda066f4d56",
    "v": 37,
    "value": "0"
}