{
    "data": "",
    "gasprice": "30000000000",
    "hex": "f86d8202008506fc23ac008276c094ba14ad400339ac97f6f55e389b665ba903e841e18789c9d7aef800008025a05486f17658148bf0adcb2bf6b8a78c457cdf2c18d81a904356c00796177d0e1da078bedb05ce268a610bb049c54edc83c7a14e1f8455358357e38eb0b1c58a01bf",
    "nonce": 512,
    "r": "38232703299093897437945273463110238404774644016971464837271422944272656961053",
    "s": "54614754411259726840275285190220731355133105246769610430179425150934585049535",
    "startgas": 30400,
    "to": "0xba14ad400339ac97f6f55e389b665ba903e841e1",
    "txhash": "8622c52f8227884a6b41c26ba4a900e803c37c287db7f91ed041340717bd12f0",
    "v": 37,
    "value": "38784000000000000"
}