{
    "data": "a9059cbb000000000000000000000000d393a1d5471289c39ef5a0a561a65e3cd312116f000000000000000000000000000000000000000000000042b71fca92d2cdfc00",
    "gasprice": "41000000000",
    "hex": "f8aa1385098bca5a00830131fd94d26114cd6ee289accf82350c8d8487fedb8a0c0780b844a9059cbb000000000000000000000000d393a1d5471289c39ef5a0a561a65e3cd312116f000000000000000000000000000000000000000000000042b71fca92d2cdfc0026a03254f94ff3c56f87df103d76ee088a83b01b5391f123e2bd9a2db705c7ada748a06b865d0ded0c97f41bdb11fe1502f7debf9dc730014d368190360683ea6bbaeb",
    "nonce": 19,
    "r": "22765778272952948455543432404744411622438124911021952008414049856043168409416",
    "s": "48634874542943559070560940013996876028983862852256656249427694853796194401003",
    "startgas": 78333,
    "to": "0xd26114cd6ee289accf82350c8d8487fedb8a0c07",
    "txhash": "8697d724f2b4ef8fbde1e34df093d487ea26b0cf3db59310f9b603997cf301d5",
    "v": 38,
    "value": "0"
}