{
    "data": "a9059cbb000000000000000000000000d33f6371d8e76ed09ebcd0c5725e50fa4d541d10000000000000000000000000000000000000000000000004bc734bb175d4b822",
    "gasprice": "1000000000",
    "hex": "f8a880843b9aca008295ac9480fb784b7ed66730e8b1dbd9820afd29931aab0380b844a9059cbb000000000000000000000000d33f6371d8e76ed09ebcd0c5725e50fa4d541d10000000000000000000000000000000000000000000000004bc734bb175d4b82226a00c7adf8bf38b2a26447bf1e13e5ec6f0fae747aa6c1eac8fda144984204eeb93a07d5d3a8e4397eb293813bf75c0ba855ebb84eb90b3d344df1177afb719d28134",
    "nonce": 0,
    "r": "5644852387418216468785841432421124099756942994129872702769068616174218963859",
    "s": "56703826986651648105416075277069810916949804480971222684390476604556591661364",
    "startgas": 38316,
    "to": "0x80fb784b7ed66730e8b1dbd9820afd29931aab03",
    "txhash": "87a9d9404d2a508b9681ca2a6dbf0cb8c110edcfbd20aab4520ab7a88f4457f6",
    "v": 38,
    "value": "0"
}