{
    "data": "a9059cbb0000000000000000000000006ef1d3dcb375739a1e2940700bf900a14f0733fc000000000000000000000000000000000000000000000000000000000566e365",
    "gasprice": "3000000000",
    "hex": "f8ac8301f5be84b2d05e008303d09094b64ef51c888972c908cfacf59b47c1afbc0ab8ac80b844a9059cbb0000000000000000000000006ef1d3dcb375739a1e2940700bf900a14f0733fc000000000000000000000000000000000000000000000000000000000566e36526a0f5ce196ee1a74dae0e8adfbc36c71ace76483f9198df4122eae8eee1f8a30b66a03ec08a164bf6ec97d3732ef20265b46c7ecd07db8a14534930bf38d716976c62",
    "nonce": 128446,
    "r": "111180793931261505741518859557316735701026997925034611386284636910257791241062",
    "s": "28383584290714650241365420191951352984173280369959059670747089320397095005282",
    "startgas": 250000,
    "to": "0xb64ef51c888972c908cfacf59b47c1afbc0ab8ac",
    "txhash": "87b4858c1e2845fe88bf43d1a4430189f3837618a1b5951de8a9d4a12536ea11",
    "v": 38,
    "value": "0"
}