{
    "data": "853828b6",
    "gasprice": "1000000000",
    "hex": "f86802843b9aca008303d09094638b6212738e92840954410149646d9f989d07588084853828b626a07bc958349701b67df866d90ed3570ece860170a588659737dcf25676ee690d95a01e23f12634d076ab049211e1ec2f292a2b728d4a19f830ff4b1f6e780031a50c",
    "nonce": 2,
    "r": "55990225407260825953155708810939800258136011879785897002341435010750079372693",
    "s": "13632889455674781076263590353266904553181978928242230857404868942182306915596",
    "startgas": 250000,
    "to": "0x638b6212738e92840954410149646d9f989d0758",
    "txhash": "883843233ebe6f0df068802c6c66cad357a534c68d37f8c00470f59a81775d57",
    "v": 38,
    "value": "0"
}