{
    "data": "a9059cbb00000000000000000000000033fd8b02e15b4f58da98b44dccb7a96194433c4e000000000000000000000000000000000000000000000464dc18d5c9cb780000",
    "gasprice": "10197014528",
    "hex": "f8a95485025fca180082ea6094b6f43025b29196af2dddd69b0a58afba079cd60080b844a9059cbb00000000000000000000000033fd8b02e15b4f58da98b44dccb7a96194433c4e000000000000000000000000000000000000000000000464dc18d5c9cb78000025a0a139fdcadd6cb1a49763964b2ab526875386d451eb5593223c00ccf18ef8369aa03738eaeb3a158a051ba0bf528beaa8eb26ea696be1c8665cdf84ad462f10fb08",
    "nonce": 84,
    "r": "72924830515651951754948274306615572930698815697381237026965965893208267830938",
    "s": "24977771458056830260531409139202901091876003178993429262669310834766246902536",
    "startgas": 60000,
    "to": "0xb6f43025b29196af2dddd69b0a58afba079cd600",
    "txhash": "88455acbace06a7ee249278f5c152f8e046c1d14be844782cdf04ef0b5da5e86",
    "v": 37,
    "value": "0"
}