{
    "data": "",
    "gasprice": "4000000000",
    "hex": "f86d8204cc84ee6b280082c35094d99ed20cdbc874e69cff4c2ac31c8b89a7f30c1688016a80d1c459d8008025a071e6923756928c2d91a7ee348d4cc19d1a09f3f7afd7ffda847e7d88477f7799a06bc3573d5a86edc6458d6b5fe4c2942057109b68d8459515c247ab751a7e049a",
    "nonce": 1228,
    "r": "51518735861688971654793333335495731045817782811206082312732698732326473922457",
    "s": "48742612082063818717181423011597056552852677177426341347459102184871686964378",
    "startgas": 50000,
    "to": "0xd99ed20cdbc874e69cff4c2ac31c8b89a7f30c16",
    "txhash": "88fa0cd3e4f2d20bddaa1a1a42ddabc3587b55500c3f93917e1e436425facf95",
    "v": 37,
    "value": "102035580000000000"
}