{
    "data": "",
    "gasprice": "5000000000",
    "hex": "f86b2585012a05f200825208945eae8b8ed0f1404eb730f2fb228782b50bc1721c8718de76816d80008025a00df00f9bf5c847ce71342873c07f7bf2bb9b67ef3edb12aab3848ddd75e60bf1a05e8eea49b3fd70730630808bda996ff1e41500d571d19e20413b4529d6b268b8",
    "nonce": 37,
    "r": "6304218058000112629881603781781236955253844151666322188714748813259934403569",
    "s": "42769917045701985846817988477447821466382613403883276163274059646347078953144",
    "startgas": 21000,
    "to": "0x5eae8b8ed0f1404eb730f2fb228782b50bc1721c",
    "txhash": "890d6435fac186e7b3965a8d9947e1bcb186ae61b3a46d979a53b36cdb12503a",
    "v": 37,
    "value": "7000000000000000"
}