{
    "data": "",
    "gasprice": "1000000000",
    "hex": "f86916843b9aca008252089486abff9a74ee7d6b1e7039662d1876239310a68f86b5e620f480008026a0059c1b6f9d8f94635143d1bc994cb2a92ca829a0faa41f2376ace5fe8b7931cfa07450aa5dc4104d3d58bd8f6ffa31177d01633f4180e4c0f9155c5603a4ddb66c",
    "nonce": 22,
    "r": "2537381741320298326368836736796798901331378710980081132949897813927688483279",
    "s": "52610814025643081543100648403872041995698197907010274569663871781291291424364",
    "startgas": 21000,
    "to": "0x86abff9a74ee7d6b1e7039662d1876239310a68f",
    "txhash": "895965cc419e19f8b9efe894298add55fe103f72fe407a9470d19397314f30dd",
    "v": 38,
    "value": "200000000000000"
}