{
    "data": "867904b4000000000000000000000000baeff0b716f1e1312516e7e414b7fef9c76efa090000000000000000000000000000000000000000000000062e115c008a880000",
    "gasprice": "22000000000",
    "hex": "f8ac82930985051f4d5c00830493e0946ddca767d731f57d90a516dd751f2aa9282b37d280b844867904b4000000000000000000000000baeff0b716f1e1312516e7e414b7fef9c76efa090000000000000000000000000000000000000000000000062e115c008a88000025a0b5ad33d5e4111bcbe3780d5d91bb67a3fef75eaac2dd0017bcfb43dd31aa58baa00dc3b2ac33596a0249f0930b06bef4d1ec06dfec6831d8d1f863deba979f1958",
    "nonce": 37641,
    "r": "82174647891328443768385042389324177277150384727366348315494315205248762403002",
    "s": "6225835362582513164682870684350711640659351906768819537437115021145266919768",
    "startgas": 300000,
    "to": "0x6ddca767d731f57d90a516dd751f2aa9282b37d2",
    "txhash": "89be669d84df65d984abc19e7103435c384f613bf39f3ec242cf9f7ef888f73f",
    "v": 37,
    "value": "0"
}