{
    "data": "095ea7b30000000000000000000000009da7c19b81e104746aba520904192fe24c98c7f000000000000000000000000000000000000000000000000000000000006acfc0",
    "gasprice": "1000000000",
    "hex": "f8a909843b9aca008301097d944d04719396a519d78eefd7bf185e1e9363b3149c80b844095ea7b30000000000000000000000009da7c19b81e104746aba520904192fe24c98c7f000000000000000000000000000000000000000000000000000000000006acfc026a01bc941cfc4dd053eea53da1049f3cdab5d2dbb576355c2f5cd126e8f22fc3ae2a0608f898ef42bfef1c087d9a8f91bb218d23c414a1ad8439f1936b118fb314fd3",
    "nonce": 9,
    "r": "12568037386722280946600044706443856331918986653120903273853306356130599680738",
    "s": "43675641987533117306484015025058148442857361256065405731235971037933245386707",
    "startgas": 67965,
    "to": "0x4d04719396a519d78eefd7bf185e1e9363b3149c",
    "txhash": "8a51191a9c89b8188bd3f975597446f5df38120b150d656983a1f1b8ecf3a880",
    "v": 38,
    "value": "0"
}