{
    "data": "ac307773",
    "gasprice": "1000000000",
    "hex": "f86867843b9aca0083020994944fd005706aa46f7b7161affc75a80a5177f2c14f8084ac30777325a02aa27baa70b8c2087f58450018279056461ef96d4ab8e03deb3f21771d21c4c2a01039f0ae27e542b5882da4b0c525a9cf7ca872c116c73b64d7d4fe80554e2118",
    "nonce": 103,
    "r": "19284222374853856903861794487401754926573439946227978220363823249728401949890",
    "s": "7339376974380071648665529718199891753970442190641388933009139540269068067096",
    "startgas": 133524,
    "to": "0x4fd005706aa46f7b7161affc75a80a5177f2c14f",
    "txhash": "8b1017f8bcd8466fa78f8dfa03be1559e95c9913aa78e531f6065f18c6cffd00",
    "v": 37,
    "value": "0"
}