{
    "data": "095ea7b30000000000000000000000008d12a197cb00d4747a1fe03395095ce2a5cc6819000000000000000000000000000000000000000000000c0e185daec85536dec0",
    "gasprice": "1000000000",
    "hex": "f8a913843b9aca008303d09094818fc6c2ec5986bc6e2cbf00939d90556ab12ce580b844095ea7b30000000000000000000000008d12a197cb00d4747a1fe03395095ce2a5cc6819000000000000000000000000000000000000000000000c0e185daec85536dec026a0f16b71ce24729acda85182249eb4e0abc4133f8aa1ed17767c55f5c1a1ebb35da00f3b0948e72c584776779ca575b92405a97e0bd91cf1246eed9c90cbe6f70978",
    "nonce": 19,
    "r": "109197234599423075627319852964148340307921268431782586294766946808206434480989",
    "s": "6889000786749583435659598606595064548314655114875625539561290953474822310264",
    "startgas": 250000,
    "to": "0x818fc6c2ec5986bc6e2cbf00939d90556ab12ce5",
    "txhash": "8b15fd098ec0e8bef8a97be3fe2ff0cae5dc2a0cd8666d9404a8bf49679434eb",
    "v": 38,
    "value": "0"
}