{
    "data": "",
    "gasprice": "100000000000",
    "hex": "f86f8302ccfb85174876e8008252089429eb7facb8dd7a1af0152595bd4741d3eb8ee5838831ab9c7ac62138008025a01af56e5d67418afe2988abee2c8e9bbfeeabdda4ff14b7927196a0f43fb89154a02e0ea11fffd438727617372cea4110a0fce62e45913210ecb83194a2090bf5e7",
    "nonce": 183547,
    "r": "12193773304282946109250670750442472645234860542378543500247732517205182026068",
    "s": "20832238937599268032262446216951924832356959020684119280848464478685648123367",
    "startgas": 21000,
    "to": "0x29eb7facb8dd7a1af0152595bd4741d3eb8ee583",
    "txhash": "8b6e1168aaf710b3227175b669d2d0027fca1381e816fff780d29f3d2ea7c1ac",
    "v": 37,
    "value": "3579126380000000000"
}