{
    "data": "ac307773",
    "gasprice": "1000000000",
    "hex": "f86865843b9aca008301b1b094aebfe878c20984bba9651a5cae78f0e8b049d3358084ac30777325a0c70bc7691f294db1d19cacc56722321679803c6ecdfcd5b9a24fa9f658eb35b4a0463db5721fcd2f805b8c6591afa425f5f8fd0896a9f72ff816c64e11e62d8390",
    "nonce": 101,
    "r": "90031068467381657200781703923593530366664627062470872798660372670700145292724",
    "s": "31770929364651907259545582388033316126986629915547448265640146849303062479760",
    "startgas": 111024,
    "to": "0xaebfe878c20984bba9651a5cae78f0e8b049d335",
    "txhash": "8bc6f894e2ea58413c05aaa4b5b4ff06dcf229cc25f2913040b1b377ecef2f85",
    "v": 37,
    "value": "0"
}