{
    "data": "",
    "gasprice": "22000000000",
    "hex": "f86c0385051f4d5c0082a410943f5ce5fbfe3e9af3971dd833d26ba9b5c936f0be88085222d5526dc0008026a0197bf847206c3c36bdc430c0dac689c46a971d52b64d2aee97334f8820ce87e6a040b30d2e1f9317d6dedc0089b6b1bfd6a54923a734cad80ae336d5f07e2b2b11",
    "nonce": 3,
    "r": "11526856954214137125727268452670304650781390573007594100202181173213532162022",
    "s": "29264378900109626259692936326635805658226131368867916633046340750615545326353",
    "startgas": 42000,
    "to": "0x3f5ce5fbfe3e9af3971dd833d26ba9b5c936f0be",
    "txhash": "8c953cf93b38a563b1c1851320fcb2b236164c3836742a0c8f249e0ed4894d2c",
    "v": 38,
    "value": "599580000000000000"
}