{
    "data": "",
    "gasprice": "21000000000",
    "hex": "f86d808504e3b2920083015f9094a400e858c8bdd7606ecad9b94a6ca2898f06b527881c0f96163ed168008026a06d37d48d1864bf40822191838a4668ea6a12cfb4556d0e9d7162ec35b731d426a05e9dda61bd00073795391b5e231d63ef76c1765343d4675d430d1c9d87cb5bae",
    "nonce": 0,
    "r": "49400744058285787082652735143498280930009376791162804377131418407046755767334",
    "s": "42796309971719708626177922294348102253108357509146406213052158004151955708846",
    "startgas": 90000,
    "to": "0xa400e858c8bdd7606ecad9b94a6ca2898f06b527",
    "txhash": "8cacbda1e4fe45d5b7b7f9427f1f2cb5a2457f71d161ab2c95e72df460e86f3f",
    "v": 38,
    "value": "2021999780000000000"
}