{
    "data": "",
    "gasprice": "22000000000",
    "hex": "f86c0285051f4d5c0082a410943f5ce5fbfe3e9af3971dd833d26ba9b5c936f0be880db3aad6225528008026a0aefa881a1b7dbac91e2c1361a75eed50bc7fe865a995a5e853b4befdc20a8501a003861e3033ca10e045618a79fa0fd8078d04c94c80415a2491762bb639e16e58",
    "nonce": 2,
    "r": "79145086761039878567326786224811316853148139433203535631013878724035751871745",
    "s": "1593904404351998379450319471077833631894964516451501300057634110669236301400",
    "startgas": 42000,
    "to": "0x3f5ce5fbfe3e9af3971dd833d26ba9b5c936f0be",
    "txhash": "8cc1f45c27769a3e8f8a70c5ea8a8bd5caff2ff14b9751f9fb8ca242cb98dfc1",
    "v": 38,
    "value": "987320580000000000"
}