{
    "data": "c01a8c840000000000000000000000000000000000000000000000000000000000000003",
    "gasprice": "21000000000",
    "hex": "f889058504e3b292008301358a943dbb3e8a5b1e9df522a441ffb8464f57798714b180a4c01a8c84000000000000000000000000000000000000000000000000000000000000000325a0adedf18e4823eac2aecd28713833a659d91e1eba230d4757e04f6d7b500cd6d3a03be96f6a5f37cb7c221c318cc513271202ec371bfc4c45ae90f733a5571e6170",
    "nonce": 5,
    "r": "78670532716036825946518832919452182395874441638472351237931684500626553493203",
    "s": "27098902394132541317163334324094071490444552131257866511257662443818416234864",
    "startgas": 79242,
    "to": "0x3dbb3e8a5b1e9df522a441ffb8464f57798714b1",
    "txhash": "8ce67a1695a675bfee1b38172bc6af52f660f4b9c239f4158e01fd816ca05486",
    "v": 37,
    "value": "0"
}