{
    "data": "a9059cbb0000000000000000000000006ee22e4fe8ed278003392285024ba31bd112d4c3000000000000000000000000000000000000000000000000000000000566e365",
    "gasprice": "3000000000",
    "hex": "f8ac8301f5ac84b2d05e008303d09094b64ef51c888972c908cfacf59b47c1afbc0ab8ac80b844a9059cbb0000000000000000000000006ee22e4fe8ed278003392285024ba31bd112d4c3000000000000000000000000000000000000000000000000000000000566e36525a042b47504c3105ba977fa6f03f0d4f4323873e947414fade647939bdce7f3f76ea04fcbe3ba8d97dd6c1006f4f7fd07597e0af40fd4877fa446a0547eb1743b5a22",
    "nonce": 128428,
    "r": "30171488110860678165262092534941402040294262398774594461018008505378409805678",
    "s": "36092956718110364982329960254394558331596692786138410839108809699057842477602",
    "startgas": 250000,
    "to": "0xb64ef51c888972c908cfacf59b47c1afbc0ab8ac",
    "txhash": "8d4eccce633b53ec1d7fb15785e94d1e87573dfababc522f1111eaf930e755ec",
    "v": 37,
    "value": "0"
}