{
    "data": "0000000000000000000000000000000000000000",
    "gasprice": "29000000000",
    "hex": "f880038506c088e20082525894f90c9ac616ecfefb3860aaa5bc33caf9bc60644188015fe7f135baa80094000000000000000000000000000000000000000025a0c89ce85ef65db64f8519491b5a852d87e8496241ff1df6b4ae330e250f4d3e74a0362fb5c7c9b60e92db6db2978ea7d4dbbf61241bb693cbb28492320bdc809fc4",
    "nonce": 3,
    "r": "90739801624091522446340102597923792796953230353967478051079536158118549208692",
    "s": "24509190237901789392380718176144920976846805970987949382795438500905352208324",
    "startgas": 21080,
    "to": "0xf90c9ac616ecfefb3860aaa5bc33caf9bc606441",
    "txhash": "8e79bf7d4ace8376ec656c24966b6363f3a164c69d424e88d391356ec62793e9",
    "v": 37,
    "value": "99052740000000000"
}