{
    "data": "a9059cbb0000000000000000000000005e575279bf9f4acf0a130c186861454247394c060000000000000000000000000000000000000000000000000000001098efad4b",
    "gasprice": "18000000000",
    "hex": "f8aa80850430e23400830249f094a645264c5603e96c3b0b078cdab68733794b0a7180b844a9059cbb0000000000000000000000005e575279bf9f4acf0a130c186861454247394c060000000000000000000000000000000000000000000000000000001098efad4b25a0e6129cab7f423523b9bf6e5104446df5eda50ff1e0f11acd7e1284d4141de772a01bbf1d79e74e7ef87709d841f7b5fc5d5fdf7126c56cec3ec67f22be911bd3bf",
    "nonce": 0,
    "r": "104064839717300156913579292224854306230814138148464389152050270622891678492530",
    "s": "12550118138277898292745508014275128657780949007643006090062926163060557861823",
    "startgas": 150000,
    "to": "0xa645264c5603e96c3b0b078cdab68733794b0a71",
    "txhash": "8e938c30faaead29949199e20242cb4e77a84f11849f4461c7f79be032c31752",
    "v": 37,
    "value": "0"
}