{
    "data": "a9059cbb0000000000000000000000004a625257269dda797ccae1a6708b3d7792b85cb6000000000000000000000000000000000000000000000028c17069b010288000",
    "gasprice": "43200000000",
    "hex": "f8ad8304d002850a0eebb000830120349424692791bc444c5cd0b81e3cbcaba4b04acd1f3b80b844a9059cbb0000000000000000000000004a625257269dda797ccae1a6708b3d7792b85cb6000000000000000000000000000000000000000000000028c17069b01028800025a023983cbc6413fcff899cbba53a958e0963d4a0cde20260532b5373340e565b0aa07dac5f7972ee1b2f5bee2051ef3c4705f814df5825628767a805cd3481a107de",
    "nonce": 315394,
    "r": "16099929638050870735235866760755196629351687801318626879234566211798606174986",
    "s": "56843662708210224936122297720439180632594249412039917398683898706662776702942",
    "startgas": 73780,
    "to": "0x24692791bc444c5cd0b81e3cbcaba4b04acd1f3b",
    "txhash": "8e98243243bdf6cf445eb343e8cacdec7c82b0bdd94d357e06bf113d9ad8f9c7",
    "v": 37,
    "value": "0"
}