{
    "data": "4f15078700000000000000000000000000000000000000000000000000000000000000c0000000000000000000000000000000000000000000000000000000000000022000000000000000000000000000000000000000000000000000000000000003c00000000000000000000000000000000000000000000000000000000000000420000000000000000000000000000000000000000000000000000000000000048000000000000000000000000000000000000000000000000000000000000004e00000000000000000000000000000000000000000000000000000000000000002000000000000000000000000b695496f2687e3617ebe725860b38f16f3f787b80000000000000000000000004969358e80cdc3d74477d7447bffa3b2e2acbe92000000000000000000000000e94327d07fc17907b4db788e5adf2ed424addff6000000000000000000000000c02aaa39b223fe8d0a0e5c4f27ead9083c756cc20000000000000000000000000000000000000000000000000000000000000000000000000000000000000000912dc5a027b20bd3d75154502d969991b814d1df0000000000000000000000004969358e80cdc3d74477d7447bffa3b2e2acbe92000000000000000000000000c02aaa39b223fe8d0a0e5c4f27ead9083c756cc2000000000000000000000000e94327d07fc17907b4db788e5adf2ed424addff60000000000000000000000000000000000000000000000000000000000000000000000000000000000000000000000000000000000000000000000000000000200000000000000000000000000000000000000000000000005b9e29be0c620000000000000000000000000000000000000000000000000000074ac1a01eef20000000000000000000000000000000000000000000000000000000000000000000000000000000000000000000000000000000000000000000000000000000000000000000000000000000000000000000000000000000000000000005a73804807a2d86d5e8b5aebae889fc56e838b91c10e95406b0d0340992f02a0b2143ee80000000000000000000000000000000000000000000000000b72fd2103b280000000000000000000000000000000000000000000000000008a6a8d95f70f400000000000000000000000000000000000000000000000000000000000000000000000000000000000000000000000000000000000000000000000000000000000000000000000000000000000000000000000000000000000000000005a7301b8aa6c34ac5c66b0711ab8f158bc85feff5d6d5340cc514e996a44f364bfaec8a400000000000000000000000000000000000000000000000000000000000000020000000000000000000000000000000000000000000000000074ac1a01eef20000000000000000000000000000000000000000000000000005b610aa037d31000000000000000000000000000000000000000000000000000000000000000002000000000000000000000000000000000000000000000000000000000000001c000000000000000000000000000000000000000000000000000000000000001b000000000000000000000000000000000000000000000000000000000000000242a85d49829b406c15e617c0637df8dd77b63e0c64281fb6c1993aaf97c7f9c3ea270a47a1f355a8c93243163ae0dca301f4a086a6e7a6a03e13d401466293c200000000000000000000000000000000000000000000000000000000000000022611c3c695bdd982f4cf4903c467728f6913fcd85927b700b9ff9132de4e851143b5eb91ff88a222421eba59e022a56a55da3de2a5fbbb20d80ad5b644022a19",
    "gasprice": "5000000000",
    "hex": "f905ac81e785012a05f20083057e409412459c951127e0c374ff9105dda097662a02709380b905444f15078700000000000000000000000000000000000000000000000000000000000000c0000000000000000000000000000000000000000000000000000000000000022000000000000000000000000000000000000000000000000000000000000003c00000000000000000000000000000000000000000000000000000000000000420000000000000000000000000000000000000000000000000000000000000048000000000000000000000000000000000000000000000000000000000000004e00000000000000000000000000000000000000000000000000000000000000002000000000000000000000000b695496f2687e3617ebe725860b38f16f3f787b80000000000000000000000004969358e80cdc3d74477d7447bffa3b2e2acbe92000000000000000000000000e94327d07fc17907b4db788e5adf2ed424addff6000000000000000000000000c02aaa39b223fe8d0a0e5c4f27ead9083c756cc20000000000000000000000000000000000000000000000000000000000000000000000000000000000000000912dc5a027b20bd3d75154502d969991b814d1df0000000000000000000000004969358e80cdc3d74477d7447bffa3b2e2acbe92000000000000000000000000c02aaa39b223fe8d0a0e5c4f27ead9083c756cc2000000000000000000000000e94327d07fc17907b4db788e5adf2ed424addff60000000000000000000000000000000000000000000000000000000000000000000000000000000000000000000000000000000000000000000000000000000200000000000000000000000000000000000000000000000005b9e29be0c620000000000000000000000000000000000000000000000000000074ac1a01eef20000000000000000000000000000000000000000000000000000000000000000000000000000000000000000000000000000000000000000000000000000000000000000000000000000000000000000000000000000000000000000005a73804807a2d86d5e8b5aebae889fc56e838b91c10e95406b0d0340992f02a0b2143ee80000000000000000000000000000000000000000000000000b72fd2103b280000000000000000000000000000000000000000000000000008a6a8d95f70f400000000000000000000000000000000000000000000000000000000000000000000000000000000000000000000000000000000000000000000000000000000000000000000000000000000000000000000000000000000000000000005a7301b8aa6c34ac5c66b0711ab8f158bc85feff5d6d5340cc514e996a44f364bfaec8a400000000000000000000000000000000000000000000000000000000000000020000000000000000000000000000000000000000000000000074ac1a01eef20000000000000000000000000000000000000000000000000005b610aa037d31000000000000000000000000000000000000000000000000000000000000000002000000000000000000000000000000000000000000000000000000000000001c000000000000000000000000000000000000000000000000000000000000001b000000000000000000000000000000000000000000000000000000000000000242a85d49829b406c15e617c0637df8dd77b63e0c64281fb6c1993aaf97c7f9c3ea270a47a1f355a8c93243163ae0dca301f4a086a6e7a6a03e13d401466293c200000000000000000000000000000000000000000000000000000000000000022611c3c695bdd982f4cf4903c467728f6913fcd85927b700b9ff9132de4e851143b5eb91ff88a222421eba59e022a56a55da3de2a5fbbb20d80ad5b644022a1926a0ac1091c6d322f249d377d4a2d1603a6280135b9d658d02331a8ac581caddb88fa0214ac208b8b4f7491f2e1df1cbabec5c92175ddf8376d4ce288cbbe2eb9dbc31",
    "nonce": 231,
    "r": "77827085622883267350284062138010372511134670999678454394423394966815440222351",
    "s": "15058409859964148708072612195966478952126737984855108138113737367893523151921",
    "startgas": 360000,
    "to": "0x12459c951127e0c374ff9105dda097662a027093",
    "txhash": "8f702936e3f55d49aa73291a6e166611a9e36c99ba2b56c211dcc19e9a1c78e1",
    "v": 38,
    "value": "0"
}