{
    "data": "867904b4000000000000000000000000376d148343c91e3485d914c1c203a89d8af12fab0000000000000000000000000000000000000000000000062e115c008a880000",
    "gasprice": "22000000000",
    "hex": "f8ac82930685051f4d5c00830493e0946ddca767d731f57d90a516dd751f2aa9282b37d280b844867904b4000000000000000000000000376d148343c91e3485d914c1c203a89d8af12fab0000000000000000000000000000000000000000000000062e115c008a88000026a0e3caa90132e58a4f520372e6c66eeeb9029892c064c706f65032c7cf3fd1d587a0354ec0c8cdb0dc4b271cd028c776a52590070628eee36cff3a3baf5fc4fac848",
    "nonce": 37638,
    "r": "103033086162939300042437734426017341777746256747777476950386862586974337881479",
    "s": "24111725594915525770556584538790946578233217629030251122055860631462741723208",
    "startgas": 300000,
    "to": "0x6ddca767d731f57d90a516dd751f2aa9282b37d2",
    "txhash": "900038b5441c0cf07c48108be274c77ec8ab7779222d352cd992951180ccd815",
    "v": 38,
    "value": "0"
}