{
    "data": "",
    "gasprice": "100000000000",
    "hex": "f86f8303282885174876e8008252089464bd91cb27f785de92cae2b7c812a2799adbbdf9881bc16d674ec800008026a0876f9232c84dfaffc25b010be8d10d3a0b353304edb8def6ebd5c51a244cb078a00939c927969be1c8ca0df4555fc9b28ad9eb4d9bada867aa3b4a4bb7319efc84",
    "nonce": 206888,
    "r": "61259363606989865507204923301818422414465906631959391658665961692124553195640",
    "s": "4172914238256360197656834022883567470560472616682271606726034139750114196612",
    "startgas": 21000,
    "to": "0x64bd91cb27f785de92cae2b7c812a2799adbbdf9",
    "txhash": "90864a82e292d8acabfe2b2a7a0ba943d014f1af3523ae2b69cfd7e4464fd48c",
    "v": 38,
    "value": "2000000000000000000"
}