{
    "data": "",
    "gasprice": "36000000000",
    "hex": "f86d02850861c468008252089445446f78e2eb405d019149d6ff3e68ad59f1d9828901f81426050c65feee8026a002d150f56564ceaa010fe05da2e09eed3d1a38e1cf73505c9e3e46ce059303afa0162b08afb8c8c950a3a5187f249c3c237f7d13d6d5797c21d8478df8e1a220da",
    "nonce": 2,
    "r": "1274455489277902967467060935622234337523806140973495115889974853722312999855",
    "s": "10026917044038832541865655800124304762486618811085318731514087034300993249498",
    "startgas": 21000,
    "to": "0x45446f78e2eb405d019149d6ff3e68ad59f1d982",
    "txhash": "91fe75609b591d0cea7ab6c2d2856ac2bcabc958fd34c388454627f50fb8a006",
    "v": 38,
    "value": "36322698697774595822"
}