{
    "data": "a9059cbb0000000000000000000000006ee392ef5aa94630eee4401d157f036956efe39f0000000000000000000000000000000000000000000000000000000005699dd3",
    "gasprice": "3000000000",
    "hex": "f8ac8301f5ae84b2d05e008303d09094b64ef51c888972c908cfacf59b47c1afbc0ab8ac80b844a9059cbb0000000000000000000000006ee392ef5aa94630eee4401d157f036956efe39f0000000000000000000000000000000000000000000000000000000005699dd326a091ef1efc6333cecd52ec066a275262c4a422bd0bc43f72578e3e9504e8cf9800a079ddabeb43f5c88ab3dc1ec476134f5ef564c2ba31019ceb79635b76f297347e",
    "nonce": 128430,
    "r": "66007853349799853384146483454270036346053784102765241256960441997589350422528",
    "s": "55121514421261056851006432435125176097861975107289170350803858229903993812094",
    "startgas": 250000,
    "to": "0xb64ef51c888972c908cfacf59b47c1afbc0ab8ac",
    "txhash": "926162da7e29688d55c7d763cf548546e8daeeb9cbf6dc5c6ecfb356443aa60a",
    "v": 38,
    "value": "0"
}