{
    "data": "",
    "gasprice": "36000000000",
    "hex": "f86d02850861c4680082520894707d25ad1416a1e1e885f666ec35f14c316b8eb88901f3495b2882a51aee8025a088fa64658d1fe8fd3ae039834be8a8bf70e8b9fe672a2584461627b27ed12f3ca01bc726bebb5ccaa8df6f9d56326c71c24fdfa6dd0753a4aa424708eb0d903ab2",
    "nonce": 2,
    "r": "61956952085970277524523715025430870575920116340465608264790488292673983688508",
    "s": "12564316886121706576067560191991854789063800709592436194903343739508217625266",
    "startgas": 21000,
    "to": "0x707d25ad1416a1e1e885f666ec35f14c316b8eb8",
    "txhash": "926b7006f7f0b16c98881f34aed163deee33050cdf490b13a34dbcb00f0aaa86",
    "v": 37,
    "value": "35977387327774595822"
}