{
    "data": "",
    "gasprice": "100000000000",
    "hex": "f86f83036db685174876e8008252089454a7b5e8dfdee69a5102f82d3e43e9ed966244c088078e5b0235422c008025a08079fcfc84f52b557e048d96fda8f9c64079c3cc37e2b4d7e2df13e9b057f70da058f8d9eb53009fb709d3c52e8017151324c98cd541be83b2c16b23040005aee4",
    "nonce": 224694,
    "r": "58111579161484312849065703584463165608704055185649594963864938014304684734221",
    "s": "40243212770678378683921273134075730598207949681720441398487712593294215458532",
    "startgas": 21000,
    "to": "0x54a7b5e8dfdee69a5102f82d3e43e9ed966244c0",
    "txhash": "92adc2d9685f3c65da8348aa603ead2be054a2e5c9e0fe77f2871b76658272ec",
    "v": 37,
    "value": "544472670000000000"
}