{
    "data": "",
    "gasprice": "29000000000",
    "hex": "f86c648506c088e2008262709479c51dddc383ddd515ae5ee469096797e0fa5afb88a688906bd8b000008026a0900ef4ee17ca12a61615b6676da024633b6e067832486cb99a4bfcadce5c49daa07b49444d2069ed3c6e76b96d40bee91d6f6b1d959e102a92e6f6048de1543919",
    "nonce": 100,
    "r": "65159476499978491641735989454999228270912028099546644561618922901474232781274",
    "s": "55763931609551632006589930993470847558127447907676241442207852097078367107353",
    "startgas": 25200,
    "to": "0x79c51dddc383ddd515ae5ee469096797e0fa5afb",
    "txhash": "92dd6d1aa92e322998890885289ce63d65aa16b23b96eb2012757fc542e6d4af",
    "v": 38,
    "value": "12000000000000000000"
}