{
    "data": "",
    "gasprice": "21000000000",
    "hex": "f86b078504e3b29200825208941432cda519b149032bb562465841b0b4d7056f968707dbc0586210008026a0f746a57163392e72f6fd4d7cbf46a61d6aa4124983117c2a1477196fee5aa49da002ec06a66e81f81a001df6bbc49fc90964f6ea9e7d305e401b855b7bb87eca1b",
    "nonce": 7,
    "r": "111846094739671918618253908366973634760302547807743427965354528518006485197981",
    "s": "1321647501921277258274627797206159902632066574377029697651392888462146193947",
    "startgas": 21000,
    "to": "0x1432cda519b149032bb562465841b0b4d7056f96",
    "txhash": "92e8b961b7077eaaeeaf5bf1803c96d68bc83842d765a60025e6caea7dea63c9",
    "v": 38,
    "value": "2211944000000000"
}