{
    "data": "",
    "gasprice": "36000000000",
    "hex": "f86d02850861c4680082520894a5b7e864f994b9a4069f9d13117c3bd9c4d23b6c8901f42693930784daee8025a07e9755f46e3adc53e64d90538bca28466f210d2f224e1b3d16bc0c9d54da75d0a02e6ea362cabef740e718672d1c5162f443dea03cf4077d97e9c077460ede2399",
    "nonce": 2,
    "r": "57258806066548130904122605722989028380649500909061126004563882651749468239312",
    "s": "21001871860036818088706318736886827137584310166140024403330878508258801099673",
    "startgas": 21000,
    "to": "0xa5b7e864f994b9a4069f9d13117c3bd9c4d23b6c",
    "txhash": "93858ba610fd16a9adb6bb39d254db0c617071256e92e3d8ce322c85d7f5df8d",
    "v": 37,
    "value": "36039655327774595822"
}