{
    "data": "",
    "gasprice": "20000000000",
    "hex": "f870832e777d8504a817c80083015f909404269b8bb532da127a6b505ee75e905b8c521c9b8801724bd76ce5e4008026a0b06d2a93e241091caef10e71f831237f93efe98d691a739aceffb10fa3f4a94da02a78367d8af1f775e1b0013aa51b6ba75c602f3ff7853f49ea077b25ea38010f",
    "nonce": 3045245,
    "r": "79799941541001785529093950614948787750058331692830755083741794227654187329869",
    "s": "19209537367199290068995277535383525652630781949666875823988960746401638646031",
    "startgas": 90000,
    "to": "0x04269b8bb532da127a6b505ee75e905b8c521c9b",
    "txhash": "94df291532545f686faa1819f1ba7b5ed3a07e2c010aef6a8ae0eedf7bee9d1d",
    "v": 38,
    "value": "104229130000000000"
}