{
    "data": "",
    "gasprice": "20000000000",
    "hex": "f870832e77768504a817c80083015f90944cf4e4bb558d14b05a2ee4c4617fc44dce6f306488017a5f36c2efdc008026a01b96027f1cff45ec0bc9f784d79ce86bbbcae96b8963734f9a75e97dce59c20da03e68986fa870d8bacb4b7a7626dd8aca49544693129c67c6ca615b205b35e594",
    "nonce": 3045238,
    "r": "12477491201924627887435031075029092067354140137650654941410505151125881733645",
    "s": "28228200782637147667905326928929742295232777610255290513216387752284696995220",
    "startgas": 90000,
    "to": "0x4cf4e4bb558d14b05a2ee4c4617fc44dce6f3064",
    "txhash": "9529301d5670f4377f0623a654e0cd9897cf7e029db0f31d4d34ee54ba42bd15",
    "v": 38,
    "value": "106502230000000000"
}