{
    "data": "",
    "gasprice": "21000000000",
    "hex": "f86c808504e3b29200825208944acdd52255b1ccf435ae419f50bdd65d78a3449f880de0b6b3a76400008025a0a8454a310987f3be185ccb1986dc0e1563b29346881b1cbaceecf35a166b6083a027cf5172477e1ccdc5f0426c7daf9d40c235a6bd826b62627c146d0edebef80b",
    "nonce": 0,
    "r": "76110983060729249040579382718107565037063798687242022387605989571919897911427",
    "s": "18006500559573577181570815119226631574685948817323514075783338962072186583051",
    "startgas": 21000,
    "to": "0x4acdd52255b1ccf435ae419f50bdd65d78a3449f",
    "txhash": "963e8d088f7e150f66259352c171ecbfb82da601e07964266cc2900ba4736f2f",
    "v": 37,
    "value": "1000000000000000000"
}