{
    "data": "",
    "gasprice": "21000000000",
    "hex": "f86d808504e3b2920083015f90947b328abb23ed8a228a07cb638ef646cea1baee66880df880eed61b70008025a05a2b4ca1604a8b255d9f26dd353f0c5144aa698bdfdb7269c3b99c32395e3806a074a8fc35d45e28d9598794b9395757a6041fc28fb9059cf8dccd4fd38c9ee753",
    "nonce": 0,
    "r": "40784659679693860407300553716248806074828487917801511400740778262861528840198",
    "s": "52766861433863175032413217823883903099746601646631902719310378782228083566419",
    "startgas": 90000,
    "to": "0x7b328abb23ed8a228a07cb638ef646cea1baee66",
    "txhash": "96ca5e55c5c100fe3ac9f2ecd30c86bcb2327021cc1aaed39e5f0a737b5ef7de",
    "v": 37,
    "value": "1006696280000000000"
}