{
    "data": "a9059cbb000000000000000000000000bb1d423c4d0f7cff78d3016d61c9006bf3365ac000000000000000000000000000000000000000000000152d02c7e14af6800000",
    "gasprice": "21900000000",
    "hex": "f8ac824ad8850519577b0083015f9094fa1a856cfa3409cfa145fa4e20eb270df3eb21ab80b844a9059cbb000000000000000000000000bb1d423c4d0f7cff78d3016d61c9006bf3365ac000000000000000000000000000000000000000000000152d02c7e14af680000026a045865c7768c34806e1185369a95609554afd5c3e5c2bd2a4203b7b567e1812cba07452441b72acf7d23b843d9115b039cf54a861edfe04e0f4f2e96e3c8e673aff",
    "nonce": 19160,
    "r": "31446982238856054844138575650734740584950169665261552978852753341983720215243",
    "s": "52613641953717626517264222455347675263538742132914502622098217534392164104959",
    "startgas": 90000,
    "to": "0xfa1a856cfa3409cfa145fa4e20eb270df3eb21ab",
    "txhash": "973b7b02c09221ad25656064d14bf4f3519df112e23213656229f0305b15f257",
    "v": 38,
    "value": "0"
}