{
    "data": "a9059cbb000000000000000000000000494cd7f3abc97a0c7ff5e34cf70d4ccb17c12fa000000000000000000000000000000000000000000000021f5c890698959ac000",
    "gasprice": "48000000000",
    "hex": "f8ad830425fe850b2d05e00083019b64944cc19356f2d37338b9802aa8e8fc58b0373296e780b844a9059cbb000000000000000000000000494cd7f3abc97a0c7ff5e34cf70d4ccb17c12fa000000000000000000000000000000000000000000000021f5c890698959ac00026a0b82b45e781ea814346c03b32893a873394fe2992bfcc0b8d970a75845910a024a06694cec4e12afe58bb9fa460f0f5dad70025a8ef16e93506b7fee55a04d05d4d",
    "nonce": 271870,
    "r": "83302021025033850006718353252551444097190081176183693856653771788156717277220",
    "s": "46398830988690310255048955186056338280227674874377890215862708989460921474381",
    "startgas": 105316,
    "to": "0x4cc19356f2d37338b9802aa8e8fc58b0373296e7",
    "txhash": "974725cccdc237a6341d1ab3768c4b05366776523c9c47d4a1419bbc891847c7",
    "v": 38,
    "value": "0"
}