{
    "data": "",
    "gasprice": "100000000000",
    "hex": "f86f8303282a85174876e800825208947b5abaeca5f3b3894eae674cda37af9bee59778d88041e10b6285850008026a034b39cfabe72235cf8a0235af351163251d079d83fc6cf252baa1adab290c9dfa06e05ddbffe5a6c4f3492b671c887e06d806a3a3ab9dd0daea590e35605215b54",
    "nonce": 206890,
    "r": "23837617183398238229349764125774533565558308524510084481368598885982438214111",
    "s": "49764778041562168765924956166976570165836250131527606984876220725576530484052",
    "startgas": 21000,
    "to": "0x7b5abaeca5f3b3894eae674cda37af9bee59778d",
    "txhash": "9781192792dd190e0599b5c47cfd3250c52c7486f3aad3d0e7d0dda623b01e2a",
    "v": 38,
    "value": "296693000000000000"
}