{
    "data": "",
    "gasprice": "22000000000",
    "hex": "f86e82131985051f4d5c0082a410943f5ce5fbfe3e9af3971dd833d26ba9b5c936f0be884559fb18ae7378128026a0e0fd1ad1bf1591992181e6f7bda2412a0d5f66a9909a6759a093610cd5e06691a0416baab2ddcce8dc193fd02ff637db05e1dc04995c2af871466cd4bb034d6e4b",
    "nonce": 4889,
    "r": "101765275490197992795006318404289566136495468362778099203944174459747162941073",
    "s": "29590565912951374898571510553044344175259719853189388174231120534740042346059",
    "startgas": 42000,
    "to": "0x3f5ce5fbfe3e9af3971dd833d26ba9b5c936f0be",
    "txhash": "99136e5f1626d96c5de3ab0384680aa2e329109c3a8a8452d855708e1647fd54",
    "v": 38,
    "value": "4997301344968865810"
}