{
    "data": "",
    "gasprice": "22000000000",
    "hex": "f86c0185051f4d5c0082a410943f5ce5fbfe3e9af3971dd833d26ba9b5c936f0be88089af4827d2ea8008026a0e4526480e088aa54f53fb9b30ce16a44468c5426c11c1ba474783864fbe44104a042fd2994df25e72300e211eab2086301369f72bcac850222e85d0293c35c4833",
    "nonce": 1,
    "r": "103272904585450590717267662937768995190278716005107415961289832731847684276484",
    "s": "30299947299057071401085854833739653298110056100856430220164481963311484389427",
    "startgas": 42000,
    "to": "0x3f5ce5fbfe3e9af3971dd833d26ba9b5c936f0be",
    "txhash": "9959f0be9451f6edf61dc0497101777f2c9d31ddcbc1eafb3150959e91d0957a",
    "v": 38,
    "value": "620076740000000000"
}