{
    "data": "867904b4000000000000000000000000d65653065088e7527061ef4aabd131b86af6e2df0000000000000000000000000000000000000000000000062e115c008a880000",
    "gasprice": "22000000000",
    "hex": "f8ac82930a85051f4d5c00830493e0946ddca767d731f57d90a516dd751f2aa9282b37d280b844867904b4000000000000000000000000d65653065088e7527061ef4aabd131b86af6e2df0000000000000000000000000000000000000000000000062e115c008a88000025a0a81d1787d3c6930e46e76b478d9e431c05bd1c73330548f908ff632ee13e31a4a04c75435bb223a6cad9a73521e2278b59015319c7af226b0182387f663a24476a",
    "nonce": 37642,
    "r": "76039959528928684967743314826405273335649608839075394577397551344058476933540",
    "s": "34582962488027952268322338570244845709314006652062399766765355868370501912426",
    "startgas": 300000,
    "to": "0x6ddca767d731f57d90a516dd751f2aa9282b37d2",
    "txhash": "999f5af7e2615a5c36676c0d0d0d6ff16758ca873a354d0cf8f3cc2257276c6a",
    "v": 37,
    "value": "0"
}