{
    "data": "a9059cbb000000000000000000000000f693d74345677ecbb60ba3d3b17046581674bb3d0000000000000000000000000000000000000000000000004563918244f40000",
    "gasprice": "2000000000",
    "hex": "f8a9808477359400830186a094e2fb6529ef566a080e6d23de0bd351311087d56780b844a9059cbb000000000000000000000000f693d74345677ecbb60ba3d3b17046581674bb3d0000000000000000000000000000000000000000000000004563918244f4000026a095f6288f5ebe455a6853feded606c0707f47e490484b12645336e40a3175de86a0077904779e41d18660a1c9f3b3afa55e58339c81355a80dd71ae62de57e6576c",
    "nonce": 0,
    "r": "67829538751946047767335239731852011870604332166799438624671080414504077876870",
    "s": "3380009266806508001914930636907267878969195449805611839061581229187326695276",
    "startgas": 100000,
    "to": "0xe2fb6529ef566a080e6d23de0bd351311087d567",
    "txhash": "99e247892ae9473f533945524653276c4a2c37ef00f0d22076787acc4e5a3935",
    "v": 38,
    "value": "0"
}