{
    "data": "",
    "gasprice": "22000000000",
    "hex": "f86c0585051f4d5c0082a410943f5ce5fbfe3e9af3971dd833d26ba9b5c936f0be884560f507bf0b10008025a00e755a8380073a6bfdbc1cfa7e5cbff559a09fa35a3ea50895b54116acf761d9a00bfb01e56370fad5f550c3869df100e3f668aade31fcc8c54a8369b5a8d92292",
    "nonce": 5,
    "r": "6539725689151971798091110609545063903725114854058082466515926661657018196441",
    "s": "5418933033721832387233281638290215196159980250116733724475543102440737415826",
    "startgas": 42000,
    "to": "0x3f5ce5fbfe3e9af3971dd833d26ba9b5c936f0be",
    "txhash": "9a2450e155f0a659e355e89687b534c13ef7c9afe17607bbfb05000e69e4fcbc",
    "v": 37,
    "value": "4999265000000000000"
}