{
    "data": "0c37348d0000000000000000000000008435ed28683a516b2c44229f367fdc38be1ea5330000000000000000000000000000000000000000000014f0baae44ebdc20000000000000000000000000000000000000000000000000000000000000000008fc00000000000000000000000000000000000000000000000000000000000000800000000000000000000000000000000000000000000000000000000000000042307862653164343734343866636136346566646335303139363364383337613561303239303638616630346331333162373038323539373364636533653338623966000000000000000000000000000000000000000000000000000000000000",
    "gasprice": "35000000000",
    "hex": "f9016d820789850826299e0083030d409450ca2de80e803bf4b00f188545bca959540c558280b901040c37348d0000000000000000000000008435ed28683a516b2c44229f367fdc38be1ea5330000000000000000000000000000000000000000000014f0baae44ebdc20000000000000000000000000000000000000000000000000000000000000000008fc0000000000000000000000000000000000000000000000000000000000000080000000000000000000000000000000000000000000000000000000000000004230786265316434373434386663613634656664633530313936336438333761356130323930363861663034633133316237303832353937336463653365333862396600000000000000000000000000000000000000000000000000000000000025a0079d543c2054b5825fa83953789f9fa24de37216130f489f423979e3beec88b5a06bf223993d526d15a2281fc9ea688fd23c4d482f4fa30e958dd0cd0dbfa73440",
    "nonce": 1929,
    "r": "3444166296947842098006696680708697656952049376823016799829166099291490257077",
    "s": "48825297480537808234734397295889412198674526657049041304598103416605942166592",
    "startgas": 200000,
    "to": "0x50ca2de80e803bf4b00f188545bca959540c5582",
    "txhash": "9a4cd1ef5ff4b77f0f7b300b56314751690b575289417eb0721b0162b600fda6",
    "v": 37,
    "value": "0"
}