{
    "data": "a9059cbb000000000000000000000000236f9f97e0e62388479bf9e5ba4889e46b0273c300000000000000000000000000000000000000000000007c4dc4772a52b3ffff",
    "gasprice": "50000000000",
    "hex": "f8ac820106850ba43b74008302904094744d70fdbe2ba4cf95131626614a1763df805b9e80b844a9059cbb000000000000000000000000236f9f97e0e62388479bf9e5ba4889e46b0273c300000000000000000000000000000000000000000000007c4dc4772a52b3ffff26a0aa42fd93daef9b7c580891feaad0dd6057860c23b5099febaf776ca0a1306a85a078a8e5c72d02b77183e16b3400be9b597cf11187a5afdf339a3e9a96a8efdb23",
    "nonce": 262,
    "r": "77011546293425205809961334361718217806445430394642877343857143947130804660869",
    "s": "54575958006557707633825565880771985288410683022935645630955265196543251045155",
    "startgas": 168000,
    "to": "0x744d70fdbe2ba4cf95131626614a1763df805b9e",
    "txhash": "9a90281ea6dd996201b717a1e849fa42846af8da278dfa76549520f411973c5e",
    "v": 38,
    "value": "0"
}