{
    "data": "",
    "gasprice": "40000000000",
    "hex": "f86c808509502f900083015f9094b0fd1e07b71dc879189229250c189e24db7f697987a71ea3ce47e4008025a05c6e11065f3e6b392091cbf5352f1041ac24b4404fcf9ccefd9e6e9410be3560a0217460b114ca2a61aa47732518dc3e80e418960aba7d36229fc145f8f469af5d",
    "nonce": 0,
    "r": "41807252748264050779203758947837636567636762661722589297146591339559826371936",
    "s": "15131945604511347296306020439117097585170144090793956858203529963697005506397",
    "startgas": 90000,
    "to": "0xb0fd1e07b71dc879189229250c189e24db7f6979",
    "txhash": "9abb7a8167c6e4b4521adb0366feb29138ad8efc594e7271dc4af1cf78ff770a",
    "v": 37,
    "value": "47040010000000000"
}