{
    "data": "a9059cbb0000000000000000000000006eec55a1e1cd24cee79e368524aef514f70ce6ef0000000000000000000000000000000000000000000000000000000005774a4a",
    "gasprice": "3000000000",
    "hex": "f8ac8301f5b684b2d05e008303d09094b64ef51c888972c908cfacf59b47c1afbc0ab8ac80b844a9059cbb0000000000000000000000006eec55a1e1cd24cee79e368524aef514f70ce6ef0000000000000000000000000000000000000000000000000000000005774a4a26a0c9ed473a2aa655ece3cafef3b97d30d5bc70496ac8c49dae50249094e3260b44a06adbc2db4fa74281cf3b27ed9287e36534b2a53bb9c8ad2e57b7b54188f8830f",
    "nonce": 128438,
    "r": "91334116911748092739838884071263512266737895601848806453385219918146312735556",
    "s": "48333446308420778540938494814671165340670702615655476333749809878848153092879",
    "startgas": 250000,
    "to": "0xb64ef51c888972c908cfacf59b47c1afbc0ab8ac",
    "txhash": "9af37dbe50fb3dcdfc91629a0516e023f80a7effd3a1d4786d861f0aba56657f",
    "v": 38,
    "value": "0"
}