{
    "data": "a9059cbb0000000000000000000000006efddc290c68ff3397d9efc781a949c9059d83d4000000000000000000000000000000000000000000000000000000000567d0e1",
    "gasprice": "3000000000",
    "hex": "f8ac8301f5c484b2d05e008303d09094b64ef51c888972c908cfacf59b47c1afbc0ab8ac80b844a9059cbb0000000000000000000000006efddc290c68ff3397d9efc781a949c9059d83d4000000000000000000000000000000000000000000000000000000000567d0e126a03da76b1ee58c824c50f3737a86b70570c0bd7d7ec0492ac61e8be74426895f80a0322274fe2c81431056b8b2590852e4cfb8b0658f605dce9b628b74aa420c45e1",
    "nonce": 128452,
    "r": "27886886543229063311253869610551137430637593152211771766146126731700695818112",
    "s": "22676522684455381770333012920518913904685144372437035465254167681805719455201",
    "startgas": 250000,
    "to": "0xb64ef51c888972c908cfacf59b47c1afbc0ab8ac",
    "txhash": "9b86476742a6a74e06562f70c6fc8c7addac20aedea45281de35cff9c567d098",
    "v": 38,
    "value": "0"
}