{
    "data": "",
    "gasprice": "1000000000",
    "hex": "f865821526843b9aca0082b8ba94912d92502de8ec2b4057f7f3b39bb67b0418192b808026a0453077cc0736270b27ebf9376906fa4fc10d37af509ac546d4576af41bc1a98ca0069ae5805c2c9b6fbecbd2d5ef82094dcb5696c7fdc221227769f615e193895f",
    "nonce": 5414,
    "r": "31295222019758594515215048948205356391951515240940362423514498327221050124684",
    "s": "2987555499969139111856245131214620323600840643236970542545940749813177092447",
    "startgas": 47290,
    "to": "0x912d92502de8ec2b4057f7f3b39bb67b0418192b",
    "txhash": "9bf4456ebbd77ea1415e5d3424ed980973f9a28077911c084af1febf803db2de",
    "v": 38,
    "value": "0"
}