{
    "data": "",
    "gasprice": "21000000000",
    "hex": "f86b808504e3b29200825208948913d0ab81515ecedb24a6bcf6733fbd239617618737c115146938008025a09798e02112d08d4640f506c836d8c697b33b5526d09ccd266fa18987164115a4a0098b6d824d889e349d02358f177f2b61128f8a78800493adfe347b219cd430bc",
    "nonce": 0,
    "r": "68569347772760874670996946396903058751532373357437304610415843937476205942180",
    "s": "4317163182563707658105947430540605129356952802403175450872321366630069448892",
    "startgas": 21000,
    "to": "0x8913d0ab81515ecedb24a6bcf6733fbd23961761",
    "txhash": "9ca75f94819d4339c55ffc5179634304c3736a3e535d84c3d256354cc9f61b40",
    "v": 37,
    "value": "15693420000000000"
}