{
    "data": "a9059cbb0000000000000000000000001db3007e8441749bbd04e7dc2a3f26e6e8a127200000000000000000000000000000000000000000000000000000000000002c53",
    "gasprice": "100000000000",
    "hex": "f8ad83036cfc85174876e8008301965c9412480e24eb5bec1a9d4369cab6a80cad3c0a377a80b844a9059cbb0000000000000000000000001db3007e8441749bbd04e7dc2a3f26e6e8a127200000000000000000000000000000000000000000000000000000000000002c5326a03b2e0a4cd9ba0958dc38243dd03b7b8e58e025597930d49b81b9d66fc9e8dd6da077f1e5d90f24b4f85960e3a5f7d6f726823c2d2f403935900816ffe0adca3ce7",
    "nonce": 224508,
    "r": "26767804120741235476492914115636235566846019128099429582657505099168680041837",
    "s": "54252625475836917374456307207924694883108073043174823069282864114830842412263",
    "startgas": 104028,
    "to": "0x12480e24eb5bec1a9d4369cab6a80cad3c0a377a",
    "txhash": "9cbe7bc7f9bbf8cafbc50ba625420f4240056db69dedce34230d33d404ce927b",
    "v": 38,
    "value": "0"
}