{
    "data": "983b94fb94bbf8a108a13d8ce3971cba1d1f6278b34337dc646464ee9e56980049719e15",
    "gasprice": "21000000000",
    "hex": "f88b82029e8504e3b29200830221d4946090a6e47849629b7245dfa1ca21d94cd15878ef80a4983b94fb94bbf8a108a13d8ce3971cba1d1f6278b34337dc646464ee9e56980049719e1525a03f83b62961593fe060afa58ba0c1b74b526dc240900a6a2226eafca57bd104baa0367842c28b8874fdef68e0c76e0bf7dd7bcf8d95f28df0bbcf85adfdf571c966",
    "nonce": 670,
    "r": "28728423659676687464269136517277385054228532045212056148288763647675753104570",
    "s": "24637376231452876391812142530896923957658901194324330940822547901862747687270",
    "startgas": 139732,
    "to": "0x6090a6e47849629b7245dfa1ca21d94cd15878ef",
    "txhash": "9d27eef7e97063c3b4c3434fc50c25dae1289e035a71e880b735e77ccf0a4e99",
    "v": 37,
    "value": "0"
}