{
    "data": "379607f500000000000000000000000000000000000000000000000000000000000000d9",
    "gasprice": "30000000000",
    "hex": "f889258506fc23ac0083030d4094d0a6e6c54dbc68db5db3a091b171a77407ff7ccf80a4379607f500000000000000000000000000000000000000000000000000000000000000d925a0d6b75152c71381a9dafe2be3aeec8bb6c632c752dc6906a18f3943286e5923f5a0412bd1b7a8560091a75c0b7ab7d765883840088262e1041a5f4f9478824421a1",
    "nonce": 37,
    "r": "97118843882808338736122106907157602525253985723556090447515449698124329198581",
    "s": "29477756998082349349420217648653350851567305847164557015841918691167655174561",
    "startgas": 200000,
    "to": "0xd0a6e6c54dbc68db5db3a091b171a77407ff7ccf",
    "txhash": "9d70503d0b6cc0f1d1fc60382a9b127b69ef33da43a4ac7d58c8ecbe7a898305",
    "v": 37,
    "value": "0"
}