{
    "data": "867904b4000000000000000000000000be2de75efbff4c177c3c9e0c3c7c3a45c7ed9e7f0000000000000000000000000000000000000000000000062e115c008a880000",
    "gasprice": "22000000000",
    "hex": "f8ac82930285051f4d5c00830493e0946ddca767d731f57d90a516dd751f2aa9282b37d280b844867904b4000000000000000000000000be2de75efbff4c177c3c9e0c3c7c3a45c7ed9e7f0000000000000000000000000000000000000000000000062e115c008a88000026a0567060c8ec071bc7cf7e96a9dbcea48cd93f28cdece5636d33c6a2ed1a873e9ba030b9ac25a856addf591376e6518f615409210df6d9470fd84a9a61bdf197d208",
    "nonce": 37634,
    "r": "39097459833911338877583758276018104538216001818178639586273608521271459921563",
    "s": "22039071554598585154997075973458598891957315974096196462431965587313008300552",
    "startgas": 300000,
    "to": "0x6ddca767d731f57d90a516dd751f2aa9282b37d2",
    "txhash": "9d9b56fa2b162cc5a80b98eac7d055b97b111ffe8c87097d8bc75824dacab8be",
    "v": 38,
    "value": "0"
}