{
    "data": "867904b40000000000000000000000008156561c985eb1fb9280c0c50568d32cd50180870000000000000000000000000000000000000000000000062e115c008a880000",
    "gasprice": "22000000000",
    "hex": "f8ac82930485051f4d5c00830493e0946ddca767d731f57d90a516dd751f2aa9282b37d280b844867904b40000000000000000000000008156561c985eb1fb9280c0c50568d32cd50180870000000000000000000000000000000000000000000000062e115c008a88000025a0f6b5327333fa906174088b12c350fea63e3c9e094c2e0e06c9e383be6ea8ab95a00dcc61c2bba055a86184e6c8b27d40a4276a5a4cabf640f66e252f4a2f229def",
    "nonce": 37636,
    "r": "111589108263393628274736631910370445046401170887531866772231431310268516838293",
    "s": "6241178552181901934990766336847945468918526628983981705842369232985777151471",
    "startgas": 300000,
    "to": "0x6ddca767d731f57d90a516dd751f2aa9282b37d2",
    "txhash": "9e3fbeb2c699f81e8e9cb1ae69af605fe7bbb735ac960ff3e3f3c1b5a0795fca",
    "v": 37,
    "value": "0"
}