{
    "data": "",
    "gasprice": "100000000000",
    "hex": "f86f8319a11085174876e80082520894be9caaca71c7f16476600518695460c175735bc78807da6bdaa4c784008026a0a7f1707248ecc048aaabf7e6b4f9fddf27cc1e29bd34c54eef8daec8a747469ca06a1ac93b9b5c3175c19dbd359423a25436ee6517a07ca00570b5a62c9d220cb2",
    "nonce": 1679632,
    "r": "75962831932721716837350589174946074441269646598497130675602076853592291493532",
    "s": "47992488831524364717927827028662514077266691976399885193347005649147750649010",
    "startgas": 21000,
    "to": "0xbe9caaca71c7f16476600518695460c175735bc7",
    "txhash": "9e899eee0247b3614ecc75961c4de1b3104e85f577815d912d9c0885eda41eae",
    "v": 38,
    "value": "565883290000000000"
}