{
    "data": "",
    "gasprice": "100000000000",
    "hex": "f86f8303282d85174876e800825208941a1e792d332d978bcb2945acae85e29aa95d757588051007f9f7a448008026a043a70176dcc7f57179fc11d669c4d37367c4e3634b87d7fc4d2d7868e0e3f8f0a04a1bcc0e4bddd7190da6fbaa27ee27195d0083876b702a29b7e7a22c1a64169b",
    "nonce": 206893,
    "r": "30600034421167854149326118091987166251516397318854405677825989746082974005488",
    "s": "33520264007594409382521928278546234420211115069657890869918477479428892137115",
    "startgas": 21000,
    "to": "0x1a1e792d332d978bcb2945acae85e29aa95d7575",
    "txhash": "9edd4d662ddfa4bd5f8c24fec16a7f0313639b92ebc7ecef4238d7ff99367a92",
    "v": 38,
    "value": "364800340000000000"
}