{
    "data": "",
    "gasprice": "100000000000",
    "hex": "f86f83036db585174876e800825208940aadc1ba70a9832af219f1ad3dc1110bfe95de368805ed53a32ecc98008025a0c8196f95756a2b87957e2e6dd1eb179134de807b2fda02a2e9f4f02a0eb426cfa075e247a3767cce620b20cebe0afbbb9082a924a394d5dfdaec6a30d1554d50df",
    "nonce": 224693,
    "r": "90507511016514498386330544499353208423626494324179487910000173718182298920655",
    "s": "53320405151822203876580600771134572961160019661871968259249577897865157365983",
    "startgas": 21000,
    "to": "0x0aadc1ba70a9832af219f1ad3dc1110bfe95de36",
    "txhash": "9f8935c26fd49c63598f27126204702760912db5ab05e729adc9420fb9c330c9",
    "v": 37,
    "value": "427089500000000000"
}