{
    "data": "867904b40000000000000000000000006f205b0a9853a0f56e597b4c3e269e47a20f9eab0000000000000000000000000000000000000000000000062e115c008a880000",
    "gasprice": "22000000000",
    "hex": "f8ac82930885051f4d5c00830493e0946ddca767d731f57d90a516dd751f2aa9282b37d280b844867904b40000000000000000000000006f205b0a9853a0f56e597b4c3e269e47a20f9eab0000000000000000000000000000000000000000000000062e115c008a88000026a03ec9cba35f19d71ecbacca6cca95f5ba6e9818fffa0996772432a2f7e42f7e83a07980e494dd83369fb8bde59624b8624474115b977ebd83b5c7bdd8bb9d0a4999",
    "nonce": 37640,
    "r": "28399938331177974356378330114147898506780066290287926629620715200623600959107",
    "s": "54957588714434035684443939242632672794468117984354878492431667221648783329689",
    "startgas": 300000,
    "to": "0x6ddca767d731f57d90a516dd751f2aa9282b37d2",
    "txhash": "9fa2f42876c32e22b1df06cae514d7e5016887e8f9d13ec6ce1692166c3383b5",
    "v": 38,
    "value": "0"
}