{
    "data": "",
    "gasprice": "36000000000",
    "hex": "f86d02850861c4680082520894c22c1a031cf4230249c925cc7acdd47fe4d906d08901fb534e780a6fe6ee8025a02064bc9ef5f99e735c1610cd02118632b2e88cc9c38f1f861b7344f62137adc4a0141235e1978a6f3709568c430c58cc1103027dcc77136bdeb56a7ddab8e9e3f1",
    "nonce": 2,
    "r": "14651997675031331634523223378150289189773474974067050641488577373479863037380",
    "s": "9078432093334823358945864394610828302351475490172605011529522108316535874545",
    "startgas": 21000,
    "to": "0xc22c1a031cf4230249c925cc7acdd47fe4d906d0",
    "txhash": "9fc018d40b5fb68260baf6fa84a236e2e83a6ab0edec9c3b86185f0733326688",
    "v": 37,
    "value": "36556648877774595822"
}