{
    "data": "",
    "gasprice": "22000000000",
    "hex": "f86c0285051f4d5c0082a410943f5ce5fbfe3e9af3971dd833d26ba9b5c936f0be88697662c076c2a0008026a09b9e3484b484cffa90700db0b61d1a4be82a518b8076dc4d7f34351786da485ba0173d0aa1b84f903d926b58b209ea5c046c3f9e15133c69a20fe673d46e8a9c2d",
    "nonce": 2,
    "r": "70388015835175116454864896517703296528435494585333560126536702003794241275995",
    "s": "10511046565791681861175304778109397950244307521147537326786014363851541879853",
    "startgas": 42000,
    "to": "0x3f5ce5fbfe3e9af3971dd833d26ba9b5c936f0be",
    "txhash": "9ff5b560b89534eff67fbdd39c2712134ef8e239f41421101022e338f415d6b1",
    "v": 38,
    "value": "7599370000000000000"
}