{
    "data": "6ea056a9000000000000000000000000000000000000000000000000000000000000000000000000000000000000000000000000000000000000000012b6bb5229615800",
    "gasprice": "90000000000",
    "hex": "f8ad8345b0d98514f46b0400830249f094a98cc4063005cbfa30107f338e216a2800833f9c80b8446ea056a9000000000000000000000000000000000000000000000000000000000000000000000000000000000000000000000000000000000000000012b6bb522961580026a0ed75e5c088e85719c8b2b88c334c32b6c5dee043ce8495d2bae050ced010be80a04fa94dc6ff086b56a7c74bbccbb487f0654ebf12f67faac0a50eadcc4b8cb9b9",
    "nonce": 4567257,
    "r": "107406451911454431039776139957142652254628115012321397102551159802677441904256",
    "s": "36031848991421832473342624563428025727968555084268495724275558493004380289465",
    "startgas": 150000,
    "to": "0xa98cc4063005cbfa30107f338e216a2800833f9c",
    "txhash": "a1084500bc39f833131812db89dc8bd516fb6037cd894fa5039900804f5bf128",
    "v": 38,
    "value": "0"
}