{
    "data": "",
    "gasprice": "40000000000",
    "hex": "f87083044a928509502f900083015f909489b8edd041845e0023392da5a35d91e194bb54898845400a8fd53300008025a0634465adf7d6eab2c32d6ac5e606fcdb258e8b05501e3786b9ca17d814310e71a03a2ede6394c39b0d3b8eec0035e33a716f01a067b59e5ed699d8259a5f36933a",
    "nonce": 281234,
    "r": "44899819376700649528936482796557177253898492918727013636102170481256924515953",
    "s": "26316955055199650430463203280160577969015586519499796387409741134195682874170",
    "startgas": 90000,
    "to": "0x89b8edd041845e0023392da5a35d91e194bb5489",
    "txhash": "a1428696acb02a42fefc7f3d98869f23e3c804140570505329a0ce5100206eca",
    "v": 37,
    "value": "4990000000000000000"
}