{
    "data": "",
    "gasprice": "20000000000",
    "hex": "f86f8201488504a817c80082520894d4c3b740ea14b34998660c1fcf6817f4d4c58cbd89022b0b115b635480008025a0a8df38d331b9a467829a06a4f1034b8e4c443532faa4d56afbc44084fca35588a06e1b01adb224697933006c72fb335e7df0e4b053263c9076229227b7ad6e4382",
    "nonce": 328,
    "r": "76382957649015171057691115903077146198397028168654838238303809580123233146248",
    "s": "49802129799486006252882462764955347659376927445837297069773290250937784222594",
    "startgas": 21000,
    "to": "0xd4c3b740ea14b34998660c1fcf6817f4d4c58cbd",
    "txhash": "a2036a042a29064ab7acc8a54e80278d1e84f70e7ae8c894a3288d54f2f261b0",
    "v": 37,
    "value": "39995080000000000000"
}