{
    "data": "",
    "gasprice": "1000000000",
    "hex": "f86a16843b9aca0082523b94ee86f2ec3ce24cb032d7fc7fd8aaa43ac8b48cf887b1b7046a13a2f08025a05b89f8fc67c8bc62b1b8b9509c0ce299271b89a501e5ff84dac0d8a33c7ce098a01b24be0ae8b440d90b0010ba05c1f458aeeb46b4b94654bd86dbdd10ff458a2e",
    "nonce": 22,
    "r": "41404245706882188170499384105490998123430319734189692708223524124139445870744",
    "s": "12277365031992174779191117798922375600018389670248585169790343584873783331374",
    "startgas": 21051,
    "to": "0xee86f2ec3ce24cb032d7fc7fd8aaa43ac8b48cf8",
    "txhash": "a29784804ad64c473bc0ca735d6c43550a75b3dec4a4449120bb8f2970f8ceab",
    "v": 37,
    "value": "50022300465210096"
}