{
    "data": "",
    "gasprice": "43200000000",
    "hex": "f8708304cf20850a0eebb00083015f9094ba12c2c055cf1457dfba9fb5441c402ce4499ebc88034988028ff260008025a04b4d87b06820383ae6f8af2506e0ce40da5f630234397a90ca548fe9f3b01b6ba0482a7082c34ca1661d4e210f5fd4daa7dc5b082523745671d46cce67b95ea84c",
    "nonce": 315168,
    "r": "34060447359406077594255432496719004788918697195421941292849976887213957323627",
    "s": "32641509195667200197415022271822924279434222853921025469570521566249303844940",
    "startgas": 90000,
    "to": "0xba12c2c055cf1457dfba9fb5441c402ce4499ebc",
    "txhash": "a3834e2e82889a48684336be05c600dac341a58fc9d75d1256a0058b482eff12",
    "v": 37,
    "value": "236870000000000000"
}