{
    "data": "a9059cbb000000000000000000000000b37c11f72399e1da4930cf506b96a41d9507e85200000000000000000000000000000000000000000000000000000000000007d0",
    "gasprice": "2000000000",
    "hex": "f8aa820191847735940082c8199440caa728bb4bafa56f38a58623a12fbe6c90209d80b844a9059cbb000000000000000000000000b37c11f72399e1da4930cf506b96a41d9507e85200000000000000000000000000000000000000000000000000000000000007d026a0f576e0364b677fdc8b83aadc26c2ecc6f7e35b4e940290dffde6cabe2b44ca96a04627697534d3da64f331cf668ed6d00f4f253c644f82581c99ee07b1be1c945a",
    "nonce": 401,
    "r": "111026683311503914697785876700209064615889497360129923215173757953630686988950",
    "s": "31731534279598567719139579295075811776340812112966698120501226556751966147674",
    "startgas": 51225,
    "to": "0x40caa728bb4bafa56f38a58623a12fbe6c90209d",
    "txhash": "a3f9807989a3199969b059678ad87083be63e62bba2ea41a852c42587363a31e",
    "v": 38,
    "value": "0"
}