{
    "data": "d6f551e40000000000000000000000000000000000000000000000000000000000005824",
    "gasprice": "3000000000",
    "hex": "f89182019f84b2d05e008307a120944ba72f0f8dad13709ee28a992869e79d0fe47030870aa87bee538000a4d6f551e4000000000000000000000000000000000000000000000000000000000000582425a016a2374cd3fb6002ba1a254304bb5e07b5e798b8160b04e48672ac42d1b24a90a01f856fcb776fb724239a02f8e0d564ac12b43fcf5003735119ef9be821900ec7",
    "nonce": 415,
    "r": "10237493560655282226269694407977708649054913602938155909053356821255675857552",
    "s": "14257460544988570096102590547152911358948722610319519722624260900551125896903",
    "startgas": 500000,
    "to": "0x4ba72f0f8dad13709ee28a992869e79d0fe47030",
    "txhash": "a47dd8993dfc0f247b8c87ad21ffb9884b250060d0d9bd0d79182397994bb104",
    "v": 37,
    "value": "3000000000000000"
}