{
    "data": "6ea056a900000000000000000000000000000000000000000000000000000000000000000000000000000000000000000000000000000000000000000e57a0c596927400",
    "gasprice": "90000000000",
    "hex": "f8ad8345b0ed8514f46b0400830249f0940705ba621e97bef9e857b18d260726e99099a2a480b8446ea056a900000000000000000000000000000000000000000000000000000000000000000000000000000000000000000000000000000000000000000e57a0c59692740025a094fb75091dedf2c87fdc8d9ff9d97b1c9ff7b7724842f3bed30e3ca977593694a0301a64e188a0d7e9b504c7d36f6c757bd091d5ac7a084377ec0afc9f3b7c32a2",
    "nonce": 4567277,
    "r": "67386587953696837187267924765387972371243032384802480953486396977931217352340",
    "s": "21757651010692342607660833334407035872403497726877104401745153259550078153378",
    "startgas": 150000,
    "to": "0x0705ba621e97bef9e857b18d260726e99099a2a4",
    "txhash": "a4bf90cbea732b05163a2d7cd2d830ab13a413c11fe24fb6ac4f41f4544bca3e",
    "v": 37,
    "value": "0"
}