{
    "data": "867904b4000000000000000000000000a8396c8a91161a34268a1fdc7de0064deeaf88ec0000000000000000000000000000000000000000000000062e115c008a880000",
    "gasprice": "22000000000",
    "hex": "f8ac82930185051f4d5c00830493e0946ddca767d731f57d90a516dd751f2aa9282b37d280b844867904b4000000000000000000000000a8396c8a91161a34268a1fdc7de0064deeaf88ec0000000000000000000000000000000000000000000000062e115c008a88000025a0ded076b7ea6fd9273964968816eed538d2145cac1c3c3d4377732760abe4a63fa027ad42d970c3db88edf60dbf89698d651f7097b7112b1aa7308f3edd258efc3b",
    "nonce": 37633,
    "r": "100781775939387291488203176554542665600989899590654969828878982890139941119551",
    "s": "17946327014396912377476491641568819942416633941693012946282960749941450800187",
    "startgas": 300000,
    "to": "0x6ddca767d731f57d90a516dd751f2aa9282b37d2",
    "txhash": "a51e3fc3d5d33c4a03ed72c7948db6c8d73458b658310d11bc05afc543158d60",
    "v": 37,
    "value": "0"
}