{
    "data": "867904b4000000000000000000000000c82c1a1be005cec016ff06e2c556344388a807f40000000000000000000000000000000000000000000000062e115c008a880000",
    "gasprice": "22000000000",
    "hex": "f8ac8292fd85051f4d5c00830493e0946ddca767d731f57d90a516dd751f2aa9282b37d280b844867904b4000000000000000000000000c82c1a1be005cec016ff06e2c556344388a807f40000000000000000000000000000000000000000000000062e115c008a88000025a069fef487421a27e11354df0e21e67768cec4fe168df4fe2fcf290270b6739d31a030ff1fd4911e5325897b8ef39e6ee99e4e520e42674b96beafee93cc8f2d9560",
    "nonce": 37629,
    "r": "47943315928359468474966687170469105744231418590484364450829411389075646291249",
    "s": "22161782418443475776978551090277037505059890172550154888351154188885827622240",
    "startgas": 300000,
    "to": "0x6ddca767d731f57d90a516dd751f2aa9282b37d2",
    "txhash": "a5a17fbbf0aa08ce9b1a93486f732c6901260909df453a8049bc3695232d13df",
    "v": 37,
    "value": "0"
}