{
    "data": "",
    "gasprice": "20000000000",
    "hex": "f86b0b8504a817c80082520894ac0c6f627c236af9560daec44c9248bfb504d6918758d15e176280008026a0a7553b3bc9e2e63c8ffed38b4b3e0c3544095d8dfa3983d60b07d3a2c2a02411a07e8b5c469917f8ea52d1ca54d90f23a3ecf5d031e6ed6d1b8b83ff0ff1198f30",
    "nonce": 11,
    "r": "75686836528844075140286605246164792111907484810480571696362492486802393277457",
    "s": "57237647527478574057265509044189316010505787229005889256839416550159889829680",
    "startgas": 21000,
    "to": "0xac0c6f627c236af9560daec44c9248bfb504d691",
    "txhash": "a60fe2c1001c5bde93f0c1f8ac509631abb7fc656c1def4eaf55d7be5557e211",
    "v": 38,
    "value": "25000000000000000"
}