{
    "data": "a9059cbb00000000000000000000000067f8fb9063c396ee9d08002d7f4eed6a31c717da0000000000000000000000000000000000000000000000000000004c1d5c6930",
    "gasprice": "43200000000",
    "hex": "f8ad8304cf1d850a0eebb000830198c2943597bfd533a99c9aa083587b074434e61eb0a25880b844a9059cbb00000000000000000000000067f8fb9063c396ee9d08002d7f4eed6a31c717da0000000000000000000000000000000000000000000000000000004c1d5c693026a0f2637669b4df29baa79b7dd7fb0bb9a083ac71a26c8aa866fc5731dcbf7d3ae4a05a71953ef5b6dab25d00d9af1363d1b4b52181716b0ae76513561989ac1d63de",
    "nonce": 315165,
    "r": "109635444472474863807838698422280731565520109622933695962172087777408753416932",
    "s": "40908840148413030888438899867317302086619315333525396002637572206494167688158",
    "startgas": 104642,
    "to": "0x3597bfd533a99c9aa083587b074434e61eb0a258",
    "txhash": "a621c161b248f65900fd6cfbd6d6db764f386390024b59259eabe0d0b766c67f",
    "v": 38,
    "value": "0"
}