{
    "data": "a9059cbb0000000000000000000000006c2b876144cbbcd121b95ac197b4ad4f1a678e96000000000000000000000000000000000000000000000000000000000566e365",
    "gasprice": "3000000000",
    "hex": "f8ac8301f2ba84b2d05e008303d09094b64ef51c888972c908cfacf59b47c1afbc0ab8ac80b844a9059cbb0000000000000000000000006c2b876144cbbcd121b95ac197b4ad4f1a678e96000000000000000000000000000000000000000000000000000000000566e36526a0863114d78d1f470d581d4696b15ff7f249e267c1d59e56f06a8d25b923cd92b4a059600609fcf7d1a6dd6c0348dab137095b5daa3f32f899892c1c066f541615d5",
    "nonce": 127674,
    "r": "60696641062509206084788148991170734389638273521818578144566580093876962169524",
    "s": "40425502521887678512974713107983807602795367014857053777719985368435210458581",
    "startgas": 250000,
    "to": "0xb64ef51c888972c908cfacf59b47c1afbc0ab8ac",
    "txhash": "a632a64a3fc4df1fe5182ffd48fe0270174592103b9806e257c036180237d191",
    "v": 38,
    "value": "0"
}