{
    "data": "a9059cbb000000000000000000000000236f9f97e0e62388479bf9e5ba4889e46b0273c300000000000000000000000000000000000000000000008bbd5b9e7cad753fff",
    "gasprice": "50000000000",
    "hex": "f8ac820355850ba43b74008302904094744d70fdbe2ba4cf95131626614a1763df805b9e80b844a9059cbb000000000000000000000000236f9f97e0e62388479bf9e5ba4889e46b0273c300000000000000000000000000000000000000000000008bbd5b9e7cad753fff26a0deea39f50caf625d28d6c68e45296f005706983ad76e26bdd00ed9dbe4aff0c8a064767df2a8f30e94b74f2d0e2283ca4986b8535825479c9d946887e7bc76ce66",
    "nonce": 853,
    "r": "100827294604707877055148744991162164543370513345358880822457592282093760540872",
    "s": "45440642072363383291964782370955845324522635028398863114149695101813912948326",
    "startgas": 168000,
    "to": "0x744d70fdbe2ba4cf95131626614a1763df805b9e",
    "txhash": "a641dff6a24673c3a13dc865a3b9908fe7dea6dbdb5c7f0c04b75f4c0a1b3417",
    "v": 38,
    "value": "0"
}