{
    "data": "",
    "gasprice": "22000000000",
    "hex": "f86c1285051f4d5c0082a410943f5ce5fbfe3e9af3971dd833d26ba9b5c936f0be88d361ede9104750008026a06d8f1f00e3af972696ae9ab3b07220e63be2a4418e258df33d4268cfdc283d45a063e9bdd8ad6521612e8e7f76288a64c39f32bad53d409def5b7e4c3c81ed1249",
    "nonce": 18,
    "r": "49554973603954219722314701745707234792866753865883784355774417846727512440133",
    "s": "45191957647505388606554668928958565753522984512786503513273498033877368509001",
    "startgas": 42000,
    "to": "0x3f5ce5fbfe3e9af3971dd833d26ba9b5c936f0be",
    "txhash": "a6a17a1c47bcc75f2bb4aac769bc0bbf4fac5943b37e746e5755ee9fe92888d1",
    "v": 38,
    "value": "15231717000000000000"
}