{
    "data": "a9059cbb000000000000000000000000a4a0825fad4a0cdfab1c174944c47a9fac86e1a2000000000000000000000000000000000000000000000563708c3b69c9a90000",
    "gasprice": "43200000000",
    "hex": "f8ad8304cf1c850a0eebb00083012b5c944092678e4e78230f46a1534c0fbc8fa39780892b80b844a9059cbb000000000000000000000000a4a0825fad4a0cdfab1c174944c47a9fac86e1a2000000000000000000000000000000000000000000000563708c3b69c9a9000025a083190f5339f0f0a557f236d9711e64709adb150b05189f4383e64d190a7fd463a003894c477a53b18e3d99f83f7cc23f61690b483640ba5e920c03975e5bc61f5f",
    "nonce": 315164,
    "r": "59297260111000049318660835711443553872457862388112329762308499802443336373347",
    "s": "1599523053385536392837289786781538194619192294240717678006340289236235067231",
    "startgas": 76636,
    "to": "0x4092678e4e78230f46a1534c0fbc8fa39780892b",
    "txhash": "a712dc522540f30715c86287a7a466044df9b16b4a7b9a6403e1c0f31057845b",
    "v": 37,
    "value": "0"
}