{
    "data": "6ea056a90000000000000000000000000000000000000000000000000000000000000000000000000000000000000000000000000000000000000000016642d40235e000",
    "gasprice": "90000000000",
    "hex": "f8ad8345b0ea8514f46b0400830249f09451ee10b2ccfe2109a6fc47ae232e6ecec069a2d080b8446ea056a90000000000000000000000000000000000000000000000000000000000000000000000000000000000000000000000000000000000000000016642d40235e00025a0f0174cb933697c7655ed9e98c8327c3b11beffa9b238d157ce0508d732cdae12a03e59c1ada56680736ac2bf64a8613b5c49789fe8486c9917f6770d3461bb87bc",
    "nonce": 4567274,
    "r": "108596250668200646927742965777514294053891290664775150093696566905779577007634",
    "s": "28201982719462191184428427628524783309569239216690650870598201312370027628476",
    "startgas": 150000,
    "to": "0x51ee10b2ccfe2109a6fc47ae232e6ecec069a2d0",
    "txhash": "a714f5f2206e043537ed596045dd0f116bfa16bd40610bb85b8e1a19341e86ab",
    "v": 37,
    "value": "0"
}