{
    "data": "",
    "gasprice": "20000000000",
    "hex": "f870832e777e8504a817c80083015f90942bada8880e016ec6d28012fdba12cc7074c38984880171d039159484008026a0905d5a5aef0cdc5aaad42a5b722d7948f9ee4e312d4d4a87e17fce8998d9bb11a050b04c084e7a22f5d80cbe39fb4b5e4f4798af74030f517172724f05f603b415",
    "nonce": 3045246,
    "r": "65297990581756089180663110069391547202235361087317661034018833984236243499793",
    "s": "36496517726728838950152269029324898767906430159838282642539237358170802467861",
    "startgas": 90000,
    "to": "0x2bada8880e016ec6d28012fdba12cc7074c38984",
    "txhash": "a868dffec9bf250a8728e68f181c43ca9f25cca04830e766a092f954a4d1b6a7",
    "v": 38,
    "value": "104093210000000000"
}