{
    "data": "",
    "gasprice": "1000000000",
    "hex": "f865821488843b9aca0082b8ba94347ed75c305f4ab85757bfcc5600d9bfcb413898808025a09f6dd6699237834e80f020de2f0c4da57e06a2bcf097d99b2042736e01661b66a06a149adcb57f673e96b39751eefce744f246524dc9adf0e5cc8c3e407165c6a5",
    "nonce": 5256,
    "r": "72111809074711244147682610102624405407418514920301478482467142657566751202150",
    "s": "47981567710361412843325902770949851900749230226171304387536287849411548399269",
    "startgas": 47290,
    "to": "0x347ed75c305f4ab85757bfcc5600d9bfcb413898",
    "txhash": "a8989979be07809fcd9c16837c586e72aad1be6cf3e4ca997d4cc8e28294a4c8",
    "v": 37,
    "value": "0"
}