{
    "data": "a9059cbb000000000000000000000000b11893bd056c5303f4a3d61e55e3e3f3396e68e5000000000000000000000000000000000000000000000007d287477427f7dc00",
    "gasprice": "15000000000",
    "hex": "f8ac82de0485037e11d60083015f9094a74476443119a942de498590fe1f2454d7d4ac0d80b844a9059cbb000000000000000000000000b11893bd056c5303f4a3d61e55e3e3f3396e68e5000000000000000000000000000000000000000000000007d287477427f7dc0026a0195bb084cf1d108a7aacba4f0b1f3eab5e4bb08a29ff2614605293147f0afbc6a07e4895328dc8e4ce811056c6b83e78ac7e207673458d5934ff1497e73e1292b4",
    "nonce": 56836,
    "r": "11469822585358088750124864837099657202145915415839657282076492655723840994246",
    "s": "57119661633290289789559467040681834308891758927225505419201304725426485236404",
    "startgas": 90000,
    "to": "0xa74476443119a942de498590fe1f2454d7d4ac0d",
    "txhash": "a9015fd66afabd5772949c0198516d66c702779c08764c6d6c0ab0257e32bd10",
    "v": 38,
    "value": "0"
}