{
    "data": "",
    "gasprice": "32000000000",
    "hex": "f86f8306131c85077359400082c35094c698d3d853b1a3f9cc2ad4405ea9429fc847e8dc881c7531d5e06a80008025a0a524edc671a6745c3955941fd17f5e5ba57a20cdc4b8ead9861596bcdcb483b0a06f8342dc148cb9b9231b00e28250a6b077019f6130e6a193ace2e2ac5b17071e",
    "nonce": 398108,
    "r": "74696867574493369758295905104383877659241563067955091733673511761471989908400",
    "s": "50438644606839829345505298099662471712420378054555944170521942544165375510302",
    "startgas": 50000,
    "to": "0xc698d3d853b1a3f9cc2ad4405ea9429fc847e8dc",
    "txhash": "a9722a985916db28146352b5e03a1912eee25f4c82bd07bf37069caf271e467c",
    "v": 37,
    "value": "2050600000000000000"
}