{
    "data": "212223343536",
    "gasprice": "1000000000",
    "hex": "f87145843b9aca008302981094e044e2eb641efa48b97ef05c24f70f7675d2d404870aa87bee5380008621222334353626a043dc12a01eea019881e68dbd4a42deabba8018b6662a3fedb8820877dfa00eeea03be20818ebff7229751c053cf4cde86ec2bf89298103f47da728b180efbf4fc8",
    "nonce": 69,
    "r": "30693795757611434878674252798161282410636551587140467084107172465277363293934",
    "s": "27085821388915599017447503150894878964652399877209064695144596652520909000648",
    "startgas": 170000,
    "to": "0xe044e2eb641efa48b97ef05c24f70f7675d2d404",
    "txhash": "a98dfd6afbd17760d270b82ec191b2756f4af38859c7b61429202701a26e2ca9",
    "v": 38,
    "value": "3000000000000000"
}