{
    "data": "",
    "gasprice": "41000000000",
    "hex": "f86c1a85098bca5a00825208942dad7d40578888da30479d713b3567c2be0958128806f05b59d3b200008025a04fc2c0e0d2414a9d2c29880c2c6b85f24f9afe090ecf65b3abb617b54aedf240a06e848d14faf17af60591923d159fa44718f0dd07848ff934ea725b2be80e1c17",
    "nonce": 26,
    "r": "36076814565114129070878851056468594026862150118221006725728558721876976595520",
    "s": "49988610868571292422540345523860575206660784706848575717223820837222924295191",
    "startgas": 21000,
    "to": "0x2dad7d40578888da30479d713b3567c2be095812",
    "txhash": "a9ea4f38723f499c8683c5d01f43834aec534c629a50711ebfe99ffc80fc751d",
    "v": 37,
    "value": "500000000000000000"
}