{
    "data": "a9059cbb0000000000000000000000002293f4cfb3f30c12f3de9b02bbc838964ce0b575000000000000000000000000000000000000000000000001158e460913d00000",
    "gasprice": "1000000000",
    "hex": "f8a824843b9aca0082c91194b7cb1c96db6b22b0d3d9536e0108d062bd488f7480b844a9059cbb0000000000000000000000002293f4cfb3f30c12f3de9b02bbc838964ce0b575000000000000000000000000000000000000000000000001158e460913d0000026a0ab5d1de7d638ba51ae43de173df3f0b7e1fc495b459ac722de395a043f0c6485a009ede3c0d6d1a17e2a6af4faf9bdfa35d123161b6c0f417941b61ddf5cc9950a",
    "nonce": 36,
    "r": "77510020285714846076705481817425893101991700263118968188578287401384545117317",
    "s": "4491130286955423671545043984708155840476003676767623909730500668974724388106",
    "startgas": 51473,
    "to": "0xb7cb1c96db6b22b0d3d9536e0108d062bd488f74",
    "txhash": "aa8821e6279d2ef608f3d30b177b2ecd20883be88a8ba3ee221f0a65514f1a78",
    "v": 38,
    "value": "0"
}