{
    "data": "",
    "gasprice": "21000000000",
    "hex": "f86d808504e3b2920083015f90941bffa8cac11b9f1b3b3041fb8a9f4d108136de00880de0b6b3a76400008025a0e438716c77bf6693560be2a69e7810628a59c28c279b6d19cc4c18fa60163299a01aeb9014caf1a5b594084cd948a11f8b22dc363ba09baf0f4771c1bba2a4d3d7",
    "nonce": 0,
    "r": "103227055734234653841246365714338168347401981458753960906674280803703933252249",
    "s": "12176337535433208450546305232285091763176172229249566016215414137760214471639",
    "startgas": 90000,
    "to": "0x1bffa8cac11b9f1b3b3041fb8a9f4d108136de00",
    "txhash": "aaedfe871d7bb8cd273c399a37398c26a2618c575542bb2108748f44eb25d686",
    "v": 37,
    "value": "1000000000000000000"
}