{
    "data": "",
    "gasprice": "22000000000",
    "hex": "f86c8085051f4d5c0082a410943f5ce5fbfe3e9af3971dd833d26ba9b5c936f0be880cfcda15db9eb4008025a0b399f59078bd45a269299f69a00ae81c52c6147ed16b4fd4d3c4622ecce45110a062dfe603c6827f12e30288a877c1f96d1871d6b880c5ba22ec5aaf24e87d2a54",
    "nonce": 0,
    "r": "81236022320118397067825724702919038466492261944030944018704161716264478462224",
    "s": "44722253560050804445378853206660925716658519632265122671251371448418583784020",
    "startgas": 42000,
    "to": "0x3f5ce5fbfe3e9af3971dd833d26ba9b5c936f0be",
    "txhash": "ab65384e470950827587b7d8669305ae0ef9674153df375932ea676b9765890a",
    "v": 37,
    "value": "935862610000000000"
}