{
    "data": "a9059cbb0000000000000000000000009f8e44d7039b4a9cfe78c10f9aeb759349d52e4c0000000000000000000000000000000000000000000000000000000000000002",
    "gasprice": "100000000000",
    "hex": "f8ad83034e0685174876e8008301b2d894957c30ab0426e0c93cd8241e2c60392d08c6ac8e80b844a9059cbb0000000000000000000000009f8e44d7039b4a9cfe78c10f9aeb759349d52e4c000000000000000000000000000000000000000000000000000000000000000225a0fb29898cf06495e340863fe1eb8ee9df7e2e5d68ac684a1c50e067dc6fd7c8cda0215aac9aac02d486b1243744fc36bd0281f0dd2098417bdbf1dfaed023fa5272",
    "nonce": 216582,
    "r": "113603915063014149422185306686366963156694034573950096500127083790615841327309",
    "s": "15086531509396158559763169546352485667658241818204883682525165491382354858610",
    "startgas": 111320,
    "to": "0x957c30ab0426e0c93cd8241e2c60392d08c6ac8e",
    "txhash": "abbf4aab157e5689a6f065ed421a42e42fbfbc5eb227459d67abed6d1dec9fc4",
    "v": 37,
    "value": "0"
}