{
    "data": "",
    "gasprice": "100000000000",
    "hex": "f86f8302ccf685174876e80082520894d95aa516d43f39b480d08959f9b531d2d474f58288013fbe85edc900008025a0dde27fc352b41c31ecf619c6d0032806caab40067eb688473cd87f52d98a7175a02851f06b49c52e5b3623d6a512d3ab6124f739fd9d04fb26561c6f17e731e0d6",
    "nonce": 183542,
    "r": "100361328761227130114520871603488786122286817662333788813712427323048485089653",
    "s": "18237287867184140669003202525674719513179369888481021248042912176117912821974",
    "startgas": 21000,
    "to": "0xd95aa516d43f39b480d08959f9b531d2d474f582",
    "txhash": "ac83591c8713df56ca4bb1b4d0e4423fd5a452d5348fed66a6252c7419186532",
    "v": 37,
    "value": "90000000000000000"
}