{
    "data": "",
    "gasprice": "21000000000",
    "hex": "f86c048504e3b2920082520894f343a9f9d0bf8c51f6e27eb8a14e3c135e61cea9880139a055c8163c008025a0590d683f2eeb3a123d3bd86eaeaff211b93d00a1a3893050a430ec031141fb10a03be3c3a43fe33735a8443ffe97f089399177ced53fa88a087249207630327a4b",
    "nonce": 4,
    "r": "40279532020790665937026730806694066152639927064112605914070841066460987652880",
    "s": "27088882618814433206636802574577101366708639754696455295598860214686899665483",
    "startgas": 21000,
    "to": "0xf343a9f9d0bf8c51f6e27eb8a14e3c135e61cea9",
    "txhash": "adeaa5932b8f4059929d54c824d8889fa371ecfc9bf63a67c550c4285f36835d",
    "v": 37,
    "value": "88277958000000000"
}