{
    "data": "8abda0c7000000000000000000000000000000000000000000000000000000000000002a000000000000000000000000000000000000000000000000000000000000000a000000000000000000000000f38ecbec6b5bf1469d149a8e04a7d2ad6b97ef05",
    "gasprice": "1000000000",
    "hex": "f8d18189843b9aca008301689794c1e565367b5b0dcfcbaf2ca948429cc604249a6d871c6bf526340000b8648abda0c7000000000000000000000000000000000000000000000000000000000000002a000000000000000000000000000000000000000000000000000000000000000a000000000000000000000000f38ecbec6b5bf1469d149a8e04a7d2ad6b97ef0525a0cfef5e86f188722f198944f943815b8301d79572d396eb45a807c8fd5f0c3395a009a299426697a5afd06c1e34502b75c0a0c204518dde150f5eb4d148578c96bf",
    "nonce": 137,
    "r": "94051688507444020892888436717709109742987114913601296428172434112649674634133",
    "s": "4358102619095272540566431405536419357951391816371555339041708254995474585279",
    "startgas": 92311,
    "to": "0xc1e565367b5b0dcfcbaf2ca948429cc604249a6d",
    "txhash": "af6de7dd42fabbf6b3e92b7a8d1cb11aa9c13370c46b223c223da307e3498075",
    "v": 37,
    "value": "8000000000000000"
}