{
    "data": "",
    "gasprice": "100000000000",
    "hex": "f870831a3f6385174876e800825208949e8aabaf61bfeddd7f5c26f6d3e503a002fe4a9e89010a741a46278000008026a0ee3a3b06c79124ef0722e20063e95c8a5692e3ae3b25509fb66489f153052695a073dcb2f0b21cecd0a3a117fcc9a57e1b3d0dffbf3fbb03d503b7c70d9ed09ff5",
    "nonce": 1720163,
    "r": "107753342478385542302551941362696463886208076360736737841003486757321640846997",
    "s": "52405918941321295047880529817050641981844175184517584909325391270931428581365",
    "startgas": 21000,
    "to": "0x9e8aabaf61bfeddd7f5c26f6d3e503a002fe4a9e",
    "txhash": "af98e0f0c23a672c5cf0997069b58fc0a510f343b19a729ca578750630d7a755",
    "v": 38,
    "value": "19200000000000000000"
}