{
    "data": "",
    "gasprice": "1000000000",
    "hex": "f86582148f843b9aca0082b8ba94347ed75c305f4ab85757bfcc5600d9bfcb413898808025a0e33c90e1a802a3ef6a164f79b7382f21597f24e0730c8418315e2399ca424bcea03690caf8b740d8ea559107e299f463203a689a7a1645362e49cd309f00cd5512",
    "nonce": 5263,
    "r": "102782027387443662356924972913216588262414551687467027758207216585379483372494",
    "s": "24680720658952123480683785999863237447263158374411690248208552114667549185298",
    "startgas": 47290,
    "to": "0x347ed75c305f4ab85757bfcc5600d9bfcb413898",
    "txhash": "af9de1a87cd124c385f15a36099f7501e44b10c8e5c8f77d419b5204d39d7a16",
    "v": 37,
    "value": "0"
}