{
    "data": "31ecf4c2006eb0ff1db7e248a0aa1b52740f754fca16dff787a5e1dc5a46a08f50fd51a9d162bef0731bde85292b1bf1e32b05bbe1dd13f8e93461319a6345fb199cd33fab48617786698fb3eb",
    "gasprice": "7186211926",
    "hex": "f8b58204db8501ac54e4568305ef8994668b8f034550e4b3173653e4e2e18614a702034b80b84d31ecf4c2006eb0ff1db7e248a0aa1b52740f754fca16dff787a5e1dc5a46a08f50fd51a9d162bef0731bde85292b1bf1e32b05bbe1dd13f8e93461319a6345fb199cd33fab48617786698fb3eb25a00a59ca692ccf7a65e6d86e622b739fc2a5d9cb3b6dc97188055538ad3a39977ba059ca1c2a8d8c84873d74a2b61d4cbab2e3171c86cd5f1b307a2d36dfc88ac7b9",
    "nonce": 1243,
    "r": "4681774862873484214115272417996534685631629243222766007097007521192260245371",
    "s": "40612941027118251105424865019168501352119779788617895611422664655859088017337",
    "startgas": 389001,
    "to": "0x668b8f034550e4b3173653e4e2e18614a702034b",
    "txhash": "afc2a00b58f97ff5b4948c30d54105f333288eec0d2e2cfed00c517a209d68fd",
    "v": 37,
    "value": "0"
}