{
    "data": "",
    "gasprice": "100000000000",
    "hex": "f86f83036da785174876e800825208940466a804c880cd5f225486a5d0f556be25b6fcc8884563918244f400008025a01ad438586aefc8fc42089b18560295543e8b689335eaec3ae504002a3500b856a06da97b82d473381e17525b1847f05922065f3144f436c2773e297d769fc360c7",
    "nonce": 224679,
    "r": "12135094522430415341631118045501561741224030238529582655282882443243100878934",
    "s": "49601550091490909520493423820079869004473772513842926136002261441803414888647",
    "startgas": 21000,
    "to": "0x0466a804c880cd5f225486a5d0f556be25b6fcc8",
    "txhash": "afe0bf0e64d32d46650f2a41dd0aedf2827f28904e2479d3afdf878a1aa335a0",
    "v": 37,
    "value": "5000000000000000000"
}