{
    "data": "",
    "gasprice": "22000000000",
    "hex": "f86d0385051f4d5c0082a410943f5ce5fbfe3e9af3971dd833d26ba9b5c936f0be890588391b6489bcdc008025a0e15972920e0b30cc553026974f512341a875946dfafa3dc8a42589e5109f0859a04462647e81b3cc4fdc1a52a7807ad36f57c7c1f1ae1480db69575bb6a1ea489b",
    "nonce": 3,
    "r": "101928431056714936754132145345541310343305072289926927609503038120708647356505",
    "s": "30931118301257605461877536169365981614052859005071962537544222710093144803483",
    "startgas": 42000,
    "to": "0x3f5ce5fbfe3e9af3971dd833d26ba9b5c936f0be",
    "txhash": "aff1065fc1fe51f56712a1a1f6f9bc40d5821ea540bc920dc9eba9c92e6e3b5d",
    "v": 37,
    "value": "102049627350000000000"
}