{
    "data": "",
    "gasprice": "22000000000",
    "hex": "f86c0685051f4d5c0082520894f64e3eef512e76536a4cf241254111427537f4c68802c8bcc5ff8d0c008025a030bff8e91caebb4d0f05223d60a19ba7c3bda2251e5e89fa941e1351545efd7ca0118e43b4ac7d03a546d234a8a351c9d002015075161484e9e0c375ce4bb9e54c",
    "nonce": 6,
    "r": "22050202439151660150870799880248483448854425758405653504482440115192984436092",
    "s": "7940677997074836274716831765394681211260187593687803674698951847787007436108",
    "startgas": 21000,
    "to": "0xf64e3eef512e76536a4cf241254111427537f4c6",
    "txhash": "b015fdf10445c2bee02654de101dd8fad8d1d9df3218a65315af0da5e5640f02",
    "v": 37,
    "value": "200617742000000000"
}