{
    "data": "",
    "gasprice": "100000000000",
    "hex": "f86f83036da485174876e80082520894e965b739a2cdbfbfc2f2115f9b614346963ca6418813b53f26032f54008026a0f0685b8eb247ee055d3675e13752bef12c40bf29f0acc3ddbc031cf436766a86a0654e12d5ed2a10bff7dfc45f2b7d29ce498ea400be1ca4182050f2869241789f",
    "nonce": 224676,
    "r": "108739467660726047964391211388628043658725384687282078956174213829158935882374",
    "s": "45821541776841819375960607992996116806696511339359475819900153474141021894815",
    "startgas": 21000,
    "to": "0xe965b739a2cdbfbfc2f2115f9b614346963ca641",
    "txhash": "b09ae94a373cdcf28f4fd7cb38a3c6e88a2ff7004fd45edbdcff379ee269bbcb",
    "v": 38,
    "value": "1420110690000000000"
}