{
    "data": "",
    "gasprice": "60000000000",
    "hex": "f86c81c0850df84758008252089488d4716247c6f52f2f4c98e5702e30009a9c2a1f87dfd22a8cd980008025a04551f237230ff14d7369e48e94b6ffea7a0b9918754a934119952c20705121fea03821aba3b87e65bc0639756fab3feb1c7cf46db3b033bef7512570f75af601cc",
    "nonce": 192,
    "r": "31354372873597908546902252477293606210452329568384816320917766858363527832062",
    "s": "25389010086326670905304699440998362660057249690285979290357268798781246538188",
    "startgas": 21000,
    "to": "0x88d4716247c6f52f2f4c98e5702e30009a9c2a1f",
    "txhash": "b155d806f317eacc29446684bc3e959afbd2751e10292e5725b5b318e880437f",
    "v": 37,
    "value": "63000000000000000"
}