{
    "data": "",
    "gasprice": "25000000000",
    "hex": "f86e8283918505d21dba0082520894e3e0fb94e8b78e9456d873be5a92351a94fd6e008803755935560160008026a0d1f9a97c9bedbc39a2f09a7681e624918774917335388d8d1cadecd859e53afba034f4b5a6a4ac3099e8c4509fe36f31da7de1c32a2ce8a5b3436e6de8956abf21",
    "nonce": 33681,
    "r": "94974500027619691019840440239748983990257834400116330365738761582495903595259",
    "s": "23952632518917744439621219632873683167242431841706508800070685826887117881121",
    "startgas": 21000,
    "to": "0xe3e0fb94e8b78e9456d873be5a92351a94fd6e00",
    "txhash": "b218629c652a6ed91912892c105d1d4831c179f8c8afecc852e33fdd7cc9e256",
    "v": 38,
    "value": "249203440000000000"
}