{
    "data": "",
    "gasprice": "2000000000",
    "hex": "f86a098477359400825208940753a3829396e1ce75f72a4b476a61695d12e54087038d7ea4c680008026a0d819942036fdd9219e667422dfaa3e8d02a8a3671790973c2ef96d2e8a24b5cfa02b28331f9acaba9e5ba7cdbaf464efdf053afad8f23d37e50f3f5cf66fc1fdc7",
    "nonce": 9,
    "r": "97744768797573908679075192482417794547225661685745023225223372070333310088655",
    "s": "19520479212795113855267483517878219567166051517832502693469535218432601095623",
    "startgas": 21000,
    "to": "0x0753a3829396e1ce75f72a4b476a61695d12e540",
    "txhash": "b26ac8e474d47088c77a07df8badec39f947723f7bd44c8330af95b20259bc62",
    "v": 38,
    "value": "1000000000000000"
}