{
    "data": "a9059cbb00000000000000000000000033a9b7a149e48864387e4e2ecb11d4b13894185c00000000000000000000000000000000000000000000000000000004190ab000",
    "gasprice": "41000000000",
    "hex": "f8a90285098bca5a0082d16f945136c98a80811c3f46bdda8b5c4555cfd9f812f080b844a9059cbb00000000000000000000000033a9b7a149e48864387e4e2ecb11d4b13894185c00000000000000000000000000000000000000000000000000000004190ab00025a00f82c86f28419b3434e02af8e6c1630c006f6a170767a371aa4c5132e5a22fd1a0375e70233e8544f8161e2ef8e8ed46734903860e18b492cb645e65f10caf9279",
    "nonce": 2,
    "r": "7015766193233104473825609992270297815669678661946685384026327677114997944273",
    "s": "25044064241941979319962289378889747801343130139754043287793925886753817727609",
    "startgas": 53615,
    "to": "0x5136c98a80811c3f46bdda8b5c4555cfd9f812f0",
    "txhash": "b2dac1f3505b3602f6411998bbb12a85debafdee31c358a34bc9ea9fdd41df59",
    "v": 37,
    "value": "0"
}