{
    "data": "",
    "gasprice": "1000000000",
    "hex": "f86b06843b9aca0082520894e4bfd87e83599a7d89948a7732edfbc6fa2e4a98882b2ce2f89bcf70008025a0b0b5d495115c21abea0716d0efafe5d23a36157b90501f7de878089ebea76894a0147445a027bab86fa6ff77650d6a605b5a41bb71ac15a4a0f704680d312fd217",
    "nonce": 6,
    "r": "79928327858465554593589954133710080027728051419247476641920640517796365035668",
    "s": "9251691769453007357144225478174591123623934576264906589980128483741143126551",
    "startgas": 21000,
    "to": "0xe4bfd87e83599a7d89948a7732edfbc6fa2e4a98",
    "txhash": "b43c5b1faa5e6c1da62ac86e7452e812b7e98fa879c1e66304de9e32545e1896",
    "v": 37,
    "value": "3111111000000000000"
}