{
    "data": "",
    "gasprice": "36000000000",
    "hex": "f86c1a850861c46800825208941e2842772eb182a5af16efa5deb941ace1b709f98806f05b59d3b200008025a0151aa8b2ea433ec14387f88534f2bf1989349b3b5e252bbca823cfc32eee3a0ba0168929165aef83a6ff0561e04db7a9cf97a2e42173f04d0e6ca5c65d24e5bbc2",
    "nonce": 26,
    "r": "9545672160860339011011895097704417456348179510788677888884277858384628038155",
    "s": "10193224291002180992401275786615127098062371202464932614763035232330332879810",
    "startgas": 21000,
    "to": "0x1e2842772eb182a5af16efa5deb941ace1b709f9",
    "txhash": "b4568ccf4981b9571a5502c026b5ac5ffe0dd78edce405df895c60fd3ff5a5a9",
    "v": 37,
    "value": "500000000000000000"
}