{
    "data": "",
    "gasprice": "1000000000",
    "hex": "f864819c843b9aca0082b8ba94225e5e680358fae78216a9c0a17793c2d2a85fc2808026a0537fe7ff284e6734732975356e6bbf7240382dee3c77fa75e25743a5606cd27da04a962c6849430ad37ab0f2e518c7f4ff0f35f5d293b39faa55ccb2d878333230",
    "nonce": 156,
    "r": "37767957192075218637952691716921164301833045760761128186699326002695450186365",
    "s": "33736484343267559447533761464953829394875805614775451271028222889419523437104",
    "startgas": 47290,
    "to": "0x225e5e680358fae78216a9c0a17793c2d2a85fc2",
    "txhash": "b4571fe9053c20463eb30d49639b44c5e909649f9fb855c99c95de0288fedd38",
    "v": 38,
    "value": "0"
}