{
    "data": "a9059cbb000000000000000000000000849cf89933df414b73271e223c65972faf97dd1800000000000000000000000000000000000000000000014464aea768c1800000",
    "gasprice": "21000000000",
    "hex": "f8a9058504e3b2920082ca3c945fc6de61258e63706543bb57619b99cc0e5a5a1f80b844a9059cbb000000000000000000000000849cf89933df414b73271e223c65972faf97dd1800000000000000000000000000000000000000000000014464aea768c180000025a0a3158a0cb53ed902ba22f230f00a7cd1eca63f493285a9c83526926aa6d8a8d2a0440cf2b925aec5b9f52f950c9ff1860aff5bdbf8e23c3cde26b5e416e525ae4e",
    "nonce": 5,
    "r": "73765050891035363314704621945582130995635354505952022830582698287110838331602",
    "s": "30780151082613963734696532117350201504556522479771259624715452659837727780430",
    "startgas": 51772,
    "to": "0x5fc6de61258e63706543bb57619b99cc0e5a5a1f",
    "txhash": "b47d115ae96c04083588b80fd922efb2077b476a80773fe6c744ff19704c1857",
    "v": 37,
    "value": "0"
}