{
    "data": "f7d8c8830000000000000000000000000000000000000000000000000000000000073bdf00000000000000000000000000000000000000000000000000000000000736e9",
    "gasprice": "1000000000",
    "hex": "f8b181a1843b9aca008301d4a99406012c8cf97bead5deae237070f9587f8e7a266d871c6bf526340000b844f7d8c8830000000000000000000000000000000000000000000000000000000000073bdf00000000000000000000000000000000000000000000000000000000000736e925a07d56020a27cc038470e23b324dfc9424a3b8eccf17d6b31d2a41502b655ae428a020c8dbef8314a88a23e016d6e37d3693846411addb4593c4977def4b13f41256",
    "nonce": 161,
    "r": "56691068997762505611300230719187993492306777378942201328794156212441870689320",
    "s": "14828898507301810440414125230245614876078034607353434215954645495955154276950",
    "startgas": 119977,
    "to": "0x06012c8cf97bead5deae237070f9587f8e7a266d",
    "txhash": "b498c5308dd59b618c0406afc71114a95fdac7a37a0c9e32c0200b0ca62ce2e0",
    "v": 37,
    "value": "8000000000000000"
}