{
    "data": "",
    "gasprice": "36000000000",
    "hex": "f86d03850861c46800825208943817bd75761c8150236de999f75536561d9572818901f6030bb835cee6ee8025a010998ae634e34334da2d955edb2707d305d85b38eab016caa8d8b23427ae45c4a05a0142e8214d6c06f82a44b8096f0ae4d2d970ab9a78dd6ad7e3d92db9b7c184",
    "nonce": 3,
    "r": "7508291825596675105850168070418671288261048827112363804628250534207546082756",
    "s": "40710384993032423474934362349605898302766503200596683437804527055152159900036",
    "startgas": 21000,
    "to": "0x3817bd75761c8150236de999f75536561d957281",
    "txhash": "b5435583abde80b56fe3e89d442b467f22d8565fd7c525029e0940015cc237da",
    "v": 37,
    "value": "36173769517774595822"
}