{
    "data": "",
    "gasprice": "41000000000",
    "hex": "f86c0585098bca5a0082520894a3f8ab9e8ccb8b8e45cf2479490149ae5e5ffa16880deb5f2f95b780008025a09e682cf7152f251eea2ead9e1bbc41e292381241e87a3150173e98e5af833526a0284b624f4b7c6c6f73de6a48576d33b9ed856af5c2cce435366eb52f1658b47a",
    "nonce": 5,
    "r": "71649492509070079358627605585771706929506898827142923153040171227034096448806",
    "s": "18225705982116413305130340029312294643197352070851262582863840477057102951546",
    "startgas": 21000,
    "to": "0xa3f8ab9e8ccb8b8e45cf2479490149ae5e5ffa16",
    "txhash": "b6154aa205136d2fe589f1881b191703cd5d7e5f085413a9f9dee17f643a7513",
    "v": 37,
    "value": "1003000000000000000"
}