{
    "data": "a9059cbb00000000000000000000000079933edd38c12d6d5538580c6de071af9e79fe7300000000000000000000000000000000000000000000000004db732547630000",
    "gasprice": "50000000000",
    "hex": "f8aa45850ba43b7400830133699405f4a42e251f2d52b8ed15e9fedaacfcef1fad2780b844a9059cbb00000000000000000000000079933edd38c12d6d5538580c6de071af9e79fe7300000000000000000000000000000000000000000000000004db73254763000025a057dbc69a3abd134fce5aecec3410c7f2321d276d3cb8920b32524c7597698cc3a0480564544dba14b3549a81a344054b18081f247243403207d80d4a7d5547aab1",
    "nonce": 69,
    "r": "39739528037724987269369820613330007577041522715538693540247081114015084678339",
    "s": "32576051780774866666390650299281701777296730841162020726982459335311553440433",
    "startgas": 78697,
    "to": "0x05f4a42e251f2d52b8ed15e9fedaacfcef1fad27",
    "txhash": "b651d2d0ea05bd49c29277a39c21cbff72068d670c24bdd2dba6cd251e1a933b",
    "v": 37,
    "value": "0"
}