{
    "data": "3d7d3f5a0000000000000000000000000000000000000000000000000000000000006746000000000000000000000000000000000000000000000000002386f26fc1000000000000000000000000000000000000000000000000000000038d7ea4c68000000000000000000000000000000000000000000000000000000000000000a8c0",
    "gasprice": "1000000000",
    "hex": "f8e97c843b9aca00830397339406012c8cf97bead5deae237070f9587f8e7a266d80b8843d7d3f5a0000000000000000000000000000000000000000000000000000000000006746000000000000000000000000000000000000000000000000002386f26fc1000000000000000000000000000000000000000000000000000000038d7ea4c68000000000000000000000000000000000000000000000000000000000000000a8c026a0cc078dcdfd0f897d1aae63b3ebc86417557479f89fa8646be729908138ece94da06c47b58140b4377472c0042d6882ab26bf78a77438cbe0fcec6227c3fe3587ea",
    "nonce": 124,
    "r": "92285167740114157523879322468111735368880819088838113249762067368743589964109",
    "s": "48976486489328047870614495771804498802306683270878757489782474669710200113130",
    "startgas": 235315,
    "to": "0x06012c8cf97bead5deae237070f9587f8e7a266d",
    "txhash": "b67a0d4c7e5ccc6b8c1df11b525d0c779329ed91ad46203f8434dab12d7fa04e",
    "v": 38,
    "value": "0"
}