{
    "data": "1896f70aea65fb447ce0cb3e2109490d2fb29f1da662240a9fe30b152294e564e48467560000000000000000000000005ffc014343cd971b7eb70732021e26c35b744cc4",
    "gasprice": "1000000000",
    "hex": "f8a803843b9aca0082b84794314159265dd8dbb310642f98f50c066173c1259b80b8441896f70aea65fb447ce0cb3e2109490d2fb29f1da662240a9fe30b152294e564e48467560000000000000000000000005ffc014343cd971b7eb70732021e26c35b744cc426a09d10f1375cf2a4a57596c1255b89589365ae0573c760a55a13118520b87aa3bca01c4b5ba669fd57baa531bb0e7a841c3b6d19bc5d44cb76a1ad6ef5b7fec625a4",
    "nonce": 3,
    "r": "71043051594064468778712696410353855886399717893271084706447187177809274119100",
    "s": "12797905835620552151133081956559916026538644322826365638121264320316581488036",
    "startgas": 47175,
    "to": "0x314159265dd8dbb310642f98f50c066173c1259b",
    "txhash": "b68932ffeeadfb555e720b3e6440b39b0e3945c10d1bf4190db4c0be825a84d4",
    "v": 38,
    "value": "0"
}