{
    "data": "",
    "gasprice": "1000000000",
    "hex": "f86e8349a4df843b9aca0082c35094d556aa00bacd20883beea1cbcafec46fbb340c00880164eb34440c06308025a075963e49c071a8cd76d552bdae6f9bee2e4691ebaa409d307dbbd707a011d3c5a01fe6ef3a8b8ddd209ac33b5e702e168034d671c7574607e0d8c2884f1e29454d",
    "nonce": 4826335,
    "r": "53186060240575249565486326399350491498245908426821089800382664650469592388549",
    "s": "14429724226730843990404339136266051667778783528984829703257697999795304088909",
    "startgas": 50000,
    "to": "0xd556aa00bacd20883beea1cbcafec46fbb340c00",
    "txhash": "b68a9f0b11bbb26f30a4afda4f9d2786c0c9dbd1445d9cfbb9e614223baeb924",
    "v": 37,
    "value": "100463701421458992"
}