{
    "data": "a9059cbb0000000000000000000000006efd56923b7db5a9eba6c60f8ed735578e3e2b92000000000000000000000000000000000000000000000000000000000566e365",
    "gasprice": "3000000000",
    "hex": "f8ac8301f5c384b2d05e008303d09094b64ef51c888972c908cfacf59b47c1afbc0ab8ac80b844a9059cbb0000000000000000000000006efd56923b7db5a9eba6c60f8ed735578e3e2b92000000000000000000000000000000000000000000000000000000000566e36526a00d79b1b7653c8b9e5dd6906ed1ef7999d05cd8b0a8b76f0600f981146c08fd3da03d22af70d62840d19f92a75a790edc1e949bda49e8d516671b65983f85ec01de",
    "nonce": 128451,
    "r": "6095082079855717956445476125207198371414780894156580770999313813232677354813",
    "s": "27652367411459819450019324548695673232588234102443554469754183021124702175710",
    "startgas": 250000,
    "to": "0xb64ef51c888972c908cfacf59b47c1afbc0ab8ac",
    "txhash": "b6bb55ab88dbe6a225c715a1ea5625fb92b2a996de607d8dcf61f9f2688b1a49",
    "v": 38,
    "value": "0"
}