{
    "data": "a9059cbb00000000000000000000000012403e13d0efdef696dbbd00203912fd0c3ca543000000000000000000000000000000000000000000000000118ab2955c583000",
    "gasprice": "20000000000",
    "hex": "f8aa818d8504a817c80082ccf19405f4a42e251f2d52b8ed15e9fedaacfcef1fad2780b844a9059cbb00000000000000000000000012403e13d0efdef696dbbd00203912fd0c3ca543000000000000000000000000000000000000000000000000118ab2955c58300026a070cb3f8a7ffb7dab2d0132a62c822cec5c29773d78cde30a2bbc0dc2c87471aca077c4e515d2bf0888648d62c32eebc550ae37ad221182d0d167123d0386b08817",
    "nonce": 141,
    "r": "51018147539446453783646724422785917131764964040940699028985464817316110037420",
    "s": "54173112094371726398959481433217204666223679392192853046797706931576312465431",
    "startgas": 52465,
    "to": "0x05f4a42e251f2d52b8ed15e9fedaacfcef1fad27",
    "txhash": "b6dd077111714f3e3143c2dec015dc61629ae043be9a1af98d4873147235b0a0",
    "v": 38,
    "value": "0"
}