{
    "data": "",
    "gasprice": "9000000000",
    "hex": "f86e5f850218711a00830493e09475b23fdf209a729ccfede5e9fb906ed72c06c0288901a055690d9db800008026a06eafe81d7707d08f6392f2d83463d3e0066bda96f00648027600fc2d0201b859a0756f8691d92f7485da296be8e8c4a44052bcf6fbac9ac467f7b60ddbcbfd9741",
    "nonce": 95,
    "r": "50065213580021806221623892767627612912331737550802538309216716261247984711769",
    "s": "53117652074507593988295369622794919353801617134676983208776272995483643647809",
    "startgas": 300000,
    "to": "0x75b23fdf209a729ccfede5e9fb906ed72c06c028",
    "txhash": "b70c2a632bf4f7d79c54ca0a6a72fe51c04657d3068f510f2922a58055d5e913",
    "v": 38,
    "value": "30000000000000000000"
}