{
    "data": "",
    "gasprice": "30000000000",
    "hex": "f86c0f8506fc23ac0082520894022b3690fbf27c06cff937c1a80e0bcd8f46493f8802bf6ff3718700008025a022a2292864d233aa66250f2f0226371ce7acbddd000f68e120aae180f2ae117ca0585fbf614c484db432af8ce1ffd207555a3262d9597eeae74ae8dd226d5bb294",
    "nonce": 15,
    "r": "15665150136940941744793608764002911043673657188481058937092815474984680821116",
    "s": "39972702003181930513651058503219476234069335733583671893927662264101931561620",
    "startgas": 21000,
    "to": "0x022b3690fbf27c06cff937c1a80e0bcd8f46493f",
    "txhash": "b7513912d52427e79e178c702c1071b896b11c9108d32959ba1fdd6f4c0f8544",
    "v": 37,
    "value": "198000000000000000"
}