{
    "data": "dc6dd152000000000000000000000000000000000000000000000000000000000000004a",
    "gasprice": "12000000000",
    "hex": "f8938201038502cb4178008303d09094d91e45416bfbbec6e2d1ae4ac83b788a21acf58388016345785d8a0000a4dc6dd152000000000000000000000000000000000000000000000000000000000000004a26a0bf3703aec640c4c0c2df87e7a9de9773c0e5f41acd88d6e2b688f6511240cab9a01c4e6cfc1f01b9b55c1deddb4c49fe18afe465552bbb0286557201d7011e9d4f",
    "nonce": 259,
    "r": "86488956085114929766464628917915563230891052323316733609727299593343453940409",
    "s": "12803326017161577194827750084494446458108296727549945742056446462943597337935",
    "startgas": 250000,
    "to": "0xd91e45416bfbbec6e2d1ae4ac83b788a21acf583",
    "txhash": "b7d4bc4ebb5ee72deadd70a0b797c3ad82dafeea65af25e413cf6989d878ade3",
    "v": 38,
    "value": "100000000000000000"
}