{
    "data": "9e281a98000000000000000000000000b3bd49e28f8f832b8d1e246106991e546c32350200000000000000000000000000000000000000000000021753279401f66c0000",
    "gasprice": "40000000000",
    "hex": "f8aa1b8509502f9000830249f0948d12a197cb00d4747a1fe03395095ce2a5cc681980b8449e281a98000000000000000000000000b3bd49e28f8f832b8d1e246106991e546c32350200000000000000000000000000000000000000000000021753279401f66c000025a022e84d52eb01ae5c544188b7847ff567434e798ec059979cf2e0f6bff826b9eca01245c5a2e59171511b19e8df60fa1fd17d9da00c0fe03c68c91ec4143154b26e",
    "nonce": 27,
    "r": "15789079040793052053949722922849969743688331726944132755577210412879216818668",
    "s": "8264907757686527754342104824919984146558086274406650923895726985737053450862",
    "startgas": 150000,
    "to": "0x8d12a197cb00d4747a1fe03395095ce2a5cc6819",
    "txhash": "b8787b0705fa3929ae27050aefb288b078e3d4760dab8c03616d52cabe0575ab",
    "v": 37,
    "value": "0"
}