{
    "data": "",
    "gasprice": "21000000000",
    "hex": "f86c068504e3b2920082520894c257274276a4e539741ca11b590b9447b26a8051880ddb557d4a636e008026a0cc293aafe986c505124c8696e2ae42e748dd41f6ddb42a2157c71935ca616258a05a278f1830e01edde2795feb613a3c0ce4fe7604bf8f27f9194ea3f15ea67d3e",
    "nonce": 6,
    "r": "92344666884514242549805680185401085663454309667304869744867674748815906267736",
    "s": "40778051009933830860924554312794570635257593755075101057677909634335795215678",
    "startgas": 21000,
    "to": "0xc257274276a4e539741ca11b590b9447b26a8051",
    "txhash": "b8edf03806ee0d45c558769fd34bdd031c472eef458d02953497564937ec5224",
    "v": 38,
    "value": "998485739000000000"
}