{
    "data": "",
    "gasprice": "40000000000",
    "hex": "f86c1d8509502f9000825208948f0ad1a72a4fb91acac001986ab0056395551bf98810a741a4627800008026a0a3d706aac82eccc12886c90d07126f19cd911bd309ef1003f7549ea55a1d05daa00a4a6bf7f135f86aeabaa629141b7c29db947f567a8ddbd546a7241ce29fdef7",
    "nonce": 29,
    "r": "74106912452750498758659738766679021927583552074465251264697964757270503687642",
    "s": "4654620339994662119925779307094524632881060149839064533604494712619371847415",
    "startgas": 21000,
    "to": "0x8f0ad1a72a4fb91acac001986ab0056395551bf9",
    "txhash": "b9e3884f6e7f23841ea3c1f4f16d301a31f48414c64824594a652364cb3b73a9",
    "v": 38,
    "value": "1200000000000000000"
}