{
    "data": "a9059cbb00000000000000000000000027522beb64545bccafd78ace711c2f92394e5c5b00000000000000000000000000000000000000000000000000000006b0071938",
    "gasprice": "100000000000",
    "hex": "f8ad8303a94f85174876e8008301977694f230b790e05390fc8295f4d3f60332c93bed42e280b844a9059cbb00000000000000000000000027522beb64545bccafd78ace711c2f92394e5c5b00000000000000000000000000000000000000000000000000000006b007193825a06ce424a48afcb87ffe659391e60d2f2af009cdcb9c0c7c8e29494f9ee86cb66fa021dc11b1719538539e23161d38054e92caa8e12c1fe70744884084b0cf92ff1d",
    "nonce": 239951,
    "r": "49252881676699038961867257869240123987532218269154198366087819941921755543151",
    "s": "15315152471059165410790261681021092213302681672538350209952513457962486005533",
    "startgas": 104310,
    "to": "0xf230b790e05390fc8295f4d3f60332c93bed42e2",
    "txhash": "ba0556fa4d1a544aeddfaac96832f717a3b15270a92c6ebab3b383d9d1973861",
    "v": 37,
    "value": "0"
}