{
    "data": "e0cb3aa000000000000000000000000000000000000000000000000000000000000000da0000000000000000000000000000000000000000000000000000000000000000",
    "gasprice": "1000000000",
    "hex": "f8b10b843b9aca008301303994d0a6e6c54dbc68db5db3a091b171a77407ff7ccf88016345785d8a0000b844e0cb3aa000000000000000000000000000000000000000000000000000000000000000da000000000000000000000000000000000000000000000000000000000000000025a08c8b04b190827871a9e8ba71fa0c4e6d49197ffc1651fa54051e76bf5c94ccb1a05791b7909a1b9960cc56c1710a999a283c71d07cfb9f29033db9df166298331f",
    "nonce": 11,
    "r": "63569422937776079486424994317995897787017562375360984508221372185034930572465",
    "s": "39608677569180270800986649165425920150138763154784218014549742371302255637279",
    "startgas": 77881,
    "to": "0xd0a6e6c54dbc68db5db3a091b171a77407ff7ccf",
    "txhash": "ba4004e5405af65431fb34a67116dc6eb7da20e00b57e413728e4581f56dc8a0",
    "v": 37,
    "value": "100000000000000000"
}