{
    "data": "ede9eb740000000000000000000000000000000000000000000000000000000000000023000000000000000000000000000000000000000000000000000000000000000300000000000000000000000046d9112533ef677059c430e515775e358888e38b",
    "gasprice": "2000000000",
    "hex": "f8d28215b084773594008302139d9472e77c9c17ca1c99bd9eb2f1011c7524316255338711c37937e08000b864ede9eb740000000000000000000000000000000000000000000000000000000000000023000000000000000000000000000000000000000000000000000000000000000300000000000000000000000046d9112533ef677059c430e515775e358888e38b25a0a9403874dddc22f0b6658afa5aa2b85421565aeaa552ca69110a2bf0f278b36da02ecdf30b84abba96ade4bc0854139e56dab360bcfe82c141d848eac5ec97b4b5",
    "nonce": 5552,
    "r": "76554339271231645249505505421848245417115006825598151334228312125526588830573",
    "s": "21170272118003373754775250495930202548360900465892592694466982718697033413813",
    "startgas": 136093,
    "to": "0x72e77c9c17ca1c99bd9eb2f1011c752431625533",
    "txhash": "ba53ac896a13e59c64492acf5b5d541f6a26d71566d71798e28cfda39412b719",
    "v": 37,
    "value": "5000000000000000"
}