{
    "data": "",
    "gasprice": "36000000000",
    "hex": "f86c1b850861c46800825208947e6af4474a7e8b002f157c1c8e793497b22f12918814d1120d7b1600008025a0f5e9faea54b6e86b511beffe00f161ca9b8d6187b33345a4962eacf149b28738a006277f173840087624b33ad884da1b0f1814922d481cd202379691485f561900",
    "nonce": 27,
    "r": "111230055023129322895235760633908362317036621230136854298765930470747717928760",
    "s": "2783661274814601068617997896535680939747448560169097897798181181478971775232",
    "startgas": 21000,
    "to": "0x7e6af4474a7e8b002f157c1c8e793497b22f1291",
    "txhash": "bb318d7a0a44b6f7d415f8519fe589206f4226d7e0d895ab35855208eefd61a7",
    "v": 37,
    "value": "1500000000000000000"
}