{
    "data": "f0843ba9000000000000000000000000000000000000000000000000000000000000006000000000000000000000000000000000000000000000000ad78ebc5ac61fff9200000000000000000000000000000000000000000000000007ad2110098f039c000000000000000000000000000000000000000000000000000000000000000700000000000000000000000098bde3a768401260e7025faf9947ef1b81295519000000000000000000000000d3ad4c39a12b48164068fef8f86ef5836a9ef303000000000000000000000000d3ad4c39a12b48164068fef8f86ef5836a9ef303000000000000000000000000d3ad4c39a12b48164068fef8f86ef5836a9ef3030000000000000000000000001f573d6fb3f13d689ff844b4ce37794d79a7ff1c0000000000000000000000001f573d6fb3f13d689ff844b4ce37794d79a7ff1c000000000000000000000000c0829421c1d260bd3cb3e0f06cfe2d52db2ce315",
    "gasprice": "1000000000",
    "hex": "f901cb81f2843b9aca00830f424094e86d3a9bada1b7adcc32abde0522861b1dc7973a80b90164f0843ba9000000000000000000000000000000000000000000000000000000000000006000000000000000000000000000000000000000000000000ad78ebc5ac61fff9200000000000000000000000000000000000000000000000007ad2110098f039c000000000000000000000000000000000000000000000000000000000000000700000000000000000000000098bde3a768401260e7025faf9947ef1b81295519000000000000000000000000d3ad4c39a12b48164068fef8f86ef5836a9ef303000000000000000000000000d3ad4c39a12b48164068fef8f86ef5836a9ef303000000000000000000000000d3ad4c39a12b48164068fef8f86ef5836a9ef3030000000000000000000000001f573d6fb3f13d689ff844b4ce37794d79a7ff1c0000000000000000000000001f573d6fb3f13d689ff844b4ce37794d79a7ff1c000000000000000000000000c0829421c1d260bd3cb3e0f06cfe2d52db2ce31526a09b9594fa208309aa2cb9455a76210193f82f9addf95a6ce66df8f7ec5c31a68ba07b588fcc205c9e158f18e2a79b2d5b221912bb8170f76aef3693224614a148b3",
    "nonce": 242,
    "r": "70372779944928160392366060275208565919988636029464385253562104367383128942219",
    "s": "55790955370407068710025403584912411704075465830338073392530302527145083226291",
    "startgas": 1000000,
    "to": "0xe86d3a9bada1b7adcc32abde0522861b1dc7973a",
    "txhash": "bb9de7a75074f99189bf66118d9ff13ee859754a71b62a2a001a99087cda97dd",
    "v": 38,
    "value": "0"
}