{
    "data": "a9059cbb0000000000000000000000006f07c306ec49f1c6f0c853da2d395f09a1632d4a00000000000000000000000000000000000000000000000000000000057637ef",
    "gasprice": "3000000000",
    "hex": "f8ac8301f5cc84b2d05e008303d09094b64ef51c888972c908cfacf59b47c1afbc0ab8ac80b844a9059cbb0000000000000000000000006f07c306ec49f1c6f0c853da2d395f09a1632d4a00000000000000000000000000000000000000000000000000000000057637ef26a07711dacc073a406a929550aa974448a1da68ead6ae26a219c8202eba7cd46471a079c9d001f1ae3f24611a3960b77d4efce973af314474b8a3a62757573b81d2ed",
    "nonce": 128460,
    "r": "53856775462803802562427555458915843554083277872166759509410454579484562842737",
    "s": "55086426554247710553656042504149547228072659990198919160284790020083284038381",
    "startgas": 250000,
    "to": "0xb64ef51c888972c908cfacf59b47c1afbc0ab8ac",
    "txhash": "bbe87a74d8142491ba94d61e8931c6bb165feddfb4ed9199ba0667c537c931e8",
    "v": 38,
    "value": "0"
}