{
    "data": "",
    "gasprice": "36000000000",
    "hex": "f86d02850861c4680082520894e7256f8b4b2b6b4c66c42d97f9edb17d1935a7d18901fc75753f2f021eee8026a03eeb84d74568798885f5d00c5a663da52793b831bbe1177ee142845f8d12f57fa047fe58f250730d4d33a4312668df07988cf85d412d5fb55caeb9dc5c00ed85a1",
    "nonce": 2,
    "r": "28459522506601272728500353364337964252066520431728930606380708192165408470399",
    "s": "32563605290323547178593508937671668457926466876019628456565531690613838022049",
    "startgas": 21000,
    "to": "0xe7256f8b4b2b6b4c66c42d97f9edb17d1935a7d1",
    "txhash": "bc1c17a7be3b1686eaa79ac83d723fd30232c2bd887cd273958971c06ba05a89",
    "v": 38,
    "value": "36638319257774595822"
}