{
    "data": "a9059cbb0000000000000000000000006ee1d9935185122c09eb581e969ee7ca8ebc58320000000000000000000000000000000000000000000000000000000005708fa2",
    "gasprice": "3000000000",
    "hex": "f8ac8301f5aa84b2d05e008303d09094b64ef51c888972c908cfacf59b47c1afbc0ab8ac80b844a9059cbb0000000000000000000000006ee1d9935185122c09eb581e969ee7ca8ebc58320000000000000000000000000000000000000000000000000000000005708fa225a0a30e0857b9f93ba6c4d30ed244c8e3428c559768e77848d6005f090ba9532774a0198b003701c91adf159072ea72e4b9b2f2d74a328c9e676adbfc11604bd2bc46",
    "nonce": 128426,
    "r": "73751787757050755525627911206372860921346893385258707628822848624894273595252",
    "s": "11553414439570963900815910536046777967659033631930732556489092523203906157638",
    "startgas": 250000,
    "to": "0xb64ef51c888972c908cfacf59b47c1afbc0ab8ac",
    "txhash": "bc7015f5bc6cd1199e925ae8f8c76856747327b6e75e9dbfc67a04ee98d84d9c",
    "v": 37,
    "value": "0"
}