{
    "data": "",
    "gasprice": "25652000000",
    "hex": "f86d821b628505f8fa750082520894a17ae45ebe1622bf887e11646009501fec98ef28870805124e9ac0008025a09365dba453dea386b24805b425bccbb2724eb84d8bd5545a071faa58b4a289aaa079564eeb3d2cd5593f5c1042cb4aee99ed6881f99322fb00d5a81d066408ed3c",
    "nonce": 7010,
    "r": "66669956207996484942166804985281571493424877784902787932871635818945397819818",
    "s": "54882348204391183669823735333645526333358232976065792803774791785312665791804",
    "startgas": 21000,
    "to": "0xa17ae45ebe1622bf887e11646009501fec98ef28",
    "txhash": "bcd1cee9b3b8b10621f562b8c37fea34aa646a7731146c6efa310524c7d4e339",
    "v": 37,
    "value": "2257376000000000"
}