{
    "data": "",
    "gasprice": "1000000000",
    "hex": "f86d8359181e843b9aca0082c35094f2496945f599e44472607ce5424bc276f4295e8387b1cfc67cefa1c28026a05f7d44f79cbd5502bf5ad7fb2038b20d7c8ac77600c40c9d0a84b775e14f3060a0432a680e1833a8a1c90a0d27b6b29b0490508ce7e344d709855054d494c3fee8",
    "nonce": 5838878,
    "r": "43191052492872617678817603315500330353858453695151021242222149398811617734752",
    "s": "30379886593407605885883568724187803537798546321392950597454028548014516469480",
    "startgas": 50000,
    "to": "0xf2496945f599e44472607ce5424bc276f4295e83",
    "txhash": "be4771e7b827394471b10a97fd148ac93305ac3b8ad97d9f49e829ab916988ba",
    "v": 38,
    "value": "50049522284339650"
}