{
    "data": "",
    "gasprice": "22000000000",
    "hex": "f86b8085051f4d5c0082520894b6aac3b56ff818496b747ea57fcbe42a9aae6218872b551b5c5350008026a006b96cfda14a1abb7b47db1d757e676cb5acd0c2604c7a22cc14b1ac859fb68aa0574d59c07efd6340faaf6aff500f06ece56d9f66d25e529e6dd748a5840c3797",
    "nonce": 0,
    "r": "3041496024941323351391924278436417296744219705949031274937417857977213236874",
    "s": "39487884495840322243193486490221124701652403606285210225270577853852661069719",
    "startgas": 21000,
    "to": "0xb6aac3b56ff818496b747ea57fcbe42a9aae6218",
    "txhash": "beb94ae243d9bda404336173c35c99cd8e0ff4446f5d4b32b5fa95fadfc87454",
    "v": 38,
    "value": "12197000000000000"
}