{
    "data": "a9059cbb0000000000000000000000006efc87e8edd0387b49fd52a365b11e619689790100000000000000000000000000000000000000000000000000000000056d28b5",
    "gasprice": "3000000000",
    "hex": "f8ac8301f5c284b2d05e008303d09094b64ef51c888972c908cfacf59b47c1afbc0ab8ac80b844a9059cbb0000000000000000000000006efc87e8edd0387b49fd52a365b11e619689790100000000000000000000000000000000000000000000000000000000056d28b526a0d19c87dd3b275b87866ade2924d5e66e5e72129936e99313abf354c86a37da5ea01f006ce1c969a8884606974e86d671234fbe8463432094d1627968baf4c75642",
    "nonce": 128450,
    "r": "94809951196142749251787866165489517154633607248798117784926915672516414921310",
    "s": "14022449781885947470360019729622115859875378878169614760392190306448589674050",
    "startgas": 250000,
    "to": "0xb64ef51c888972c908cfacf59b47c1afbc0ab8ac",
    "txhash": "bec7ab4322560409a1c41cd3a214f66dc977644cf971e3db897cea1b8ab831bb",
    "v": 38,
    "value": "0"
}