{
    "data": "a9059cbb0000000000000000000000006c472481ea8b723156a4e11705c16d9a097015700000000000000000000000000000000000000000000000000000000077359400",
    "gasprice": "20000000000",
    "hex": "f8a9048504a817c80082ea60944dbadd62f3f0d87265740bc0566d8dae9e21c00080b844a9059cbb0000000000000000000000006c472481ea8b723156a4e11705c16d9a09701570000000000000000000000000000000000000000000000000000000007735940026a0d4464e738a38fd65bd131a17f737f03987b2af00d51303b6dcc22977b39579f1a03d70c2dd71656038ae185b66939108250336ebc837db56ce4181ba02efdc091d",
    "nonce": 4,
    "r": "96014544645352418132526506647347027326766397475055089976018719271625845733873",
    "s": "27790315543715912115810329176021662938771780527300659810294438932357106632989",
    "startgas": 60000,
    "to": "0x4dbadd62f3f0d87265740bc0566d8dae9e21c000",
    "txhash": "bf01482eaf2ade38b143f8daf218187b1f6cec925722c367c8e449d49511ce36",
    "v": 38,
    "value": "0"
}