{
    "data": "",
    "gasprice": "22000000000",
    "hex": "f86c8085051f4d5c0082a410943f5ce5fbfe3e9af3971dd833d26ba9b5c936f0be880caac24a9048b8008025a0659e06aa17a5387522faf25e40d9e517e64b2dcaf019bb336b6798adee5d0e15a02ffe14077079d89cf956221f893191b3aeb56a6309a3a1a231ba20ced30a97c7",
    "nonce": 0,
    "r": "45962805539304054603946800971000005073843684888389146358339331435177000635925",
    "s": "21707621273358893618287134572419465789933621493505755620567746453535722215367",
    "startgas": 42000,
    "to": "0x3f5ce5fbfe3e9af3971dd833d26ba9b5c936f0be",
    "txhash": "c074b0193a4a942800f96dc0f69b8752624522be85b752b754ce933c1c273f64",
    "v": 37,
    "value": "912755500000000000"
}