{
    "data": "",
    "gasprice": "1000000000",
    "hex": "f86a01843b9aca0082520894c22a31cc845c12b3a1deb64fd427e698d1a1f376872386f26fc100008025a03b417ca7288a14db5984bdb5fd319244e4c4dc083fba4cd62e9a1bc3607035fea037b1cf33c3adc6cf438914e0eeeb09365d63f7484c64daa1fcefc0d3fa37d105",
    "nonce": 1,
    "r": "26802163448750702429126549431425104949500463672912207737607843108015324542462",
    "s": "25191368659603875480477282087613371507329016717790331463487061049535087759621",
    "startgas": 21000,
    "to": "0xc22a31cc845c12b3a1deb64fd427e698d1a1f376",
    "txhash": "c07973d093a9363f44d273b95009c3fd74b39273544d1b0277bd48476a58a84f",
    "v": 37,
    "value": "10000000000000000"
}