{
    "data": "",
    "gasprice": "1000000000",
    "hex": "f86b0f843b9aca00825208940c5015aef34deaf04536c6a12ec98f54c0c42a088806f05b59d3b200008025a0567a6378e3fb0bca38476e5c2f167621d977d1ebad59330f704fa3d1f6cbdbeea064e468a8a0e43224bf6125803a4e42f90508585b6ed1e5520cf8815620da67e4",
    "nonce": 15,
    "r": "39115146852154969177614153673085577973033953121911187251539922365713688026094",
    "s": "45634848316931057768725731765211554061719395778438457224665692562959625775076",
    "startgas": 21000,
    "to": "0x0c5015aef34deaf04536c6a12ec98f54c0c42a08",
    "txhash": "c101759fd58df4ec8cfa35036f7c340215c8aa7e8b05844917c01c229166a75d",
    "v": 37,
    "value": "500000000000000000"
}