{
    "data": "095ea7b30000000000000000000000008d12a197cb00d4747a1fe03395095ce2a5cc68190000000000000000000000000000000000000000000000000de0b6b3a7640000",
    "gasprice": "1000000000",
    "hex": "f8aa819a843b9aca008303d0909433996dbd2741b74f93a41ff5a24ab6bd9611089580b844095ea7b30000000000000000000000008d12a197cb00d4747a1fe03395095ce2a5cc68190000000000000000000000000000000000000000000000000de0b6b3a764000026a09ca2685d0a422cf708647616ed37ac3c5e1ba611af58c4f217b601c376902d5fa01a11c033458b302505088a6c7ca13de90768a0a56422070e62a720c7ab7568dc",
    "nonce": 154,
    "r": "70847753893459107109079686815098650783200315817697683154589142406198950112607",
    "s": "11791496980845829218138825338085700428054460922687209302918673948586800408796",
    "startgas": 250000,
    "to": "0x33996dbd2741b74f93a41ff5a24ab6bd96110895",
    "txhash": "c139a3a57c4ab0c64b79e6021f2de3e9874adb8e0e70fedd0fa8af400f12b06e",
    "v": 38,
    "value": "0"
}