{
    "data": "a9059cbb0000000000000000000000006ed96d0e8d4b2b2bc5863d11dbd50468fb0f85e2000000000000000000000000000000000000000000000000000000000764c8b4",
    "gasprice": "3000000000",
    "hex": "f8ac8301f5a284b2d05e008303d09094b64ef51c888972c908cfacf59b47c1afbc0ab8ac80b844a9059cbb0000000000000000000000006ed96d0e8d4b2b2bc5863d11dbd50468fb0f85e2000000000000000000000000000000000000000000000000000000000764c8b426a0d1335f599b064effa1de5c9e44bd93c96641fffed475ca0747265b0225647f51a048ca1248924f20881438c96d68b3d3cb49243f5da76a1ae8dee77d75c305292c",
    "nonce": 128418,
    "r": "94624152635870571662059992693040178083264541128720934381230767945742549286737",
    "s": "32923554393038961437264937718379934120537587487001886357616705521932489271596",
    "startgas": 250000,
    "to": "0xb64ef51c888972c908cfacf59b47c1afbc0ab8ac",
    "txhash": "c167180c29d8ce6e151f6660b597276f6533bc3c8bf75b2178057e6dc5e776c5",
    "v": 38,
    "value": "0"
}