{
    "data": "",
    "gasprice": "1000000000",
    "hex": "f86d8349a4de843b9aca0082c35094fc9ccbd0d35252928104e6237cef9d22423b1aac87d0f83a1e980cd08026a0f4e2ab679183c4df1209e8a9fb3c5d35d9f1ff637b402b65f0b06b387aa9d36aa034ab1ad3111d4fb558ec74d985bb7de4373b6f7ac75e9e46dec709ffcd2e1d38",
    "nonce": 4826334,
    "r": "110764825481781210450786201632375507873966093478552833072420067287228029195114",
    "s": "23822584110163086192062433413229486810278483558175888933069539370586222763320",
    "startgas": 50000,
    "to": "0xfc9ccbd0d35252928104e6237cef9d22423b1aac",
    "txhash": "c19e691e729f3d62aa214eafffc2c4cc76acedbcf012820aeebfcc883552a34d",
    "v": 38,
    "value": "58819723660889296"
}