{
    "data": "",
    "gasprice": "22000000000",
    "hex": "f86f8206b785051f4d5c0082a410943f5ce5fbfe3e9af3971dd833d26ba9b5c936f0be89030fae90f44dfbde008026a09c65e15f7f205625ff0df4271dd7a3dbda6dbfebf6f776d07f5a70242aa064f0a03ef8a834de6a1d3d40879a4d183ec6740a10913936b4b3a251ed142917110118",
    "nonce": 1719,
    "r": "70740811400043098173233256499890376192638372712967443546961159748628649108720",
    "s": "28482735602954024506309774445893237729050631978995747486256698672088412651800",
    "startgas": 42000,
    "to": "0x3f5ce5fbfe3e9af3971dd833d26ba9b5c936f0be",
    "txhash": "c1e8a8f7f3be6169a158aa22b10836d9e0abe3c357551ba2f75f355cb3c7e79c",
    "v": 38,
    "value": "56470232156600000000"
}