{
    "data": "338b5dea000000000000000000000000419c4db4b9e25d6db2ad9691ccb832c8d9fda05e00000000000000000000000000000000000000000000000a844a7424d9c80000",
    "gasprice": "9000000000",
    "hex": "f8ab81ac850218711a008303d090948d12a197cb00d4747a1fe03395095ce2a5cc681980b844338b5dea000000000000000000000000419c4db4b9e25d6db2ad9691ccb832c8d9fda05e00000000000000000000000000000000000000000000000a844a7424d9c8000025a0444f05078867b795ab98cdfabe58cb929284706577604b4d0c5c0bfe48986045a015237d189692f31ca51c1d5e45080abb621470ac421d2c81badc07c3eaed851d",
    "nonce": 172,
    "r": "30896889333596105812729139119793356057403184453049446385590560498405609070661",
    "s": "9561272848705201771841893826747328467030426708553921624317309069044711523613",
    "startgas": 250000,
    "to": "0x8d12a197cb00d4747a1fe03395095ce2a5cc6819",
    "txhash": "c20dc30a4ceb1758b8797a72dbb1162a593cf3422b11fdcf4879cc392eb1fc33",
    "v": 37,
    "value": "0"
}