{
    "data": "",
    "gasprice": "22900000000",
    "hex": "f86c80850554f2450082520894636b76ae213358b9867591299e5c62b8d014e37288453e552f9386d8008026a0d06afda0bad8c1e0db0f10f5be0c0a5f95bab50a729533dfb8f5d0ef2e21549ba077cc484c3caa21353f6e462a30fdc14a469621f96aab0207da36566eb6669475",
    "nonce": 0,
    "r": "94270108769280377324259462993649257429950951046271593450697723893107109483675",
    "s": "54186164763705131050698640094547265998331906083393379561945472244988703577205",
    "startgas": 21000,
    "to": "0x636b76ae213358b9867591299e5c62b8d014e372",
    "txhash": "c41359be47873e4432737d2c7ecd6331ae5c7e11981229576c77f6b2379a9fc3",
    "v": 38,
    "value": "4989519100000000000"
}