{
    "data": "a9059cbb00000000000000000000000057d35bc1769e515fdf5a3aa889500297f7658d3800000000000000000000000000000000000000000000000028b13b4503f3e000",
    "gasprice": "21000000000",
    "hex": "f8aa028504e3b292008301d4c09405f4a42e251f2d52b8ed15e9fedaacfcef1fad2780b844a9059cbb00000000000000000000000057d35bc1769e515fdf5a3aa889500297f7658d3800000000000000000000000000000000000000000000000028b13b4503f3e00025a073618a6feccb23ee9bf5830cc05459eb9e9d91013ebbfe9f33c2f42470e25d39a055ba3b75d6ff30087214673e03dba1aaef5be4d0e980d1a12b5aaa15afa72d76",
    "nonce": 2,
    "r": "52188317210846343025094955148700787864408863900751918899483491106523185306937",
    "s": "38775636063616451715563990844585001821946547184854051282848594246602536201590",
    "startgas": 120000,
    "to": "0x05f4a42e251f2d52b8ed15e9fedaacfcef1fad27",
    "txhash": "c439edc5a9d44740c2d4a0c36c88ad68aaa7b0ee0bd6a10549f6a82ae001d8bf",
    "v": 37,
    "value": "0"
}