{
    "data": "1d833aae0000000000000000000000001450903c63645de5ce4b281a2f00fc934fee77fa000000000000000000000000000000000000000000000000000000000000006000000000000000000000000000000000000000000000000000000009502f900000000000000000000000000000000000000000000000000000000000000000c80000000000000000000000006dc7556a5f3345bda0a5d8028d12fe89ac7073ca000000000000000000000000c6ed5cd780af01527ac2c0bae921c1a749da41460000000000000000000000000d53dff8ead102aa16c1c5264bf1f67ca085159a0000000000000000000000004c9f99a4f0a3b80bb844cdcf599cc4fd2173e4f1000000000000000000000000367dfa3a5b1e7eb33b043add307c65c86c72cd5d00000000000000000000000029976b9d49db6d56b78e4607fccec30c8cb3576f000000000000000000000000b74bd63a64a95f08542089ff44e3f6524c13db370000000000000000000000001600ecdc25c5d867dc3707d04b9f3bad35c69a62000000000000000000000000c38e638025e22a046c7fce29e56f628906f9d040000000000000000000000000616c911089962320252afdaeea71b24fabb17581000000000000000000000000d7dd052ff73d9177f884592814f844a7788787d1000000000000000000000000d4f86739c521daeaa9d10fd28289e05aea509ab8000000000000000000000000aa3bf09291c8749d91eeadebc0122167ec3cfd9c000000000000000000000000aa10ffd8e8cf1e91f68340de1f786fe21602beb100000000000000000000000000e21500ca10c3ab0b59b02693f2a434753ef632000000000000000000000000f6945a33ce4e9425d094e53e1467fed7ea9a89f60000000000000000000000008b26de4111c477f04b60dbccfd7c88f33fa520fe0000000000000000000000005847773ab6701e15f612db7717bd3ab6b9e63816000000000000000000000000b5d77ae579fc6b21e4ddc037ae84cf299877d9c0000000000000000000000000338b228e35840f6470b0951e40e5ba15d64f87e10000000000000000000000002786bf098e4272c23126d57d49919535f785ef490000000000000000000000007d739b3405aa660bc9200dc0d12fa38571abe0cc000000000000000000000000cdd1261e9431086f88be225e73e7fce18e72a690000000000000000000000000d70331c8e50fd223815fc8cb23ee2dba62012384000000000000000000000000dfd2dad4445b721ea28bbec5d9ca486a067a8454000000000000000000000000560f416fa1833a424adc9cc8d4f1c02b2badf2aa0000000000000000000000004f75ea20e42e304c72310f79c8836b5e037a417c0000000000000000000000002981f6554ac5519fec7ba96a3a799d81c683199c0000000000000000000000003376f0fbba0bbf3dfc120b2e48db45086334a0ad0000000000000000000000007d5b550bfa23cad10a6af2234289fac2fbb2f9b70000000000000000000000001d3a55be615bdc85fe6b1b362655193980edee9e000000000000000000000000db7fbc56e50fb32892159407cccbfc03f88de578000000000000000000000000d9acb1f68130771c6285f998d8f2fe61f8560e3500000000000000000000000052e2c36c2a9dab9a0a2c79b8a0bd242cf313d7870000000000000000000000007417afe08f8006958d1ac6af7488373dcc72f1e10000000000000000000000000164d1408b6c99afcab2b6ffc7d64e91056e7638000000000000000000000000864b1336ad86a839099e456faf8bf287537b5ab7000000000000000000000000e3b539f1c7120e818b0c5187025954a27151fb200000000000000000000000005052bac380b48bd6abd0233e879fd9c49ff7425f000000000000000000000000d9203be3060d49c49af553975873ed4a7b89d4a7000000000000000000000000dcecaa19478a888d72dfe8fd493fe3464c676a850000000000000000000000004cb12679e5367be8b24c76463f030da56cd03ebb0000000000000000000000006dbcfaaa48059a357de4eed35f3b2a361f30bc0400000000000000000000000060bd97b92b6993c12e94a21f73817b295b9ce2ed000000000000000000000000f7dc89a8fda75b24ab8ba8ed87d816f71d40e61c00000000000000000000000028e25487d1095af47160e609404a536c69733de0000000000000000000000000699cd19b47c1dd51da37c5c001136d65af008e91000000000000000000000000da95a9d0ed5015b05e4d80bdfcff5f415d6883c0000000000000000000000000a9dfde0a9e987477851e269fda210cac9ce802ff00000000000000000000000035ca6b297c905be350625842d3c0b6e132adf1a2000000000000000000000000011eb85f9f1316d1b8a48bafbd9256648bec49ac000000000000000000000000f220ddd5b80e76532883e12babfc7eadf03ff96b00000000000000000000000004fe1ffb7143329ee1bdeeab9318128af121c6b80000000000000000000000002674b6bde0a657cfb457036c8985b68f7afbcea1000000000000000000000000b926e08d996360e6ca7f364aba394ef41bdd78240000000000000000000000007331b46c43d72a99c6543ee3eb45ccd1e004d0c400000000000000000000000034e730913bca246e956a2918cf088024e8f660b400000000000000000000000060123e8a3f77358881c1198ec81f2c11ffe185d70000000000000000000000006cb9f5dbcd22355e6f0d89bea085613def0fb9ac00000000000000000000000007cf4f0275f852539caf21d26d6d9e56ef0c1f9a000000000000000000000000c89e4418c0ce94978ba05bf95db83661316b808700000000000000000000000086bc535d5508f55297b4a4075d23e6381f20562a0000000000000000000000002c65b8e158d1217d17072a7bcb78df01b94db038000000000000000000000000e09d2a86dbe03709a641ee111a7e31ee944875e80000000000000000000000006da8804f6d86e5ca6ff1a1db02d7e1708d78171d000000000000000000000000e924c1f4c3dd90e1f0d9f5b90d20073036684c4500000000000000000000000010f27cdd914131c0225c74b15e08b1fbabe93e78000000000000000000000000d048dd47486fd2572b8562a44f956cfe51b95852000000000000000000000000d5e590ca66293c7138e925773283be919ded78f800000000000000000000000050de48cb8302089742cd5619795d696b81aa91fb000000000000000000000000704359daf5530cca697dc22c3f49954b0898993d000000000000000000000000a6125d7a52085603d0f5c7d6c2b34d79be57475e000000000000000000000000adb5d68f565913527b57b1ec631c576ef311800d000000000000000000000000da3b5bdf19a5c4000e70e4f2ed4f4d8a75e8a8a2000000000000000000000000b3af8ce965b1c7b25581f55d2e732875fc2f7c75000000000000000000000000100a70b597e51fdbaedc89ad4ba103cf2d29c7860000000000000000000000008204ef4ef647136940c9c4c2caefebd35456f0c100000000000000000000000045744ee04d65c42b1dcb09455e8719417c3669c00000000000000000000000009d596e162782cabdfad30baa8deebe85d0e08a3b0000000000000000000000000478e30f7afc98e6a9bb8f904d9b5b7b1c644441000000000000000000000000653ec8d989423beba09b1871d1e424c39d4f5475000000000000000000000000931bcd003fe258b7d68e1778f01896071fe5fe66000000000000000000000000e27ebdf23ef1f23d53a548e61c98979d2fd88382000000000000000000000000ebcd0106fc565e8e8229ff3c8fa22ef514bdb4f40000000000000000000000006a65bd2f676c7c8388bd1337b06d18c95dfccfb0000000000000000000000000ff90d4946fdc2ffa2608345d10e17ccfa063a66200000000000000000000000041640de9af4444a43c700d3a7dfd8e7fe58ff5440000000000000000000000007361e60bca20d8bbdf4ad794165180a8e521d5740000000000000000000000001a68bfaf6530414bda3a65097b6e329b832b5ce0000000000000000000000000f57e9a33d32d89ec28dffc5ce0bac5b0dd3fccf7000000000000000000000000ec744c36ed0e60b50e3a2c95e3f23d0f86f7804900000000000000000000000096c6b6594c2de3bf124266b15ae0450ffb8f4788000000000000000000000000f0ddc5b8b8216aa5c19d0735ea8c5432814dd6690000000000000000000000002ed110a5ccc1a37e269b561ed73c81a20d311180000000000000000000000000d867168b112a95b7caea22a3d342906a0f4f9f730000000000000000000000004039cf7ce9c501c630098c5e2d43a296a1944bd40000000000000000000000004ed71f278cd62741569a51e3e80f5b6891265d37000000000000000000000000a0e5f09421663c15882960c48401b3bdca5acad70000000000000000000000007a4992afaf927852ceed96799b1cbb4d2decfac90000000000000000000000000b8614351e08b63543762de75bcbe90958be405f000000000000000000000000923b12b02f2a8df9fc9ed779852fb553f09126c500000000000000000000000059c08bfadf85c1a16c19601786156afa0c0d8df30000000000000000000000008fbab204556492b86cef355778272daeec99357d0000000000000000000000007f63499ee097ee15d6550a061d6dc19a66e29ae0000000000000000000000000fa2b2f7ca73fef1ab863c7fe236e522c081f8ff900000000000000000000000038322f94048ac2401d704f78cead573c2b0126d2000000000000000000000000151dfbc67e118f1fd182288e5ab609cfa1f2a9710000000000000000000000000f861c0a32d55b1d2b7a9986906d00bc1a13a6fd000000000000000000000000452ecdb9f69e7a3e74621e8994df6b3504c261590000000000000000000000001a1cda46feb49334ddf7caf31bf73cf898a916f9000000000000000000000000d2727f87ffa8982cf6a2e951667470e1627563ba000000000000000000000000c48db7197be8fa89932e77e05f90931e401008220000000000000000000000003d633f242ee372ec824f404ebc1bd8ec732f3daf0000000000000000000000001808bb6e77d02e09b5745c27f1a898f7914af379000000000000000000000000b691d76b439778c378726372b8b0cbdfacb6e471000000000000000000000000ae0b794fe122e8e4d751a524027bea728017f58700000000000000000000000091a234c516c5478d1a8406f427079da65fa67109000000000000000000000000338edcc1943f78797fb5f5f1a5d17ae3788ce0600000000000000000000000004090f229c44ed0d3720bfc5cb828e218b22c8bab00000000000000000000000005c7b149742c304972e4574c41f01a5fd4a275cf000000000000000000000000be11bc6715081d08e60b4924314c7e696c086d75000000000000000000000000c3a621c422508680fa7f7eceb52ec46fbf15ffd100000000000000000000000060f9410ce128043be414fc0485d8217cfd0c6f3c0000000000000000000000000c898f3a3b8d873a2c7787432b92c95a8b1bcebb000000000000000000000000fbaebcbf072e620a3d67f3d27661c791b653cab9000000000000000000000000384154194a90fd3b62d6ae40ea76be64fd359286000000000000000000000000b7860a43f290ce3fddddb01ad2dde8de5e2c03f40000000000000000000000002c2b7643d8fcec18eac6c7ac687eb5ccbd16c217000000000000000000000000cba9fbc2013612bfb1c1f9594e8a74928973be96000000000000000000000000e4167d603378c4bec3ac34a094eac51143679721000000000000000000000000b13709f1b64543a65840a3492310efcd979359090000000000000000000000007c5089f094b4019e39ac03a0fe57505c21809623000000000000000000000000bb5e7907ab244d8b00850a3f75b743d04d97fb05000000000000000000000000aa32512684a4ffb80e03cc1ef53efbe77bc061b700000000000000000000000096ff1677872942c231391ba230bcdfc13a15f542000000000000000000000000f0c8b3d2644c0454d62557be42085c5f82a26d9600000000000000000000000065d8f0e8903f0fe5e3d7f00f341394c24b7d80230000000000000000000000009a4d5ca4d8612bf52f2fb4b002d748ed2a1fe680000000000000000000000000016e2ef9476f7d65c704e229cfeb1c9b122e9eb8000000000000000000000000e85cd0945d5d30a258cc866027e9547441fb8147000000000000000000000000f7bc789e40a300b8f437745dfc304980b74404f4000000000000000000000000584750aeb39072b29936e83c092c9391b71fa8c50000000000000000000000004238498bea0c72e56c617ed8d61e723d1f568214000000000000000000000000000bec82c41837d974899b26b26f9cc8890af9ea000000000000000000000000f0db5aa612704d8c5dd5c34bb5fa84d30b4e10a40000000000000000000000000239ff4a70edd43b0626e48136826b30a41f503b0000000000000000000000002b9fdf7307379a49a2192ef4ba20d9006eb3813100000000000000000000000095f3a5f945e749c6aaa54e0ce48c4df8b5ac04510000000000000000000000000a9b9ed71d36bc7986dc6a44267370ac3970535d0000000000000000000000000ddcf2caab81b33b54ae1c90e5a6f435be245211000000000000000000000000f0a7fc9f4d52af0ffd37944f9ade2f11c237b3310000000000000000000000008c8961f2ef091202ccc51095efceb700427473a60000000000000000000000009a441fcda491a7fc28c46efbd641fd5eb7d120720000000000000000000000003a1dc721b83e3c2c71b9a918dd1930536e5a8165000000000000000000000000846bddc8c474866cbf8e749db08c2ce553352a440000000000000000000000003f912193e988b07b4b90b961b3b0d53123db73eb0000000000000000000000008d259ab394ea6d400bd6fa6ee48cb7af2b996df1000000000000000000000000568ae174045e3e549180dda69220595a7dcafe38000000000000000000000000a4211257e5be15dd7b82ca870fea66f9c7437cfd000000000000000000000000001b1d25304c9f386b84720ef19ea9caa8253ff0000000000000000000000000fcd92465b3253ddbc6131873edc502fd7b9a7e35000000000000000000000000c7da675c1b39ddc40443de68b63a1ce081a8175b000000000000000000000000b27dc6b70a3d79f2bcb4ea4ed08d6423c32944610000000000000000000000001f195603f67091195989a177d0fff8c1472288b7000000000000000000000000afa94c5ac3f38ee4bcde92f160f7b4738aced0f5000000000000000000000000a6e96dbb6b7d2c12062e70d3dec87c4fe23f961f0000000000000000000000005949106af5a50fb9aed354c45ad819abb12bc952000000000000000000000000d4dfc90042379cad2c1b1cee4f298d7d79a6f2f50000000000000000000000001065f011e1c9ad7bd7b3b84217fa5f9f02845d51000000000000000000000000b467535ac39537f5bf4e9447219572d397ff0b99000000000000000000000000a586d24f4bcc58e264af60f7e151824b3ca946af0000000000000000000000003c48ced34987e5d14388d8edb61476b462351a0400000000000000000000000022b761c5ef0286ff096260b29c6586a4c687fdf6000000000000000000000000bba0857bb0d2e62b50b4dea674c1b6f19100426b00000000000000000000000099ba3fa2fe9b84a3a3801daf41addd9d743762f2000000000000000000000000808b6eeee6abe6a9e5c125643ecd448a84cdd2130000000000000000000000007f2beb938e3cc917780d3a8bc709941f023e79cd000000000000000000000000dee13272ef6b84be39ae11f6ea4538e113dd2adc000000000000000000000000c61bb8792b7fedd0a81e45ccacdf7046a365b9e6000000000000000000000000b51ebf852dcbd8b1bed3ff689910c0c04c6f622800000000000000000000000061173c95682e1518e89cb4ccfc72c7303b827d60000000000000000000000000e38b3806517671c470c2f2c389715f0442a36295000000000000000000000000a91ceef3a5ef473484eb3ecc804a4b5744f08008000000000000000000000000e845379080ff6e475707b1c0d9d0a18e7c340625000000000000000000000000503fd18fb4897ae7c1f533c7f5cca4aab80d9567000000000000000000000000e4b0a1f5de613000e7bf7d51dea69d4f919c3bbe000000000000000000000000ac15d40974bc20576a49e9ebdf84e26ec170310b0000000000000000000000007b81e23ebfba59a5d07884e7374ff29192bfff8d00000000000000000000000069d72de72b50019e3a265c691187c6140571f36e00000000000000000000000004d461087a1952980bfd2f24219f4d58ca292855000000000000000000000000494bbaf0124285e6ecb4dfd9eac76e18a9bf470f000000000000000000000000cde96826293159f71b1b2a4d4ffd0136fcd82c2e000000000000000000000000ca9e948cacf879de66a33b6b806cedf930773c5e000000000000000000000000d8e0adc07cc60ed198718b102da53baad49a641c000000000000000000000000ad0f48748b02cd49d3b48051ad0fda063f21a95800000000000000000000000002430f819eae7b6dea30d11542214b396cf79f870000000000000000000000004682f0ccc7bd7cd668bc319fce8497a6b35277e300000000000000000000000058f82ff844af9a0442455c711f799011ce39bd5b00000000000000000000000017f2db1eb0398dc43a66d2fe8027187d736227870000000000000000000000007e5ed59800ec23e2ff192774f28d528f70555bd2",
    "gasprice": "1000000000",
    "hex": "f919ec8202b5843b9aca0083605314949f9eeacc7d9fcaede55500c78bfbb543e8367af180b919841d833aae0000000000000000000000001450903c63645de5ce4b281a2f00fc934fee77fa000000000000000000000000000000000000000000000000000000000000006000000000000000000000000000000000000000000000000000000009502f900000000000000000000000000000000000000000000000000000000000000000c80000000000000000000000006dc7556a5f3345bda0a5d8028d12fe89ac7073ca000000000000000000000000c6ed5cd780af01527ac2c0bae921c1a749da41460000000000000000000000000d53dff8ead102aa16c1c5264bf1f67ca085159a0000000000000000000000004c9f99a4f0a3b80bb844cdcf599cc4fd2173e4f1000000000000000000000000367dfa3a5b1e7eb33b043add307c65c86c72cd5d00000000000000000000000029976b9d49db6d56b78e4607fccec30c8cb3576f000000000000000000000000b74bd63a64a95f08542089ff44e3f6524c13db370000000000000000000000001600ecdc25c5d867dc3707d04b9f3bad35c69a62000000000000000000000000c38e638025e22a046c7fce29e56f628906f9d040000000000000000000000000616c911089962320252afdaeea71b24fabb17581000000000000000000000000d7dd052ff73d9177f884592814f844a7788787d1000000000000000000000000d4f86739c521daeaa9d10fd28289e05aea509ab8000000000000000000000000aa3bf09291c8749d91eeadebc0122167ec3cfd9c000000000000000000000000aa10ffd8e8cf1e91f68340de1f786fe21602beb100000000000000000000000000e21500ca10c3ab0b59b02693f2a434753ef632000000000000000000000000f6945a33ce4e9425d094e53e1467fed7ea9a89f60000000000000000000000008b26de4111c477f04b60dbccfd7c88f33fa520fe0000000000000000000000005847773ab6701e15f612db7717bd3ab6b9e63816000000000000000000000000b5d77ae579fc6b21e4ddc037ae84cf299877d9c0000000000000000000000000338b228e35840f6470b0951e40e5ba15d64f87e10000000000000000000000002786bf098e4272c23126d57d49919535f785ef490000000000000000000000007d739b3405aa660bc9200dc0d12fa38571abe0cc000000000000000000000000cdd1261e9431086f88be225e73e7fce18e72a690000000000000000000000000d70331c8e50fd223815fc8cb23ee2dba62012384000000000000000000000000dfd2dad4445b721ea28bbec5d9ca486a067a8454000000000000000000000000560f416fa1833a424adc9cc8d4f1c02b2badf2aa0000000000000000000000004f75ea20e42e304c72310f79c8836b5e037a417c0000000000000000000000002981f6554ac5519fec7ba96a3a799d81c683199c0000000000000000000000003376f0fbba0bbf3dfc120b2e48db45086334a0ad0000000000000000000000007d5b550bfa23cad10a6af2234289fac2fbb2f9b70000000000000000000000001d3a55be615bdc85fe6b1b362655193980edee9e000000000000000000000000db7fbc56e50fb32892159407cccbfc03f88de578000000000000000000000000d9acb1f68130771c6285f998d8f2fe61f8560e3500000000000000000000000052e2c36c2a9dab9a0a2c79b8a0bd242cf313d7870000000000000000000000007417afe08f8006958d1ac6af7488373dcc72f1e10000000000000000000000000164d1408b6c99afcab2b6ffc7d64e91056e7638000000000000000000000000864b1336ad86a839099e456faf8bf287537b5ab7000000000000000000000000e3b539f1c7120e818b0c5187025954a27151fb200000000000000000000000005052bac380b48bd6abd0233e879fd9c49ff7425f000000000000000000000000d9203be3060d49c49af553975873ed4a7b89d4a7000000000000000000000000dcecaa19478a888d72dfe8fd493fe3464c676a850000000000000000000000004cb12679e5367be8b24c76463f030da56cd03ebb0000000000000000000000006dbcfaaa48059a357de4eed35f3b2a361f30bc0400000000000000000000000060bd97b92b6993c12e94a21f73817b295b9ce2ed000000000000000000000000f7dc89a8fda75b24ab8ba8ed87d816f71d40e61c00000000000000000000000028e25487d1095af47160e609404a536c69733de0000000000000000000000000699cd19b47c1dd51da37c5c001136d65af008e91000000000000000000000000da95a9d0ed5015b05e4d80bdfcff5f415d6883c0000000000000000000000000a9dfde0a9e987477851e269fda210cac9ce802ff00000000000000000000000035ca6b297c905be350625842d3c0b6e132adf1a2000000000000000000000000011eb85f9f1316d1b8a48bafbd9256648bec49ac000000000000000000000000f220ddd5b80e76532883e12babfc7eadf03ff96b00000000000000000000000004fe1ffb7143329ee1bdeeab9318128af121c6b80000000000000000000000002674b6bde0a657cfb457036c8985b68f7afbcea1000000000000000000000000b926e08d996360e6ca7f364aba394ef41bdd78240000000000000000000000007331b46c43d72a99c6543ee3eb45ccd1e004d0c400000000000000000000000034e730913bca246e956a2918cf088024e8f660b400000000000000000000000060123e8a3f77358881c1198ec81f2c11ffe185d70000000000000000000000006cb9f5dbcd22355e6f0d89bea085613def0fb9ac00000000000000000000000007cf4f0275f852539caf21d26d6d9e56ef0c1f9a000000000000000000000000c89e4418c0ce94978ba05bf95db83661316b808700000000000000000000000086bc535d5508f55297b4a4075d23e6381f20562a0000000000000000000000002c65b8e158d1217d17072a7bcb78df01b94db038000000000000000000000000e09d2a86dbe03709a641ee111a7e31ee944875e80000000000000000000000006da8804f6d86e5ca6ff1a1db02d7e1708d78171d000000000000000000000000e924c1f4c3dd90e1f0d9f5b90d20073036684c4500000000000000000000000010f27cdd914131c0225c74b15e08b1fbabe93e78000000000000000000000000d048dd47486fd2572b8562a44f956cfe51b95852000000000000000000000000d5e590ca66293c7138e925773283be919ded78f800000000000000000000000050de48cb8302089742cd5619795d696b81aa91fb000000000000000000000000704359daf5530cca697dc22c3f49954b0898993d000000000000000000000000a6125d7a52085603d0f5c7d6c2b34d79be57475e000000000000000000000000adb5d68f565913527b57b1ec631c576ef311800d000000000000000000000000da3b5bdf19a5c4000e70e4f2ed4f4d8a75e8a8a2000000000000000000000000b3af8ce965b1c7b25581f55d2e732875fc2f7c75000000000000000000000000100a70b597e51fdbaedc89ad4ba103cf2d29c7860000000000000000000000008204ef4ef647136940c9c4c2caefebd35456f0c100000000000000000000000045744ee04d65c42b1dcb09455e8719417c3669c00000000000000000000000009d596e162782cabdfad30baa8deebe85d0e08a3b0000000000000000000000000478e30f7afc98e6a9bb8f904d9b5b7b1c644441000000000000000000000000653ec8d989423beba09b1871d1e424c39d4f5475000000000000000000000000931bcd003fe258b7d68e1778f01896071fe5fe66000000000000000000000000e27ebdf23ef1f23d53a548e61c98979d2fd88382000000000000000000000000ebcd0106fc565e8e8229ff3c8fa22ef514bdb4f40000000000000000000000006a65bd2f676c7c8388bd1337b06d18c95dfccfb0000000000000000000000000ff90d4946fdc2ffa2608345d10e17ccfa063a66200000000000000000000000041640de9af4444a43c700d3a7dfd8e7fe58ff5440000000000000000000000007361e60bca20d8bbdf4ad794165180a8e521d5740000000000000000000000001a68bfaf6530414bda3a65097b6e329b832b5ce0000000000000000000000000f57e9a33d32d89ec28dffc5ce0bac5b0dd3fccf7000000000000000000000000ec744c36ed0e60b50e3a2c95e3f23d0f86f7804900000000000000000000000096c6b6594c2de3bf124266b15ae0450ffb8f4788000000000000000000000000f0ddc5b8b8216aa5c19d0735ea8c5432814dd6690000000000000000000000002ed110a5ccc1a37e269b561ed73c81a20d311180000000000000000000000000d867168b112a95b7caea22a3d342906a0f4f9f730000000000000000000000004039cf7ce9c501c630098c5e2d43a296a1944bd40000000000000000000000004ed71f278cd62741569a51e3e80f5b6891265d37000000000000000000000000a0e5f09421663c15882960c48401b3bdca5acad70000000000000000000000007a4992afaf927852ceed96799b1cbb4d2decfac90000000000000000000000000b8614351e08b63543762de75bcbe90958be405f000000000000000000000000923b12b02f2a8df9fc9ed779852fb553f09126c500000000000000000000000059c08bfadf85c1a16c19601786156afa0c0d8df30000000000000000000000008fbab204556492b86cef355778272daeec99357d0000000000000000000000007f63499ee097ee15d6550a061d6dc19a66e29ae0000000000000000000000000fa2b2f7ca73fef1ab863c7fe236e522c081f8ff900000000000000000000000038322f94048ac2401d704f78cead573c2b0126d2000000000000000000000000151dfbc67e118f1fd182288e5ab609cfa1f2a9710000000000000000000000000f861c0a32d55b1d2b7a9986906d00bc1a13a6fd000000000000000000000000452ecdb9f69e7a3e74621e8994df6b3504c261590000000000000000000000001a1cda46feb49334ddf7caf31bf73cf898a916f9000000000000000000000000d2727f87ffa8982cf6a2e951667470e1627563ba000000000000000000000000c48db7197be8fa89932e77e05f90931e401008220000000000000000000000003d633f242ee372ec824f404ebc1bd8ec732f3daf0000000000000000000000001808bb6e77d02e09b5745c27f1a898f7914af379000000000000000000000000b691d76b439778c378726372b8b0cbdfacb6e471000000000000000000000000ae0b794fe122e8e4d751a524027bea728017f58700000000000000000000000091a234c516c5478d1a8406f427079da65fa67109000000000000000000000000338edcc1943f78797fb5f5f1a5d17ae3788ce0600000000000000000000000004090f229c44ed0d3720bfc5cb828e218b22c8bab00000000000000000000000005c7b149742c304972e4574c41f01a5fd4a275cf000000000000000000000000be11bc6715081d08e60b4924314c7e696c086d75000000000000000000000000c3a621c422508680fa7f7eceb52ec46fbf15ffd100000000000000000000000060f9410ce128043be414fc0485d8217cfd0c6f3c0000000000000000000000000c898f3a3b8d873a2c7787432b92c95a8b1bcebb000000000000000000000000fbaebcbf072e620a3d67f3d27661c791b653cab9000000000000000000000000384154194a90fd3b62d6ae40ea76be64fd359286000000000000000000000000b7860a43f290ce3fddddb01ad2dde8de5e2c03f40000000000000000000000002c2b7643d8fcec18eac6c7ac687eb5ccbd16c217000000000000000000000000cba9fbc2013612bfb1c1f9594e8a74928973be96000000000000000000000000e4167d603378c4bec3ac34a094eac51143679721000000000000000000000000b13709f1b64543a65840a3492310efcd979359090000000000000000000000007c5089f094b4019e39ac03a0fe57505c21809623000000000000000000000000bb5e7907ab244d8b00850a3f75b743d04d97fb05000000000000000000000000aa32512684a4ffb80e03cc1ef53efbe77bc061b700000000000000000000000096ff1677872942c231391ba230bcdfc13a15f542000000000000000000000000f0c8b3d2644c0454d62557be42085c5f82a26d9600000000000000000000000065d8f0e8903f0fe5e3d7f00f341394c24b7d80230000000000000000000000009a4d5ca4d8612bf52f2fb4b002d748ed2a1fe680000000000000000000000000016e2ef9476f7d65c704e229cfeb1c9b122e9eb8000000000000000000000000e85cd0945d5d30a258cc866027e9547441fb8147000000000000000000000000f7bc789e40a300b8f437745dfc304980b74404f4000000000000000000000000584750aeb39072b29936e83c092c9391b71fa8c50000000000000000000000004238498bea0c72e56c617ed8d61e723d1f568214000000000000000000000000000bec82c41837d974899b26b26f9cc8890af9ea000000000000000000000000f0db5aa612704d8c5dd5c34bb5fa84d30b4e10a40000000000000000000000000239ff4a70edd43b0626e48136826b30a41f503b0000000000000000000000002b9fdf7307379a49a2192ef4ba20d9006eb3813100000000000000000000000095f3a5f945e749c6aaa54e0ce48c4df8b5ac04510000000000000000000000000a9b9ed71d36bc7986dc6a44267370ac3970535d0000000000000000000000000ddcf2caab81b33b54ae1c90e5a6f435be245211000000000000000000000000f0a7fc9f4d52af0ffd37944f9ade2f11c237b3310000000000000000000000008c8961f2ef091202ccc51095efceb700427473a60000000000000000000000009a441fcda491a7fc28c46efbd641fd5eb7d120720000000000000000000000003a1dc721b83e3c2c71b9a918dd1930536e5a8165000000000000000000000000846bddc8c474866cbf8e749db08c2ce553352a440000000000000000000000003f912193e988b07b4b90b961b3b0d53123db73eb0000000000000000000000008d259ab394ea6d400bd6fa6ee48cb7af2b996df1000000000000000000000000568ae174045e3e549180dda69220595a7dcafe38000000000000000000000000a4211257e5be15dd7b82ca870fea66f9c7437cfd000000000000000000000000001b1d25304c9f386b84720ef19ea9caa8253ff0000000000000000000000000fcd92465b3253ddbc6131873edc502fd7b9a7e35000000000000000000000000c7da675c1b39ddc40443de68b63a1ce081a8175b000000000000000000000000b27dc6b70a3d79f2bcb4ea4ed08d6423c32944610000000000000000000000001f195603f67091195989a177d0fff8c1472288b7000000000000000000000000afa94c5ac3f38ee4bcde92f160f7b4738aced0f5000000000000000000000000a6e96dbb6b7d2c12062e70d3dec87c4fe23f961f0000000000000000000000005949106af5a50fb9aed354c45ad819abb12bc952000000000000000000000000d4dfc90042379cad2c1b1cee4f298d7d79a6f2f50000000000000000000000001065f011e1c9ad7bd7b3b84217fa5f9f02845d51000000000000000000000000b467535ac39537f5bf4e9447219572d397ff0b99000000000000000000000000a586d24f4bcc58e264af60f7e151824b3ca946af0000000000000000000000003c48ced34987e5d14388d8edb61476b462351a0400000000000000000000000022b761c5ef0286ff096260b29c6586a4c687fdf6000000000000000000000000bba0857bb0d2e62b50b4dea674c1b6f19100426b00000000000000000000000099ba3fa2fe9b84a3a3801daf41addd9d743762f2000000000000000000000000808b6eeee6abe6a9e5c125643ecd448a84cdd2130000000000000000000000007f2beb938e3cc917780d3a8bc709941f023e79cd000000000000000000000000dee13272ef6b84be39ae11f6ea4538e113dd2adc000000000000000000000000c61bb8792b7fedd0a81e45ccacdf7046a365b9e6000000000000000000000000b51ebf852dcbd8b1bed3ff689910c0c04c6f622800000000000000000000000061173c95682e1518e89cb4ccfc72c7303b827d60000000000000000000000000e38b3806517671c470c2f2c389715f0442a36295000000000000000000000000a91ceef3a5ef473484eb3ecc804a4b5744f08008000000000000000000000000e845379080ff6e475707b1c0d9d0a18e7c340625000000000000000000000000503fd18fb4897ae7c1f533c7f5cca4aab80d9567000000000000000000000000e4b0a1f5de613000e7bf7d51dea69d4f919c3bbe000000000000000000000000ac15d40974bc20576a49e9ebdf84e26ec170310b0000000000000000000000007b81e23ebfba59a5d07884e7374ff29192bfff8d00000000000000000000000069d72de72b50019e3a265c691187c6140571f36e00000000000000000000000004d461087a1952980bfd2f24219f4d58ca292855000000000000000000000000494bbaf0124285e6ecb4dfd9eac76e18a9bf470f000000000000000000000000cde96826293159f71b1b2a4d4ffd0136fcd82c2e000000000000000000000000ca9e948cacf879de66a33b6b806cedf930773c5e000000000000000000000000d8e0adc07cc60ed198718b102da53baad49a641c000000000000000000000000ad0f48748b02cd49d3b48051ad0fda063f21a95800000000000000000000000002430f819eae7b6dea30d11542214b396cf79f870000000000000000000000004682f0ccc7bd7cd668bc319fce8497a6b35277e300000000000000000000000058f82ff844af9a0442455c711f799011ce39bd5b00000000000000000000000017f2db1eb0398dc43a66d2fe8027187d736227870000000000000000000000007e5ed59800ec23e2ff192774f28d528f70555bd225a030d9351d0717c65749d3541aa11ac8c310f1c3f4cf3145830c9ca19323675412a00e03badc3479cc0b1f74e619d9171a1f343ee3308582ec0b16b7185569657876",
    "nonce": 693,
    "r": "22094789120195495703223730878264458927668866517223755230781292849082120229906",
    "s": "6338970082895177973024908412769247341861040727359073048467525594292005730422",
    "startgas": 6312724,
    "to": "0x9f9eeacc7d9fcaede55500c78bfbb543e8367af1",
    "txhash": "c4934719794fa7a37df209b2e43e360a3a5c8e7847df4a82f8a96ee608c484b9",
    "v": 37,
    "value": "0"
}