{
    "data": "",
    "gasprice": "1000000000",
    "hex": "f86b01843b9aca00825208945d93bd0d88021b6470464a87d7f26bb3c0066381880dbd2fc137a300008025a0ae49c8a2f6115fda9e215199a45a6b8dd9838db797d7d4cc8a22b30701f2808da0742ec4815eece94bd127bc02042a8463a3519d8d41ecb938fb6b87a454f88eb5",
    "nonce": 1,
    "r": "78832800231911863000412524279223267412453005282471143908253647300433968005261",
    "s": "52550921630752612821603045084750513179058122896359341959880524801448959577781",
    "startgas": 21000,
    "to": "0x5d93bd0d88021b6470464a87d7f26bb3c0066381",
    "txhash": "c65f4086ce57d61a0f878306caf67be71c8a99d7c2cc051ca0abdf8b471740fd",
    "v": 37,
    "value": "990000000000000000"
}