{
    "data": "",
    "gasprice": "90000000000",
    "hex": "f8708345b0db8514f46b0400830249f094a54fadf2cb71d65aa983a6b7f7ce2b78831db5988814d1120d7b1600008026a03a0920903824fb2acf8d32431a947f7b6652847aa68ae40feab4ab32cdeb4c73a025104d98134a89142c1b8560b1600d47b2e1146f262db52b3fbe9ea20db77621",
    "nonce": 4567259,
    "r": "26250271585440574836984003668632880628563950815556169708142752075966459890803",
    "s": "16764380485029502452543847850597508782418766872338715755979832728292643272225",
    "startgas": 150000,
    "to": "0xa54fadf2cb71d65aa983a6b7f7ce2b78831db598",
    "txhash": "c814e686519b1a67cfe0ba15f0121c2513b3e5155e321a7fac322476507dddc3",
    "v": 38,
    "value": "1500000000000000000"
}