{
    "data": "",
    "gasprice": "20000000000",
    "hex": "f870832e77818504a817c80083015f9094e6ac1d2bb39cba45cb85e26da617f9d4c83c9ed388017064a4b4c8e4008026a0891d9973816979c0b88c3d2f935e442c654f943832904524bd3d189404697ecfa03d9cefec3067226a0d75a287d1b0afe09c8a09abc92ed0fb775d26e7b9b9c6e6",
    "nonce": 3045249,
    "r": "62019157901999669800391925853268109654884939535479971917254296160930068266703",
    "s": "27868367790706391082522037659565471200950389495314132632955969344265877309158",
    "startgas": 90000,
    "to": "0xe6ac1d2bb39cba45cb85e26da617f9d4c83c9ed3",
    "txhash": "c835eeb3f156b7632f2bf7aa638bbd8fd52895e596ade8865a57d879bdd6e339",
    "v": 38,
    "value": "103693450000000000"
}