{
    "data": "ac307773",
    "gasprice": "1000000000",
    "hex": "f8680f843b9aca008301b1b094288a7fb94fc3419dcc2088fef19c028525e05a3a8084ac30777325a0c46e004d46757d823bd9f9079f56091c543b6e62a73421f569b6595eb971ef6fa027d3541821425a199085482edabf3a6d459967a4d4202b77b64d63a378e05d61",
    "nonce": 15,
    "r": "88847673582781920877871922065809721390395528127173723550228040278912468643695",
    "s": "18013586222650079894228566968308052156311956758734771932488974865626591944033",
    "startgas": 111024,
    "to": "0x288a7fb94fc3419dcc2088fef19c028525e05a3a",
    "txhash": "c859cc81a9c29c81875bc9bcbb27c8c20e96bb7e328a37e88d9513b7f0d3e464",
    "v": 37,
    "value": "0"
}