{
    "data": "",
    "gasprice": "1000000000",
    "hex": "f865821489843b9aca0082b8ba94347ed75c305f4ab85757bfcc5600d9bfcb413898808026a0dae77b62b921f6b9f136d36ebc747303688eeb39ee3db464f12742f75e95710ea021b7b4bcf636950e323569640406821759cd40b73bc5de4f0048c54be0db4dc9",
    "nonce": 5257,
    "r": "99013194239488053910845205327920086715650433615193195219573234833547261735182",
    "s": "15250904424843908459303495732096674905967524614318399663080465576586838232521",
    "startgas": 47290,
    "to": "0x347ed75c305f4ab85757bfcc5600d9bfcb413898",
    "txhash": "c9afb6257543aee33d11a96b0642343d4ba02766401e9696f3c0d3a6264cf06f",
    "v": 38,
    "value": "0"
}