{
    "data": "",
    "gasprice": "4000000000",
    "hex": "f86d8204cd84ee6b280082c350944db080010e1599240ffe88bb5d4c1b87f39d2b5d8801881033acdb32008025a0bc509c816838709b96572a867b94edbeaab891db1ccb001b80333ce82e117fe0a062374637c185321c53d0a9622c394bea5d829c7f058f9683a3011594e040af6c",
    "nonce": 1229,
    "r": "85177243460075267501965487695988043395003095026916778334563013792671921700832",
    "s": "44424320375144325074741826768903688226322195310609805969148102802386238615404",
    "startgas": 50000,
    "to": "0x4db080010e1599240ffe88bb5d4c1b87f39d2b5d",
    "txhash": "ca67fb197109fbbd0588d0b14c1692d9af75e75a4d2cb5c5131b9038db0ba2b7",
    "v": 37,
    "value": "110356005000000000"
}