{
    "data": "",
    "gasprice": "4000000000",
    "hex": "f86d8204cf84ee6b280082c35094bf13d5811e6688aae2c1510ee1b2c0f1892b04828801697852e3f9d8008026a0999a626fcacd91d9eca3e5064bc5397e3518989293d6decb9786a395d1ec1bf9a07db9720b26db6ed8324f5d15f988dbba4cc7d5694dbd112288a8ad62ecf74115",
    "nonce": 1231,
    "r": "69476639666269343536407768942371519632324942571573152675875157807247718620153",
    "s": "56866759879627383688758185779671365304388044634474569858831248025631858311445",
    "startgas": 50000,
    "to": "0xbf13d5811e6688aae2c1510ee1b2c0f1892b0482",
    "txhash": "caa023011465b8be064199fe92d1171e9c0076557122aaf7a618952682959e84",
    "v": 38,
    "value": "101744764000000000"
}