{
    "data": "a9059cbb0000000000000000000000005e3227f45f18042973412c0151ff54df59a535a90000000000000000000000000000000000000000000000434bececd8629fd000",
    "gasprice": "2000000000",
    "hex": "f8a86f847735940082cb2e94a89b5934863447f6e4fc53b315a93e873bda69a380b844a9059cbb0000000000000000000000005e3227f45f18042973412c0151ff54df59a535a90000000000000000000000000000000000000000000000434bececd8629fd00025a00ef4e68a49ef30a5bd9476bb2650c22fce1a9b3ed6cbaa2306eb37f8cfd5fd04a07e6367446a527b3e15cbaefb31b2ac8c6512247d275da92c9d49a28b0d637aae",
    "nonce": 111,
    "r": "6765081693890251472605278472935091957169679926501769546028824783673284230404",
    "s": "57167049505251751581367527924524799823020334979383219691216320888995349494446",
    "startgas": 52014,
    "to": "0xa89b5934863447f6e4fc53b315a93e873bda69a3",
    "txhash": "cc3140950e39829919aa1d11b8274b3660b4b40b6ff2998cce70b64a8d3e34c3",
    "v": 37,
    "value": "0"
}