{
    "data": "",
    "gasprice": "36000000000",
    "hex": "f86c19850861c46800825208940d9c652d63f1fbd88898e96c5ea36e248f5c559188053e37192c2480008025a074f139f10d1eee12bf8cca704225164b47996e15a42f7b5b839adb9e1fa91c1ea012258587735404ae64c62b4ee59cefaf9140cd34fb1f7eec766e4ffa323dca92",
    "nonce": 25,
    "r": "52894500476541189164985560374717673111188185984471888502838896257352726027294",
    "s": "8207926199897995081261192485138606390519260172110481155066054696550493178514",
    "startgas": 21000,
    "to": "0x0d9c652d63f1fbd88898e96c5ea36e248f5c5591",
    "txhash": "ccd271b2e866ff60ef4df9b9e9cae0561d26a25e41ff5d82dfea2a101c2c4e92",
    "v": 37,
    "value": "377800000000000000"
}