{
    "data": "9e281a98000000000000000000000000672a1ad4f667fb18a333af13667aa0af1f5b5bdd000000000000000000000000000000000000000000000005e8adca7e45940000",
    "gasprice": "2000000000",
    "hex": "f8a96584773594008303d090948d12a197cb00d4747a1fe03395095ce2a5cc681980b8449e281a98000000000000000000000000672a1ad4f667fb18a333af13667aa0af1f5b5bdd000000000000000000000000000000000000000000000005e8adca7e4594000025a072a8239fe817e631a0a3714d17d58d6e479f2e13fdeb36f84f8329e8f020a0d2a07c2c25bba4f0c5dbe3f5daddc9dbb636f7a236f1abd5b5644a3eaaf940003204",
    "nonce": 101,
    "r": "51860740917571077814190107934617135053022435822657676943865842007298340331730",
    "s": "56164794918670403130975859724091905192517453149271876757691028740114472776196",
    "startgas": 250000,
    "to": "0x8d12a197cb00d4747a1fe03395095ce2a5cc6819",
    "txhash": "cd2646e0bcd514e720633e4e775b03f09db003fdc56c43d86cdf163d4d9546f6",
    "v": 37,
    "value": "0"
}