{
    "data": "",
    "gasprice": "100000000000",
    "hex": "f86f8319a10e85174876e8008252089477bb4f3be5bdabc100d61260357076f6c0c1ebd68809699fb7a5796c008025a055749a392e185b3e34e0b1fb4291831e7a57c45074073a06fef3fbb24fdcf4cda04129c5d9f39fb86208a289800be8aa54d43302da51dce06ed4358db11b2d2900",
    "nonce": 1679630,
    "r": "38652610799600686434310400179472858942303728514196670763721685583672955958477",
    "s": "29474141407563565488114701120922644004526149128720293075695209836183538182400",
    "startgas": 21000,
    "to": "0x77bb4f3be5bdabc100d61260357076f6c0c1ebd6",
    "txhash": "cd894183ff116c4bccd1dfcee8446313fbe57df7dc81f46b702b8cd911b5f421",
    "v": 37,
    "value": "678248830000000000"
}