{
    "data": "a9059cbb0000000000000000000000006edad64e3a757b17d09ac0ff6167fd016a15f03a00000000000000000000000000000000000000000000000000000000057aa7dd",
    "gasprice": "3000000000",
    "hex": "f8ac8301f5a484b2d05e008303d09094b64ef51c888972c908cfacf59b47c1afbc0ab8ac80b844a9059cbb0000000000000000000000006edad64e3a757b17d09ac0ff6167fd016a15f03a00000000000000000000000000000000000000000000000000000000057aa7dd26a0fbf582073469b6c27ab53f28d9677cf927b9fbba395b3faa1e900ad89fd4850ea02e7e4c53ce2e28402ef8ef7419700be039ad2c0496848d2a0e056a6587790855",
    "nonce": 128420,
    "r": "113964299946535004430684355626870602659666565337058266172910156316485468062990",
    "s": "21029540557103579813591370595420795213025256547313028816112995557247213439061",
    "startgas": 250000,
    "to": "0xb64ef51c888972c908cfacf59b47c1afbc0ab8ac",
    "txhash": "cddd3b99224e92280af99a7738271973e636eb3eb0bba023122d648c2112884b",
    "v": 38,
    "value": "0"
}