{
    "data": "",
    "gasprice": "36000000000",
    "hex": "f86d02850861c4680082520894d5b8b8923ca2795fbddaae980d04ce133e3e4f9f8901fd9f0fcc8a8d9eee8026a083345c255517ac7fb456498fa849ecec8464781dc45a392809b8708670640798a056377bf74921bc9ac10ee5bded722e916f8ac16222bd325967e75ef65593c8ec",
    "nonce": 2,
    "r": "59345495178919587916475255443397314152016884767459169543913502934941921707928",
    "s": "38996937148332878343949178535580671111104006752587946193297017405541293738220",
    "startgas": 21000,
    "to": "0xd5b8b8923ca2795fbddaae980d04ce133e3e4f9f",
    "txhash": "ce7c2b5a60a1236b04c76913d433cd7456458265f454708461c2783a026e77db",
    "v": 38,
    "value": "36722087257774595822"
}