{
    "data": "",
    "gasprice": "21000000000",
    "hex": "f86c808504e3b2920083015f9094ed8ba5a32892b2b3b85d5d0f3f46ee2cb772451887f195a3c4ba00008026a044b514277c0e8e23dc5b1401f56608b3ac8196042864c1b3ebab696742f8f729a01c7f7f583938016cafdb167dd4ad9c6fa66acaf72c9b664ae341045c1e3983b2",
    "nonce": 0,
    "r": "31077212121816569646346989172527825695705446907385811867406081212162739074857",
    "s": "12890028237845502773254721581953917066677229052182497353497759882667871536050",
    "startgas": 90000,
    "to": "0xed8ba5a32892b2b3b85d5d0f3f46ee2cb7724518",
    "txhash": "ced053ba6c5355963622c79ba95dbe2b6f160e5d8aef0411cd565645eeeaf234",
    "v": 38,
    "value": "68000000000000000"
}