{
    "data": "a9059cbb0000000000000000000000004d692ebcce01523e73a7501c1fa05043a5f0998c0000000000000000000000000000000000000000000000000000000009dc874c",
    "gasprice": "45000000000",
    "hex": "f8ad83036333850a7a35820083015f9094618e75ac90b12c6049ba3b27f5d5f8651b0037f680b844a9059cbb0000000000000000000000004d692ebcce01523e73a7501c1fa05043a5f0998c0000000000000000000000000000000000000000000000000000000009dc874c25a07d08152e78b54e64ce1f626a999cdd13d2e7f7fbe31c44b5f4a16773583ff313a07ee1ff84d6ba8ccd13dfc59b1a4a65fd54bb38928c578826fa1389d5263bc52d",
    "nonce": 222003,
    "r": "56553387038969414967448537140156004023545152718678559800084527627559210316563",
    "s": "57390723037711665704451372661801873990019563661227436837993663716117347812653",
    "startgas": 90000,
    "to": "0x618e75ac90b12c6049ba3b27f5d5f8651b0037f6",
    "txhash": "cedc48807920121e6bbbeb61dccc063544cf6259f76c1c46d6ed908b4b641f8e",
    "v": 37,
    "value": "0"
}