{
    "data": "a9059cbb00000000000000000000000084af694c42093690f0081e45dccd99965a75f44200000000000000000000000000000000000000000000000000003acb5642f200",
    "gasprice": "1000000000",
    "hex": "f8a802843b9aca0082ea6094f3db7560e820834658b590c96234c333cd3d5e5e80b844a9059cbb00000000000000000000000084af694c42093690f0081e45dccd99965a75f44200000000000000000000000000000000000000000000000000003acb5642f20026a0283b60a8314ceb50f8796763e7705b03ab2fa8feba8dfdb3ec7b1d7340e2e9bfa024102a6f297d3db322b525682e12366d3e3deb15fb2fb6d02799c55a8081ca77",
    "nonce": 2,
    "r": "18197425022264857202858975443989535238625686808213789992345545496665581087167",
    "s": "16311824972304014511613162696337948458138569964424097979542469130200260135543",
    "startgas": 60000,
    "to": "0xf3db7560e820834658b590c96234c333cd3d5e5e",
    "txhash": "cfafd2dd56e2411b35b6a477500bca108b6b862047d5bfc166085f73bdf7d7ea",
    "v": 38,
    "value": "0"
}