{
    "data": "a9059cbb000000000000000000000000156f04ccedb287e89aee9e78e02da807df3cf1a80000000000000000000000000000000000000000000000033356707200acc000",
    "gasprice": "100000000000",
    "hex": "f8ad831a3eb785174876e80083019ce094b5a5f22694352c15b00323844ad545abb2b1102880b844a9059cbb000000000000000000000000156f04ccedb287e89aee9e78e02da807df3cf1a80000000000000000000000000000000000000000000000033356707200acc00026a04b79795ed8f188e46a4d1f44c609f8e6a47945bc699302520dff1a15667b87f0a03a3ffd533ed8c7d94581791a8b6b8f7cb330d10e0ada6c354dd5e8fba65a8061",
    "nonce": 1719991,
    "r": "34138089806972928629603980468732173430668235864693855897917625083574544467952",
    "s": "26347204969030340598609923936378792412212015820831964119962282784717461422177",
    "startgas": 105696,
    "to": "0xb5a5f22694352c15b00323844ad545abb2b11028",
    "txhash": "cfd7289f2b23b19b84f2c17559b74add467b22e535dad580e9ad26efee111fb3",
    "v": 38,
    "value": "0"
}