{
    "data": "",
    "gasprice": "90000000000",
    "hex": "f8708345b0c48514f46b0400830249f094dd803dc6522b34634d3dc384c345238b6667f2948832a6badb83ab20008026a099a95efbff65f84fc6b8f415079dc62d616fa2b4abc47d911d0c538b0c72f0e9a04902fae6cd2722b2074d4277498acdf931781f3beb0f2c4c197b089d3dbac123",
    "nonce": 4567236,
    "r": "69503118545187098527577898395022034982933342197015111873172326893090833101033",
    "s": "33024103299687553420390599990984544945360227883833369391748744303317121417507",
    "startgas": 150000,
    "to": "0xdd803dc6522b34634d3dc384c345238b6667f294",
    "txhash": "cff4fd1dac56cf93d841c2155df7f8d8623786d1001e5acb238bf460afff3efa",
    "v": 38,
    "value": "3649810000000000000"
}