{
    "data": "",
    "gasprice": "22900000000",
    "hex": "f86d82b0c3850554f24500825208942ea47e30db89438bc5add0e578a7aabeb7d106f38702b7c37140d0008025a01c3625d66194878c8d0be80948cfff78d4ecbe9057caddd074d0f07872a342a5a07e11b49b5c117e9d16de03a9535bced07072800eaf89539458c08bdbcd990c02",
    "nonce": 45251,
    "r": "12760430646149303428707225692106013540928463732542894296079141483566919271077",
    "s": "57022701824422880866607795237207207872249148219791578238570045886404197157890",
    "startgas": 21000,
    "to": "0x2ea47e30db89438bc5add0e578a7aabeb7d106f3",
    "txhash": "d044c9db984be1b0f3aa0ef469563b2b54ec1f47f813d46d18bf10d151a8ec35",
    "v": 37,
    "value": "765000000000000"
}