{
    "data": "00",
    "gasprice": "36250000000",
    "hex": "f87083033156850870ab1a8083015f909451158e01aeaeef14963fff513e5ca8321c951cd18859ba11fe8b49c0000025a0337ab44e78ad954c0d361eaed1876d5e55b7e28e1ca4c41974f99255eeea6566a00ce78aebb8db1c594c126734d13c96fd5f61e16d1f717a7247c137c78e309464",
    "nonce": 209238,
    "r": "23284755049576694017963610473665312450135676307736671656632573158985306891622",
    "s": "5836854651013925915137078721622787877827754418350806762922296948641980519524",
    "startgas": 90000,
    "to": "0x51158e01aeaeef14963fff513e5ca8321c951cd1",
    "txhash": "d05781511eff7193a0d7231059bd9a94d197915b67aa40242224b607626327b1",
    "v": 37,
    "value": "6465500000000000000"
}