{
    "data": "a9059cbb0000000000000000000000006f010cacdcd0549ccd0a40219c7155baacf7ab3900000000000000000000000000000000000000000000000000000000309782ae",
    "gasprice": "3000000000",
    "hex": "f8ac8301f5c684b2d05e008303d09094b64ef51c888972c908cfacf59b47c1afbc0ab8ac80b844a9059cbb0000000000000000000000006f010cacdcd0549ccd0a40219c7155baacf7ab3900000000000000000000000000000000000000000000000000000000309782ae25a0873f045c45cc3ce6c56f6b696cbdf8442f55ccbe24fbf8743c16cabe74282067a0191a2ab680553152eefc98126c9fb3dab044ae16243690fc024da90fa7d511bd",
    "nonce": 128454,
    "r": "61173576018473047905687500105425628370322040159922650177035141712186268196967",
    "s": "11354054031837775892962627868142396988114528185305443024356734674839448916413",
    "startgas": 250000,
    "to": "0xb64ef51c888972c908cfacf59b47c1afbc0ab8ac",
    "txhash": "d0a5ef9e425a74eec63041eebd44d64bb3bd7e4a5ef068ce28018e9ddeb2cc05",
    "v": 37,
    "value": "0"
}