{
    "data": "a9059cbb0000000000000000000000006f06735526dd661c7f3dfc7c48b87bf3f842b280000000000000000000000000000000000000000000000000000000000566e365",
    "gasprice": "3000000000",
    "hex": "f8ac8301f5c984b2d05e008303d09094b64ef51c888972c908cfacf59b47c1afbc0ab8ac80b844a9059cbb0000000000000000000000006f06735526dd661c7f3dfc7c48b87bf3f842b280000000000000000000000000000000000000000000000000000000000566e36525a003fc35bc43b40f2634522d816d35a0edc9ccd0b9d2265b477ff328a566090d54a04e4df7f09c7c64b87fabf7d089fbe9ba1d295df3011f5f907d657d718dbca725",
    "nonce": 128457,
    "r": "1802554874230300931132201855726203982033517436865331262107821559256615292244",
    "s": "35418160631697461265399771433116348268046983888589762275645164395644195743525",
    "startgas": 250000,
    "to": "0xb64ef51c888972c908cfacf59b47c1afbc0ab8ac",
    "txhash": "d14d86f7f0447a8d6bd3e6716f9da6fdf9f3bf62648457423218b0472929a4cc",
    "v": 37,
    "value": "0"
}