{
    "data": "a9059cbb0000000000000000000000006ee319bb8262de6d1020a279c2b982829b952f9a00000000000000000000000000000000000000000000000000000000056a2347",
    "gasprice": "3000000000",
    "hex": "f8ac8301f5ad84b2d05e008303d09094b64ef51c888972c908cfacf59b47c1afbc0ab8ac80b844a9059cbb0000000000000000000000006ee319bb8262de6d1020a279c2b982829b952f9a00000000000000000000000000000000000000000000000000000000056a234726a0e1873b00869b4953dea8dd89c9f6cd72193f30298a2fd951460c5fe01ce4b5f8a036451a57e89deb8181fd3dcd3ff1b75682e9a73c5051c6bd2b0446737dd41c18",
    "nonce": 128429,
    "r": "102009322502190208129874272802657511613338281974195153466245678368430150170104",
    "s": "24546988086383886252018863501041832125277176387856072373817085104953610214424",
    "startgas": 250000,
    "to": "0xb64ef51c888972c908cfacf59b47c1afbc0ab8ac",
    "txhash": "d165a15d0d5fa85e0b19b16a776ab901ef1dc28982ecfb60ec267abd39f30507",
    "v": 38,
    "value": "0"
}