{
    "data": "a9059cbb00000000000000000000000054aa8f75cc01d9333e893e02daf8e294dd52ca13000000000000000000000000000000000000000000000000000000746a528800",
    "gasprice": "22000000000",
    "hex": "f8ac820a5b85051f4d5c00830249f0949af2c6b1a28d3d6bc084bd267f70e90d49741d5b80b844a9059cbb00000000000000000000000054aa8f75cc01d9333e893e02daf8e294dd52ca13000000000000000000000000000000000000000000000000000000746a52880025a026ffe8429c21d3955b71eb36b662a414d89bf895e75782e011743a9fb110bea5a03da971645bda821b93a6018fc051a11b592ef645041783f3150fd83ed1eaf54d",
    "nonce": 2651,
    "r": "17640037248634179119321513316745089384297242337190478002632567898054899842725",
    "s": "27890463520531958306504850623915256306015758015644135413093535188339561002317",
    "startgas": 150000,
    "to": "0x9af2c6b1a28d3d6bc084bd267f70e90d49741d5b",
    "txhash": "d1c11698ccec2ee6dbf2dd317a689c0e613b670337d20da5e47f6abe062bdd76",
    "v": 37,
    "value": "0"
}