{
    "data": "a9059cbb0000000000000000000000006ed5fc3cd75afe28cd480c29a44b074f595e0404000000000000000000000000000000000000000000000000000000000568ade8",
    "gasprice": "3000000000",
    "hex": "f8ac8301f5a084b2d05e008303d09094b64ef51c888972c908cfacf59b47c1afbc0ab8ac80b844a9059cbb0000000000000000000000006ed5fc3cd75afe28cd480c29a44b074f595e0404000000000000000000000000000000000000000000000000000000000568ade825a064c97ae13567e366e0445341e5a28f8c445814ca13e70c8bf4fe78c8f4b06ce9a06f647f87c45c1e2020a5279d606fb1888dca454b3b54432fd1715d47f5ffbff4",
    "nonce": 128416,
    "r": "45587269203013691266738663682578171105284199991884713562703690020595002535145",
    "s": "50384291081278354190999324057897331455100784957111103194813327328687666741236",
    "startgas": 250000,
    "to": "0xb64ef51c888972c908cfacf59b47c1afbc0ab8ac",
    "txhash": "d1cedd6c2d7f97dee596467cc141d380f75bfb0e379fcbef87bef68947244eb3",
    "v": 37,
    "value": "0"
}