{
    "data": "",
    "gasprice": "22900000000",
    "hex": "f86c03850554f2450082520894f726dc178d1a4d9292a8d63f01e0fa0a1235e65c882e1a284b104864008026a01588679bb43ac99a975a973038d711d35a997b1aea24beb8a35b3e17fbc95f31a0798a924f9a24734c79467b4b3c58ea9b4ef481b1fe31d1fd9a7c96e1cb4f3a90",
    "nonce": 3,
    "r": "9739576098704303542435610257600062540306604335471136219245734646756661616433",
    "s": "54974689374550155893750409135121797902588503357051357634263745900658813778576",
    "startgas": 21000,
    "to": "0xf726dc178d1a4d9292a8d63f01e0fa0a1235e65c",
    "txhash": "d372af84a50d80a3e2799445793e992567e8fe4b0b023e4f6b9078232ddba632",
    "v": 38,
    "value": "3322011978000000000"
}