{
    "data": "",
    "gasprice": "22000000000",
    "hex": "f86c0585051f4d5c0082a410943f5ce5fbfe3e9af3971dd833d26ba9b5c936f0be881bbe716d912b80008025a01391d237d793d52e4a95b2a1c40ba604017f538ba08d93c359b25d171e075c0ca03b1e6a8a9d1f3903910fc35807ed910b5dde28d74b90d5e110161ac970c66049",
    "nonce": 5,
    "r": "8851587819707777388163556560692884915455208728012815992675324430772790057996",
    "s": "26740198800488342380602829207615956145934209211946552371800537058702975721545",
    "startgas": 42000,
    "to": "0x3f5ce5fbfe3e9af3971dd833d26ba9b5c936f0be",
    "txhash": "d3ee0a5ae8f694de034c30a66604ebdbc7d3064e1bf3457d8edda60283a894dd",
    "v": 37,
    "value": "1999160000000000000"
}