{
    "data": "",
    "gasprice": "22000000000",
    "hex": "f86d0985051f4d5c0082a410943f5ce5fbfe3e9af3971dd833d26ba9b5c936f0be89082185f53b547e70008025a040de2d291f3028f6235d3912640f8bd108d8baf25e52421ba342b47d0a7b188ea0768b493d62f89943c84532d75479b67270a2f6cae2689b64c1144bf3ddf32bba",
    "nonce": 9,
    "r": "29340574044937762024575955453900481890414176321952843407642159817194016020622",
    "s": "53619013357292563810279560074057466492834466600004843430890672158074786229178",
    "startgas": 42000,
    "to": "0x3f5ce5fbfe3e9af3971dd833d26ba9b5c936f0be",
    "txhash": "d4157096a83491d5986b31afa621bf7e93f4afba3167c3ab28126db4fdbb62bc",
    "v": 37,
    "value": "149989559000000000000"
}