{
    "data": "ac307773",
    "gasprice": "1000000000",
    "hex": "f86a820264843b9aca008301b1b0946bf4945297b1be766133635577423346cde0878e8084ac30777326a0c4dec5ee18fabf9a2ce7509c3a0076ea1f8a69ffcb2dedd5d0c0e7fb6e1105b0a04b85a466fbd66fbea5bcb4122787463d384ca37ec8b8bbf9134541593d941b54",
    "nonce": 612,
    "r": "89046924433829284893076524220192007839963865995025563772890945783648561989040",
    "s": "34159588966197537215120932216701707880600089675797053239037102186642915203924",
    "startgas": 111024,
    "to": "0x6bf4945297b1be766133635577423346cde0878e",
    "txhash": "d4508c2afd62ff66a9cdee62743e1ebb910c30036d6d81c793a20684f3730f04",
    "v": 38,
    "value": "0"
}