{
    "data": "",
    "gasprice": "1000000000",
    "hex": "f86e83599d3b843b9aca0082c35094535d63252076fe357b6c3b4cb9bb38a414cafd5c8802d99d1885fdecb68025a05ab6e91c75c47429395de9d16b6d394245f9261ab58cbc4f5f3add63a3a98bbda0331e6c7cde28c44666bc55eb029e9c1f28713bd947b509402a6abf8eb23912d8",
    "nonce": 5872955,
    "r": "41031331412463304295274587289810040787155470385332693569337023648298277899197",
    "s": "23121709444724876642261184024627612941515640623372430232879819067966713565912",
    "startgas": 50000,
    "to": "0x535d63252076fe357b6c3b4cb9bb38a414cafd5c",
    "txhash": "d4d5049829e016392622bb3d47c57f93771b835e1f36a60cc2fe0b7b1a9ba28d",
    "v": 37,
    "value": "205367986674855094"
}