{
    "data": "",
    "gasprice": "21000000000",
    "hex": "f86d808504e3b2920083015f9094bd435831a37c800c112a84f03f7ab2bbe42ec4fa88032a56a582d1a0008025a0488a91d0cb481d5ccc7c2ea87dc996771f2522f47eedcba5f5f1f4f9693a09aba0153c3af021921335d9955162d46b11a9eb7f814f175e53af6c6145094e37b80b",
    "nonce": 0,
    "r": "32811356375231849873903583436585582718708748217079336475295382044111091141035",
    "s": "9604987419346008595716997560589890693652416842012052676183129662136505579531",
    "startgas": 90000,
    "to": "0xbd435831a37c800c112a84f03f7ab2bbe42ec4fa",
    "txhash": "d59d2cffdfb629bf6e3d00a3a7bff57cd413e634dbfaed8e8898077a85fa6122",
    "v": 37,
    "value": "228090000000000000"
}