{
    "data": "47cf8971000000000000000000000000000000000000000000000000000000000000007300000000000000000000000000000000000000000000000000000000000058720000000000000000000000000000000000000000000000000000000000000ac90000000000000000000000000000000000000000000000000000000000000615000000000000000000000000000000000000000000000000000000000000015f000000000000000000000000000000000000000000000000000000000000013700000000000000000000000000000000000000000000000000000000000055c8",
    "gasprice": "1000000000",
    "hex": "f9014b820129843b9aca00830dbba0940fa8051dbdbbcc32d602803d5f1de1e6f92a0bbd80b8e447cf8971000000000000000000000000000000000000000000000000000000000000007300000000000000000000000000000000000000000000000000000000000058720000000000000000000000000000000000000000000000000000000000000ac90000000000000000000000000000000000000000000000000000000000000615000000000000000000000000000000000000000000000000000000000000015f000000000000000000000000000000000000000000000000000000000000013700000000000000000000000000000000000000000000000000000000000055c826a04e8b554bbb616804ac96cfc5990c3840a37dde0f54149c3cd81a6d45e7e89fb7a07e887f260c3f9af5da419f2ae8ccd5256f2903c7c558023508fa26f34fe8c068",
    "nonce": 297,
    "r": "35526582621667920127583395048123476207109553387065708651600391307768187363255",
    "s": "57232587669855354165688355106533633227340277628813808236487206136571864072296",
    "startgas": 900000,
    "to": "0x0fa8051dbdbbcc32d602803d5f1de1e6f92a0bbd",
    "txhash": "d6c91aa809fd13a8c87d3da4dbd23737395abaf86c89b2814dfaab4ad2fe52c7",
    "v": 38,
    "value": "0"
}