{
    "data": "",
    "gasprice": "1000000000",
    "hex": "f86d8349a36f843b9aca0082c35094ed53f0a7f26f201709c8c353916a13a949b432eb87b4cb09ca8b97e88025a087d7b00f97744a8259e25b110500f611db34b0940184cc80482cb4c8021e2fb7a00fd9aaec7281b89400a1de044f8769893476175c0cbaff4424954d9276539d2e",
    "nonce": 4825967,
    "r": "61443321805374545613502261179252978039369663782579503964833451948123333996471",
    "s": "7169278213291238446330125883028826141280402055032286357476744343504041516334",
    "startgas": 50000,
    "to": "0xed53f0a7f26f201709c8c353916a13a949b432eb",
    "txhash": "d7712e56e0f3a065549bdc16caa314e70a1170ace93be033722b89f0fbee14a9",
    "v": 37,
    "value": "50888738721208296"
}