{
    "data": "",
    "gasprice": "100000000000",
    "hex": "f86f83199f9e85174876e8008252089471552a2cc04a39a5f0d417f19ac993ef95441e1a882a303fe4b53000008025a0451f715b692ed4db8575ec6f152300f19e02d66d4425a468dc4c18041f27da4ba065c96f470ef7c763a0506d8d25b0142003a9bdb089dff566b49259aacd893349",
    "nonce": 1679262,
    "r": "31265141173022900732823457491179896033527681152379174505564376257364165646923",
    "s": "46039501976507369992036970135686745109606127042530126472084148570492334846793",
    "startgas": 21000,
    "to": "0x71552a2cc04a39a5f0d417f19ac993ef95441e1a",
    "txhash": "d901c1abf1d811489ef840d23cf4a3e6dcf3864ab4b89c182e391169d811a8d8",
    "v": 37,
    "value": "3040000000000000000"
}