{
    "data": "a9059cbb000000000000000000000000fca3298f672293cea337439458fc06492ab79fb10000000000000000000000000000000000000000000004e370bb466d94940000",
    "gasprice": "29000000000",
    "hex": "f8a9278506c088e20082ea6094b96eb33e4a1a9ea3b8581abc8185f9597e45e8aa80b844a9059cbb000000000000000000000000fca3298f672293cea337439458fc06492ab79fb10000000000000000000000000000000000000000000004e370bb466d9494000026a04a7bcb92ba96b690811f423928cad1b6585ecdb386e79a5f487a99cc5cd0bca7a001c89021897726084385e8e0db64624cb031fdb78bdeda54b6387781d0c6ae87",
    "nonce": 39,
    "r": "33689877994440151941650944491322977989270186941090738327597795087587197631655",
    "s": "806677017167919946137284890413032730453634817801029329200515788277069295239",
    "startgas": 60000,
    "to": "0xb96eb33e4a1a9ea3b8581abc8185f9597e45e8aa",
    "txhash": "da365b5e1e6c8b44395948faaf7ef88b3450a0d15be7f9976d42cd3b1de38f74",
    "v": 38,
    "value": "0"
}