{
    "data": "",
    "gasprice": "100000000000",
    "hex": "f86e8302ccfa85174876e8008252089441de1cbf22e6bb458ea4bcc5e6b396088e48c9478802fb08b97da270008025a074da8f6fb8aaff7a1d3260f82728a57290b357b94a8b6186ed95da485002325b9f6a29e796aa82e41365cf0d97ee155c8008047ca087e14acbc4646160917780",
    "nonce": 183546,
    "r": "52854453057510066085921656444321644946312426055289659223564760648945164759643",
    "s": "187575004081395291419215516814512680151513626673834380929246614039536170880",
    "startgas": 21000,
    "to": "0x41de1cbf22e6bb458ea4bcc5e6b396088e48c947",
    "txhash": "dabc636313766cb6dff6924462b5a9507f7237ae46d7fac34db77078f2911714",
    "v": 37,
    "value": "214775000000000000"
}