{
    "data": "",
    "gasprice": "22000000000",
    "hex": "f86e82242585051f4d5c0082c35094833dbb7007549f9867ce721e9997bd8147c35a0d8801cdda4faccd00008025a0e0f77c02b09a9bf8d472fd45b73b950f0750b173ab73211045308413edb3e21ca039306d41b848756c16e17b22b65dbef742a742fdd4d3b3e9f099999b461110bc",
    "nonce": 9253,
    "r": "101755345196717393185692868340965948520762397073659257263797690661759383495196",
    "s": "25867395090511149560629397456844721676676790036277841176007776780838906171580",
    "startgas": 50000,
    "to": "0x833dbb7007549f9867ce721e9997bd8147c35a0d",
    "txhash": "dae6c0589f2835aeb1dfe196335a62a0f7b23f1ba23f481e09a8fe24e7959db2",
    "v": 37,
    "value": "130000000000000000"
}