{
    "data": "",
    "gasprice": "20000000000",
    "hex": "f870832e77788504a817c80083015f9094f82e75acd7b31a5d597b6105b4e64cc65a480c108803972fdd0a0d14008025a0d9750168d321d554fbc27961a5bb4b52a5234c133e8c6261133e5c5e71317c74a015c1a43e597a2ba9a2d33ef25f6b13cc95afdfd7ee48dc4aa8f27e5d78a03062",
    "nonce": 3045240,
    "r": "98358618976963489183719482944238264740613040714654529957890404176352852933748",
    "s": "9840704871091441357908634946336669266636183808119186278460426748457826398306",
    "startgas": 90000,
    "to": "0xf82e75acd7b31a5d597b6105b4e64cc65a480c10",
    "txhash": "db30fff36f175cefc9a64a112aa3c95a1eaeadd76d9cc6d814f61f30e5edda34",
    "v": 37,
    "value": "258728130000000000"
}