{
    "data": "f7d8c883000000000000000000000000000000000000000000000000000000000000028400000000000000000000000000000000000000000000000000000000000000e2",
    "gasprice": "1000000000",
    "hex": "f8b061843b9aca0083030d4094f7a6e15dfd5cdd9ef12711bd757a9b6021abf643872386f26fc10000b844f7d8c883000000000000000000000000000000000000000000000000000000000000028400000000000000000000000000000000000000000000000000000000000000e225a03ca7eedab45ddb3246ae113d9774ae949b36ba58a74aef46a6e1f6356b221d72a04b5eb82b3c3a338e777f7cc8113bf52cfa7b6da7c39a2e7554b22d6952e6342e",
    "nonce": 97,
    "r": "27435482886707705794778603482897633900547202756400101834691919487374792465778",
    "s": "34090818354782343570507915847464195600195434390727236894408266753677078180910",
    "startgas": 200000,
    "to": "0xf7a6e15dfd5cdd9ef12711bd757a9b6021abf643",
    "txhash": "dc3e328b102af600964a9a1d2197d16211435a9d245ef462798e0de34fff063f",
    "v": 37,
    "value": "10000000000000000"
}