{
    "data": "",
    "gasprice": "100000000000",
    "hex": "f86f8303282c85174876e800825208942ea561e1e26faa60805c1dc5e3844fa092d3db1b8811993bbea041d8008025a0d6dc297bd71fc8dcaa2f18fd5c5c6c154b02c0caf8049fa01032ad88f5f8e1e8a04bd0fe82ba18635042454b870a3ea0d3e3735d6245bb15e05c8816cb673b591a",
    "nonce": 206892,
    "r": "97183942261399128278846842296460425989367825460565208178809565157928860180968",
    "s": "34292724401182153469692856498523972094679275630663145885603174039053997398298",
    "startgas": 21000,
    "to": "0x2ea561e1e26faa60805c1dc5e3844fa092d3db1b",
    "txhash": "dc4029d58c1bd56cc4804128f1360d691de14f78092652325141e6b857844ecf",
    "v": 37,
    "value": "1268110460000000000"
}