{
    "data": "a9059cbb0000000000000000000000001b3b05e4d654ecbc05630cbfd5fbcfbeae19db890000000000000000000000000000000000000000000000000000002f022d8300",
    "gasprice": "22000000000",
    "hex": "f8ac820a9e85051f4d5c00830249f0949af2c6b1a28d3d6bc084bd267f70e90d49741d5b80b844a9059cbb0000000000000000000000001b3b05e4d654ecbc05630cbfd5fbcfbeae19db890000000000000000000000000000000000000000000000000000002f022d830025a0172e76d54efda27e04cea23c6c142b822d68880c5f02c0d19592dcf99b82e160a00c4095e13c3552414feb2d4bd068307597084294f9e817d8d35ad2d4b6dede09",
    "nonce": 2718,
    "r": "10485290639251192029754367688831850339721087720166679501663634982155367670112",
    "s": "5541866827679357774860281599514375105378250813627024396821204278625894850057",
    "startgas": 150000,
    "to": "0x9af2c6b1a28d3d6bc084bd267f70e90d49741d5b",
    "txhash": "dc48e6f3a05407c5ccc8eb21646fec6fe00c85e61170da85bdd5b5c0847f146e",
    "v": 37,
    "value": "0"
}