{
    "data": "0a19b14a00000000000000000000000000000000000000000000000000000000000000000000000000000000000000000000000000000000000000001f83f41e63bc1434000000000000000000000000340d2bde5eb28c1eed91b2f790723e3b160613b70000000000000000000000000000000000000000000003ecf707441c1995209d00000000000000000000000000000000000000000000000000000000004bdf0000000000000000000000000000000000000000000000000000a0892a71f03e78000000000000000000000000ff808624d9b94dfecdae3887d4486f6fdc107ce8000000000000000000000000000000000000000000000000000000000000001c542379fb4f167dbb1626d5327f6662792f773b56141fab50ed02a0a44c62d68b64d9f40e0ec8767de570b162af436ace7804ec0ee730107eb6036bacca89428100000000000000000000000000000000000000000000000005195fc81e82ac0c",
    "gasprice": "4000000000",
    "hex": "f901ca0c84ee6b28008303d090948d12a197cb00d4747a1fe03395095ce2a5cc681980b901640a19b14a00000000000000000000000000000000000000000000000000000000000000000000000000000000000000000000000000000000000000001f83f41e63bc1434000000000000000000000000340d2bde5eb28c1eed91b2f790723e3b160613b70000000000000000000000000000000000000000000003ecf707441c1995209d00000000000000000000000000000000000000000000000000000000004bdf0000000000000000000000000000000000000000000000000000a0892a71f03e78000000000000000000000000ff808624d9b94dfecdae3887d4486f6fdc107ce8000000000000000000000000000000000000000000000000000000000000001c542379fb4f167dbb1626d5327f6662792f773b56141fab50ed02a0a44c62d68b64d9f40e0ec8767de570b162af436ace7804ec0ee730107eb6036bacca89428100000000000000000000000000000000000000000000000005195fc81e82ac0c25a00e7afb6060db9f9e65d10a2edf471e293cc7d49fabcd8212275da3c2b05d484ba056bcaa6215aa563ddcea58b63cdff2275e8c74a20b5cdcc1221b152aaf6bcaec",
    "nonce": 12,
    "r": "6549670158756944675530239100855417860190710460541620623506861851510178662475",
    "s": "39232248167574604084391796043741726119801769763598219448650750421533507439340",
    "startgas": 250000,
    "to": "0x8d12a197cb00d4747a1fe03395095ce2a5cc6819",
    "txhash": "dc92ba94828f86433f0b7398d79c770a2ee13bb606dfcd96d9c0e0c95374f840",
    "v": 37,
    "value": "0"
}