{
    "data": "a9b1d507",
    "gasprice": "2200000000",
    "hex": "f86b830c8d34848321560083036ee894a3c1e324ca1ce40db73ed6026c4a177f099b57708084a9b1d50726a0b7732eb4ce75117044287acc10d2db159c4de506812d42316b3cf89ee281fd56a065bf81603d3b9c9c58b96b02ac6f5da3662887c2eab6eb238d0edb9fbfdbae48",
    "nonce": 822580,
    "r": "82976761058052106837947590400044908007973456741267115312638447579623598456150",
    "s": "46021958416164765309586913912481166208133565190942262657723576291288762003016",
    "startgas": 225000,
    "to": "0xa3c1e324ca1ce40db73ed6026c4a177f099b5770",
    "txhash": "dd80f7d161f48eb6ec312a6cdf48fa449167cfc00dfa4e88fed2819491b1c56e",
    "v": 38,
    "value": "0"
}