{
    "data": "ac307773",
    "gasprice": "1000000000",
    "hex": "f86866843b9aca008301b1b0943c29c80c441e986d416d35eec4cf07e60d70845e8084ac30777326a0e9fc2b40a0a92c12be096e0896129de45f53b6e75c482c84e680a0c78eb50434a03381e7860f6b0d3d7699a1937b622b50473d7ad9c8c75358c2d89f9612e72d43",
    "nonce": 102,
    "r": "105834437697674280091360765948581095364286427040349795293281200274916674700340",
    "s": "23297476466765682301918955271398061020986606146582753556330270697487625301315",
    "startgas": 111024,
    "to": "0x3c29c80c441e986d416d35eec4cf07e60d70845e",
    "txhash": "dd8e52dd084a14b254dfd02053ad10d1fe3da63d2ffee4b51fb74e8a96ebc791",
    "v": 38,
    "value": "0"
}