{
    "data": "a9059cbb000000000000000000000000f429ce314edd128853099f28b3d5076b578b32450000000000000000000000000000000000000000000001d34a87e9485b300000",
    "gasprice": "20000000000",
    "hex": "f8a90a8504a817c80082d3d7949720b467a710382a232a32f540bdced7d662a10b80b844a9059cbb000000000000000000000000f429ce314edd128853099f28b3d5076b578b32450000000000000000000000000000000000000000000001d34a87e9485b30000026a0844b3b1421c7e6b8c3581ddec32c721ffa722f2112b75aa1b3d5cce2918038d6a066f3c7eaa44fcad5a7a354d09ae01ad35b19cefb9c900e190fb9c78398826483",
    "nonce": 10,
    "r": "59838217288640476308589633030869836321547909760689561762514579531592070346966",
    "s": "46566634165688890932879771608291478613448850635623891498872844307959476544643",
    "startgas": 54231,
    "to": "0x9720b467a710382a232a32f540bdced7d662a10b",
    "txhash": "de992543595a76f76ab1898eb2bd393557116a23766a5ad4325e90bf696756d2",
    "v": 38,
    "value": "0"
}