{
    "data": "",
    "gasprice": "100000000000",
    "hex": "f86f8303a8a585174876e8008252089479872a29a52860ffc8c38b8a347ba78e30bfa3f188334740a370f914008026a0de2212c1bc6b4899d173fbf14f63f92fde6fc6b689f475e306e973b58ac16746a03de9c6600a434af16cd5e83c0aabf89f3f6b1ae3a9dc4e899813e0ad6e500039",
    "nonce": 239781,
    "r": "100473654640234397021974069559164316222285597687294986097014027090818655938374",
    "s": "28004128264684963364543150451384725645222250690385234193364203555594185998393",
    "startgas": 21000,
    "to": "0x79872a29a52860ffc8c38b8a347ba78e30bfa3f1",
    "txhash": "deae3fae45647bdb03d690d3d922238b98cbb309bf678f5113f50419ae8469d6",
    "v": 38,
    "value": "3694993090000000000"
}