{
    "data": "",
    "gasprice": "22900000000",
    "hex": "f86d82b0c2850554f24500825208942dfca174dee2d715d28f7d291db833e93b4061408702b7c37140d0008025a0f8e11c7b8fb39d73924b7a11262b612da7fca47b3ee0f435733e1a370af6fd09a044a5a72169c892933ff927b4691979887f5db33848c9b6b0c197bbd80b0019d6",
    "nonce": 45250,
    "r": "112571323618329898038325965308163926845188839333312964030695915073513973021961",
    "s": "31049956961809003254212503450957443322255976760193246399986227795434896628182",
    "startgas": 21000,
    "to": "0x2dfca174dee2d715d28f7d291db833e93b406140",
    "txhash": "dec8d4c03e163eecb4f78e8c55768425d9947715aebc66177bcdeb24d466e073",
    "v": 37,
    "value": "765000000000000"
}