{
    "data": "a9059cbb000000000000000000000000e6844027cf9c87f4cd5fedfa63af5114482808bd00000000000000000000000000000000000000000000010f0cf064dd59200000",
    "gasprice": "10000000000",
    "hex": "f8a9048502540be40082cefb94da6cb58a0d0c01610a29c5a65c303e13e885887c80b844a9059cbb000000000000000000000000e6844027cf9c87f4cd5fedfa63af5114482808bd00000000000000000000000000000000000000000000010f0cf064dd5920000026a0e3ec183edbd47a3e36f9cf9fcc6cac7aee70010b73d1be34de0f69379c49a19da0046c00afcddcf8658303488786dd57afb4cb43366f4b88cc93be9762d5330826",
    "nonce": 4,
    "r": "103092159872268985253318566565312961278598455592246767760549193409792211263901",
    "s": "2000075616999719512991823079643091113251201237006666777498978073647829420070",
    "startgas": 52987,
    "to": "0xda6cb58a0d0c01610a29c5a65c303e13e885887c",
    "txhash": "df2c9d5f1dc6712a246a503c1bc1b652421f36acb7419fdba6705d054c5b5a1c",
    "v": 38,
    "value": "0"
}