{
    "data": "",
    "gasprice": "4000000000",
    "hex": "f86d8204d384ee6b280082c35094dcb50e1e55a2c6e6b6991d4655c03505cc139644880177959f5f6fd8008025a09239c87f1c2afd3a4650c2e71da1e2486848bff267609254866aa688d29535e8a051ec0570f087c038f478081067135493d480106ab5fd04ee499a7f3050699e22",
    "nonce": 1235,
    "r": "66139769951998274335873018692412059085399231032002867076610308528141608760808",
    "s": "37054354196108831502591379106500332782519954136363171480449624863284788829730",
    "startgas": 50000,
    "to": "0xdcb50e1e55a2c6e6b6991d4655c03505cc139644",
    "txhash": "df45c980e9031ba5b1121adebae9219f8f0d77531a113b1e67ee6de44370b5f8",
    "v": 37,
    "value": "105717628000000000"
}