{
    "data": "",
    "gasprice": "21000000000",
    "hex": "f86c808504e3b2920082520894b6c3e6a645f105efae04d3332d3af259868e8e838804ee8a3e1db738008026a0f415020ef42d3c2a673a8b0a640340150912117728913b37eb0db812344d99b3a04af058e1200c6d23bb12f3d307dab0ef0a8f1a2bc16bc837ed02b31c748edb3f",
    "nonce": 0,
    "r": "110401453049324099531098781845637440394260958753391101384954887583292812270003",
    "s": "33895807513750147884831447815049880424592959575403483992143180105706411842367",
    "startgas": 21000,
    "to": "0xb6c3e6a645f105efae04d3332d3af259868e8e83",
    "txhash": "df7274265dac613c1f73965bce3bfd55bcbaa56c2dbe3044c1cecf0e85eb5126",
    "v": 38,
    "value": "355373420000000000"
}