{
    "data": "",
    "gasprice": "100000000000",
    "hex": "f86f83036da685174876e800825208945fb128a5502cec74ebfa428b4d13908b8f3dba688827646ab72609f0008026a02305cd2747f3ccfeccf1b27d843f796fe691d96cb1e6a3952b1db1078175b562a02d68fd99d64fccbaccd18f53503e6c921831f9f17e4e55d259f5789af42fbddd",
    "nonce": 224678,
    "r": "15841199852754694124260546796591709149233435943741717422049687389038504686946",
    "s": "20539580570251175653764780407351509009567692157945089882637652878768068345309",
    "startgas": 21000,
    "to": "0x5fb128a5502cec74ebfa428b4d13908b8f3dba68",
    "txhash": "df72a67cfb9bb24d734e4e8551d507b947dde07725d3d538647cf7085d0c85c1",
    "v": 38,
    "value": "2838511000000000000"
}