{
    "data": "",
    "gasprice": "22000000000",
    "hex": "f86d4f85051f4d5c0082a410943f5ce5fbfe3e9af3971dd833d26ba9b5c936f0be8902707660066afe24008025a04f0ffa3b94a07ae2a53f8545092ad4635c107ea8c2594517bd1e02604aacedbda03933395c66331b8ee6a562ffbf99edf1867805aca6d69aad03e265ad8035cbc4",
    "nonce": 79,
    "r": "35760944786925508267628540650218725734814344200629053245200669211692456799677",
    "s": "25872337460169620395712714522280811735713718093481397895913419991487517936580",
    "startgas": 42000,
    "to": "0x3f5ce5fbfe3e9af3971dd833d26ba9b5c936f0be",
    "txhash": "dfa57cfde3adfe0fe47cd1b26e6365dc3edce1b8cc0de968735182ad6215d98f",
    "v": 37,
    "value": "44997258307600000000"
}