{
    "data": "",
    "gasprice": "25652000000",
    "hex": "f86d821b608505f8fa750082520894f81b4857ec80476b66a506e61b86788571b5bc2f870805124e9ac0008025a0e495e542d3bb196dcd5a4fbfa7560655704d989b1d7e06fa07761d0ab8cc4579a011652a78a2d98d5fa33de12edf888c8a5c5fd4c77b7ca20935d89f056603c77e",
    "nonce": 7008,
    "r": "103392171991204472628086132764694092495681851101458984935047894583876340434297",
    "s": "7868063105148397732522791703636718779511014219162269924409342789456052340606",
    "startgas": 21000,
    "to": "0xf81b4857ec80476b66a506e61b86788571b5bc2f",
    "txhash": "e151d43854a2e206aa75cd5f0bdf62be4a18dc7aba5a51a47b162d0876235108",
    "v": 37,
    "value": "2257376000000000"
}