{
    "data": "3d7d3f5a00000000000000000000000000000000000000000000000000000000000745aa000000000000000000000000000000000000000000000000001ff973cafa80000000000000000000000000000000000000000000000000000011c37937e08000000000000000000000000000000000000000000000000000000000000003f480",
    "gasprice": "1000000000",
    "hex": "f8eb820109843b9aca00830398539406012c8cf97bead5deae237070f9587f8e7a266d80b8843d7d3f5a00000000000000000000000000000000000000000000000000000000000745aa000000000000000000000000000000000000000000000000001ff973cafa80000000000000000000000000000000000000000000000000000011c37937e08000000000000000000000000000000000000000000000000000000000000003f48025a0c565f6af54d424bba31cbac83a662a7263c8b65874ce3eaad7a84dc0708c790aa03d6bb505dec88fc72da5e746ac3ad5aa75b979240a324ea39687a4fafed1b2b1",
    "nonce": 265,
    "r": "89285785280971575826170391186800655677952217423105637228966066060642900277514",
    "s": "27781385773860874262525528575269298248897189037991563257393259899114491065009",
    "startgas": 235603,
    "to": "0x06012c8cf97bead5deae237070f9587f8e7a266d",
    "txhash": "e16428809e12f4fc8bdf976398f5fd0c5eaf4d929c2d96fe78aad191eeacb8bb",
    "v": 37,
    "value": "0"
}