{
    "data": "",
    "gasprice": "21000000000",
    "hex": "f86d808504e3b2920083015f909469c86c0c6a1ef1be9ddc74f2cf6dc811c63931dd8806f05b59d3b200008025a01c9e484d4b3a1c5a9e5281a88e4aaef7c39c82167d90c2551ff73214c3eeb817a02a355ff2945859029cd5e08cc44b428ac1641200b4a216fdf22e35d134a13dfa",
    "nonce": 0,
    "r": "12944420606141633144028590186639542930986117186047641425687694202937403160599",
    "s": "19091444740763044536255433022848760730292793053423171359106430618074959920634",
    "startgas": 90000,
    "to": "0x69c86c0c6a1ef1be9ddc74f2cf6dc811c63931dd",
    "txhash": "e1a8d7a717de9ce2925758664b5b0aef65fdeb6b63b4a48b76f0f178af810abd",
    "v": 37,
    "value": "500000000000000000"
}