{
    "data": "",
    "gasprice": "100000000000",
    "hex": "f87083034ebc85174876e800825208947edbc06be57dfaa3a0d3996a47abac326f1b2fcb890121ba00e38fd480008026a0905d7f0e1aea4048ca83ad919dd0b2112b5028763776c2fced4668c12876af8ba06942f351e76529bb4c14b174d8160ed23cc2251e59433b48a028255a6416d61c",
    "nonce": 216764,
    "r": "65298243875074530311057459840241953485750655025273614556609103489223991144331",
    "s": "47611140340005049716806110775864532912887107285683842510713173370245771351580",
    "startgas": 21000,
    "to": "0x7edbc06be57dfaa3a0d3996a47abac326f1b2fcb",
    "txhash": "e1a9e387e30cfa2eacf70cc55a499fa14fff13c16c3e80c5430d32933bd63916",
    "v": 38,
    "value": "20877000000000000000"
}