{
    "data": "d0e30db0",
    "gasprice": "9000000000",
    "hex": "f8715d850218711a00830186a0948d12a197cb00d4747a1fe03395095ce2a5cc6819880de0b6b3a764000084d0e30db026a0cbe1920fdca3d337087a94a027c2ce67fdc9a0dee1e68bbcb793a97e764b1acaa00d1b733a18d82f51fd0a1df12d40e31dcf7fe4878cbf5e103294d925644f7ed7",
    "nonce": 93,
    "r": "92218056934580142630682863478782855604918049045668084113558184058465024678602",
    "s": "5928567169454695322203175510300582906404908944642405585079330271687080902359",
    "startgas": 100000,
    "to": "0x8d12a197cb00d4747a1fe03395095ce2a5cc6819",
    "txhash": "e25f68ae07fabc3c3033e163532c8c4a372ee98a4bae71a0037d5603caedc80e",
    "v": 38,
    "value": "1000000000000000000"
}