{
    "data": "a9059cbb0000000000000000000000004f837294c93a45bb839a46d91567cb09678e32f00000000000000000000000000000000000000000000000000000000017bbd18e",
    "gasprice": "90000000000",
    "hex": "f8ad83447f618514f46b0400830249f094cb94be6f13a1182e4a4b6140cb7bf2025d28e41b80b844a9059cbb0000000000000000000000004f837294c93a45bb839a46d91567cb09678e32f00000000000000000000000000000000000000000000000000000000017bbd18e26a0648a4074f810b37725c0ee52a492d7cb44e7356c2ac28c472c28b0bf3cd8ffeca00921858a8ffb4e99697833c7c60e69d86cd9ee87960497adc534865bf299fdda",
    "nonce": 4489057,
    "r": "45475554618510382602213735549234235856587822782983869876342039505220669079532",
    "s": "4130043258286886813733893436711208712561862086011317467479753553544507686362",
    "startgas": 150000,
    "to": "0xcb94be6f13a1182e4a4b6140cb7bf2025d28e41b",
    "txhash": "e2d80bda6dc292b52c9920c9e5a95c00018907d4a6957eb3b67341bf200ec19f",
    "v": 38,
    "value": "0"
}