{
    "data": "",
    "gasprice": "1000000000",
    "hex": "f86a01843b9aca00827b0c944c642141b35f5096c9e6e7439bfa7750ac6ec7b78801675c4c6facf0008025a04407af487c1d71bb30cc7f2b52979cd4104cbb4cfe3133d243cacef866fbae709fbab282d293677680ae368467e387762582c8f81de7798ddbed0ae7d127678d",
    "nonce": 1,
    "r": "30770851392913248317157231424485173087479398330675919883127084599458154655344",
    "s": "329865591867794736590194162642528985025243074801676818623206246522361964429",
    "startgas": 31500,
    "to": "0x4c642141b35f5096c9e6e7439bfa7750ac6ec7b7",
    "txhash": "e32af78c84a84cb2957b67dcb9fd034dbdcdb0af9b63f7307ed17c1ab4c336e7",
    "v": 37,
    "value": "101151000000000000"
}