{
    "data": "454a2ab30000000000000000000000000000000000000000000000000000000000030ef4",
    "gasprice": "12000000000",
    "hex": "f89181a78502cb4178008302131b94b1690c08e213a35ed9bab7b318de14420fb57d8c871fcf732744e818a4454a2ab30000000000000000000000000000000000000000000000000000000000030ef426a0f2b50dce818a5f5c16282eb19929d3f37421ab2a214abe1fae6210db4b2588c8a05e581a3eb51d013ed87330fedca8f00005dfcd844d400b7c27799ca35056b5d4",
    "nonce": 167,
    "r": "109779603965969084029982368058468089437162085846016606972680211756019276417224",
    "s": "42673071444522704947569060932389358305814509901332157101825702596924564485588",
    "startgas": 135963,
    "to": "0xb1690c08e213a35ed9bab7b318de14420fb57d8c",
    "txhash": "e36b1e8232443e0430889d09d7b3828990acf9edbeac8437563b2901aa65602c",
    "v": 38,
    "value": "8953817765046296"
}