{
    "data": "",
    "gasprice": "18000000000",
    "hex": "f86c80850430e23400825208941599ae98557978e91335a711dd7b3743caa88bd48803bec118c9ee6da18026a03e51b601421ef778e560f2ee4c8a956e670b9e1d6e3bc35a3e86a349e01e738aa0267ab134f8e40b4dc59a640a605b4436b805e1844f4f4a73d695cc283806a6eb",
    "nonce": 0,
    "r": "28187767376167977966480471060165842747317055802244421833066956889533217403786",
    "s": "17404666625298954526089150819941255155619831450569285593333764625435904616171",
    "startgas": 21000,
    "to": "0x1599ae98557978e91335a711dd7b3743caa88bd4",
    "txhash": "e3912fbf166e5b05e238492d0463a3ac63413d1e378828254b26378b6cf7faa8",
    "v": 38,
    "value": "269865339900030369"
}