{
    "data": "a9059cbb000000000000000000000000261b1f6ab2022cf18f0f401e6f0bbf7382791e100000000000000000000000000000000000000000000000b6b994f15f39ac0000",
    "gasprice": "20000000000",
    "hex": "f8aa078504a817c800830186a0949b68bfae21df5a510931a262cecf63f41338f26480b844a9059cbb000000000000000000000000261b1f6ab2022cf18f0f401e6f0bbf7382791e100000000000000000000000000000000000000000000000b6b994f15f39ac000025a073dc6c8413f077a02bf7c3709992779426af86eb0a48193df201bfb46a4f3874a07b9ef7bc846ee4ed684654f9d62a6d406352f2153871cf3f6ffd9f44af3ef4be",
    "nonce": 7,
    "r": "52405432890745148706397591067970042515988286035017146494630542016071955593332",
    "s": "55915352025741222935248703678577738396656537903788945946397509034912149075134",
    "startgas": 100000,
    "to": "0x9b68bfae21df5a510931a262cecf63f41338f264",
    "txhash": "e44c1cff6f00362dc94c6bd51744cacbd9e0c77869c47999c652f7455293c082",
    "v": 37,
    "value": "0"
}