{
    "data": "a9059cbb0000000000000000000000006ee5a742bdbdc266d487a6d5083709e3d068a4170000000000000000000000000000000000000000000000000000000005ac18e4",
    "gasprice": "3000000000",
    "hex": "f8ac8301f5b284b2d05e008303d09094b64ef51c888972c908cfacf59b47c1afbc0ab8ac80b844a9059cbb0000000000000000000000006ee5a742bdbdc266d487a6d5083709e3d068a4170000000000000000000000000000000000000000000000000000000005ac18e425a01543220cea8897666a25e464bb88884e715b1d0d0e78f151981490d9603f3ec0a060fff5ff3c953fdf7c4fef69527abfbfb26fa6c0a2a36148dcc317809dce306f",
    "nonce": 128434,
    "r": "9617183581183163486801443209361493506909419149930346848172470457660048621248",
    "s": "43874277274533560284236178255040712302546832617898755654825976000598476992623",
    "startgas": 250000,
    "to": "0xb64ef51c888972c908cfacf59b47c1afbc0ab8ac",
    "txhash": "e4c0880937dc467247d6ab348147393cff5ca5237b13884c8de3acf286e39e45",
    "v": 37,
    "value": "0"
}