{
    "data": "a9059cbb0000000000000000000000006eef09be3410e7b1b185e0bb92179a19b54ebefd00000000000000000000000000000000000000000000000000000000058f9d9d",
    "gasprice": "3000000000",
    "hex": "f8ac8301f5b984b2d05e008303d09094b64ef51c888972c908cfacf59b47c1afbc0ab8ac80b844a9059cbb0000000000000000000000006eef09be3410e7b1b185e0bb92179a19b54ebefd00000000000000000000000000000000000000000000000000000000058f9d9d25a0aa5afc2938dc4dbe21e8f5917ee329203a36efe77390255c80dc779cad75173da0310b45caf7dd63b7c9fb551add34b63e8b4f0606a2ef9f43254f487623189262",
    "nonce": 128441,
    "r": "77053940846410661200180346309290657770388112993580791482426852080411387172669",
    "s": "22183246590802980980703071131493125546153200202353357547492975136873125548642",
    "startgas": 250000,
    "to": "0xb64ef51c888972c908cfacf59b47c1afbc0ab8ac",
    "txhash": "e4d19edc04531837c31a45f4ca7552442dbf77f2ad755b901dbcef47fa594531",
    "v": 37,
    "value": "0"
}