{
    "data": "a9059cbb00000000000000000000000007086186f150f255f2ed11385bbfc26205d2384f0000000000000000000000000000000000000000000000000000000cd4374700",
    "gasprice": "43200000000",
    "hex": "f8ad8304cf1f850a0eebb000830197d6948eb24319393716668d768dcec29356ae9cffe28580b844a9059cbb00000000000000000000000007086186f150f255f2ed11385bbfc26205d2384f0000000000000000000000000000000000000000000000000000000cd437470026a09a97290a548414b0633a733feb71abede180785ec35ec8a7f9c35e9b0e5ee6e1a057b4618e2dc77aa8af0353378acb63a26c49fff692e70ef46fd059ee9078ab74",
    "nonce": 315167,
    "r": "69923255838704812324394946806533218839784587996558947868693293778257670235873",
    "s": "39669923600933464469980028036994452826824561697645128857460073917144070925172",
    "startgas": 104406,
    "to": "0x8eb24319393716668d768dcec29356ae9cffe285",
    "txhash": "e4ee3830647b9a4bfbd6a4485a0753f5fef986539a70d80c356f2768c99c1360",
    "v": 38,
    "value": "0"
}