{
    "data": "",
    "gasprice": "1000000000",
    "hex": "f86e8349a383843b9aca0082c35094bc17c66407c7ad235dc2612d1168d4b3562fda318806f17f46cd896ec08025a06d33e2f1717890ed97fb4cfed2e254d7b05430e4d13c4de3ac7bbbe53fbe6146a079b652136502d82708247ab050e33939851d1c9a26472933f854857e5bdb676a",
    "nonce": 4825987,
    "r": "49393775999851142369965894320146731291266191859025530950337054165898538934598",
    "s": "55051987310442033997676226805795707448261887344581657351001000099702265046890",
    "startgas": 50000,
    "to": "0xbc17c66407c7ad235dc2612d1168d4b3562fda31",
    "txhash": "e500e3003ae261ff551f06dc05199f2bcba26a1a6f6974091c3c7bdb6e5d02cf",
    "v": 37,
    "value": "500320975687610048"
}