{
    "data": "47cf8971000000000000000000000000000000000000000000000000000000000000008500000000000000000000000000000000000000000000000000000000000017090000000000000000000000000000000000000000000000000000000000001748000000000000000000000000000000000000000000000000000000000000587a000000000000000000000000000000000000000000000000000000000000170a000000000000000000000000000000000000000000000000000000000000173a0000000000000000000000000000000000000000000000000000000000001772",
    "gasprice": "2000000000",
    "hex": "f9014b820e038477359400830dbba0940fa8051dbdbbcc32d602803d5f1de1e6f92a0bbd80b8e447cf8971000000000000000000000000000000000000000000000000000000000000008500000000000000000000000000000000000000000000000000000000000017090000000000000000000000000000000000000000000000000000000000001748000000000000000000000000000000000000000000000000000000000000587a000000000000000000000000000000000000000000000000000000000000170a000000000000000000000000000000000000000000000000000000000000173a000000000000000000000000000000000000000000000000000000000000177225a02abfcf3a9c15fe14a36f9a4f95c495506c8d340717a690ba72f4c49b47622da4a0120a0b33f56d749a3fd6387a2f80eb579e799f2918d1cd123e8294f553102f26",
    "nonce": 3587,
    "r": "19336037671478316751104703376587450859276204334692832891082156058203408969124",
    "s": "8159377065160212385935547830536259708127378288021969759689786597315733106470",
    "startgas": 900000,
    "to": "0x0fa8051dbdbbcc32d602803d5f1de1e6f92a0bbd",
    "txhash": "e506927599b6762302b9b2161f9c19060a16c2f121eef8688886d046516ecfe2",
    "v": 37,
    "value": "0"
}