{
    "data": "867904b40000000000000000000000003ef647cbc82c12ac649660a1ba5d35134a8d21c50000000000000000000000000000000000000000000000062e115c008a880000",
    "gasprice": "22000000000",
    "hex": "f8ac82930b85051f4d5c00830493e0946ddca767d731f57d90a516dd751f2aa9282b37d280b844867904b40000000000000000000000003ef647cbc82c12ac649660a1ba5d35134a8d21c50000000000000000000000000000000000000000000000062e115c008a88000025a02b01b7d5877a4730362fe6b88c52a5e02bbbb54acf89aa355293d7834cd9df2aa00df21a402185681d3532be047705e83a7ed458aa9ad75d36575c3427989ed942",
    "nonce": 37643,
    "r": "19452488112462797520126105861343931265797036022209725473052560151563619393322",
    "s": "6307825195630621265402079124313577642020026790794758480381017070048057940290",
    "startgas": 300000,
    "to": "0x6ddca767d731f57d90a516dd751f2aa9282b37d2",
    "txhash": "e55b57c8c9def0a72fba0d70669d26903d1b1e92a6f9c038c3188ce40f2c1e0e",
    "v": 37,
    "value": "0"
}