{
    "data": "a9059cbb0000000000000000000000006ede64e260df491a51f85d528c0ed8f6bebe24370000000000000000000000000000000000000000000000000000000007bf116e",
    "gasprice": "3000000000",
    "hex": "f8ac8301f5a984b2d05e008303d09094b64ef51c888972c908cfacf59b47c1afbc0ab8ac80b844a9059cbb0000000000000000000000006ede64e260df491a51f85d528c0ed8f6bebe24370000000000000000000000000000000000000000000000000000000007bf116e26a0098c3a1b2be01d44aa436f6f264a2e135b8745186efbf8ac8f9e17e028d4672ca053e37cae02758143907705442035b559f754b515550eaad36712380a38f89b35",
    "nonce": 128425,
    "r": "4318575260145668996447519735756946053228844084474791296040862768553205720876",
    "s": "37943901223952488902676834973052038156230338495784776580431439609946235771701",
    "startgas": 250000,
    "to": "0xb64ef51c888972c908cfacf59b47c1afbc0ab8ac",
    "txhash": "e58071f14e1df8a6126eef366b52fb0af1d19002beb1a146d4a3a879be10dbc2",
    "v": 38,
    "value": "0"
}