{
    "data": "0a3b0a4f0000000000000000000000005e313f29d7797a7d27a02dd54f217379f45bf2ac",
    "gasprice": "1000000000",
    "hex": "f88a820435843b9aca00830289fc94531ac3341edfc39a04ed4c8b44ec396a46bc869080a40a3b0a4f0000000000000000000000005e313f29d7797a7d27a02dd54f217379f45bf2ac26a06c54d0667e5d9ba4e4fdbfd89046bae3cb841f4531a94d8287482570e2b1323da01243e4488fc7311b9f1e748789fb081e36f8cff3baae5ee4b1ccd589afe1ecfc",
    "nonce": 1077,
    "r": "48999641126896703556289368184094426594785423198407430408685145009788543906365",
    "s": "8261585582263775497869425084643217289281529279382418434590894639770761293052",
    "startgas": 166396,
    "to": "0x531ac3341edfc39a04ed4c8b44ec396a46bc8690",
    "txhash": "e5eca49ac14316be7a6fd36b6a591e023ca13f94ce961bf4a7c5118f8b7a8a26",
    "v": 38,
    "value": "0"
}