{
    "data": "a9059cbb0000000000000000000000006ee42d24104308666a5ca14fb3e11c7d365a492d000000000000000000000000000000000000000000000000000000000566e448",
    "gasprice": "3000000000",
    "hex": "f8ac8301f5b184b2d05e008303d09094b64ef51c888972c908cfacf59b47c1afbc0ab8ac80b844a9059cbb0000000000000000000000006ee42d24104308666a5ca14fb3e11c7d365a492d000000000000000000000000000000000000000000000000000000000566e44825a068ec5a0ef72bb7886997b21fc85af43a8e5846e8046b0d2ba0bf6ea7fd19f718a055aae8cf522a2a9cea2f5f4950687e32e8d2902a2ef82b4c2ba1294d3e07d1c6",
    "nonce": 128433,
    "r": "47458133720587987725519082689947136559542051893527089176571802068902217381656",
    "s": "38748562925104338049784328782831722081902232890811748955082111887420959478214",
    "startgas": 250000,
    "to": "0xb64ef51c888972c908cfacf59b47c1afbc0ab8ac",
    "txhash": "e77556c712498685a558239dea37f74d13c2d8424d26f7a51f7410f2ab8b9242",
    "v": 37,
    "value": "0"
}