{
    "data": "efef39a1000000000000000000000000000000000000000000000000000000000000005a",
    "gasprice": "1000000000",
    "hex": "f89005843b9aca0083015f9094bb5ed1edeb5149af3ab43ea9c7a6963b3c1374f78814581c27fd0ed773a4efef39a1000000000000000000000000000000000000000000000000000000000000005a26a040f74c5223b87d53c42b7dd510600632cb72920390a6f4a3343c1c5884867ae2a03f7fea2c94308a95fad4965e6d3de091ed67c17fa1833b7442fb504db87966a4",
    "nonce": 5,
    "r": "29384960281529117385601454039608686861553975142814846811833114542600211561186",
    "s": "28721715248461627544453839978915479236139689370418510988468443192471756301988",
    "startgas": 90000,
    "to": "0xbb5ed1edeb5149af3ab43ea9c7a6963b3c1374f7",
    "txhash": "e79bdba9a35d040b31c16c87a0803bcc2224a2b6536b9bf25abe7974eea69a1a",
    "v": 38,
    "value": "1465952636784007027"
}