{
    "data": "266995760000000000000000000000000000000000000000000000000000000000096a7a0000000000000000000000000000000000000000000000000000000000000000",
    "gasprice": "10000000000",
    "hex": "f8b1268502540be4008302545e946f6deb5db0c4994a8283a01d6cfeeb27fc3bbe9c87038d7ea4c68000b844266995760000000000000000000000000000000000000000000000000000000000096a7a000000000000000000000000000000000000000000000000000000000000000025a0e2930a4c098e1d9d30805d11632bc9357fbc0a0b3583a3eb95b5d340ec7b6761a03082a025cae94cefc29585fae9f5aa0073b9068b0b39e01861664904cd0dbfb1",
    "nonce": 38,
    "r": "102482501365766314502605928499602512060518867816264785441870575582747641472865",
    "s": "21941812148720546969347428384946560089266589970883404834672903131151610003377",
    "startgas": 152670,
    "to": "0x6f6deb5db0c4994a8283a01d6cfeeb27fc3bbe9c",
    "txhash": "e7ab936e25e7c579a98868c1ac0be019c4e8f3534a713116b19c4f2d101b3426",
    "v": 37,
    "value": "1000000000000000"
}