{
    "data": "",
    "gasprice": "90000000000",
    "hex": "f86f8345b0c88514f46b0400830249f094470cec82b89013fd137e03485f0b5816c6aef97487b1885c181230008025a098b35c6dea917905270160bfce34d356396d89f2ccf944f6fc910469fe086da7a0712a476607d65221be8d5475e6be100759e7ba4ad987bf079f17953f4a4976da",
    "nonce": 4567240,
    "r": "69068456533252833541519412835542982868847062993724783511009610085002941853095",
    "s": "51186052241360328723655190016958276562457707705469749364599687774677045442266",
    "startgas": 150000,
    "to": "0x470cec82b89013fd137e03485f0b5816c6aef974",
    "txhash": "e7da5671813d7334a245fbc27fd7c61631de3fd8dffa678005671fe0922ef5b0",
    "v": 37,
    "value": "49971000000000000"
}