{
    "data": "0a19b14a00000000000000000000000000000000000000000000000000000000000000000000000000000000000000000000000000000000000000006b9ec6a0430460000000000000000000000000008effd494eb698cc399af6231fccd39e08fd20b1500000000000000000000000000000000000000000000000000000000000065a7000000000000000000000000000000000000000000000000000000000058136500000000000000000000000000000000000000000000000000000000b35517ad0000000000000000000000000afe2fb0c67df65b2532ccebfd70210c5fbae2e4000000000000000000000000000000000000000000000000000000000000001ca54afa9263412b64102579097d56aebe77c12bb4056e82ce43628ba95d96c772254baefe57e508a5a40a10d0e65827c31a04c5146803b8c2cd19cc10f3b684b400000000000000000000000000000000000000000000000000043c1e20928000",
    "gasprice": "1000000000",
    "hex": "f901ca01843b9aca008303d090948d12a197cb00d4747a1fe03395095ce2a5cc681980b901640a19b14a00000000000000000000000000000000000000000000000000000000000000000000000000000000000000000000000000000000000000006b9ec6a0430460000000000000000000000000008effd494eb698cc399af6231fccd39e08fd20b1500000000000000000000000000000000000000000000000000000000000065a7000000000000000000000000000000000000000000000000000000000058136500000000000000000000000000000000000000000000000000000000b35517ad0000000000000000000000000afe2fb0c67df65b2532ccebfd70210c5fbae2e4000000000000000000000000000000000000000000000000000000000000001ca54afa9263412b64102579097d56aebe77c12bb4056e82ce43628ba95d96c772254baefe57e508a5a40a10d0e65827c31a04c5146803b8c2cd19cc10f3b684b400000000000000000000000000000000000000000000000000043c1e2092800025a0e0e0c3e424a1ebaa4f12e044988b7ebe91dd41fad73591484a15a22815df5410a04d383b11ea68cef4fea8bd5f6c0742016711f259f619cdb6706b28c802258371",
    "nonce": 1,
    "r": "101715203816425346113722508956754023224453912639646261334631269928531396613136",
    "s": "34927440462578847348053857919389532918139310031336141291445329696902623888241",
    "startgas": 250000,
    "to": "0x8d12a197cb00d4747a1fe03395095ce2a5cc6819",
    "txhash": "e83e470d58b5b2adba7899d39d15d0ff63068d591383304188c411dd137ad7c6",
    "v": 37,
    "value": "0"
}