{
    "data": "a9059cbb0000000000000000000000006ef5290f9ea28bb69b75b0a5104b00292f128e6e000000000000000000000000000000000000000000000000000000000579ee5d",
    "gasprice": "3000000000",
    "hex": "f8ac8301f5c084b2d05e008303d09094b64ef51c888972c908cfacf59b47c1afbc0ab8ac80b844a9059cbb0000000000000000000000006ef5290f9ea28bb69b75b0a5104b00292f128e6e000000000000000000000000000000000000000000000000000000000579ee5d25a0e4a756e3033746ded349c8fb19dac99b9c9ad9f7c5617fd4c182552de85511d3a05b3cea28edfef52eb9abd376112968233aecf0ab2ba616d29df62405549befd5",
    "nonce": 128448,
    "r": "103422992607235120610868565665475905930075096756738919273136583258911559455187",
    "s": "41268096157070856737657465522475863906025112001852586483631016088465569476565",
    "startgas": 250000,
    "to": "0xb64ef51c888972c908cfacf59b47c1afbc0ab8ac",
    "txhash": "e856db745f5888205e0d16df11f954106e6c5d7da0865008e1210c7791a87338",
    "v": 37,
    "value": "0"
}