{
    "data": "a9059cbb0000000000000000000000006eda6cba0add1d80c2d08c35e46b94de6225413b000000000000000000000000000000000000000000000000000000000601af78",
    "gasprice": "3000000000",
    "hex": "f8ac8301f5a384b2d05e008303d09094b64ef51c888972c908cfacf59b47c1afbc0ab8ac80b844a9059cbb0000000000000000000000006eda6cba0add1d80c2d08c35e46b94de6225413b000000000000000000000000000000000000000000000000000000000601af7825a03475ed3c601a3989ba204705f64d2611571e1dfa43c76d2cbab8e8217e544fd8a063cf930592a42b2547a2419b1c2fbbb0765cdd85040e40b064a8360a1210ab4d",
    "nonce": 128419,
    "r": "23728626574510680794429448420998043656426280834905798341919883936849078800344",
    "s": "45145724059108339156617428373298395567294985616573727855634190359648510454605",
    "startgas": 250000,
    "to": "0xb64ef51c888972c908cfacf59b47c1afbc0ab8ac",
    "txhash": "e968721291107c97c3510e40e337db72b5184c219e1bf17ff55258fa9b9ff917",
    "v": 37,
    "value": "0"
}