{
    "data": "a9059cbb0000000000000000000000006eec7a95654e7d3885bb3b3c9da4ed1198ff8e7300000000000000000000000000000000000000000000000000000000057aa7c5",
    "gasprice": "3000000000",
    "hex": "f8ac8301f5b784b2d05e008303d09094b64ef51c888972c908cfacf59b47c1afbc0ab8ac80b844a9059cbb0000000000000000000000006eec7a95654e7d3885bb3b3c9da4ed1198ff8e7300000000000000000000000000000000000000000000000000000000057aa7c526a0f564e20e3ef1b4b0d7552d6abe6dd84ea981f193f5ae65f3000e12a1c52cb08ea037205cde5db08cd6b5ca66554b331e52969b382bab5ed8c41c06e871d326f267",
    "nonce": 128439,
    "r": "110994892788120525683874629698094094775316167841746120479967034450547483390094",
    "s": "24934386733791296143171384934188952879817956274115970525274328556057531970151",
    "startgas": 250000,
    "to": "0xb64ef51c888972c908cfacf59b47c1afbc0ab8ac",
    "txhash": "e9e859e1e05e60a7bd1fbb73b45a31b735a26a1ed05d9a898c3aa3d1e104ef13",
    "v": 38,
    "value": "0"
}