{
    "data": "",
    "gasprice": "22900000000",
    "hex": "f86f820afe850554f2450083015f9094abeb030b48745fa8c8acac279135851b9649195c881321b94a5d8814008025a0f68b8cc17c8f8d994990a6570c99724c3709ad557b254eb841eab02dd61633a0a03efd7cc0bc9b48f58beddc1dfe903ea46395f536fe8a0ac4f2ad619cd016c670",
    "nonce": 2814,
    "r": "111515523954363762895943482781079120077513285532153013163926475789891884430240",
    "s": "28491269932270800813508266864345975726786753424147114651550380996340301088368",
    "startgas": 90000,
    "to": "0xabeb030b48745fa8c8acac279135851b9649195c",
    "txhash": "ea2b7b34d4136a1f8b91fa6eb148a5a3a547a1254dbe851a2af5a133bfb8e6b0",
    "v": 37,
    "value": "1378586690000000000"
}