{
    "data": "",
    "gasprice": "1000000000",
    "hex": "f86d8349a360843b9aca0082c35094da177822cb6ba3fe1d7cae11f1f78744a20e052a87b279c6cc83f9c88026a0ec3303677ac695fcc8e109f4cf74644078530c7490476b87855fcadaef4155b7a03bfa3ca044ededf4498d5c6dc5a0f044aef53ffb1b8af8b5e8ad2de8dd6b5486",
    "nonce": 4825952,
    "r": "106835964960997905424795659690024272818682038495254535499323698932493737612727",
    "s": "27128588258238701530567540517386179014213083953440438398580103333662054634630",
    "startgas": 50000,
    "to": "0xda177822cb6ba3fe1d7cae11f1f78744a20e052a",
    "txhash": "ea606414cb1d82f0c59939c7086e52c5d3dacfa8f066ecd7f2714e1d9aaeeeec",
    "v": 38,
    "value": "50236440596183496"
}