{
    "data": "",
    "gasprice": "36000000000",
    "hex": "f86d02850861c4680082520894ca57932b27f9b965d11df484f57a0cf38c40d3b48901f921b32ca8a852ee8025a09d0deeeb3ede14b25a04711dbe0020fb970f599a1a47a7d0b22370c999b0c9dba0568179309916d2f29f568d720204cc01e603648e32a3a61c42cdcbd7225b59db",
    "nonce": 2,
    "r": "71037735197253665750152322849777731357414503935766089759029196250007999662555",
    "s": "39127664671024892540380502193456697572774496858798840453508220918025439369691",
    "startgas": 21000,
    "to": "0xca57932b27f9b965d11df484f57a0cf38c40d3b4",
    "txhash": "eaf892393ac80eac9ebfd9295e31aa3add28f956998194c180934089cf1289a6",
    "v": 37,
    "value": "36398570667774595822"
}