{
    "data": "2e1a7d4d0000000000000000000000000000000000000000000000000000000000000000",
    "gasprice": "21000000000",
    "hex": "f8880c8504e3b2920082fbf894a7ca36f7273d4d38fc2aec5a454c497f86728a7a80a42e1a7d4d000000000000000000000000000000000000000000000000000000000000000025a0dc9e148844d2bc8dbc198117a0665af7b0c0fe25dcb64e2dcaa5451587005ed0a07c01f66b5ede864317134202132e1f40b6df6dc47c48dbc6b81399ebe42e86ed",
    "nonce": 12,
    "r": "99788130233281200526725343819522727301741295065008221164501552622106832821968",
    "s": "56090260795696311077037198495002704278039964399870344537949128233162862659309",
    "startgas": 64504,
    "to": "0xa7ca36f7273d4d38fc2aec5a454c497f86728a7a",
    "txhash": "eb3a52768432a9abefe0e80f391b5c387b7071c223a86e21075f618729857178",
    "v": 37,
    "value": "0"
}