{
    "data": "a9059cbb0000000000000000000000006edc21e8365baa0c740a36a106383e841c98194c000000000000000000000000000000000000000000000000000000000566e365",
    "gasprice": "3000000000",
    "hex": "f8ac8301f5a684b2d05e008303d09094b64ef51c888972c908cfacf59b47c1afbc0ab8ac80b844a9059cbb0000000000000000000000006edc21e8365baa0c740a36a106383e841c98194c000000000000000000000000000000000000000000000000000000000566e36525a028961c94f2bc19e5591612ff82d9fcefc9c9d59af34fa1878a8873ad86bfd51aa0088a4035b2078b5af34d5dcf0896ae0f79958064efec23acb9580acd66f414d2",
    "nonce": 128422,
    "r": "18357738267580184969527926499376738501012456267066950741813798651700625528090",
    "s": "3862770842997607584806945701291600092794612430501055191087395575555905819858",
    "startgas": 250000,
    "to": "0xb64ef51c888972c908cfacf59b47c1afbc0ab8ac",
    "txhash": "ebb59ffc5dfdbc3a7dee15b13c533dd3bafd66a0c20901604582d9b9b726b381",
    "v": 37,
    "value": "0"
}