{
    "data": "",
    "gasprice": "36000000000",
    "hex": "f86d02850861c4680082520894ba26092ff901913c260a7562c66cf6fb82d9e12d8901f024e3e5b997e6ee8025a0d946df5d0598e9975f25ba97f4448752b7a4f56fed5a81c780395a269b3240dba0250e0e57d4a95899dccc0818bd08cb6efbd7f457ce831d7ac2f6f0adef1c8852",
    "nonce": 2,
    "r": "98277109034403133519076945523124415945574820467189236780523979914977205174491",
    "s": "16760410248847839638065177806510340163848255579772590619093039987448593811538",
    "startgas": 21000,
    "to": "0xba26092ff901913c260a7562c66cf6fb82d9e12d",
    "txhash": "ebd988915e556c9e00c886339cb3669e43d613ca7d3f32dca3b4463ff3461d90",
    "v": 37,
    "value": "35750950317774595822"
}