{
    "data": "",
    "gasprice": "21000000000",
    "hex": "f86c028504e3b2920082520894b675d8aa3858039ed499ebc4de43d9df5949fa7d880ed96754b5ab00008026a02fcc9108e1ab27f2436735fead0f9358fc1ba129fef5c7c6cba82830680ec5dfa05c8f48049be9493d479375027aa5f95a99e6cd2ad73b536eebcd3ff9a0ece584",
    "nonce": 2,
    "r": "21620141677293843762281440107273864924418016143515027687873270369194991338975",
    "s": "41865938249919945818897288231929658855146816195955550085262085350403053774212",
    "startgas": 21000,
    "to": "0xb675d8aa3858039ed499ebc4de43d9df5949fa7d",
    "txhash": "ec3522810ecacca33eb4e36bcc5a5ab5acd2610b85a330ae640e42b4ec23b18d",
    "v": 38,
    "value": "1070000000000000000"
}