{
    "data": "a9059cbb00000000000000000000000059c716a708daf263e7c29f66c49b78eb60d5c6c400000000000000000000000000000000000000000000000000000000000007d0",
    "gasprice": "2000000000",
    "hex": "f8aa8201a0847735940082c8199440caa728bb4bafa56f38a58623a12fbe6c90209d80b844a9059cbb00000000000000000000000059c716a708daf263e7c29f66c49b78eb60d5c6c400000000000000000000000000000000000000000000000000000000000007d025a0530a0901ffbea381b02cd4c1737a5746cf9c8313c147f4a60d6126f9a126c9a7a04bd1c6dce88401fa21cc40c0ecd1b182e7a0a13122bcdd866e83102dbe10317a",
    "nonce": 416,
    "r": "37559697072669020447428444360692591039403274534387707131679871918063229520295",
    "s": "34294107181735349252191954510218286313883520134271584541718732493514356044154",
    "startgas": 51225,
    "to": "0x40caa728bb4bafa56f38a58623a12fbe6c90209d",
    "txhash": "ec60d614830ab7cc03bda618939168628cbaa05152541d076242bd7f66498422",
    "v": 37,
    "value": "0"
}