{
    "data": "",
    "gasprice": "40000000000",
    "hex": "f86d808509502f900083015f9094fdce293faf92d2b9b3043b392bdb4a442657719788365a9cd3ee2c98008025a00a6ac0a3a8dcf84a9e96e6c8538fa49423e85033ae3b3394fa6eadd3496cbdd3a07914e2644aab2a8934a3e5c3dcfdda5586c1e8fb9e8d33fb5d4b04b4e3e489ac",
    "nonce": 0,
    "r": "4711743822252429896469925705599467851714946471615109037601240293762935864787",
    "s": "54766754118403365318194073607718218032336327070513899169205421801089175685548",
    "startgas": 90000,
    "to": "0xfdce293faf92d2b9b3043b392bdb4a4426577197",
    "txhash": "ecb368f26c26cf6dbfb816cfba008b3353020b94a6701a11fdf6f289c9a650b7",
    "v": 37,
    "value": "3916615260000000000"
}