{
    "data": "a9059cbb000000000000000000000000420d5f7536c46f8bee969064d1f9657633c7769b00000000000000000000000000000000000000000000025c66c38dd543b6b000",
    "gasprice": "90000000000",
    "hex": "f8ad8345b0cb8514f46b0400830249f09412fef5e57bf45873cd9b62e9dbd7bfb99e32d73e80b844a9059cbb000000000000000000000000420d5f7536c46f8bee969064d1f9657633c7769b00000000000000000000000000000000000000000000025c66c38dd543b6b00025a02825efb18ede50db7ff4f44404bed6d761e3c0228274c5e67a14665e2110b79ea00ae3a0ed97db288212e5a166f499719d44d8f008d8dbff60155956d800e12fd2",
    "nonce": 4567243,
    "r": "18159541589060699638268750079881987917721661564083046003034670184528511809438",
    "s": "4925313454452516241930091159583267494491408292390935237077182690583254216658",
    "startgas": 150000,
    "to": "0x12fef5e57bf45873cd9b62e9dbd7bfb99e32d73e",
    "txhash": "ecd39d8e9d6d6636752ddb895c662fdb400a98822de6e37d20bb53683c4de35a",
    "v": 37,
    "value": "0"
}