{
    "data": "a9b1d507",
    "gasprice": "10000000000",
    "hex": "f86b8226778502540be400830aae6094c05290098ddcffbfae9a95229db62324c1244b5c8084a9b1d50726a02855aaa2919a2d709776233ef887263bf4ddfb5cd026e6dc890a9dc49f175309a07a355ed75a6c8bf2d7593ab1062c55c53247a48f18e1c532b91da66461ea1872",
    "nonce": 9847,
    "r": "18243873623560839913553926429847879186954508863979894679475666850170183045897",
    "s": "55276464991659645263341959486499423083131342507403661738230715421591060748402",
    "startgas": 700000,
    "to": "0xc05290098ddcffbfae9a95229db62324c1244b5c",
    "txhash": "ecf27a9286a3faf9b9f1b4d5b5ec32dd0787093dd92c03df7f05e6c8c6e1b937",
    "v": 38,
    "value": "0"
}