{
    "data": "a9059cbb000000000000000000000000c40bb93ab0cf4096dcdfcedb9120817efe3743b000000000000000000000000000000000000000000000000000000000bfb55b41",
    "gasprice": "20000000000",
    "hex": "f8a9288504a817c80082cc6d94a645264c5603e96c3b0b078cdab68733794b0a7180b844a9059cbb000000000000000000000000c40bb93ab0cf4096dcdfcedb9120817efe3743b000000000000000000000000000000000000000000000000000000000bfb55b4126a0bb49b64a347576cbd632a4cc0fe63aec9532f9f8f4331029037cb3557cfcbd59a04359349a35896f1b0eabd0e4a986e1c08332b85c09206b3ad64712e576354031",
    "nonce": 40,
    "r": "84712740639195367006887465871830612633575770698238933442670457096262727286105",
    "s": "30462573292124032606347284705104597485533189254874745747714278445121617084465",
    "startgas": 52333,
    "to": "0xa645264c5603e96c3b0b078cdab68733794b0a71",
    "txhash": "eeb36ebc0d61e3e6d15bddae281d7cfc5bd24acb7e614e4ab7d01eaa2908ea21",
    "v": 38,
    "value": "0"
}