{
    "data": "a9059cbb0000000000000000000000003a1ad4c03cffd1619c4d6806e2929e09ac6708fb000000000000000000000000000000000000000000000066ba686bdc153c0000",
    "gasprice": "90000000000",
    "hex": "f8ad8345b0ef8514f46b0400830249f09424692791bc444c5cd0b81e3cbcaba4b04acd1f3b80b844a9059cbb0000000000000000000000003a1ad4c03cffd1619c4d6806e2929e09ac6708fb000000000000000000000000000000000000000000000066ba686bdc153c000026a01c94d063a10c3e5305a7b40e8f11320a6aa219c9f94181d2b87a82cab0ee027fa03c0f91cad1d9553f49edfbbf571ede75c23a2f6213acfba911e896e0c6fce57a",
    "nonce": 4567279,
    "r": "12927691375153827864019051820422192568992216505863838450370433102689906590335",
    "s": "27166279842196845031488663499269359808370673579613860349904580632711899440506",
    "startgas": 150000,
    "to": "0x24692791bc444c5cd0b81e3cbcaba4b04acd1f3b",
    "txhash": "ef5039528b2d0cb9a01a771f9349e40e82ba260f40f18af4f44671967a6c86ca",
    "v": 38,
    "value": "0"
}