{
    "data": "",
    "gasprice": "51900000000",
    "hex": "f8708310f8e7850c157b270083030d409482c629eb147c20ef1d4bf241f412a79adea3143c881988fe4052b800008026a075601df649ead935f14050c331a408bd9fc8ae2f43c43262029242611c023442a010c57b2b6ae352f03c67e5bd8ea10e04d890328baebf71da9397189d3f7ae7f7",
    "nonce": 1112295,
    "r": "53090427393036237733291572761698969252397951546919783202904122756975286170690",
    "s": "7585924534428584431124694894605283338080354270708007884316629758209850796023",
    "startgas": 200000,
    "to": "0x82c629eb147c20ef1d4bf241f412a79adea3143c",
    "txhash": "ef6009247b4765cbef86edef3bb1c606c6b94f4772742d11b0a8b3d2d35ded77",
    "v": 38,
    "value": "1840000000000000000"
}