{
    "data": "",
    "gasprice": "100000000000",
    "hex": "f86f8302ccf985174876e800825208942541539bfea96faff2e5d6a2671f9519a3af8afe8805bf157b49852c008025a09adca5569a9bc53d13c4eb1a039ff69ed8ccd9c0a91a4076d382f6289bcc8866a04c48f29415097ff543ca64820fb29c112ed53707d9d3c3848db972bfcb6bd676",
    "nonce": 183545,
    "r": "70046026159059075348716863237574600537630384128078632271504777375389219326054",
    "s": "34504663695895785373811322692435936143816268260079812004852059202481843590774",
    "startgas": 21000,
    "to": "0x2541539bfea96faff2e5d6a2671f9519a3af8afe",
    "txhash": "efedd54fcb3a86687f1306f83f51ad895f49dd8671f4a0cd2062eeac74990f2e",
    "v": 37,
    "value": "414073310000000000"
}