{
    "data": "",
    "gasprice": "1000000000",
    "hex": "f86e8349a382843b9aca0082c350943bd4459a9fc4d3652c9084861f4b54e073ccb9c5880121caf6f3d772f08026a0af90c7e7939d9173bd1becb37953afc34ecf4901f23fba5aa6e7b454030c05aca07c982e80ec3049563497d0d1427556d8ce07f60d36589b98def5296a0246428c",
    "nonce": 4825986,
    "r": "79410554170216123404456037024881609357901730312364249706204257039349514503596",
    "s": "56355674934250037073669880827142677576990752107938287487906486686138073760396",
    "startgas": 50000,
    "to": "0x3bd4459a9fc4d3652c9084861f4b54e073ccb9c5",
    "txhash": "f04e405aaf9fa74f79d001762902c9b79dd4948df68b96abc526e821a12fa18d",
    "v": 38,
    "value": "81569430271128304"
}