{
    "data": "",
    "gasprice": "100000000000",
    "hex": "f86f8303282985174876e800827a0a9404d1fe171106b849ce57a139acc34f3aa65ffee68809ea9f86498c24008025a079994612921835659a4f526c4c0500e112f488d387f8d2b5b58cee57cfe85f1da0353f5ac34f8248ae25a397a706df23c97fc3bdeb598c14e8194730c5d8cf048a",
    "nonce": 206889,
    "r": "55000665902395194560215668679776382199827641300906624468861522517476371881757",
    "s": "24084518762728234774272309269242595477341688760073617075723350046254249739402",
    "startgas": 31242,
    "to": "0x04d1fe171106b849ce57a139acc34f3aa65ffee6",
    "txhash": "f13b41674d04724ff343a65f769f17ae0570a4b4e063695f911f755e6d83308c",
    "v": 37,
    "value": "714558890000000000"
}