{
    "data": "278b8c0e00000000000000000000000000000000000000000000000000000000000000000000000000000000000000000000000000000000000000000a688906bd8b0000000000000000000000000000327682779bab2bf4d1337e8974ab9de8275a7ca800000000000000000000000000000000000000000000006c6b935b8bbd40000000000000000000000000000000000000000000000000000000000000004c0670000000000000000000000000000000000000000000000000000000008b173d26000000000000000000000000000000000000000000000000000000000000001c479f7295868ac97c45eb823e532eeea5f769114c7463c1bbe1f98c33bd53784c4e19f820c427582227f686cbb9e41097b3f9c69c2043bc7815c9af9ac6fa0ac2",
    "gasprice": "20000000000",
    "hex": "f9018b0a8504a817c8008303d090948d12a197cb00d4747a1fe03395095ce2a5cc681980b90124278b8c0e00000000000000000000000000000000000000000000000000000000000000000000000000000000000000000000000000000000000000000a688906bd8b0000000000000000000000000000327682779bab2bf4d1337e8974ab9de8275a7ca800000000000000000000000000000000000000000000006c6b935b8bbd40000000000000000000000000000000000000000000000000000000000000004c0670000000000000000000000000000000000000000000000000000000008b173d26000000000000000000000000000000000000000000000000000000000000001c479f7295868ac97c45eb823e532eeea5f769114c7463c1bbe1f98c33bd53784c4e19f820c427582227f686cbb9e41097b3f9c69c2043bc7815c9af9ac6fa0ac226a0a0c6a2527f36b0e0db58ed7756cea252e1ba23d1cc6b524fa1faa0252d41a52fa04cac3c7ca680692cee897c9a1f986983f212493ba2a9d63fba548a181154462a",
    "nonce": 10,
    "r": "72721011799169708600650945377142087604019531269848698046423749573364234167599",
    "s": "34680091652818987354918350736685423310722822339774339243316097220204278597162",
    "startgas": 250000,
    "to": "0x8d12a197cb00d4747a1fe03395095ce2a5cc6819",
    "txhash": "f15a7cc500c2675cca36a52226e9d575a491cffd8f2f3408919bf4ed110d6c51",
    "v": 38,
    "value": "0"
}