{
    "data": "a9059cbb000000000000000000000000e5d66c210033bcf7abddd79ace5e72131882d76d0000000000000000000000000000000000000000000000000000000cec0ecb00",
    "gasprice": "1000000000",
    "hex": "f8a801843b9aca008292fb942eb86e8fc520e0f6bb5d9af08f924fe70558ab8980b844a9059cbb000000000000000000000000e5d66c210033bcf7abddd79ace5e72131882d76d0000000000000000000000000000000000000000000000000000000cec0ecb0026a06c6234934b97bb686fe3765f498262cc185562e52cb91c9e204681a557a68b30a0693306f6499701ca328a7134eb7e8540e1b3d3933b1faceb11cf475b62a1be6f",
    "nonce": 1,
    "r": "49023301521224085614236188970168234764682226850068127873260139611717959584560",
    "s": "47583006351921547207443300615662143123780182090924220776936135918270036426351",
    "startgas": 37627,
    "to": "0x2eb86e8fc520e0f6bb5d9af08f924fe70558ab89",
    "txhash": "f2d23fb7f14bbbe8b6cd9f46a72ff58552a9b6e2288bd70ae719b52409560c3a",
    "v": 38,
    "value": "0"
}