{
    "data": "",
    "gasprice": "1100000000",
    "hex": "f86c02844190ab008301a24594f3cb2d9e3c406b071dfa1d9a07bc17fa48c14e088802c68af0bb1400008025a0143f68f9910e6561be0411d4eb5e5d1c38773f47867d087c9f9ec671e236543fa0317b768bb2168a9cf39359a760768b61d6ac15f228ad3e093f92e274a64450e2",
    "nonce": 2,
    "r": "9158292846669356791545364055673208974685706869781485449258383965706868118591",
    "s": "22381469941804163258016358537401946192637380742300482122266214363080968917218",
    "startgas": 107077,
    "to": "0xf3cb2d9e3c406b071dfa1d9a07bc17fa48c14e08",
    "txhash": "f4e0e2b3a4d240184f1b0170736be00ebfe917c45c87d13788b6e8f31d7c296a",
    "v": 37,
    "value": "200000000000000000"
}