{
    "data": "",
    "gasprice": "90000000000",
    "hex": "f8708345b0e78514f46b0400830249f094af2f4b618416ca7730adeffd572a49c79defbb6188045d3d4ab17658008025a08d69eb1818c57a66d5c918818bd16d8825dc47abc5d7ccd15073e40bfd356c56a035cd9604194631e96807c2e21b1871f2ffb5608a92a902deb29dba041eb33fbe",
    "nonce": 4567271,
    "r": "63963253152081239700791579495912677357479312952542107462061219745240794360918",
    "s": "24335819995646176451068170639856743023560257639195890748928215568981228208062",
    "startgas": 150000,
    "to": "0xaf2f4b618416ca7730adeffd572a49c79defbb61",
    "txhash": "f5c67027b441c8f1bc89d5f9ac792eade9824697fe2c50e58952c26d03fa5430",
    "v": 37,
    "value": "314474940000000000"
}