{
    "data": "867904b40000000000000000000000005c7ec126ce5165593a3e6de6f8bd3e37f1eea97d0000000000000000000000000000000000000000000000062e115c008a880000",
    "gasprice": "22000000000",
    "hex": "f8ac82930585051f4d5c00830493e0946ddca767d731f57d90a516dd751f2aa9282b37d280b844867904b40000000000000000000000005c7ec126ce5165593a3e6de6f8bd3e37f1eea97d0000000000000000000000000000000000000000000000062e115c008a88000026a08a45e098bec2e8fa0c73253bed614179380955c3d2f1b389342490821fcd4cf7a061a1f502b3f27518fd904f6b9e85169e0d50b976753f900d8cccf783ad20f7b4",
    "nonce": 37637,
    "r": "62542635661143561374708529593033117271161562815967609802419101194590381493495",
    "s": "44160499690731657974713209000196018027998112754757357773295719006217925883828",
    "startgas": 300000,
    "to": "0x6ddca767d731f57d90a516dd751f2aa9282b37d2",
    "txhash": "f662517b0d68a2c2c1c271a8371130dba15d56e0f7b717448887fcb720b01596",
    "v": 38,
    "value": "0"
}