{
    "data": "a9059cbb0000000000000000000000001224d76e3bced721248b44e730715339870a1fcf000000000000000000000000000000000000000000000000000000000010f447",
    "gasprice": "4000000000",
    "hex": "f8a90a84ee6b28008303d090947126932c04cd3ea8edbb1026826f1b351a84f1e980b844a9059cbb0000000000000000000000001224d76e3bced721248b44e730715339870a1fcf000000000000000000000000000000000000000000000000000000000010f44726a0ccfb6156f3ad70d28c9814551b27c367e30a4870534cbe135a725f180b21a772a004aed668aab7fad1f8e7c72fcf981267cc68a3d2f4194aa7ae4db921a61366db",
    "nonce": 10,
    "r": "92715971537859006000789156157646560519100390608126601420800465665020901042034",
    "s": "2118162579135945460838476682616172200580606921472818773577071884385297589979",
    "startgas": 250000,
    "to": "0x7126932c04cd3ea8edbb1026826f1b351a84f1e9",
    "txhash": "f67409db4ae2e50385eb530c84e43b0b396e7f3735b3e56c567193147e05878a",
    "v": 38,
    "value": "0"
}