{
    "data": "",
    "gasprice": "21000000000",
    "hex": "f86c048504e3b29200825208949cc98ee94c2c51a5e9f9e66519271086a89058d3881bc16d674ec800008026a07861731638604772179df23d30c33f507ac4f96c9e23dbcc5810f2f43ea81bb9a0274f30d6ee4aba9befb6336f431f7edb258b4e8ee80219400db2fae3515f8129",
    "nonce": 4,
    "r": "54449720295161272728502847786392128195224177976906158852374112395653481503673",
    "s": "17780119091213181346627203909033505633873053626060449252435831382344894218537",
    "startgas": 21000,
    "to": "0x9cc98ee94c2c51a5e9f9e66519271086a89058d3",
    "txhash": "f67ba76be4c77af577931e7e69551d15f83af08dd9de64983f67665781a1537c",
    "v": 38,
    "value": "2000000000000000000"
}