{
    "data": "",
    "gasprice": "22000000000",
    "hex": "f86c0185051f4d5c0082a410943f5ce5fbfe3e9af3971dd833d26ba9b5c936f0be880801e32abe3e00008026a061028a7cb77b74f0f08408aed0a1f8984cdaf0ca87b6d3a542a2115105341fa8a0523f1d868187e2e9a4dd090b0540bb3e5fe0b902731bbbc74d233bc122e522c7",
    "nonce": 1,
    "r": "43878835810058576823052182669443991103097981894069224141813350153247102607272",
    "s": "37201168725826978422570510913591804671390783398456362790912767323839261909703",
    "startgas": 42000,
    "to": "0x3f5ce5fbfe3e9af3971dd833d26ba9b5c936f0be",
    "txhash": "f6b7dcc8fc55ba2131d294f151601ce377221a0a14e762d69d8bdffbb3c139d9",
    "v": 38,
    "value": "576992000000000000"
}