{
    "data": "",
    "gasprice": "90000000000",
    "hex": "f8708345b0c08514f46b0400830249f0944860e6f7241bf9a45e2b3b60b8ff2231c8123aaf880d2f13f7789f00008026a00c3517bb2338c986d0bf11bf219cd9387c6c5aea2b31ef826ca9c8174e763c73a078e8b830b8a652a51527b3bedf9465a8ce3e766cb2b39288a077ac4b6f9a5372",
    "nonce": 4567232,
    "r": "5521560862817745083083530275130778429508434023026723850603839977825760590963",
    "s": "54688721583871684167533311571686019552819213396419605140829020258701126816626",
    "startgas": 150000,
    "to": "0x4860e6f7241bf9a45e2b3b60b8ff2231c8123aaf",
    "txhash": "f6d440242a61e53a25e2702edbb59ad4c176c2b62dbb88129afe3cc0ecffcb3f",
    "v": 38,
    "value": "950000000000000000"
}