{
    "data": "a31770ce0000000000000000000000000000000000000000000000000000000000000020000000000000000000000000000000000000000000000000000000000000000100000000000000000000000000000000000000000000000000000018a97f3705",
    "gasprice": "2100000000",
    "hex": "f8cb821304847d2b7500830591c894cc3d43308f835c1a29e14c7dd74b981d272dc70880b864a31770ce0000000000000000000000000000000000000000000000000000000000000020000000000000000000000000000000000000000000000000000000000000000100000000000000000000000000000000000000000000000000000018a97f370526a0e56d38553d5555709a08f2623c99ddfe21f789b4745572635045626d0e1f572ea010a27b75d83c4fdad15fae4dd306ffbb7842e6224fdd27178c76ac315be0adf5",
    "nonce": 4868,
    "r": "103772617451478887868963437345595412772916148979174260760873059920919931082542",
    "s": "7524086893713041661752065896884701178645949150494045402391861775380886105589",
    "startgas": 365000,
    "to": "0xcc3d43308f835c1a29e14c7dd74b981d272dc708",
    "txhash": "f6db372542942b3de91d4d1287138a5199f60d36351c4091a4bce5d3797eae4a",
    "v": 38,
    "value": "0"
}