{
    "data": "",
    "gasprice": "90000000000",
    "hex": "f86f8345b0bf8514f46b0400830249f0944b3036e2c7a2815190272ba5b4c7dd8240c942cc879536c7089100008025a064e9b0962db5012f9d60d8f59843a321b7c20f8ae772eca9516d6e0f081a77c7a064d4fc9207718e2e85ac8fe5c8d053041724b9689daee76f237d7773eeada413",
    "nonce": 4567231,
    "r": "45644178980582551710072470796785954971210712999391623775655974703313622562759",
    "s": "45607599613075160963922786327529633509237874046102257178156781736302885053459",
    "startgas": 150000,
    "to": "0x4b3036e2c7a2815190272ba5b4c7dd8240c942cc",
    "txhash": "f72ce765aae2a8e42524bebdff00f95bf7743ec6ce5413e2ef1ac47b900ce641",
    "v": 37,
    "value": "42000000000000000"
}