{
    "data": "",
    "gasprice": "4000000000",
    "hex": "f86d8204ce84ee6b280082c35094908328b82806601f470068016cdd43a63abea6c3880164a3cbb3d89e008025a09213e3b7004c69104543963f6b80be5911a19785b0e741e25205032491c9d312a00b9b417043f67dabe71fd9bbbecf7ad0623348d643bed4b93a2796c5c4164c2a",
    "nonce": 1230,
    "r": "66072817617510076968529966645437231207847186166692297888097659530820744499986",
    "s": "5249754269640471969085486134683691750765279098156927628107577135091391286314",
    "startgas": 50000,
    "to": "0x908328b82806601f470068016cdd43a63abea6c3",
    "txhash": "f80dbb74e50ec042bb08ab160f2027f91532b78ac6a165879e8d6cac7ba37226",
    "v": 37,
    "value": "100385187000000000"
}