{
    "data": "d0e30db0",
    "gasprice": "1000000000",
    "hex": "f8700c843b9aca008303d090948d12a197cb00d4747a1fe03395095ce2a5cc6819880214e8348c4f000084d0e30db026a0807f4bb295c1291ddadb98c9380e55f866617e798f51d0bdce06174f0d3e60e5a0650392086ba72c60cad6e258ba2e61130dddcd163e3738ca04fc9dd19848f962",
    "nonce": 12,
    "r": "58120956641502461692108423941984849902135109484411835383466985124831833252069",
    "s": "45689906130087631474865674627285233272309674032281710016426380172276997355874",
    "startgas": 250000,
    "to": "0x8d12a197cb00d4747a1fe03395095ce2a5cc6819",
    "txhash": "f93d6c42fd33b922d8479cdf6bc4e98ac9828a03086760eaba4bab38d0dfe9fb",
    "v": 38,
    "value": "150000000000000000"
}