{
    "data": "",
    "gasprice": "20000000000",
    "hex": "f870832e777c8504a817c80083015f909467b66fdc1eeabcd19841bf10e3bb77651b3812f5880174e476bf1d34008025a0876594f906e98526e5b7c9c6dd539292d905bdb8ae05f1187b29d66695ca61a3a0053848a87524514ef35546caa4f2199454be61c865236b72c43b83332b85d33f",
    "nonce": 3045244,
    "r": "61241714284497562729034246724898619334324472030073031296260183668877710483875",
    "s": "2361009145888408790022578835604151263544261527054383741110241485718582317887",
    "startgas": 90000,
    "to": "0x67b66fdc1eeabcd19841bf10e3bb77651b3812f5",
    "txhash": "fa756ac63cbc2cda528642017c2a00636482cd5e9919f91d5ca50dfe50e64bd2",
    "v": 37,
    "value": "104959890000000000"
}