{
    "data": "",
    "gasprice": "1000000000",
    "hex": "f86904843b9aca0082520894d16f980e435e385705baf4b163aceb0797af222086246139ca80008025a003125e5016d4da03a4112538a8a559e5cffcc50e76ffe6fe30911534ed54b54da071b590a124e682f492d8ecd8299b6b5c56d4b7bd1cc3867448d379e3b48ca01c",
    "nonce": 4,
    "r": "1389392716272574261693820471519376134101222551840069533517039685059598398797",
    "s": "51432149404545410151551896554263313644225940090247450709740154997015671775260",
    "startgas": 21000,
    "to": "0xd16f980e435e385705baf4b163aceb0797af2220",
    "txhash": "faee1b6a49dc57414198ce936c5122956d53eab3c7686021a20439702e4cbef4",
    "v": 37,
    "value": "40000000000000"
}