{
    "data": "0a3b0a4f000000000000000000000000a8af3edeec245a7c13da5e45cb3ebd1109b35195",
    "gasprice": "1000000000",
    "hex": "f88a820420843b9aca00830289fc94531ac3341edfc39a04ed4c8b44ec396a46bc869080a40a3b0a4f000000000000000000000000a8af3edeec245a7c13da5e45cb3ebd1109b3519526a059d0b8aac1a195893f94ad8c38258a7128cf2e2b964b6068a4cc5bb885957517a04e62adcb13ce22ea14dccbb600c4c158d68628ab7699762d1f89bbc2219b290b",
    "nonce": 1056,
    "r": "40624622238295099530879073159834752981587181907177102010084993273574158857495",
    "s": "35454752678915961288185038328738495134184278207226208881575766928793546729739",
    "startgas": 166396,
    "to": "0x531ac3341edfc39a04ed4c8b44ec396a46bc8690",
    "txhash": "fb2c7f0b0c8e400177beba3e116740f8e29d6473e9b43fe09147bbf13e423665",
    "v": 38,
    "value": "0"
}