{
    "data": "a9059cbb000000000000000000000000539df960d38f38db084b5bfc52f5c9e650dedbd70000000000000000000000000000000000000000000034f086f3b33b68400000",
    "gasprice": "20000000000",
    "hex": "f8ab81dd8504a817c800830186a0943635e381c67252405c1c0e550973155832d5e49080b844a9059cbb000000000000000000000000539df960d38f38db084b5bfc52f5c9e650dedbd70000000000000000000000000000000000000000000034f086f3b33b6840000025a06834b5c3b0153d8927e32e0fc4e73d06de8c79cf801b07cc1b0f8b35f1a91f9ca0130f12299617970791e2fc411fa1dd8675581869541054dee852888366a6da1d",
    "nonce": 221,
    "r": "47133666791850250679138005249310341798253204711536187893081285350387104685980",
    "s": "8620572181652340824011014641641721582136967992038251813953072295431983520285",
    "startgas": 100000,
    "to": "0x3635e381c67252405c1c0e550973155832d5e490",
    "txhash": "fb4004a91f57119e482c78ea493f7a249805828dfd9694e2d3b3d4dbeecfcffc",
    "v": 37,
    "value": "0"
}