{
    "data": "a9059cbb0000000000000000000000006ee3ef33621aff77c5311bb3cd73cfda402a10fd00000000000000000000000000000000000000000000000000000000058f75f8",
    "gasprice": "3000000000",
    "hex": "f8ac8301f5b084b2d05e008303d09094b64ef51c888972c908cfacf59b47c1afbc0ab8ac80b844a9059cbb0000000000000000000000006ee3ef33621aff77c5311bb3cd73cfda402a10fd00000000000000000000000000000000000000000000000000000000058f75f826a02e8869b30b84c59413e73652b7d805a9f7d02ccd18f907ea5be1aad074dc4b0ea048f1f77e27c64cd08ac40b2ed91194f9eca7b44f655c4112a26d1758ebfa6860",
    "nonce": 128432,
    "r": "21047411746050034918197972808477945098788841102266410322105843957579130882830",
    "s": "32994043373096463203537206776774833823384396699404099616237205313245612238944",
    "startgas": 250000,
    "to": "0xb64ef51c888972c908cfacf59b47c1afbc0ab8ac",
    "txhash": "fb74adb554758dd986f5f8ccebdbac79b9439f3d0cd38cdaa3dc2c8985391a24",
    "v": 38,
    "value": "0"
}