{
    "data": "",
    "gasprice": "1000000000",
    "hex": "f86b11843b9aca00825208941771365839695bebf7f14cbb2990d4c45267fd01880de0b6b3a76400008025a04416665556dba3c18bfa9f8545db3f1ad1790053ad6b408b5b67ef563b8047a0a0550f4871d28a78e418bfc220e0884b451245c2d16a0decc661c6ed227ab535ca",
    "nonce": 17,
    "r": "30796850617957289813770954571069479827875282947678673219632922573587074795424",
    "s": "38473594829932806507267237825764060958918831083468875265996386370591919519178",
    "startgas": 21000,
    "to": "0x1771365839695bebf7f14cbb2990d4c45267fd01",
    "txhash": "fbe3631ad186301dfb7a4287462b132190341a22463816c61a483abd48d6c1ca",
    "v": 37,
    "value": "1000000000000000000"
}