{
    "data": "",
    "gasprice": "100000000000",
    "hex": "f8708302809c85174876e8008303d090947ddd075adc055262e398f060a53a524b2fc38e3a880449510956898c008025a02ea39cef43a63d89a5286a1e9913e7c517ee253481cab56bc0f036a2d89b5b56a00a224eddf785e0de647950294afb7e5f68148d0d6b776f44e91c086cdddbbf68",
    "nonce": 163996,
    "r": "21095470229370794156004197885358347486820389173567641317716552047749228092246",
    "s": "4583745606465602473972555089063372941643197037900338280939892785776302997352",
    "startgas": 250000,
    "to": "0x7ddd075adc055262e398f060a53a524b2fc38e3a",
    "txhash": "fcb323036819f6e24a7cd207ec72105ba89a234c525d40b55f231db82abe1663",
    "v": 37,
    "value": "308867150000000000"
}