{
    "data": "095ea7b30000000000000000000000008da0d80f5007ef1e431dd2127178d224e32c2ef40000000000000000000000000000000000000000000000000000000000000000",
    "gasprice": "1000000000",
    "hex": "f8a939843b9aca0083024af594e94327d07fc17907b4db788e5adf2ed424addff680b844095ea7b30000000000000000000000008da0d80f5007ef1e431dd2127178d224e32c2ef4000000000000000000000000000000000000000000000000000000000000000026a076e257c46f73c1a5dae768c8cad6ad46620ba0f82b851ca7042c7698e4fca566a05e7f6384eeb0695fcca57061608a67ff70b0f85ada32aaf81005e900a9a2f5bc",
    "nonce": 57,
    "r": "53772829317284350038477652492600714298271437386418742823309391476954033333606",
    "s": "42742484200792084594124925685164407193262733595747588009483401546712383419836",
    "startgas": 150261,
    "to": "0xe94327d07fc17907b4db788e5adf2ed424addff6",
    "txhash": "fce4d6854af6a5100ab574a150c72bfb93d57db21951cc8a955e6d08db7a0ff6",
    "v": 38,
    "value": "0"
}