{
    "data": "095ea7b30000000000000000000000008d12a197cb00d4747a1fe03395095ce2a5cc681900000000000000000000000000000000000000000000000ff011d2523cd80000",
    "gasprice": "3000000000",
    "hex": "f8ab82020d84b2d05e008303d09094c27a2f05fa577a83ba0fdb4c38443c071835650180b844095ea7b30000000000000000000000008d12a197cb00d4747a1fe03395095ce2a5cc681900000000000000000000000000000000000000000000000ff011d2523cd8000025a02bc6c8de4e857476c382d4c92a5943af1781c78322bbf3fdee4a53363ee351d6a01ee2a6083378018ffb883da5cf5a84ab8c8fb681d025137c622f3976977fa468",
    "nonce": 525,
    "r": "19800674550553351944493399868806068682811429281153257816780469222733573738966",
    "s": "13969838805131341603026579059182753869605520561250066358534580633732984579176",
    "startgas": 250000,
    "to": "0xc27a2f05fa577a83ba0fdb4c38443c0718356501",
    "txhash": "fd015dd987399174a22f52346d1cded15bd943ba818d595c1ee36fc531e10669",
    "v": 37,
    "value": "0"
}