{
    "data": "",
    "gasprice": "20000000000",
    "hex": "f870832e777a8504a817c80083015f90944cef103eedad782c2fe0fbd4337467d43a3a2299880176d5cd870440008026a01b5af6f54c2260813b8aab999117864078104e7003f5e4bf177445ddab5b9b06a01b5dc35df007591d2b72a24a72a6ebacbf3371009a0e58a1d42aadf7b27e32a5",
    "nonce": 3045242,
    "r": "12373167590384367039146614679662211777904166348473720339490504066918162078470",
    "s": "12378112061863219267695312651598027486280666245626245711400970906868834513573",
    "startgas": 90000,
    "to": "0x4cef103eedad782c2fe0fbd4337467d43a3a2299",
    "txhash": "fd19c1ec86b02b9ee0f9901f534cd622ed64b8076ffe97612fe4e112c12b379e",
    "v": 38,
    "value": "105506720000000000"
}