{
    "data": "bfcece9f000000000000000000000000000000000000000000000000000000000000140b0000000000000000000000000000000000000000000000000000000000000004000000000000000000000000000000000000000000000000000000000000000200000000000000000000000000000000000000000000000000000000000000040000000000000000000000000000000000000000000000000000000000000007",
    "gasprice": "1000000000",
    "hex": "f901128201a6843b9aca00830493e094caef67f72114b4d2b4f43e7407455285b7de8de587038d7ea4c68000b8a4bfcece9f000000000000000000000000000000000000000000000000000000000000140b000000000000000000000000000000000000000000000000000000000000000400000000000000000000000000000000000000000000000000000000000000020000000000000000000000000000000000000000000000000000000000000004000000000000000000000000000000000000000000000000000000000000000725a07b1f73775616666d4390cf4d703981495e13f73e2e143a999968f56371da9808a02c7cd93c1848cb430f5d93af04c4480c8483243874443002b8500959d5d684b8",
    "nonce": 422,
    "r": "55690049552879501942000137992371223903995210163557149432190636366850026018824",
    "s": "20122353672807735038117569811104455758869329798477440502870456071401292334264",
    "startgas": 300000,
    "to": "0xcaef67f72114b4d2b4f43e7407455285b7de8de5",
    "txhash": "fd2314e5999525943e05a3573a1b50b62d984273b686cdb897a9d93736db208c",
    "v": 37,
    "value": "1000000000000000"
}