{
    "data": "",
    "gasprice": "40000000000",
    "hex": "f86d808509502f900083015f9094e49a5b735780c4f6949df5bbaa14a650de47d01b88018fccee666920008026a0d780fa3d3e70c88892e6f8e67e6ad8a95aa01a5d428f27550f5fd954b5733db5a01b56b9dda7d1ea55a221f19fa946324f66f3bdd9e9047cf021a4b2321f3a7cad",
    "nonce": 0,
    "r": "97475145957413109487539502171279473939249151012753458359772462431343184395701",
    "s": "12365678558215010115816552883418630557642888711516748330637448336980882128045",
    "startgas": 90000,
    "to": "0xe49a5b735780c4f6949df5bbaa14a650de47d01b",
    "txhash": "fdad2b2d973be69099d9efe8c0be6703c8014afc1f10db280a48ec4d7d3fd4ef",
    "v": 38,
    "value": "112533840000000000"
}