{
    "data": "a9b1d507",
    "gasprice": "2200000000",
    "hex": "f86b830c8d35848321560083036ee894a3c1e324ca1ce40db73ed6026c4a177f099b57708084a9b1d50725a00626dd67553c00b09ae6fdf4b3d44d19e9ee254a887f59fd73112441a0722942a06b384f8516065733532d3f791a9c501aa1583c06b2cfe45385070f6483f27e11",
    "nonce": 822581,
    "r": "2782545351754552834632310238193229533926661125523746543614106939817580439874",
    "s": "48496967059990875063302416760180484410688887161570369788775060941916395961873",
    "startgas": 225000,
    "to": "0xa3c1e324ca1ce40db73ed6026c4a177f099b5770",
    "txhash": "fe92e26adaa534d98983d09fcf78ae97cd6840e43b96f76c550e60c0726a21f4",
    "v": 37,
    "value": "0"
}