{
    "data": "278b8c0e00000000000000000000000000000000000000000000000000000000000000000000000000000000000000000000000000000000000000000e7ae6c596a48000000000000000000000000000226bb599a12c826476e3a771454697ea52e9e22000000000000000000000000000000000000000000000000000000006fc23ac0000000000000000000000000000000000000000000000000000000000004cd233000000000000000000000000000000000000000000000000000000006cd1264a000000000000000000000000000000000000000000000000000000000000001c7a53223368631d6aab80c9aa14cfb184141d5cdda54e4255144dc66f5e2e3461675b9a12f53376de3c46d81ef68161e360c7c264f33baa778a448f556addc42f",
    "gasprice": "1000000000",
    "hex": "f9018a6d843b9aca008303d090948d12a197cb00d4747a1fe03395095ce2a5cc681980b90124278b8c0e00000000000000000000000000000000000000000000000000000000000000000000000000000000000000000000000000000000000000000e7ae6c596a48000000000000000000000000000226bb599a12c826476e3a771454697ea52e9e22000000000000000000000000000000000000000000000000000000006fc23ac0000000000000000000000000000000000000000000000000000000000004cd233000000000000000000000000000000000000000000000000000000006cd1264a000000000000000000000000000000000000000000000000000000000000001c7a53223368631d6aab80c9aa14cfb184141d5cdda54e4255144dc66f5e2e3461675b9a12f53376de3c46d81ef68161e360c7c264f33baa778a448f556addc42f25a09e779a4a3ceedbb42c3003d42623fdb48b20943e9ae31f43e2a23e498d28c30aa073efb19f1e20bcc1dd5e205cb22b64a83b7a15466e7612cb16fa67ae91e175e1",
    "nonce": 109,
    "r": "71676749747255174285843763300137598323830158044972543544563014763825412489994",
    "s": "52439479934465406632220950449369172201144560311664017794341809653935432103393",
    "startgas": 250000,
    "to": "0x8d12a197cb00d4747a1fe03395095ce2a5cc6819",
    "txhash": "fedd064f5f48c7995afc08fdb24930d81f8344fc8f1f5aef7c2b30ca7ab564f1",
    "v": 37,
    "value": "0"
}