{
    "data": "",
    "gasprice": "100000000000",
    "hex": "f86f8302809e85174876e8008303d09094d190be0d1b62bd4af857479e3493c4dfe67bd67b87f6cb8384ccf4008025a0b5236969543c16d6b97355ab69b0f1877b3fdec104aaa911f6e31d2201ea0809a05d4085264fca05fd4f085863d57008b38d9c1fd625487b838df97a74e51a0195",
    "nonce": 163998,
    "r": "81931192763870224576124548005603984872557985773810559657749276045017241749513",
    "s": "42179092095534465859216091641698145875338369496394932316119956838939163754901",
    "startgas": 250000,
    "to": "0xd190be0d1b62bd4af857479e3493c4dfe67bd67b",
    "txhash": "ff57436326fd0f87b6bebbe6565f1a1b6b3543d9fee7289366f2e8526b34b208",
    "v": 37,
    "value": "69466610000000000"
}