{
    "data": "",
    "gasprice": "40000000000",
    "hex": "f86d808509502f900083015f90949cd585ab9a54f71f6a48dd4e7a12d694ec7d0500880329a9d7b04fc0008025a047a3e231404d7cee04f9c97427ca4ca9e942c4bd3f8383dd4c57e0c8110da9f8a049c9f373286c8dd463f3bb2e026c66dcd8133448a31a2c9234621865314fd8ce",
    "nonce": 0,
    "r": "32403769443454414961931201910695167238773027978342764730590279518595624839672",
    "s": "33375654435612186632073415719582096478533621276498166034449913653842932652238",
    "startgas": 90000,
    "to": "0x9cd585ab9a54f71f6a48dd4e7a12d694ec7d0500",
    "txhash": "ff5ebd53d6f9ee217dcfb1c1ea2d10b8fe523e0a11af2f048a166e66046cdaa3",
    "v": 37,
    "value": "227900000000000000"
}