{
    "data": "a9059cbb00000000000000000000000048d8ad7a659d07ce88addafd7d5beeb74cc00bed00000000000000000000000000000000000000000000000dc45c26f7de03dec0",
    "gasprice": "1000000000",
    "hex": "f8a83f843b9aca0082cc7a9445245bc59219eeaaf6cd3f382e078a461ff9de7b80b844a9059cbb00000000000000000000000048d8ad7a659d07ce88addafd7d5beeb74cc00bed00000000000000000000000000000000000000000000000dc45c26f7de03dec025a0692bddf3ed5478d9dc9e4df39164d4bcf94e956d4b554a50d755f6ce070eb227a0799532361565b16e451f3e2f674a716af33ea333ba068f79cab76a2881164628",
    "nonce": 63,
    "r": "47570355387231885058831344892075646912163378015723262608857007517971677884967",
    "s": "54993461436635064047926009020930233672462303194625280967518014685501938091560",
    "startgas": 52346,
    "to": "0x45245bc59219eeaaf6cd3f382e078a461ff9de7b",
    "txhash": "ffd1c998e2a67e24e862103625a3d68a14098b80792aca348646c47bc9225c71",
    "v": 37,
    "value": "0"
}