{
    "data": "",
    "gasprice": "51900000000",
    "hex": "f87083111dc2850c157b270083030d4094899148424892627384ceea221391a2387741c3348811891cc453d880008026a037cca7670347baac3d8f0fd13859aa699763b416352b3ed98ac6c6e03ff77d01a071cf2c9daee5a856c8350e21c81ee6e3f939d1e0bd223f5b8b925be6662a326c",
    "nonce": 1121730,
    "r": "25238798842154307056981493826309178331862191733054977830280585515839350340865",
    "s": "51477397160287927366433309270740057471392875258659881595451081157905132171884",
    "startgas": 200000,
    "to": "0x899148424892627384ceea221391a2387741c334",
    "txhash": "ffeee156e826e05a486a280cf2e480b789580f41d502ed1365aa56c7d61ef640",
    "v": 38,
    "value": "1263572800000000000"
}